:100000002DC047C0ABC011C80BC9D9C842C0DDC69E
:1000100001C83FC03EC03DC03CC03BC024C939C040
:1000200038C037C036C035C034C074C632C031C0E5
:1000300030C02FC01DC529C53EC553C56FC58BC572
:10004000A0C5B4C5E680038262A6A3C62C94ABC249
:1000500081CAF7C4709800C800E0838211241FBED3
:10006000CFEFD4E0DEBFCDBF11E0A0E0B1E0E2E42D
:10007000FFE102C005900D92A034B107D9F711E05D
:10008000A0E4B1E001C01D92A03EB107E1F77BD32F
:1000900056CFB6CF80917C0190917D0168EC70E0E5
:1000A00016DF709347016093460180917E01909125
:1000B0007F0168EC70E00BDF7093490160934801A9
:1000C000809184019091850168EC70E000DF70936D
:1000D0004B0160934A01209146013091470184E031
:1000E000821B80938F0180914801909149018093F8
:1000F0008E0180914A0190914B018093390180914A
:100100004601909147019093410180934001809175
:10011000480190914901909343018093420180915D
:100120004A0190914B0190934501809344010895B9
:100130001092C50083E38093C40088E98093C100D6
:1001400086E08093C2005098519A0895982F80912C
:10015000C00085FFFCCF9093C60008951F920F92B8
:100160000FB60F9211242F933F934F935F936F938A
:100170007F938F939F93AF93BF93EF93FF93189BBE
:1001800019C04F9B17C080913A01882399F0809144
:100190005401882319F483E065E002C083E060E045
:1001A00058D447D58091540190E0882309F491E018
:1001B00090935401FF91EF91BF91AF919F918F91D7
:1001C0007F916F915F914F913F912F910F900FBE53
:1001D0000F901F901895EF92FF920F931F93DF934C
:1001E000CF9300D000D000D0CDB7DEB780913001E2
:1001F000813021F080913001882301F580913C010C
:10020000898380913D018A8380913E018B83809117
:100210003F018C8381E08D839091300180918E012C
:10022000880F880F9F5F892B8E8386E060E0AE0188
:100230004F5F5F4F24DD82E0809330018091A80101
:100240008823F9F080913C01898380913D018A8364
:1002500080913E018B8380913F018C838091A80126
:10026000823011F484E001C083E08D83809100012D
:100270008E8386E060E0AE014F5F5F4F00DD10923D
:10028000A8018091AA01882359F180913C018983BA
:1002900080913D018A8380913E018B8380913F0153
:1002A0008C8392E09D838091AA01813011F48E832A
:1002B00001C09E8300E010E07E010894E11CF11C67
:1002C00004C086E060E0A701DADC98018091AA0111
:1002D0000F5F1F4F90E0281739079CF31092AA0177
:1002E00026960FB6F894DEBF0FBECDBFCF91DF913B
:1002F0001F910F91FF90EF90089580917C01909154
:100300007D0120914C0130914D01821B930B909304
:10031000560180935501809155019091560197FFA8
:100320000BC08091550190915601909581959F4FFA
:1003300090935601809355012091460130914701D9
:1003400080914001909141012817390729F180914E
:10035000550190915601C397FCF080914601909110
:1003600047018F5F809300016091000186E041E0CA
:10037000AED48091460190914701909341018093C2
:10038000400180917C0190917D0190934D0180937B
:100390004C0181E08093A80180917E0190917F01C2
:1003A00020914E0130914F01821B930B9093560187
:1003B00080935501809155019091560197FF0BC094
:1003C0008091550190915601909581959F4F909302
:1003D0005601809355012091480130914901809147
:1003E0004201909143012817390741F1809155014D
:1003F00090915601C39714F1209148013091490121
:1004000086E0982F921B90932D0120914801309106
:10041000490160910001821B41E059D4809148015B
:1004200090914901909343018093420180917E0114
:1004300090917F0190934F0180934E0180918401B0
:10044000909185012091500130915101821B930BB5
:1004500090935601809355018091550190915601DA
:1004600097FF0BC080915501909156019095819511
:100470009F4F909356018093550120914A013091EE
:100480004B0180914401909145012817390721F1D2
:100490008091550190915601C397F4F020914A0143
:1004A00030914B0186E0821B80930101AFD26091B5
:1004B000000186E041E00BD480914A0190914B010C
:1004C000909345018093440180918401909185012E
:1004D0009093510180935001089580917C019091F7
:1004E0007D0120914C0130914D01821B930B909323
:1004F000560180935501809155019091560197FFC7
:100500000BC08091550190915601909581959F4F18
:1005100090935601809355012091460130914701F7
:1005200080914001909141012817390731F0809165
:10053000550190915601C39724F48091A90181300F
:1005400049F58091A901813019F41092A90118C0D0
:10055000209146013091470184E0821B80938F01F6
:100560008091460190914701909341018093400111
:1005700080917C0190917D0190934D0180934C017D
:1005800080918F01609100018E5F41E0A0D384E6ED
:1005900090E09BD480917E0190917F0120914E014B
:1005A00030914F01821B930B90935601809355011C
:1005B000809155019091560197FF0BC08091550194
:1005C00090915601909581959F4F909356018093FD
:1005D000550120914801309149018091420190914B
:1005E00043012817390731F0809155019091560148
:1005F000C39724F48091A901823041F58091A9012B
:10060000823019F41092A90116C08091480190918E
:10061000490180938E018091480190914901909306
:1006200043018093420180917E0190917F019093DC
:100630004F0180934E0190918E016091000186E000
:10064000891B41E044D384E690E03FD4809184014B
:10065000909185012091500130915101821B930BA3
:1006600090935601809355018091550190915601C8
:1006700097FF0BC0809155019091560190958195FF
:100680009F4F909356018093550120914A013091DC
:100690004B0180914401909145012817390731F0B1
:1006A0008091550190915601C39724F48091A9013E
:1006B000833039F58091A901833019F41092A90192
:1006C00016C080914A0190914B018093390180912D
:1006D0008401909185019093510180935001809104
:1006E0004A0190914B019093450180934401809180
:1006F0003901609100018F5F41E0E9D284E690E02A
:10070000E4D3089580E090E012DC8093000188E05B
:1007100090E00DDC8093010180E190E008DC8093A3
:100720002D0188E190E003DC80933D0180E290E0C0
:10073000FEDB80933E0188E290E0F9DB80933F018D
:1007400080910001873020F480910001882319F402
:1007500081E08093000180910101873020F4809135
:100760000101882319F486E0809301014FD1809123
:100770002D01873020F480912D01882319F481E028
:1007800080932D0108951F9365D4BCDF06D377D2E3
:1007900076D33ADACDDC88EE93E028EC30E0F9014C
:1007A0003197F1F70197D9F7789474DC84EF91E0F1
:1007B00090933201809331018FEF9FE1BDD88091FA
:1007C0003B01882309F4F3C080919201882309F04A
:1007D000EEC010923B01D5D961D880913A018823AF
:1007E00071F320919201213009F043C080919B0167
:1007F00090919C018C52914080F580919B01909149
:100800009C010A9711F42093AA0180919D018630E2
:1008100098F486E061E041E05AD286E061E019D1C7
:1008200087E061E016D188E061E013D102D28AE569
:1008300062E8EBD381E00FC086E062E041E047D29E
:1008400086E062E006D187E061E003D188E061E004
:1008500000D1EFD180E020D31FC080919B01909107
:100860009C018C529140C1F480E016D3FCD1E1D1BF
:1008700013C010919201123079F410929C011092E1
:100880009B0180E009D3EFD1D4D188E060E0E1D0D2
:100890001093AA011092920180913A01853019F5C6
:1008A00080917C0190917D0166E970E010DB70938E
:1008B00047016093460180917E0190917F0168EC31
:1008C00070E005DB709349016093480180918401D9
:1008D0009091850168EC70E0FADA70934B016093B7
:1008E0004A010BDD22C080917C0190917D0168EC72
:1008F00070E0EDDA709347016093460180917E01CC
:1009000090917F0168EC70E0E2DA709349016093A6
:100910004801809184019091850168EC70E0D7DAFC
:1009200070934B0160934A01D8DD2091DB01822F47
:1009300090E0880F991FFC0163E0EE0FFF1F6A959E
:10094000E1F7E81BF90BE654FE4F8081823059F540
:10095000822F90E0880F991FDC0143E0AA0FBB1F94
:100960004A95E1F7A81BB90BA254BE4FB0935301AF
:10097000A09352019C918091C00085FFFCCF909381
:10098000C600822F90E0880F991FFC0123E0EE0F34
:10099000FF1F2A95E1F7E81BF90BE654FE4FCD0146
:1009A000618188D91BD9E7D716DCBED808CFD2D74A
:1009B00014CF882309F180918800909189008F3F9E
:1009C000910519F55D9A80E991E028EC30E0F90194
:1009D0003197F1F70197D9F720910201253608F0F8
:1009E00024E6209302018FEF90E0821B91099093FF
:1009F00089008093880008955D9840982F988FEF24
:100A000090E090938900809388000895909101016F
:100A100081E1989F202D1124253608F024E62093AB
:100A200002018FEF90E0821B9109909389008093DF
:100A300088000895282F853608F024E620930201C7
:100A40008FEF90E0821B910990938900809388003A
:100A50000895482F873008F0C6C0E62FF0E0E83050
:100A6000F10508F0DEC0E65EFF4F282F30E0099464
:100A70002C5F3E4FF9018081A3E2B0E0FD01E81B4D
:100A8000F109E85AFE4F10820DC02C5F3E4FF9016C
:100A90008081A3E2B0E0FD01E81BF109E85AFE4FB6
:100AA00081E08083F9018085FD01E81BF109E85AA6
:100AB000FE4F108248C02C5F3E4FF9018081A3E2B7
:100AC000B0E0FD01E81BF109E85AFE4F1082F90180
:100AD0008085FD01E81BF109E85AFE4F81E0808323
:100AE00032C02C5F3E4FF9018081A3E2B0E0FD01EE
:100AF000E81BF109E85AFE4F1082F9018085FD01DB
:100B0000E81BF109E85AFE4F1082F9018089A81B01
:100B1000B109A85ABE4F81E08C9383C02C5F3E4F31
:100B2000F9018081A3E2B0E0FD01E81BF109E85A78
:100B3000FE4F91E09083F9018085FD01E81BF109EA
:100B4000E85AFE4F9083F9018089A81BB109A85A81
:100B5000BE4F1C9266C02C5F3E4FF9018081A3E21C
:100B6000B0E0FD01E81BF109E85AFE4F91E09083E7
:100B7000F9018085FD01E81BF109E85AFE4F10825A
:100B80002AC02C5F3E4FF9018081A3E2B0E0FD0155
:100B9000E81BF109E85AFE4F1082F9018085FD013A
:100BA000E81BF109E85AFE4F91E014C02C5F3E4F5C
:100BB000F9018081A3E2B0E0FD01E81BF109E85AE8
:100BC000FE4F91E09083F9018085FD01E81BF1095A
:100BD000E85AFE4F9083F9018089A81BB109A85AF1
:100BE000BE4F9C931EC0873049F4662321F081E0FC
:100BF000809367010895109267010895883049F441
:100C0000662321F081E080936901089510926901C3
:100C10000895893069F4662311F0409A0895409848
:100C20000895463029F4662311F02F9A08952F98DD
:100C3000089520E030E0F901E85AFE4F80818130CC
:100C400011F42E9A01C02E985C9A5C982F5F3F4F4A
:100C50002432310581F7449A449881E0AADE81E08C
:100C600080935701089580E090E0FC01E85AFE4F20
:100C70001082019684329105C1F7DBDF0895559A01
:100C80005D9A80E991E028EC30E0F9013197F1F7C5
:100C90000197D9F7269A219A549A3C9A809180001C
:100CA00089688093800080918100836080938100B7
:100CB000DADF389A279A08951F9310E0812F60E0B9
:100CC000C8DE1F5F1630D1F7B4DF1F910895DF92A1
:100CD000EF92FF920F931F93182FF62EE42EECDF66
:100CE000012F173008F006E010E085E0D82E09C08B
:100CF000EE2019F08D2D811B01C0812F6F2DA9DEF3
:100D00001F5F1017A8F395DF1F910F91FF90EF90D1
:100D1000DF9008951F920F920FB60F9211248F93B8
:100D20009F93EF93FF93E0918C01FF27E7FDF095F0
:100D30008091780090917900EE0FFF1FE458FE4FEC
:100D40009183808380918C018F5F80938C0180914F
:100D50008C01853014F010928C0180917C00807F92
:100D600080937C0090917C00E0918C01FF27E7FD4F
:100D7000F095E45EFE4F8081892B80937C0080910A
:100D80007A00806480937A00FF91EF919F918F9118
:100D90000F900FBE0F901F901895ECE7F0E0808148
:100DA00080648083EAE7F0E080818F688083AEE72B
:100DB000B0E08C9186628C938081806480830895FA
:100DC00010927A0010927E0008951F920F920FB633
:100DD0000F9211242F933F934F935F936F937F93C1
:100DE0008F939F93AF93BF93DF93CF9300D0CDB7F3
:100DF000DEB780912E01869590E09A8389832981C0
:100E00003A8180912F0190E0AC01429FC001439F45
:100E1000900D529F900D11249A83898389819A8124
:100E200064E670E054D87A8369832091B3008981A5
:100E30009A812091B30089819A81280F2093B40070
:100E40008091B30020912E019091B30080912E01EA
:100E5000890F8093B3005E9A0F900F90CF91DF912E
:100E6000BF91AF919F918F917F916F915F914F91C2
:100E70003F912F910F900FBE0F901F901895569A8B
:100E8000E0E7F0E080818660808381E08093B300BA
:100E900082E08093B4000895181634F48091B10074
:100EA00084608093B1000895882371F48091B1002B
:100EB0008B7F8093B1005E981092B20081E08093A6
:100EC000B30082E08093B4000895CF93DF93EC01E8
:100ED00080912D01823030F08091900190919101AC
:100EE000892B21F480918F018F3F01F58091920130
:100EF0008823E1F41FC0E0918E01F0E0EA5DFE4F2F
:100F0000808180932E01E0918F01FF27E7FDF0950E
:100F1000EF5DFE4F808180932F0181E0BDDFCE0128
:100F200062E370E0E8D760938D0104C080918D0189
:100F3000882309F3DF91CF910895CF93DF93EC01DC
:100F400080912D01823030F080919001909191013B
:100F5000892B21F480918F018F3F51F5809192016F
:100F6000882331F529C080918E01882331F4E091E6
:100F70008E01F0E0E95DFE4F05C0E0918E01F0E0EA
:100F8000EB5DFE4F808180932E01E0918F01FF2762
:100F9000E7FDF095EF5DFE4F808180932F0181E0AA
:100FA0007BDFCE0162E370E0A6D760938D0104C0C1
:100FB00080918D018823B9F2DF91CF910895CF936D
:100FC000DF93EC0180912D01823030F0809190010F
:100FD00090919101892B21F480918F018F3F71F4C1
:100FE00080919201882351F40DC081E055DFCE013C
:100FF00062E370E080D760938D0104C080918D0121
:10100000882399F3DF91CF91089580932F01609306
:101010002E0108951F920F920FB60F9211245E9821
:101020000F900FBE0F901F9018951F920F920FB642
:101030000F9211248F93189907C0809193018823F0
:1010400019F481E0809393018F910F900FBE0F9060
:101050001F9018952098289A3B98439A8AB18377D5
:101060008AB98BB18C688BB9E8E6F0E08081876043
:101070008083EBE6F0E0808181608083ECE6F0E045
:10108000808188608083EDE6F0E0808184688083E1
:1010900084B5826084BD85B5856085BDEEE6F0E0EF
:1010A0008081826080838FEF87BD089580913A01AF
:1010B000882309F483C080913A01853009F47EC009
:1010C0004F9B7CC0189B7AC071C04A9904C0809124
:1010D000A3018093A40126B189B126952695269572
:1010E00090E0969587959695879541E050E0842706
:1010F0009527282720FF0CC086B190E023E0969525
:1011000087952A95E1F78427952781708093A3011D
:101110008091A501E0913901F0E0ED5CFE4F9081F6
:101120009817D8F51092A50180913A01833009F4FF
:1011300040C080913A018430E1F18091A001882380
:10114000C1F58091A4018093990181E08093A00171
:1011500008C080913A01843041F48091A4018093C9
:1011600099018091A4018093300180919901882395
:1011700021F082E390E0A9DE03C082E390E0DDDEAF
:101180006091000186E065DC87E061E062DC51DDB2
:10119000109232011092310105C08091A5018F5F3C
:1011A0008093A50185E38A95F1F70895339B93CF4A
:1011B0008CCF80913A01833061F6CFCF08951F9292
:1011C0000F920FB60F9211242F933F934F935F937B
:1011D0006F937F938F939F93AF93BF93EF93FF93FF
:1011E0004F990CC080919401882341F48091930120
:1011F000882321F481E08093940101C057DFFF919F
:10120000EF91BF91AF919F918F917F916F915F917E
:101210004F913F912F910F900FBE0F901F901895F7
:101220001F920F920FB60F9211242F933F934F935B
:101230005F936F937F938F939F93AF93BF93EF933E
:10124000FF9334DFFF91EF91BF91AF919F918F9109
:101250007F916F915F914F913F912F910F900FBEB2
:101260000F901F9018951F920F920FB60F92112496
:101270001F932F933F934F935F936F937F938F931E
:101280009F93AF93BF93CF93DF93EF93FF9381E04F
:101290008093A20180913A01882309F47EC2809153
:1012A000A601882329F480912D01823008F467C2B9
:1012B00089E061E0CEDB80918D01882389F0809107
:1012C00095018F5F809395019091950180918D019B
:1012D000891730F480E0E0DD1092950110928D01C5
:1012E000809192018130E1F480919B0190919C0169
:1012F0008653914048F480919B0190919C01019606
:1013000090939C0180939B0180919D018A3030F4E1
:1013100080919D018F5F80939D0102C010929D017D
:1013200080913A01882309F4DDC180912D0182303A
:1013300000F18091900190919101892BD1F08091E1
:101340009001909191010196909391018093900169
:10135000409190015091910180912D0128EC829F44
:10136000C00111248417950720F410929101109266
:1013700090018091A001882381F18091A0018F5F6D
:101380008093A0018091A001833038F18091A10168
:10139000863018F591DC80919901882329F4809199
:1013A000A1016091000106C09091A101609100012E
:1013B00085E0891B4EDB3DDC8091A1018F5F80932E
:1013C000A1018091A101863029F41092A001109210
:1013D000A10103C081E08093A001809180019091E0
:1013E00081018152934048F080919F01883228F416
:1013F00080919F018F5F80939F01809180019091E8
:1014000081018059914048F480919F01882329F0FF
:1014100080919F01815080939F0180912D018230A6
:10142000B8F080919F01853198F080919E018823CA
:1014300079F48091900190919101892B49F481E098
:1014400090E0909391018093900181E080939E01C0
:1014500080912D01823050F080919F018A3030F4CC
:1014600080919E01813011F410929E018091310192
:101470009091320180599140B0F580913101909165
:10148000320101969093320180933101809199014C
:10149000882309F580919701909198010196909386
:1014A00098018093970180919701909198010797F7
:1014B00090F0809131019091320180FD04C06091E3
:1014C000000186E002C086E060E0C3DAB2DB109281
:1014D00098011092970180913101909132018059C9
:1014E0009140A9F411C08091A601882381F48091D4
:1014F0005701882361F0809157018F5F80935701D6
:1015000080915701873918F010925701ACDB809118
:101510003A01823021F080913A01843061F5809166
:10152000820190918301059740F480919601823366
:1015300098F4809196018F5F0DC080919601882369
:1015400059F080918201909183010B9728F080914E
:101550009601815080939601809196018F3118F009
:1015600088E061E006C080919601882319F488E044
:1015700060E06FDA5EDB8091A601882309F402C186
:1015800080918001909181018059914008F0FAC0CA
:1015900081E00CC080918001909181018152934043
:1015A00038F080919201813019F482E080939201A9
:1015B00080919301882309F495C0189954C08091B3
:1015C0009301883228F4809193018F5F8093930177
:1015D000809193018F3108F485C08091A60190E03D
:1015E000882309F491E09093A6018091A6018823B5
:1015F00019F186E061E02DDA1CDB88EB9BE028EC3A
:1016000030E0F9013197F1F70197D9F786E062E010
:1016100020DA0FDB88EB9BE028EC30E0F901319712
:10162000F1F70197D9F786E060E013DA02DB109258
:101630009C0110929B0154C086E063E00ADAF9DA5B
:1016400088EB9BE028EC30E0F9013197F1F7019746
:10165000D9F786E060E0FDD9ECDA82E08093AA0158
:10166000809392013DC080919301882309F43AC090
:10167000809193018F30B0F580913A01843020F44D
:1016800080913A018F5F01C081E080933A0180919F
:101690003A01823021F080913A018430D1F488E01F
:1016A00061E0D7D9C6DA8CED95E028EC30E0F9019D
:1016B0003197F1F70197D9F788E060E0CAD9B9DA34
:1016C0008CED95E028EC30E0F9013197F1F70197C6
:1016D000D9F784EF91E09093320180933101C3DA1E
:1016E000109293014F9954C080919401882309F47A
:1016F0004FC080919301882309F04AC080919401E2
:10170000883228F4809194018F5F809394018091B6
:1017100094018F3158F111E0C8ECD0E060910001E4
:10172000812F40E0D4DA84EF91E0FE013197F1F7A8
:101730000197D9F71F5F173089F716E0C8ECD0E0A2
:1017400060910001812F40E0C2DA84EF91E0FE0158
:101750003197F1F70197D9F7115091F71092940151
:1017600081E080933B0102C010929401809193012B
:10177000882399F0189B11C0109293010EC089E044
:1017800060E098CD8091A601882309F411CF02CFA3
:1017900080919401882341F7E9CFFF91EF91DF9188
:1017A000CF91BF91AF919F918F917F916F915F91F9
:1017B0004F913F912F911F910F900FBE0F901F904F
:1017C00018951F93CF93DF93E99883B78E7F83BFDC
:1017D00080E197E228EC30E0F9013197F1F70197C9
:1017E000D9F781E080933A014F9B03C080933B017E
:1017F00051C0D3DA85B5856085BD80918000896848
:10180000809380008091810083608093810018998B
:1018100007C085E080933A0188EE93E056DB2BC049
:1018200011E0C8ECD0E060910001812F41E04FDA77
:1018300084EF91E0FE013197F1F70197D9F71F5F2F
:10184000173089F716E0C8ECD0E060910001812FD5
:1018500041E03DDA84EF91E0FE013197F1F7019725
:10186000D9F7115091F760918E018FE0CEDB80E9BE
:1018700091E0A5DB21DA4F9BFECF189BFCCF809136
:101880006800876080936800809169008860809319
:101890006900E99ADF91CF911F910895F89480ED46
:1018A00097E028EC30E0F9013197F1F70197D9F78B
:1018B000DAD915BC1092680080E0EEDA10923A0195
:1018C00080916900837F80936900E99A1092A60154
:1018D0001092A70175DA80E06CD810928000109207
:1018E000810029982E9880E29EE40197F1F783B752
:1018F000856083BF7894889564DF08952A989EBD9B
:101900000DB407FEFDCF8EBD0DB407FEFDCF2A9AA4
:1019100008952A989EBD0DB407FEFDCF3EB58EBD3D
:101920000DB407FEFDCF2EB5932F80E02A9A30E04C
:10193000282B392BC9010895906EE0DF8091DC01DE
:101940009091DD018D7FDADF8091DC019091DD01E6
:10195000D5DF08958091D601833061F41092D601CD
:101960008091DC019091DD0180689093DD0180938E
:10197000DC01C4DF0895CF92DF92EF92FF920F93C4
:101980001F930091DF01EE24E394A2E0CA2EFEE053
:10199000DF2EE19A2A981EBC0DB407FEFDCF2A9ACD
:1019A0001EB514FD02C0FF2404C0E092DE01FF2436
:1019B000F394812F807959F08091DC019091DD01C1
:1019C0008D7F9CDF8091DC019091DD0197DF17FF17
:1019D0009FC01091D6011130C9F1113038F012308A
:1019E00009F46BC0133009F08AC086C0E092D901B7
:1019F00080E090EB8EDF082F0D5F0093D80103503D
:101A00002091DA01822F90E0880F991FFC0173E08A
:101A1000EE0FFF1F7A95E1F7E81BF90BE654FE4F36
:101A20008081882309F06BC0E092D601822F90E07C
:101A3000880F991FFC0153E0EE0FFF1F5A95E1F745
:101A4000E81BF90BE654FE4F0183A3CF80E090EB37
:101A500060DF282F9091D9018091D8019817C0F4A8
:101A600002279D3058F4E091DA01ED9DF001112438
:101A70003196E90FF11DE654FE4F20838091D90184
:101A8000823011F40F3FD9F58F5F8093D90181CF58
:101A90008091DA01282F30E0220F331FF90193E003
:101AA000EE0FFF1F9A95E1F7E21BF30BE654FE4F92
:101AB000C08281278093DA0122C02091D9018091D0
:101AC000D801281758F4E22FF0E0E555FE4F808149
:101AD00090E02F5F2093D901986B18C01092D70126
:101AE0008091DC019091DD018F7D836892689093F5
:101AF000DD018093DC0102DF8AEA98EBFFDE1092C1
:101B0000D60181E89AECFADE83E89AECF7DE41CF61
:101B1000FF2009F03ECF0093DF011F910F91FF904E
:101B2000EF90DF90CF9008958091D601882341F502
:101B30008091D701813021F58091DC019091DD0108
:101B40008F779093DD018093DC01D8DE8091AD0129
:101B50008A5F8093D8011092D90182E08093D601E8
:101B60008AEA98EBCBDE8AEA98EBC8DE8091DC014A
:101B70009091DD0180629093DD018093DC01BEDEF7
:101B800008958091D601833019F40895F4DECCDFF6
:101B90008091D6018823D1F78091DC019091DD01FD
:101BA0008F779093DD018093DC01A8DE83E0809342
:101BB000D6010895982F8091D701882311F083E0F2
:101BC00008956093AD019093AE016927609560938D
:101BD000AF0181E08093D70180E808952091DB0177
:101BE000822F90E0880F991FFC01B3E0EE0FFF1FDA
:101BF000BA95E1F7E81BF90BE654FE4F108281E03D
:101C000028272093DB010895CF93DF932A9A229A05
:101C1000239A259A2A9A229A249881E58CBD8DE2EE
:101C20008093AB0184ED8093AC011092DA011092A5
:101C3000DB0183E892E89093DD018093DC01C0E052
:101C4000D0E0FE01EE0FFF1FEC5BFF4F85919491FA
:101C500055DE2196CC30D105A1F7809169008860CE
:101C60008093690080E090E054DEE19A81E89AEC8C
:101C700045DE83E89AEC42DEDF91CF9108950F9321
:101C80001F93182F062F8B3010F082E010C0809128
:101C9000D701882311F083E00AC020EB31E0C901AD
:101CA000BA01412F50E03AD1802F612F83DF1F917D
:101CB0000F910895DF93CF9300D0CDB7DEB7AC017D
:101CC00019821A8220E030E070E0E2C0FA01E20FEF
:101CD000F31F80818F3F09F0D9C0C901059686178F
:101CE00097070CF0D3C08091A701882309F4D5C0D1
:101CF00084818C3009F0D1C0818180933D01828143
:101D000080933E01838180933F0186E061E0A1D60C
:101D100090D788EE93E028EC30E0F9013197F1F7A5
:101D20000197D9F786E060E094D683D788EE93E0F8
:101D300028EC30E0F9013197F1F70197D9F786E007
:101D400061E087D676D788EE93E028EC30E0F901A1
:101D50003197F1F70197D9F786E060E07AD669D735
:101D600082E08093A8011092A701ACC0928180917B
:101D70003E01981709F0A6C0938180913F01981702
:101D800009F0A0C084818B3009F46FC08D3009F454
:101D900079C08A3009F096C08581282F2F702A8358
:101DA00090E024E0959587952A95E1F789838981CC
:101DB000882309F487C08981843008F083C08A8130
:101DC000882309F47FC08A81833008F07BC0898131
:101DD0008230E1F0833089F1813009F042C08A819C
:101DE000823009F063C080918F0184300CF05EC0B6
:101DF00080918F018F5F07C080918F0187FD31C077
:101E000080918F01815080938F012BC08A81813016
:101E100009F050C080918E01853008F04BC0809150
:101E20008E018F5F07C080918E018823D1F0809151
:101E30008E01815080938E0114C08A818130F1F52A
:101E4000809139018630D0F5809139018F5F07C0CC
:101E500080913901882329F0809139018150809344
:101E6000390189818093A9012DC08581813019F4C0
:101E70008093A60127C0823029F51092A601809395
:101E8000920120C081E08093A8011CC02F5F3F4FCA
:101E9000261737070CF41ACF15C0FA01E20FF31F0B
:101EA000918180913D01981769F460CF8A818130DA
:101EB000C1F6A2CF8A818230A1F6B5CF8A81823065
:101EC00081F6C6CF0F900F90CF91DF910895AA1B96
:101ED000BB1B51E107C0AA1FBB1FA617B70710F015
:101EE000A61BB70B881F991F5A95A9F78095909547
:101EF000BC01CD01089597FB092E07260AD077FD76
:101F000004D0E5DF06D000201AF4709561957F4F6C
:101F10000895F6F7909581959F4F0895FB01DC0198
:101F200002C001900D9241505040D8F70895F999A0
:101F3000FECF92BD81BDF89A992780B50895F89497
:021F4000FFCFD1
:101F4200010664640003060B0C171B140104070A44
:101F52000D111A1402050F091610191401020506B3
:101F6200070F1E3C505A5A6E8CA0B4C8FA01645A2C
:101F720002F401080F192D3C50010101FFFEFEFE83
:00000001FF
