:1000000021C03BC02ECB95C962CA84CA36C0C4C5C4
:100010001CC633C032C031C030C02FC04DC62DC049
:100020002CC02BC02AC029C028C098C426C025C017
:1000300024C023C05AC362C372C381C396C3ADC375
:10004000BDC3D4C311241FBECFEFD4E0DEBFCDBFEC
:1000500011E0A0E0B1E0E2E1FDE102C005900D9207
:10006000A234B107D9F712E0A2E4B1E001C01D92B9
:10007000AF31B107E1F72DDD4ACEC2CF80E090E08D
:1000800030DE80931B0188E090E02BDE80931A0124
:1000900080E190E026DE8093230188E190E021DE7C
:1000A00080933E0180E290E01CDE80933F0188E275
:1000B00090E017DE8093400180911B01873020F48F
:1000C00080911B01882319F481E080931B018091AA
:1000D0001A01873020F480911A01882319F486E0F0
:1000E00080931A01A8D280912301873020F4809157
:1000F0002301882319F481E08093230108958091DE
:100100007D0190917E0128EC30E0B901BADD709359
:100110004D0160934C0180917F0190918001B90164
:10012000B0DD70934F0160934E01809185019091F5
:100130008601B901A6DD7093510160935001809151
:100140004C0190914D0194E0981B90939101809106
:100150004E0190914F0180939201809150019091B6
:1001600051018093380180914C0190914D01909301
:1001700053018093520180914E0190914F019093D1
:1001800055018093540180915001909151019093B9
:10019000570180935601089580917D0190917E01D1
:1001A0002091460130914701821B930B90934501AA
:1001B00080934401809144019091450197FF0BC0C9
:1001C0008091440190914501909581959F4F909326
:1001D00045018093440120914C0130914D01809163
:1001E0005201909153012817390761F18091440120
:1001F00090914501833391052CF180914C019091B0
:100200004D0194E0981B9093910120914C01309105
:100210004D0160911B0186E0821B41E09CD38091DF
:100220004C0190914D019093530180935201809124
:100230007D0190917E01909347018093460184E671
:1002400090E008D480917F01909180012091480135
:1002500030914901821B930B909345018093440197
:10026000809144019091450197FF0BC0809144011A
:1002700090914501909581959F4F90934501809372
:10028000440120914E0130914F0180915401909191
:1002900055012817390751F180914401909145018A
:1002A000833391051CF180914E0190914F01809311
:1002B000920120914E0130914F0160911B0186E027
:1002C000821B41E048D380914E0190914F01909361
:1002D00055018093540180917F019091800190930A
:1002E00049018093480184E690E0B4D38091850170
:1002F0009091860120914A0130914B01821B930B12
:10030000909345018093440180914401909145016F
:1003100097FF0BC080914401909145019095819584
:100320009F4F90934501809344012091500130915B
:10033000510180915601909157012817390749F1D1
:1003400080914401909145018333910514F180918E
:10035000500190915101809338018091500190910A
:10036000510160911B018F5F41E0F5D280918501C1
:100370009091860190934B0180934A0180915001A6
:1003800090915101909357018093560184E690E03B
:1003900061D3089580917D0190917E012091460165
:1003A00030914701821B930B909345018093440148
:1003B000809144019091450197FF0BC080914401C9
:1003C00090914501909581959F4F90934501809321
:1003D000440120914C0130914D0180915201909146
:1003E00053012817390731F180914401909145015B
:1003F00083339105FCF080914C0190914D018F5F0A
:1004000080931B0160911B0186E041E0A4D28091A2
:100410004C0190914D019093530180935201809132
:100420007D0190917E01909347018093460181E088
:100430008093A90180917F019091800120914801D2
:1004400030914901821B930B9093450180934401A5
:10045000809144019091450197FF0BC08091440128
:1004600090914501909581959F4F90934501809380
:10047000440120914E0130914F018091540190919F
:1004800055012817390749F18091440190914501A0
:100490008333910514F120914E0130914F0186E094
:1004A000982F921B9093230120914E0130914F0180
:1004B00060911B01821B41E04ED280914E019091D0
:1004C0004F01909355018093540180917F01909149
:1004D000800190934901809348018091850190911A
:1004E000860120914A0130914B01821B930B90931E
:1004F000450180934401809144019091450197FF0B
:100500000BC08091440190914501909581959F4F3A
:100510009093450180934401209150013091510105
:1005200080915601909157012817390729F1809140
:1005300044019091450183339105F4F0809150017D
:100540009091510196E0981B90931A0174D060919C
:100550001B0186E041E0FFD1809150019091510153
:100560009093570180935601809185019091860167
:1005700090934B0180934A010895CF93DF9300D06D
:1005800000D000D0CDB7DEB78091A801813021F036
:100590008091A8018823D9F480913D0189838091BD
:1005A0003E018A8380913F018B83809140018C833F
:1005B00081E08D838091A8018F5F8E8386E060E06B
:1005C000AE014F5F5F4F81D982E08093A801809197
:1005D000A9018823C9F080913D01898380913E0162
:1005E0008A8380913F018B83809140018C8383E0DB
:1005F0008D8380911B018E8386E060E0AE014F5FAA
:100600005F4F63D91092A90126960FB6F894DEBF0A
:100610000FBECDBFDF91CF910895853608F084E6F7
:10062000809319012FEF30E0281B310930938900A6
:1006300020938800089590911A0181E1989F802D60
:100640001124EBDF0895882321F080911901E5DF63
:1006500008958FEF90E0909389008093880008952B
:10066000CF93DF9380E0EFDFC0E0D0E0FE01E75AF8
:10067000FE4F10822196C432D105C1F78881806473
:100680008883888182608883549A3C9A81E0DBDF8A
:1006900080918000896880938000809181008360D0
:1006A00080938100389A559A5D9A8FE39CE901976F
:1006B000F1F700C00000888180688883DF91CF91C6
:1006C0000895282F873008F0A1C0862F90E0883049
:1006D000910508F0B9C0865E9F4FE22FF0E0E05030
:1006E000FF4F30818F939F93089583E290E0DC0168
:1006F000A31BB109A75ABE4F1C9209C083E290E028
:10070000DC01A31BB109A75ABE4F31E03C933085F1
:10071000DC01A31BB109A75ABE4F1C9236C083E26D
:1007200090E0DC01A31BB109A75ABE4F1C92308593
:10073000DC01A31BB109A75ABE4F31E025C083E2FB
:1007400090E0DC01A31BB109A75ABE4F1C92308573
:10075000DC01A31BB109A75ABE4F1C923089831B31
:100760009109875A9E4F31E03EC083E290E0DC0160
:10077000A31BB109A75ABE4F31E03C934085DC0171
:10078000A41BB109A75ABE4F3C933089831B910922
:10079000875A9E4FFC01108257C083E290E0DC0133
:1007A000A31BB109A75ABE4F31E03C934085DC0141
:1007B000A41BB109A75ABE4F1C9210C083E290E05F
:1007C000DC01A31BB109A75ABE4F1C923085DC0186
:1007D000A31BB109A75ABE4F31E03C934089841B4B
:1007E0009109875A9E4FFC0130832EC083E290E02E
:1007F000DC01A31BB109A75ABE4F31E03C934085F1
:10080000DC01A41BB109A75ABE4FE7CF873049F4DA
:10081000662321F081E080936801089510926801B9
:100820000895883049F4662321F081E080936A01BD
:10083000089510926A010895893069F4662311F0D1
:10084000409A089540980895263029F4662311F0BF
:100850005F9A08955F98089580E090E0FC01E75A60
:10086000FE4F2081213011F42E9A01C02E985C9AFF
:100870005C9801968432910589F7449A449881E006
:10088000E2DE81E080935801089580E090E0FC0171
:10089000E75AFE4F1082019684329105C1F7DCDFE2
:1008A0000895CF93C0E08C2F60E00BDFCF5FC630A0
:1008B000D1F7D2DFCF9108958F929F92BF92CF92BE
:1008C000DF92EF92FF920F931F93CF93DF9300D0AD
:1008D000CDB7DEB7182FF62EB42EE22E1A8219826B
:1008E000E0DF173008F016E01A821982C12EDD24ED
:1008F00005E08DEF882E8FEF982E8C0C9D1C17C075
:10090000EE2039F0153028F089819A8188159905F3
:100910004CF089819A81BB2019F0202F281B822F4F
:100920006F2DCFDE89819A8101969A83898389818F
:100930009A818C159D0524F38FDF0F900F90DF9126
:10094000CF911F910F91FF90EF90DF90CF90BF90CC
:100950009F908F90089520E0AFDF08951F920F922F
:100960000FB60F9211248F939F93EF93FF93E09113
:100970008D01FF27E7FDF095809178009091790037
:10098000EE0FFF1FE358FE4F9183808380918D010E
:100990008F5F80938D0180918D01853014F01092CE
:1009A0008D0180917C00807F80937C0090917C0001
:1009B000E0918D01FF27E7FDF095E45EFE4F808119
:1009C000892B80937C0080917A00806480937A00E8
:1009D000FF91EF919F918F910F900FBE0F901F90FD
:1009E0001895ECE7F0E0808180648083EAE7F0E02E
:1009F00080818F688083AEE7B0E08C9186628C93B3
:100A00008081806480830895569AE0E7F0E08081D9
:100A10008660808381E08093B30082E08093B4009D
:100A20000895181634F48091B10084608093B10069
:100A30000895882371F48091B1008B7F8093B10079
:100A40005E981092B20081E08093B30082E08093C0
:100A5000B4000895CF93DF93EC018091230182309D
:100A600030F080918F0190919001009721F4809156
:100A700091018F3F01F580918E01882301F11BC008
:100A8000E0919201F0E0EC5DFE4F808180932201C5
:100A9000E0919101FF27E7FDF095E55DFE4F808134
:100AA0008093210181E0BDDFCE0162E370E0FDD8DB
:100AB0006093930104C080919301882309F3DF912F
:100AC000CF910895CF93DF93EC0180912301823081
:100AD00030F080918F0190919001009721F48091E6
:100AE00091018F3F39F580918E01882339F122C021
:100AF00080919201E0919201F0E0882319F4EB5D7E
:100B0000FE4F02C0ED5DFE4F808180932201E09197
:100B10009101FF27E7FDF095E55DFE4F8081809311
:100B2000210181E07EDFCE0162E370E0BED86093F8
:100B3000930104C0809193018823D1F2DF91CF917A
:100B40000895CF93DF93EC0180912301823030F040
:100B500080918F0190919001009721F480919101F3
:100B60008F3F71F480918E01882371F009C081E07C
:100B700058DFCE0162E370E098D86093930104C01F
:100B800080919301882399F3DF91CF910895809309
:100B900021016093220108951F920F920FB60F92C8
:100BA00011242F933F934F935F936F937F938F9372
:100BB0009F93AF93BF93CF93DF9300D0CDB7DEB7B2
:100BC00080912201869590E09A83898329813A81D8
:100BD0004091210150E0429FC001439F900D529FE0
:100BE000900D11249A83898389819A8164E670E04B
:100BF00048D87A8369832091B30089819A812091B2
:100C0000B30089819A81280F2093B4002091B3000A
:100C1000809122019091B30080912201890F8093ED
:100C2000B3005E9A0F900F90DF91CF91BF91AF917B
:100C30009F918F917F916F915F914F913F912F91F4
:100C40000F900FBE0F901F9018951F920F920FB626
:100C50000F9211245E980F900FBE0F901F90189561
:100C60002098289A3B98439A8AB183778AB98BB1A6
:100C70008C688BB9E8E6F0E0808187608083EBE6E2
:100C8000F0E0808181608083ECE6F0E08081886024
:100C90008083EDE6F0E080818468808384B58260A3
:100CA00084BD85B5856085BDEEE6F0E0808182601B
:100CB00080838FEF87BD08951F920F920FB60F921A
:100CC00011242F933F934F935F936F937F938F9351
:100CD0009F93AF93BF93CF93EF93FF938091AC011A
:100CE000882329F480912301823008F407C389E026
:100CF00061E0E7DC80919301882389F08091A50170
:100D00008F5F8093A5019091A50180919301891730
:100D100030F480E086DE1092A5011092930180915C
:100D20008E018130E9F480919E0190919F0121E034
:100D30008633920748F480919E0190919F0101961D
:100D400090939F0180939E0180919D018A3030F4A1
:100D500080919D018F5F80939D0102C010929D0143
:100D600080913B01853009F098C08091A0018F5F90
:100D70008093A0018091A0018D3360F01092A001BA
:100D800088E061E09EDC8091AA01882369F087E019
:100D900061E009C08091A0018F3138F088E060E007
:100DA00090DC87E060E08DDC57DD8091A70188232F
:100DB00009F46CC283B180FD0EC08091A7018F5FE2
:100DC0008093A7018091A7018F3108F45FC281E071
:100DD0008093AA0159C28091A7018F3008F056C2B2
:100DE00088E061E06EDC38DD8FEF90E7A2E08150B3
:100DF0009040A040E1F700C0000088E060E061DCC6
:100E00002BDD8FEF90E7A2E081509040A040E1F70A
:100E100000C0000088E061E054DC1EDD8FEF90E749
:100E2000A2E081509040A040E1F700C0000088E0BF
:100E300060E047DC11DDF999FECF60911B0180E095
:100E400090E057D7F999FECF60911A0188E090E0C1
:100E500050D7F999FECF6091230180E190E049D706
:100E6000F999FECF88E190E060913E0142D7F9996F
:100E7000FECF80E290E060913F013BD7F999FECF31
:100E800088E290E06091400134D7F999FECF10924A
:100E9000A70181E080933901F9C180913B0188234A
:100EA00009F4F4C180912301823000F180918F0117
:100EB000909190010097D1F080918F0190919001D5
:100EC00001969093900180938F0120918F01309132
:100ED00090019091230188EC989FC0011124821702
:100EE000930720F41092900110928F0180919C0141
:100EF000882359F080919C018F5F80939C018091A1
:100F00009C018B3010F010929C01809199018823F4
:100F100081F1809199018F5F80939901809199016E
:100F2000833038F180919801863018F5BADC8091D1
:100F3000A101882329F48091980160911B0106C0CA
:100F40009091980160911B0185E0891BBADB84DCDC
:100F5000809198018F5F80939801809198018630ED
:100F600029F4109299011092980103C081E08093B6
:100F700099018091810190918201A3E081329A07C9
:100F800048F080919A01883228F480919A018F5F0D
:100F900080939A018091810190918201B1E0803922
:100FA0009B0748F480919A01882329F080919A0147
:100FB000815080939A01809123018230B8F0809112
:100FC0009A01853198F080919B01882379F4809172
:100FD0008F0190919001009749F481E090E0909307
:100FE000900180938F0181E080939B018091230188
:100FF000823050F080919A018A3030F480919B01C8
:10100000813011F410929B0180913601909137014B
:1010100021E080399207F0F58091360190913701F7
:10102000019690933701809336018091A101882326
:1010300011F58091A2019091A30101969093A301D3
:101040008093A2018091A2019091A3018730910524
:1010500090F0809136019091370180FD04C060913D
:101060001B0186E002C086E060E02BDBF5DB10921E
:10107000A3011092A2018091360190913701A1E065
:1010800080399A0739F487E060E01BDB86E060E096
:1010900018DBE2DB8091AC01882381F48091580158
:1010A000882361F0809158018F5F8093580180916F
:1010B0005801873918F010925801E7DB80913B0105
:1010C000823021F080913B01843071F58091830161
:1010D000909184018530910540F48091A401823380
:1010E000A0F48091A4018F5F0EC08091A401882399
:1010F00061F080918301909184018031910528F005
:101100008091A40181508093A4018091A4018F312A
:1011100018F088E061E006C08091A401882321F4E2
:1011200088E060E0CEDA98DB8091AC01882309F496
:10113000E8C08091810190918201B1E080399B07E4
:1011400008F0DFC081E00DC08091810190918201A3
:1011500023E08132920738F080918E01813019F4BA
:1011600082E080938E018091A701882309F48EC0CC
:1011700083B180FD4DC08091A7018F5F8093A7014F
:101180008091A7018F3108F481C09091AC0181E07A
:10119000911180E08093AC018091AC01882319F11A
:1011A00086E061E08EDA58DB8FEF92E5A7E08150B0
:1011B0009040A040E1F700C0000086E062E081DAE4
:1011C0004BDB8FEF92E5A7E081509040A040E1F724
:1011D00000C0000086E060E074DA3EDB10929F0100
:1011E00010929E0151C086E063E06BDA35DB8FEF31
:1011F00092E5A7E081509040A040E1F700C00000D8
:1012000086E060E05EDA28DB82E080938E013CC0FD
:101210008091A7018823D1F18091A7018F30B0F58B
:1012200080913B01843020F480913B018F5F01C0AD
:1012300081E080933B0180913B01823021F08091DD
:101240003B018430D1F488E061E03BDA05DB8FE7D5
:1012500099EAA3E081509040A040E1F700C000006F
:1012600088E060E02EDAF8DA8FE799EAA3E08150AF
:101270009040A040E1F700C0000084EF91E090931F
:1012800037018093360101DB1092A7014F993FC0CF
:101290008091A6018823D9F18091A6018F5F809368
:1012A000A6018091A6018E3191F5C1E060911B01EC
:1012B0008C2F40E050DB8FE798E3A1E08150904015
:1012C000A040E1F700C00000CF5FC73079F7C6E06B
:1012D00060911B018C2F40E03EDB8FE798E3A1E09B
:1012E00081509040A040E1F700C00000C15081F75C
:1012F00081E0809339011092A60109C089E060E085
:10130000F8CC8091AC01882309F01ECF2CCFFF913F
:10131000EF91CF91BF91AF919F918F917F916F91FD
:101320005F914F913F912F910F900FBE0F901F90A3
:1013300018951F920F920FB60F9211248F939F93BF
:10134000AF93BF9383B180FD20C080913B01853076
:1013500041F480913B018530A1F48091AB01882359
:1013600081F481E08093A70110C08FEF94E3ACE09B
:1013700081509040A040E1F700C000001092AB0106
:1013800004C08091AB01813081F3BF91AF919F91F7
:101390008F910F900FBE0F901F90189580913B0179
:1013A000882309F493C080913B01853009F48EC0F5
:1013B0004F9B8CC083B180FF89C07AC04A9921C0FD
:1013C0008091950190919701913009F074C09091AE
:1013D0009601913009F06FC01092950107C090916D
:1013E0009601992319F491E090939501209195012C
:1013F00030E0992787FD90952817390711F0109252
:10140000940181E0339980E08093970181E04A99CB
:1014100080E08093960190919401E0913801F0E092
:10142000E05DFE4F80818917E8F51092940181E01C
:1014300080939C0190913B01933009F442C09091BC
:101440003B019430F1F1909199019923D1F590915C
:1014500095019093A1018093990108C080913B016F
:10146000843041F4809195018093A1018091950190
:101470008093A8018091A101882321F082E390E06C
:10148000E9DA03C082E390E01DDB60911B0186E096
:1014900018D987E061E015D9DFD910923701109291
:1014A00036010895809194018F5F8093940108958F
:1014B000339984CFA6CF90919701992309F48FCFC8
:1014C00095CF80913B01833049F6CCCF08951F9290
:1014D0000F920FB60F9211242F933F934F935F9368
:1014E0006F937F938F939F93AF93BF93EF93FF93EC
:1014F00055DFFF91EF91BF91AF919F918F917F91B8
:101500006F915F914F913F912F910F900FBE0F9070
:101510001F9018951F920F920FB60F9211242F93C0
:101520003F934F935F936F937F938F939F93AF936B
:10153000BF93EF93FF934F9904C081E08093A6017E
:1015400001C02CDFFF91EF91BF91AF919F918F91DF
:101550007F916F915F914F913F912F910F900FBEAF
:101560000F901F90189591D980E05BDA10923B01A3
:1015700080913B0180933A0183B7856083BFE9E6A0
:10158000F0E08081837F8083E99A1092AC0180E053
:101590005AD888950895CF93E99883B78E7F83BFF3
:1015A00080913A01882309F458C080913A0185302E
:1015B00009F453C080913A0180933B018FEF99E683
:1015C000A8E181509040A040E1F700C0000081E018
:1015D0003AD880E026DA4F9B04C081E0809339013D
:1015E0003EC083B180FD0AC085E080933B0188EE58
:1015F00093E030DA81E08093AB0131C0C1E06091CB
:101600001B018C2F41E0A7D98FE798E3A1E081501F
:101610009040A040E1F700C00000CF5FC73079F7ED
:10162000C6E060911B018C2F41E095D98FE798E3CC
:10163000A1E081509040A040E1F700C00000C150FF
:1016400081F7609192018FE0A2DA80E991E079DA86
:1016500028D981E08093A90102C081E0ADCFCF916C
:1016600008951F920F920FB60F9211242F933F935C
:101670004F935F936F937F938F939F93AF93BF939A
:10168000EF93FF9388DFFF91EF91BF91AF919F910F
:101690008F917F916F915F914F913F912F910F901B
:1016A0000FBE0F901F9018952A989EBD0DB407FE8F
:1016B000FDCF8EBD0DB407FEFDCF2A9A08952A985E
:1016C0009EBD0DB407FEFDCF9EB5392F20E08EBD27
:1016D0000DB407FEFDCF8EB52A9A90E0822B932B96
:1016E00008952A981EBC0DB407FEFDCF2A9A8EB528
:1016F00008952A988EBD0DB407FEFDCF6EBD0DB4C2
:1017000007FEFDCF2A9A08952A9880EB8EBD0DB46E
:1017100007FEFDCF1EBC0DB407FEFDCF2A9A8EB585
:101720000895239A259A229A249881E58CBD0895DC
:10173000CF93D7DF87FF82C08091AD018130E1F088
:10174000813020F0823009F071C058C0C1E0C093F0
:10175000B001DADF80931E02982F9D5F9093AF0156
:10176000E091B101F091B2019081992309F05EC03E
:10177000C093AD01818362C09091B0018091AF01AF
:101780009817D8F4C1DF90911E02982790931E02FB
:101790002091B001213238F4E091B101F091B20111
:1017A000E20FF11D81838091B001823011F49F3FDF
:1017B000E9F58F5F8093B00141C0E091B101F091F4
:1017C000B20182E080838091B50190E00196817042
:1017D00090708093B501282F30E0C901880F991FC0
:1017E00055E0220F331F5A95E1F7820F931F89545A
:1017F0009E4F9093B2018093B10118C08091B001C7
:101800009091AF01891750F4E82FF0E0E550FE4FBA
:1018100060818F5F8093B00188EB0FC01092AE01A2
:1018200081E892E841DF88EB6AEA63DF1092AD015C
:101830008AEC61E85EDF8AEC63E85BDFCF910895B4
:101840008091AD01882369F580E090E038DF90FF5A
:1018500004C088EC80933C01089580913C01815044
:1018600080933C018823E9F481E080933C018091DE
:10187000AE018130B1F481E092E816DF8091FD0184
:101880008A5F8093AF011092B00182E08093AD0136
:101890008AEA98EB09DF8AEA98EB06DF81E292E8B0
:1018A00003DF08959091AE01992369F46093FD01DF
:1018B0008093FE01862780958093FF0181E08093CD
:1018C000AE0180E8089583E00895CF93DF93C82F99
:1018D000D62F8F3178F48091AE01882369F420E00F
:1018E00032E0C901BA014C2F50E0F2D18D2F6C2F9C
:1018F000D9DF03C082E001C083E0DF91CF9108957A
:10190000E091B301F091B40110828091B60190E0B2
:101910000196817090708093B601282F30E0C90144
:10192000880F991F75E0220F331F7A95E1F7820F18
:10193000931F89549E4F9093B4018093B3010895EF
:101940002A9A229AEEDE87EE90E8AEDE81E092E8F7
:10195000ABDE80E496EAA8DE83EA96ECA5DE8CE2B4
:1019600094E9A2DE8BEA92EC9FDE81E89AEC9CDEA1
:1019700087EF94EC99DE80E798E996DE80E098ECBA
:1019800093DE80E090EE90DE8DE28093FB0184EDAB
:101990008093FC0187EB91E09093B4018093B301B5
:1019A0009093B2018093B10181E892E87DDEE9E68F
:1019B000F0E080818860808380E090E080DEE19AC2
:1019C00081E89AEC71DE83E89AEC6EDE0895AC0152
:1019D000FC0120E030E070E070C081918F3F09F0A1
:1019E0006AC0C9010596861797070CF064C08091FC
:1019F000AA01FA01E20FF31F882309F463C084816E
:101A00008C3009F05FC0818180933E018281809398
:101A10003F0183818093400186E061E052D61CD76C
:101A20008FEF90E7A2E081509040A040E1F700C026
:101A3000000086E060E045D60FD78FEF90E7A2E088
:101A400081509040A040E1F700C0000086E061E0D6
:101A500038D602D78FEF90E7A2E081509040A040A7
:101A6000E1F700C0000086E060E02BD6F5D61092CA
:101A7000AA010895928180913F01981741F59381C1
:101A800080914001981719F584818B3019F08C30C2
:101A9000F1F40DC08581813019F48093AC01089573
:101AA0008230A9F41092AC0180938E01089581E0F8
:101AB0008093A90108952F5F3F4F261737070CF435
:101AC0008CCF0895918180913E01981799F20895E5
:101AD0000895D4D286D7C4D5C3D8D7D6BDD694D787
:101AE0002FDF78948FEF91EEA4E081509040A040DA
:101AF000E1F700C0000003D384EF91E09093370139
:101B000080933601C2D6A8D6C8ECD0E006E910E032
:101B1000E091B301F091B4018081823049F4CF01AA
:101B200004969093430180934201618150DFE8DE87
:101B3000FFDD23D585DE80913901882339F080913E
:101B40008E01882319F4109239010DDD80918E01E8
:101B50008130E9F580919E0190919F01A1E08C3246
:101B60009A0740F580919D01863098F486E061E007
:101B700041E0F1D686E061E0A4D587E061E0A1D53F
:101B800088E061E09ED568D68AE562E800D881E009
:101B90000FC086E062E041E0DED686E062E091D5EB
:101BA00087E061E08ED588E061E08BD555D680E096
:101BB00038D71EC080919E0190919F01B1E08C3278
:101BC0009B07B1F480E02DD760D646D611C0809136
:101BD0008E01823069F410929F0110929E0180E084
:101BE00020D753D639D688E060E06BD510928E01AD
:101BF00080913B01853001F580917D0190917E01BE
:101C0000B8013FD070934D0160934C0180917F01EA
:101C100090918001BE0135D070934F0160934E01C9
:101C20008091850190918601BE012BD07093510166
:101C300060935001AFD36CCF80917D0190917E0174
:101C4000BE011FD070934D0160934C0180917F01C4
:101C500090918001BE0115D070934F0160934E01A9
:101C60008091850190918601BE010BD07093510146
:101C70006093500180919C01882309F049CF8CD258
:101C800047CFAA1BBB1B51E107C0AA1FBB1FA6174A
:101C9000B70710F0A61BB70B881F991F5A95A9F715
:101CA00080959095BC01CD01089597FB092E0726DC
:101CB0000AD077FD04D0E5DF06D000201AF4709535
:101CC00061957F4F0895F6F7909581959F4F089500
:101CD000FB01DC0102C001900D9241505040D8F749
:101CE0000895F999FECF92BD81BDF89A992780B5E4
:101CF0000895262FF999FECF1FBA92BD81BD20BD50
:101D00000FB6F894FA9AF99A0FBE01960895F894CE
:021D1000FFCF03
:101D12000003060B0C171B140104070A0D111A14F9
:101D220002050F0916101914646406010102050662
:101D3200075A64015A6E8CA0B4C8FA0F1E3C505A5E
:101D4200080F192D3C50F4010101010110FF0000A0
:021D520000008F
:00000001FF
