:1000000021C03BC09BCA83C7CDC68BC636C078C54E
:100010007DC633C032C031C030C02FC004C82DC02F
:100020002CC02BC02AC029C028C014C526C025C09A
:1000300024C023C0AFC3BBC3D0C3E5C301C41DC428
:1000400032C446C411241FBECFEFD4E0DEBFCDBF03
:1000500011E0A0E0B1E0E0E3F6E102C005900D920E
:10006000A633B107D9F711E0A6E3B1E001C01D92B4
:10007000A839B107E1F76DD2D9CAC2CF80916F011B
:100080009091700168EC70E094DA70933D01609398
:100090003C01809171019091720168EC70E089DA05
:1000A00070933F0160933E018091770190917801B8
:1000B00068EC70E07EDA70934101609340018091BA
:1000C0003C0190913D0181508093820180913E01DD
:1000D00090913F0180938101809140019091410175
:1000E0009695879580958C5F8093300180913C0137
:1000F00090913D01909337018093360180913E01AC
:1001000090913F0190933901809338018091400193
:100110009091410190933B0180933A010895809121
:100120006F01909170012091420130914301821B37
:10013000930B9093490180934801809148019091DD
:10014000490197FF0BC0809148019091490190951A
:1001500081959F4F909349018093480120913C01E4
:1001600030913D0180913601909137012817390770
:1001700011F180914801909149014F97E4F08091ED
:100180003C0190913D018F5F8093000160910001DF
:1001900086E041E05CD480913C0190913D019093D8
:1001A00037018093360180916F0190917001909397
:1001B00043018093420180917101909172012091DD
:1001C000440130914501821B930B90934901809328
:1001D0004801809148019091490197FF0BC080919F
:1001E000480190914901909581959F4F90934901C5
:1001F0008093480120913E0130913F018091380168
:10020000909139012817390731F180914801909177
:1002100049014F9704F180913E0190913F018F5F1A
:1002200080932D0180913E0190913F0160910001EA
:100230008F5F41E00CD480913E0190913F019093FB
:1002400039018093380180917101909172019093EE
:10025000450180934401809177019091780120912C
:10026000460130914701821B930B90934901809383
:100270004801809148019091490197FF0BC08091FE
:10028000480190914901909581959F4F9093490124
:1002900080934801209140013091410180913A01C1
:1002A00090913B012817390739F1809148019091CD
:1002B00049014F970CF180914001909141018F5F6E
:1002C0008093010137D2809140019091410160916A
:1002D00000018F5F41E0BBD38091400190914101CB
:1002E00090933B0180933A0180917701909178013E
:1002F0009093470180934601089580916F019091FA
:1003000070012091420130914301821B930B909325
:10031000490180934801809148019091490197FFDC
:100320000BC08091480190914901909581959F4F14
:10033000909349018093480120913C0130913D0107
:1003400080913601909137012817390749F1809142
:100350004801909149014F971CF180913C01909187
:100360003D0181508093820180913C0190913D013B
:10037000609100018F5F41E06AD380913C019091D0
:100380003D01909337018093360180916F019091E8
:100390007001909343018093420184E690E040D441
:1003A0008091710190917201209144013091450139
:1003B000821B930B909349018093480180914801DF
:1003C0009091490197FF0BC080914801909149019C
:1003D000909581959F4F909349018093480120917A
:1003E0003E0130913F0180913801909139012817E9
:1003F000390741F180914801909149014F9714F1DB
:1004000080913E0190913F018093810180913E0156
:1004100090913F01609100018F5F41E018D380917E
:100420003E0190913F019093390180933801809172
:10043000710190917201909345018093440184E68B
:1004400090E0EED380917701909178012091460160
:1004500030914701821B930B90934901809348018F
:10046000809148019091490197FF0BC0809148010C
:1004700090914901909581959F4F90934901809368
:100480004801209140013091410180913A019091C1
:100490003B012817390751F180914801909149019A
:1004A0004F9724F180914001909141019695879555
:1004B00080958C5F80933001809140019091410143
:1004C000609100018E7F8E5F41E0C1D28091770103
:1004D000909178019093470180934601809140016B
:1004E0009091410190933B0180933A01089580E0FF
:1004F00090E086D88093000188E090E081D88093D6
:10050000010180E190E07CD880932D018091000171
:10051000873020F480910001882319F481E08093D2
:10052000000180910101873020F48091010188232E
:1005300019F481E080930101FDD080912D01873075
:1005400020F480912D01882319F481E080932D01FE
:100550000895CDDFC2D2CBD0F5D30CD2F4D12AD3BB
:10056000789480ED97E028EC30E0F9013197F1F7CD
:100570000197D9F783DD80913501882339F0809187
:100580008501882319F410923501FBD780918501EC
:100590008130E1F580918D0190918E018C529140D6
:1005A00090F481E014D380918D0190918E016AE0E6
:1005B00070E0FFD760FD03C08AE562E802C08AE50B
:1005C0006AEA9FD309C080918D0190918E018C526F
:1005D000914011F480E0FBD280918F018F3038F48C
:1005E00086E061E041E033D286E061E006C086E06B
:1005F00062E041E02CD286E062E0BED087E061E0BC
:10060000BBD088E061E0B8D09ED10DC0809185015B
:10061000823049F480E0DBD2ADD195D188E060E052
:10062000ABD01092850180913301853019F580910E
:100630006F019091700166E970E0BBD770933D0146
:1006400060933C01809171019091720168EC70E0BF
:10065000B0D770933F0160933E01809177019091F4
:10066000780168EC70E0A5D7709341016093400178
:1006700056DD81CF80916F019091700168EC70E040
:1006800098D770933D0160933C01809171019091E6
:10069000720168EC70E08DD770933F0160933E016A
:1006A000809177019091780168EC70E082D7709327
:1006B00041016093400180919001882309F05BCF54
:1006C0001CDE59CF882361F080910201853608F045
:1006D00084E68095809302018091020190E002C03F
:1006E0008FEF90E09093890080938800089580E0D8
:1006F000E9DFA0E0B0E0FD01E55BFE4F108211965E
:10070000A432B105C1F78C9180648C938C91826086
:100710008C93549A3C9A559A81E0D4DF8091800062
:10072000896880938000809181008360809381003C
:10073000559A08959091010181E1989F902D11247F
:10074000953608F094E6909590930201809102010D
:1007500090E090938900809388000895853608F092
:1007600084E68095809302018091020190E090934D
:100770008900809388000895873008F0C6C0E62F6E
:10078000F0E0E830F10508F0DDC0E65EFF4F282F0D
:1007900030E009942C5F3E4FF9018081A3E2B0E084
:1007A000FD01E81BF109E55BFE4F10820DC02C5FD7
:1007B0003E4FF9018081A3E2B0E0FD01E81BF109A1
:1007C000E55BFE4F81E08083F9018085FD01E81B38
:1007D000F109E55BFE4F108248C02C5F3E4FF901E6
:1007E0008081A3E2B0E0FD01E81BF109E55BFE4F6B
:1007F0001082F9018085FD01E81BF109E55BFE4FE0
:1008000081E0808332C02C5F3E4FF9018081A3E2FA
:10081000B0E0FD01E81BF109E55BFE4F1082F90134
:100820008085FD01E81BF109E55BFE4F1082F901AF
:100830008089A81BB109A55BBE4F81E08C93089508
:100840002C5F3E4FF9018081A3E2B0E0FD01E81B7F
:10085000F109E55BFE4F91E09083F9018085FD0190
:10086000E81BF109E55BFE4F9083F9018089A81B25
:10087000B109A55BBE4F1C9208952C5F3E4FF90154
:100880008081A3E2B0E0FD01E81BF109E55BFE4FCA
:1008900091E09083F9018085FD01E81BF109E55B9A
:1008A000FE4F10822AC02C5F3E4FF9018081A3E2E7
:1008B000B0E0FD01E81BF109E55BFE4F1082F90194
:1008C0008085FD01E81BF109E55BFE4F91E014C056
:1008D0002C5F3E4FF9018081A3E2B0E0FD01E81BEF
:1008E000F109E55BFE4F91E09083F9018085FD0100
:1008F000E81BF109E55BFE4F9083F9018089A81B95
:10090000B109A55BBE4F9C930895873049F46623D7
:1009100021F081E080935A01089510925A010895C0
:10092000883031F4662311F05D9A08955D9808953A
:10093000893041F4662321F081E0809356010895C7
:1009400010925601089520E030E0F901E55BFE4F7A
:100950008081813011F42E9A01C02E985C9A5C98A7
:100960002F5F3F4F2432310581F7449A449881E04C
:10097000A9DE089580E090E0FC01E55BFE4F108267
:10098000019684329105C1F7DEDF08951F9310E0D0
:10099000812F60E0F1DE1F5F1630D1F7D4DF1F91A9
:1009A00008959F92AF92BF92CF92DF92EF92FF9203
:1009B0000F931F93DF93CF9300D0CDB7DEB7182FDF
:1009C000062FA42EB22E1A821982E0DF173008F00B
:1009D00016E01A821982E12EFF2495E0992E8DEF00
:1009E000C82E8FEFD82ECE0CDF1C1AC0BB2039F0DA
:1009F000153028F089819A818C159D0564F0AA2014
:100A000031F089819A81292D281B822F02C089818A
:100A10009A81602FB1DE89819A8101969A838983B8
:100A200089819A818E159F050CF38DDF81E080937B
:100A30004A010F900F90CF91DF911F910F91FF907E
:100A4000EF90DF90CF90BF90AF909F90089520E0FF
:100A5000A8DF08951F920F920FB60F9211248F9363
:100A60009F93EF93FF93E0917F01FF27E7FDF095C0
:100A70008091780090917900EE0FFF1FE159FE4FB1
:100A80009183808380917F018F5F80937F0180912C
:100A90007F01853014F010927F0180917C00807F6F
:100AA00080937C0090917C00E0917F01FF27E7FD1F
:100AB000F095E45EFE4F8081892B80937C008091CD
:100AC0007A00806480937A00FF91EF919F918F91DB
:100AD0000F900FBE0F901F901895ECE7F0E080810B
:100AE00080648083EAE7F0E080818F688083AEE7EE
:100AF000B0E08C9186628C938081806480830895BD
:100B00001F920F920FB60F9211242F933F934F9382
:100B10005F936F937F938F939F93AF93BF93DF9375
:100B2000CF9300D0CDB7DEB780912E01869590E0AF
:100B30009A83898329813A8180912F0190E0AC01C9
:100B4000429FC001439F900D529F900D11249A83A4
:100B5000898389819A8164E670E02BD57A836983E1
:100B60002091B30089819A812091B30089819A8173
:100B7000280F2093B4008091B30020912E01909112
:100B8000B30080912E01890F8093B3005E9A0F907D
:100B90000F90CF91DF91BF91AF919F918F917F91F6
:100BA0006F915F914F913F912F910F900FBE0F90DA
:100BB0001F901895569AE0E7F0E080818660808368
:100BC00081E08093B30082E08093B4000895282FE1
:100BD00018161CF58091830190918401892B21F4D2
:100BE0008091820187FF04C0809185018823A9F04C
:100BF0008091B10084608093B10008958091B1002C
:100C00008B7F8093B1005E981092B20081E0809358
:100C1000B30082E08093B4000895222379F308950D
:100C2000CF93DF93EC0180912D01823070F08091A1
:100C3000830190918401892B21F48091820187FFA7
:100C40001EC0809185018823D1F4E0918101F0E0FC
:100C5000EA5DFE4F808180932E01E0918201FF27A3
:100C6000E7FDF095EF5DFE4F808180932F0181E0DD
:100C7000AEDFCE0162E370E0B0D460938001DF911B
:100C8000CF910895CF93DF93EC0180912D018230B5
:100C900080F18091830190918401892B21F48091CE
:100CA000820187FF2BC080918501882339F521C0FF
:100CB000E0918101F0E0E95DFE4F05C0E091810126
:100CC000F0E0EB5DFE4F808180932E01E091820188
:100CD000FF27E7FDF095EF5DFE4F808180932F01A8
:100CE00081E075DFCE0162E370E077D4609380012C
:100CF00005C0809181018823D9F2E0CFDF91CF91A7
:100D0000089580932F0160932E0108951F920F92F2
:100D10000FB60F9211245E980F900FBE0F901F9088
:100D200018951F920F920FB60F9211248F934F991F
:100D300003C081E0809387018F910F900FBE0F90C9
:100D40001F9018952098289A87B1867F87B988B117
:100D5000896088B98AB183778AB98BB18C688BB97D
:100D6000E8E6F0E0808187608083EBE6F0E0808158
:100D700081608083ECE6F0E0808189608083EDE62D
:100D8000F0E080818068808384B5826084BD85B511
:100D9000856085BDEEE6F0E08081826080838FEF24
:100DA00087BD08951F920F920FB60F9211242F93B3
:100DB0003F934F935F936F937F938F939F93AF93E3
:100DC000BF93EF93FF9380913301882309F48EC082
:100DD00080913301853009F080C088C0309B22C0EB
:100DE0002091930180919101813009F079C0809127
:100DF0009201813009F074C08093930106C0809104
:100E00009201882311F4109293018091930190E054
:100E1000332727FD30958217930721F01092940114
:100E20001092950186B186958695869580958170FC
:100E30008093910186B18095817080939201209179
:100E400095018091300130E090E0880F991F821762
:100E50009307ECF41092950180919401863018F07C
:100E60001092940105C0809194018F5F809394014A
:100E700081E08093900180919301882321F082E3A7
:100E800090E0CEDE09C082E390E0FCDE05C08091F8
:100E900095018F5F8093950180913301833061F0DC
:100EA00080913301843041F0809194016091000180
:100EB0004091930121E075DD8091930180938B0136
:100EC00010923201109231016091000186E054DCF1
:100ED00087E061E051DC37DD09C03399A3CF7ECFD5
:100EE00080919101882309F090CF89CFFF91EF91F4
:100EF000BF91AF919F918F917F916F915F914F9132
:100F00003F912F910F900FBE0F901F9018951F9239
:100F10000F920FB60F9211242F933F934F935F932D
:100F20006F937F938F939F93AF93BF93EF93FF93B1
:100F3000189968C080913301853021F081E0809359
:100F4000860160C080913301853009F057C08091DF
:100F50009701882309F052C088E061E00DDCF3DCE2
:100F600088EE93E028EC30E0F9013197F1F7019732
:100F7000D9F788E060E000DCE6DC88EE93E028EC5E
:100F800030E0F9013197F1F70197D9F788E061E096
:100F9000F3DBD9DC88EE93E028EC30E0F9013197FF
:100FA000F1F70197D9F788E060E0E6DBCCDCF9994E
:100FB000FECF6091000180E090E02AD3F999FECF46
:100FC0006091010188E090E023D3F999FECF609110
:100FD0002D0180E190E01CD3F999FECF81E0809350
:100FE000350110C088E893E128EC30E0F901319731
:100FF000F1F70197D9F71092970104C080919701FA
:10100000813081F3FF91EF91BF91AF919F918F91CB
:101010007F916F915F914F913F912F910F900FBEF4
:101020000F901F9018951F920F920FB60F921124D8
:101030000F931F932F933F934F935F936F937F93E0
:101040008F939F93AF93BF93CF93DF93EF93FF93D0
:1010500080912D01823000F1809183019091840173
:10106000892BD1F080918301909184010196909316
:101070008401809383014091830150918401809188
:101080002D0128EC829FC00111248417950720F4BC
:10109000109284011092830180919001882359F06D
:1010A000809190018F5F80939001809190018B30AF
:1010B00010F01092900180918001882389F0809136
:1010C00088018F5F809388019091880180918001D1
:1010D000891730F480E07BDD109288011092800146
:1010E000809185018130E1F480918D0190918E0194
:1010F0008653914048F480918D0190918E01019624
:1011000090938E0180938D0180918F018E3130F408
:1011100080918F018F5F80938F0102C010928F01A9
:10112000809133018530C1F480918C018F5F809371
:101130008C0180918C018D3328F010928C0188E015
:1011400061E007C080918C018F3108F437C188E0DD
:1011500060E012DBF8DB32C180913301882309F4AF
:101160002DC180913101909132018059914048F513
:1011700080913101909132010196909332018093D8
:10118000310180918B01882371F48091310190911C
:10119000320180FD04C06091000186E002C086E05B
:1011A00060E0EADAD0DB8091310190913201805920
:1011B000914039F487E060E0DFDA86E060E0DCDA75
:1011C000C2DB80919601882381F480914A018823B3
:1011D00061F080914A018F5F80934A0180914A01BA
:1011E000873918F010924A01D1DB809133018230A7
:1011F00021F0809133018430C9F58091750190917F
:101200007601855F914008F412C180918901823393
:1012100008F00DC1809189018F5F03C08091890121
:10122000815080938901809189018A31B8F0809141
:101230008A018F5F80938A0180918A01893119F434
:1012400088E061E011C080918A01833378F088E002
:1012500060E092DA78DB10928A0108C080918901FF
:10126000882321F486E060E087DA6DDB80919601C7
:10127000882351F0809173019091740180599140BD
:1012800018F481E08093850180918601882309F418
:1012900095C0189954C0809186018F5F8093860114
:1012A000809186018F3108F489C08091960190E089
:1012B000882309F491E09093960180919601882308
:1012C00031F186E061E058DA3EDB88EB9BE028EC08
:1012D00030E0F9013197F1F70197D9F786E062E044
:1012E0004BDA31DB88EB9BE028EC30E0F9013197F9
:1012F000F1F70197D9F786E060E03EDA89E061E036
:101300003BDA21DB10928E0110928D0155C086E0F0
:1013100063E032DA18DB88EB9BE028EC30E0F9017F
:101320003197F1F70197D9F786E060E025DA89E097
:1013300060E022DA08DB82E0809385013DC0809185
:101340008601882309F43AC0809186018F30B0F578
:1013500080913301843020F4809133018F5F01C08C
:1013600081E080933301C0E0D0E008EC10E015C0CC
:1013700088E061E001DA8CED95E0F8013197F1F752
:101380000197D9F788E060E0F7D98CED95E0F80196
:101390003197F1F70197D9F721968091330190E0C9
:1013A000C817D9072CF3E6DA80919601882321F03B
:1013B00089E061E0E1D9C7DA109286014F993DC01A
:1013C00080918701882309F438C0809187018F5F5D
:1013D00080938701809187018F3178F111E0C8EC0B
:1013E000D0E060910001812F40E031DB84EF91E09B
:1013F000FE013197F1F70197D9F71F5F173089F791
:1014000016E0C8ECD0E060910001812F40E01FDBC6
:1014100084EF91E0FE013197F1F70197D9F7115070
:1014200091F781E0809335011092870106C0809189
:101430008901882309F0F2CEF6CEFF91EF91DF917A
:10144000CF91BF91AF919F918F917F916F915F915C
:101450004F913F912F911F910F910F900FBE0F90C1
:101460001F9018951F93CF93DF93E99883B78E7FD2
:1014700083BF80913401882309F45AC080913401DC
:10148000853009F455C0809134018093330180E1A7
:1014900097E228EC30E0F9013197F1F70197D9F79D
:1014A00081E010D980E093DB4F9B04C081E0809302
:1014B000350140C018990AC085E08093330188EE59
:1014C00093E0AEDB81E08093970134C080912D01E1
:1014D000823030F081E090E090938401809383012A
:1014E00011E0C8ECD0E060910001812F41E0AFDA5B
:1014F00084EF91E0FE013197F1F70197D9F71F5F73
:10150000173089F716E0C8ECD0E060910001812F18
:1015100041E09DDA84EF91E0FE013197F1F7019708
:10152000D9F7115091F784EF91E07ADB2FDA02C0FE
:1015300081E0ABCFDF91CF911F9108951F920F9261
:101540000FB60F9211242F933F934F935F936F9396
:101550007F938F939F93AF93BF93EF93FF9382DF1C
:10156000FF91EF91BF91AF919F918F917F916F917B
:101570005F914F913F912F910F900FBE0F901F9051
:101580001895F8D980E023DB109233018091330164
:101590008093340183B7856083BFE9E6F0E0808102
:1015A000837F8083E99A1092960180E08BD888959A
:1015B0000895AA1BBB1B51E107C0AA1FBB1FA6179A
:1015C000B70710F0A61BB70B881F991F5A95A9F7EC
:1015D00080959095BC01CD01089597FB092E0726B3
:1015E0000AD077FD04D0E5DF06D000201AF470950C
:1015F00061957F4F0895F6F7909581959F4F0895D7
:10160000F999FECF92BD81BDF89A992780B50895CA
:10161000262FF999FECF1FBA92BD81BD20BD0FB60E
:10162000F894FA9AF99A0FBE01960895F894FFCFAC
:10163000010664640003060B0C171B140104070A5F
:101640000D111A1402050F091610191401020506CE
:10165000070F1E3C505A646E788C96A0B401645AF1
:0616600001F4010101018B
:00000001FF
