:1000000021C03BC05ACA75C895C9B7C936C039C5E1
:1000100091C533C032C031C030C02FC0C2C52DC061
:100020002CC02BC02AC029C028C033C426C025C07C
:1000300024C023C0F5C2FDC20DC31CC331C348C3D5
:1000400058C36FC311241FBECFEFD4E0DEBFCDBFB6
:1000500011E0A0E0B1E0E2E4FAE102C005900D9207
:10006000AE33B107D9F712E0AEE3B1E001C01D92A3
:10007000A431B107E1F7D7DBE2CCC2CF80E090E05A
:10008000C8DC80931B0188E090E0C3DC80931A01F8
:1000900080E190E0BEDC8093230180911B018730DA
:1000A00020F480911B01882319F481E080931B01C7
:1000B00080911A01873020F480911A01882319F465
:1000C00086E080931A0152D280912301873020F478
:1000D00080912301882319F481E0809323010895FE
:1000E000809177019091780128EC30E0B90161DCD2
:1000F00070934701609346018091790190917A0154
:10010000B90157DC709349016093480180917F01E8
:1001100090918001B9014DDC70934B0160934A01CD
:10012000809146019091470194E0981B90938B0138
:10013000809148019091490180938C0180914A01FE
:1001400090914B0180933801809146019091470135
:1001500090934D0180934C01809148019091490109
:1001600090934F0180934E0180914A0190914B01F1
:10017000909351018093500108958091770190915F
:1001800078012091400130914101821B930B9093A3
:100190003F0180933E0180913E0190913F0197FF86
:1001A0000BC080913E0190913F01909581959F4FAA
:1001B00090933F0180933E01209146013091470189
:1001C00080914C0190914D012817390761F1809180
:1001D0003E0190913F01833391052CF180914601BE
:1001E0009091470194E0981B90938B0120914601D8
:1001F0003091470160911B0186E0821B41E046D3AC
:10020000809146019091470190934D0180934C015C
:100210008091770190917801909341018093400102
:1002200084E690E0B2D38091790190917A01209197
:10023000420130914301821B930B90933F018093C5
:100240003E0180913E0190913F0197FF0BC080914C
:100250003E0190913F01909581959F4F90933F0172
:1002600080933E01209148013091490180914E01D7
:1002700090914F012817390751F180913E019091DB
:100280003F01833391051CF1809148019091490110
:1002900080938C01209148013091490160911B01AC
:1002A00086E0821B41E0F2D28091480190914901A1
:1002B00090934F0180934E018091790190917A0142
:1002C000909343018093420184E690E05ED3809155
:1002D0007F01909180012091440130914501821B62
:1002E000930B90933F0180933E0180913E0190914A
:1002F0003F0197FF0BC080913E0190913F01909587
:1003000081959F4F90933F0180933E0120914A0138
:1003100030914B018091500190915101281739077C
:1003200031F180913E0190913F0183339105FCF0C2
:1003300080914A0190914B018093380180914A014C
:1003400090914B0160911B018F5F41E09FD28091A2
:100350007F019091800190934501809344018091A9
:100360004A0190914B01909351018093500108955F
:100370008091770190917801209140013091410165
:10038000821B930B90933F0180933E0180913E012D
:1003900090913F0197FF0BC080913E0190913F01EA
:1003A000909581959F4F90933F0180933E012091BE
:1003B00046013091470180914C0190914D012817E1
:1003C000390719F180913E0190913F0183339105E6
:1003D000E4F080914601909147018F5F80931B016B
:1003E00060911B0186E041E051D2809146019091DD
:1003F000470190934D0180934C018091770190913A
:10040000780190934101809340018091790190910E
:100410007A012091420130914301821B930B90930A
:100420003F0180933E0180913E0190913F0197FFF3
:100430000BC080913E0190913F01909581959F4F17
:1004400090933F0180933E012091480130914901F2
:1004500080914E0190914F012817390749F1809101
:100460003E0190913F018333910514F120914801A1
:100470003091490186E0982F921B9093230120919F
:1004800048013091490160911B01821B41E0FED17E
:10049000809148019091490190934F0180934E01C2
:1004A0008091790190917A01909343018093420168
:1004B00080917F019091800120914401309145010C
:1004C000821B930B90933F0180933E0180913E01EC
:1004D00090913F0197FF0BC080913E0190913F01A9
:1004E000909581959F4F90933F0180933E0120917D
:1004F0004A0130914B018091500190915101281790
:10050000390729F180913E0190913F018333910594
:10051000F4F080914A0190914B0196E0981B9093E2
:100520001A0124D060911B0186E041E0AFD1809197
:100530004A0190914B019093510180935001809119
:100540007F0190918001909345018093440108952B
:10055000853608F084E6809319012FEF30E0281BE0
:1005600031093093890020938800089590911A01F1
:1005700081E1989F802D1124EBDF0895882321F0DD
:1005800080911901E5DF08958FEF90E09093890045
:10059000809388000895CF93DF9380E0EFDFC0E081
:1005A000D0E0FE01ED5AFE4F10822196C432D105F3
:1005B000C1F7888180648883888182608883549AA7
:1005C0003C9A81E0DBDF8091800089688093800025
:1005D00080918100836080938100389A559A5D9A5A
:1005E0008FE39CE90197F1F700C0000088818068E3
:1005F0008883DF91CF910895282F873008F0A1C01C
:10060000862F90E08830910508F0B9C0865E9F4F34
:10061000E22FF0E0E050FF4F30818F939F930895D9
:1006200083E290E0DC01A31BB109AD5ABE4F1C92DE
:1006300009C083E290E0DC01A31BB109AD5ABE4FB3
:1006400031E03C933085DC01A31BB109AD5ABE4FAC
:100650001C9236C083E290E0DC01A31BB109AD5AC5
:10066000BE4F1C923085DC01A31BB109AD5ABE4FB1
:1006700031E025C083E290E0DC01A31BB109AD5A53
:10068000BE4F1C923085DC01A31BB109AD5ABE4F91
:100690001C923089831B91098D5A9E4F31E03EC0D8
:1006A00083E290E0DC01A31BB109AD5ABE4F31E0FB
:1006B0003C934085DC01A41BB109AD5ABE4F3C936D
:1006C0003089831B91098D5A9E4FFC01108257C0BF
:1006D00083E290E0DC01A31BB109AD5ABE4F31E0CB
:1006E0003C934085DC01A41BB109AD5ABE4F1C925E
:1006F00010C083E290E0DC01A31BB109AD5ABE4FEC
:100700001C923085DC01A31BB109AD5ABE4F31E00C
:100710003C934089841B91098D5A9E4FFC01308384
:100720002EC083E290E0DC01A31BB109AD5ABE4F9D
:1007300031E03C934085DC01A41BB109AD5ABE4FAA
:10074000E7CF873049F4662321F081E0809362018E
:100750000895109262010895883049F4662321F0CB
:1007600081E08093640108951092640108958930B6
:1007700069F4662311F0409A089540980895263050
:1007800029F4662311F05F9A08955F98089580E038
:1007900090E0FC01ED5AFE4F2081213011F42E9A99
:1007A00001C02E985C9A5C9801968432910589F775
:1007B000449A449881E0E2DE81E0809352010895FA
:1007C00080E090E0FC01ED5AFE4F108201968432E9
:1007D0009105C1F7DCDF0895CF93C0E08C2F60E076
:1007E0000BDFCF5FC630D1F7D2DFCF9108958F9264
:1007F0009F92BF92CF92DF92EF92FF920F931F933F
:10080000CF93DF9300D0CDB7DEB7182FF62EB42EDE
:10081000E22E1A821982E0DF173008F016E01A8201
:100820001982C12EDD2405E08DEF882E8FEF982EE2
:100830008C0C9D1C17C0EE2039F0153028F08981F2
:100840009A81881599054CF089819A81BB2019F00D
:10085000202F281B822F6F2DCFDE89819A81019650
:100860009A83898389819A818C159D0524F38FDF72
:100870000F900F90DF91CF911F910F91FF90EF900C
:10088000DF90CF90BF909F908F90089520E0AFDFD2
:1008900008951F920F920FB60F9211248F939F937A
:1008A000EF93FF93E0918701FF27E7FDF09580919B
:1008B000780090917900EE0FFF1FE958FE4F918369
:1008C0008083809187018F5F80938701809187016A
:1008D000853014F01092870180917C00807F809396
:1008E0007C0090917C00E0918701FF27E7FDF09567
:1008F000E45EFE4F8081892B80937C0080917A009A
:10090000806480937A00FF91EF919F918F910F9077
:100910000FBE0F901F901895ECE7F0E08081806487
:100920008083EAE7F0E080818F688083AEE7B0E003
:100930008C9186628C938081806480830895569A1E
:10094000E0E7F0E080818660808381E08093B300FF
:1009500082E08093B4000895181634F48091B100B9
:1009600084608093B1000895882371F48091B10070
:100970008B7F8093B1005E981092B20081E08093EB
:10098000B30082E08093B4000895CF93DF93EC012D
:1009900080912301823030F08091890190918A0109
:1009A000009721F480918B018F3F01F580918801A0
:1009B000882301F11BC0E0918C01F0E0EC5DFE4F5B
:1009C000808180932201E0918B01FF27E7FDF09564
:1009D000E55DFE4F80818093210181E0BDDFCE0186
:1009E00062E370E0FAD760938D0104C080918D01BD
:1009F000882309F3DF91CF910895CF93DF93EC0122
:100A000080912301823030F08091890190918A0198
:100A1000009721F480918B018F3F39F580918801F7
:100A2000882339F122C080918C01E0918C01F0E0A3
:100A3000882319F4EB5DFE4F02C0ED5DFE4F80810F
:100A400080932201E0918B01FF27E7FDF095E55DA2
:100A5000FE4F80818093210181E07EDFCE0162E341
:100A600070E0BBD760938D0104C080918D01882315
:100A7000D1F2DF91CF9108958093210160932201FB
:100A800008951F920F920FB60F9211242F933F9348
:100A90004F935F936F937F938F939F93AF93BF9386
:100AA000CF93DF9300D0CDB7DEB78091220186953A
:100AB00090E09A83898329813A814091210150E015
:100AC000429FC001439F900D529F900D11249A8325
:100AD000898389819A8164E670E06BD77A83698320
:100AE0002091B30089819A812091B30089819A81F4
:100AF000280F2093B4002091B3008091220190919F
:100B0000B30080912201890F8093B3005E9A0F9009
:100B10000F90DF91CF91BF91AF919F918F917F9176
:100B20006F915F914F913F912F910F900FBE0F905A
:100B30001F9018951F920F920FB60F9211245E9876
:100B40000F900FBE0F901F9018952098289A3B98F1
:100B5000439A8AB183778AB98BB18C688BB9E8E6FE
:100B6000F0E0808187608083EBE6F0E08081816047
:100B70008083ECE6F0E0808188608083EDE6F0E041
:100B800080818468808384B5826084BD85B58560FA
:100B900085BDEEE6F0E08081826080838FEF87BDC7
:100BA00008951F920F920FB60F9211242F933F9327
:100BB0004F935F936F937F938F939F93AF93BF9365
:100BC000CF93EF93FF9380912301823000F18091C6
:100BD000890190918A010097D1F0809189019091CB
:100BE0008A01019690938A0180938901209189015D
:100BF00030918A019091230188EC989FC0011124C3
:100C00008217930720F410928A0110928901809133
:100C10009601882359F0809196018F5F8093960109
:100C2000809196018B3010F01092960180918D0189
:100C3000882389F080919D018F5F80939D01909121
:100C40009D0180918D01891730F480E085DE10923E
:100C50009D0110928D01809188018130E9F480918D
:100C600098019091990121E08633920748F4809190
:100C70009801909199010196909399018093980120
:100C8000809197018E3130F4809197018F5F80932E
:100C9000970102C01092970180913B018530C1F409
:100CA00080919A018F5F80939A0180919A018D3390
:100CB00028F010929A0188E061E007C080919A01C3
:100CC0008F3108F4C6C188E060E096DC60DDC1C108
:100CD00080913B01882309F4BCC180919301882352
:100CE00081F1809193018F5F8093930180919301B3
:100CF000833038F180919201863018F56DDD809156
:100D00009B01882329F48091920160911B0106C008
:100D10009091920160911B0185E0891B6DDC37DDAC
:100D2000809192018F5F8093920180919201863031
:100D300029F4109293011092920103C081E08093F4
:100D4000930180917B0190917C01A3E081329A070D
:100D500048F080919401883228F4809194018F5F4B
:100D60008093940180917B0190917C01B1E0803966
:100D70009B0748F480919401882329F08091940185
:100D8000815080939401809123018230B8F080914A
:100D90009401853198F080919501882379F48091B0
:100DA000890190918A01009749F481E090E0909345
:100DB0008A018093890181E08093950180912301CC
:100DC000823050F0809194018A3030F48091950106
:100DD000813011F410929501809136019091370184
:100DE00021E08039920750F58091360190913701CA
:100DF0000196909337018093360180919B0188235F
:100E000071F4809136019091370180FD04C06091AA
:100E10001B0186E002C086E060E0EEDBB8DC80917A
:100E2000360190913701A1E080399A0739F487E0C3
:100E300060E0E2DB86E060E0DFDBA9DC8091A1011D
:100E4000882381F480915201882361F080915201BE
:100E50008F5F8093520180915201873918F0109270
:100E60005201AEDC80913B01823021F080913B0148
:100E7000843071F580917D0190917E0185309105DE
:100E800040F480919C018233A0F480919C018F5F9B
:100E90000EC080919C01882361F080917D0190912A
:100EA0007E018031910528F080919C0181508093D2
:100EB0009C0180919C018F3118F088E061E006C0B0
:100EC00080919C01882321F488E060E095DB5FDC61
:100ED0008091A101882309F4F4C080917B01909155
:100EE0007C01B1E080399B0708F0EBC081E00DC0C8
:100EF00080917B0190917C0123E08132920738F050
:100F000080918801813019F482E08093880180917A
:100F10009F01882309F49DC083B180FD53C0809157
:100F20009F018F5F80939F0180919F018F3108F413
:100F300090C09091A10181E0911180E08093A10186
:100F40008091A101882331F186E061E055DB1FDC4F
:100F50008FEF92E5A7E081509040A040E1F700C0FC
:100F6000000086E062E048DB12DC8FEF92E5A7E04C
:100F700081509040A040E1F700C0000086E060E0B2
:100F80003BDB89E061E038DB02DC109299011092D2
:100F900098015DC086E063E02FDBF9DB8FEF92E51F
:100FA000A7E081509040A040E1F700C0000086E03B
:100FB00060E022DB89E060E01FDBE9DB82E0809318
:100FC000880145C080919F01882309F442C0809127
:100FD0009F018F30F0F580913B01843020F48091A7
:100FE0003B018F5F01C081E080933B0180913B0119
:100FF000823021F080913B018430D1F488E061E0BF
:10100000FBDAC5DB8FE799EAA3E081509040A0406E
:10101000E1F700C0000088E060E0EEDAB8DB8FE7BF
:1010200099EAA3E081509040A040E1F700C00000A1
:1010300084EF91E09093370180933601C1DB80917A
:10104000A101882321F089E061E0D6DAA0DB1092CB
:101050009F014F993CC080919E018823C1F18091EE
:101060009E018F5F80939E0180919E018E3179F564
:10107000C1E060911B018C2F40E008DC8FE798E312
:10108000A1E081509040A040E1F700C00000CF5F98
:10109000C73079F7C6E060911B018C2F40E0F6DB8A
:1010A0008FE798E3A1E081509040A040E1F700C0B5
:1010B0000000C15081F781E08093390110929E01B8
:1010C00006C08091A101882309F012CF20CFFF91A3
:1010D000EF91CF91BF91AF919F918F917F916F9140
:1010E0005F914F913F912F910F900FBE0F901F90E6
:1010F00018951F920F920FB60F9211242F933F93C2
:101100004F935F936F937F938F939F93AF93BF930F
:10111000EF93FF9383B180FD68C080913B018530E0
:1011200021F081E080939F0160C080913B01853078
:1011300009F057C08091A001882309F052C088E0CF
:1011400061E05ADA24DB8FEF90E7A2E08150904013
:10115000A040E1F700C0000088E060E04DDA17DB56
:101160008FEF90E7A2E081509040A040E1F700C0EF
:10117000000088E061E040DA0ADB8FEF90E7A2E050
:1011800081509040A040E1F700C0000088E060E09E
:1011900033DAFDDAF999FECF60911B0180E090E02F
:1011A00040D4F999FECF60911A0188E090E039D4DB
:1011B000F999FECF6091230180E190E032D4F99952
:1011C000FECF81E08093390110C08FEF94E3ACE053
:1011D00081509040A040E1F700C000001092A001B3
:1011E00004C08091A001813081F3FF91EF91BF9104
:1011F000AF919F918F917F916F915F914F913F91AF
:101200002F910F900FBE0F901F90189580913B016A
:10121000882309F48EC080913B01853009F489C090
:101220004F9B87C083B180FF84C075C04A9921C09D
:1012300080918F0190919101913009F06FC0909150
:101240009001913009F06AC010928F0107C090910F
:101250009001992319F491E090938F0120918F01CF
:1012600030E0992787FD90952817390711F01092E3
:101270008E0181E0339980E08093910181E04A9969
:1012800080E08093900190918E01E0913801F0E030
:10129000E05DFE4F80818917C0F510928E0181E0DC
:1012A0008093960190913B019330F1F190913B0135
:1012B0009430D1F1909193019923B1F590918F01E0
:1012C00090939B018093930108C080913B018430EF
:1012D00021F480918F0180939B0180919B01882351
:1012E00021F082E390E051DB03C082E390E085DBF4
:1012F00060911B0186E080D987E061E07DD947DA03
:101300001092370110923601089580918E018F5FFF
:1013100080938E010895339989CFABCF909191013D
:10132000992309F494CF9ACF80913B01833069F6D9
:10133000D0CF08951F920F920FB60F9211242F93C2
:101340003F934F935F936F937F938F939F93AF934D
:10135000BF93EF93FF935ADFFF91EF91BF91AF914E
:101360009F918F917F916F915F914F913F912F91BD
:101370000F900FBE0F901F9018951F920F920FB6EF
:101380000F9211242F933F934F935F936F937F930B
:101390008F939F93AF93BF93EF93FF934F9904C0A5
:1013A00081E080939E0101C031DFFF91EF91BF91F9
:1013B000AF919F918F917F916F915F914F913F91ED
:1013C0002F910F900FBE0F901F901895F9D980E0C4
:1013D000C3DA10923B0180913B0180933A0183B7BD
:1013E000856083BFE9E6F0E08081837F8083E99AAE
:1013F0001092A10180E0C2D888950895CF93E99812
:1014000083B78E7F83BF80913A01882309F451C04E
:1014100080913A01853009F44CC080913A01809363
:101420003B018FEF99E6A8E181509040A040E1F7A1
:1014300000C0000081E0A2D880E08EDA4F9B04C09B
:1014400081E08093390137C083B180FD0AC085E017
:1014500080933B0188EE93E098DA81E08093A001CD
:101460002AC0C1E060911B018C2F41E00FDA8FE7A9
:1014700098E3A1E081509040A040E1F700C0000057
:10148000CF5FC73079F7C6E060911B018C2F41E038
:10149000FDD98FE798E3A1E081509040A040E1F7AB
:1014A00000C00000C15081F784EF91E06EDA94D95A
:1014B00002C081E0B4CFCF9108951F920F920FB672
:1014C0000F9211242F933F934F935F936F937F93CA
:1014D0008F939F93AF93BF93EF93FF938FDFFF9112
:1014E000EF91BF91AF919F918F917F916F915F919C
:1014F0004F913F912F910F900FBE0F901F90189515
:101500002A989EBD0DB407FEFDCF8EBD0DB407FE1B
:10151000FDCF2A9A08952A989EBD0DB407FEFDCFEF
:101520009EB5392F20E08EBD0DB407FEFDCF8EB5E0
:101530002A9A90E0822B932B08952A981EBC0DB412
:1015400007FEFDCF2A9A8EB508952A988EBD0DB458
:1015500007FEFDCF6EBD0DB407FEFDCF2A9A08959C
:101560002A9880EB8EBD0DB407FEFDCF1EBC0DB4D6
:1015700007FEFDCF2A9A8EB50895239A259A229ABE
:10158000249881E58CBD0895CF93D7DF87FF82C073
:101590008091A2018130E1F0813020F0823009F0A9
:1015A00071C058C0C1E0C093A501DADF8093130277
:1015B000982F9D5F9093A401E091A601F091A7015F
:1015C0009081992309F05EC0C093A201818362C01B
:1015D0009091A5018091A4019817D8F4C1DF909152
:1015E00013029827909313022091A501213238F419
:1015F000E091A601F091A701E20FF11D8183809196
:10160000A501823011F49F3FE9F58F5F8093A5011A
:1016100041C0E091A601F091A70182E08083809112
:10162000AA0190E00196817090708093AA01282F02
:1016300030E0C901880F991F55E0220F331F5A95DA
:10164000E1F7820F931F84559E4F9093A7018093DB
:10165000A60118C08091A5019091A401891750F4AA
:10166000E82FF0E0E051FE4F60818F5F8093A5018D
:1016700088EB0FC01092A30181E892E841DF88EB6C
:101680006AEA63DF1092A2018AEC61E85EDF8AEC0D
:1016900063E85BDFCF9108958091A201882369F50B
:1016A00080E090E038DF90FF04C088EC80933C013C
:1016B000089580913C01815080933C018823E9F496
:1016C00081E080933C018091A3018130B1F481E0FD
:1016D00092E816DF8091F2018A5F8093A401109254
:1016E000A50182E08093A2018AEA98EB09DF8AEAE9
:1016F00098EB06DF81E292E803DF08959091A30161
:10170000992369F46093F2018093F3018627809511
:101710008093F40181E08093A30180E8089583E041
:101720000895CF93DF93C82FD62F8F3178F480910F
:10173000A301882369F425EF31E0C901BA014C2FD8
:1017400050E05ED18D2F6C2FD9DF03C082E001C045
:1017500083E0DF91CF910895E091A801F091A90174
:1017600010828091AB0190E001968170907080931F
:10177000AB01282F30E0C901880F991F75E0220FB7
:10178000331F7A95E1F7820F931F84559E4F9093F4
:10179000A9018093A80108952A9A229AEEDE87ED86
:1017A00090E8AEDE81E092E8ABDE80EB94EAA8DE62
:1017B00083E296ECA5DE8CE294E9A2DE8BEA92EC61
:1017C0009FDE81E89AEC9CDE87EF94EC99DE80E75F
:1017D00098E996DE80E098EC93DE80E090EE90DE73
:1017E0008DE28093F00184ED8093F1018CEA91E029
:1017F0009093A9018093A8019093A7018093A601DB
:1018000081E892E87DDEE9E6F0E08081886080830F
:1018100080E090E080DEE19A81E89AEC71DE83E876
:101820009AEC6EDE08952AD477D8B5D68ED9C8D76B
:10183000AED785D878948FEF91EEA4E08150904098
:10184000A040E1F700C000004BD484EF91E09093FA
:10185000370180933601B4D79AD70AE010E0C8EC7C
:10186000D0E026E9E22EF12C80913901882339F06D
:1018700080918801882319F410923901A7DD8091A5
:1018800088018130E1F58091980190919901A1E062
:101890008C329A0780F481E05FD880919801909112
:1018A0009901B80186D08AE560FD02C062E801C0F6
:1018B0006AEAE2D80AC08091980190919901B1E05A
:1018C0008C329B0711F480E047D8809197018F30CC
:1018D00038F486E061E041E0D9D786E061E006C0F7
:1018E00086E062E041E0D2D786E062E085D687E01C
:1018F00061E082D688E061E07FD649D711C080914F
:101900008801823069F4109299011092980180E068
:1019100023D856D73CD788E060E06ED61092880175
:1019200080913B01853001F580917701909178019C
:10193000B7013FD0709347016093460180917901D0
:1019400090917A01BE0135D07093490160934801AE
:1019500080917F0190918001BE012BD070934B014B
:1019600060934A0105D580CF8091770190917801ED
:10197000BE011FD0709347016093460180917901A9
:1019800090917A01BE0115D070934901609348018E
:1019900080917F0190918001BE010BD070934B012B
:1019A00060934A0180919601882309F05DCFE5D3C9
:1019B0005BCFAA1BBB1B51E107C0AA1FBB1FA61709
:1019C000B70710F0A61BB70B881F991F5A95A9F7E8
:1019D00080959095BC01CD01089597FB092E0726AF
:1019E0000AD077FD04D0E5DF06D000201AF4709508
:1019F00061957F4F0895F6F7909581959F4F0895D3
:101A0000FB01DC0102C001900D9241505040D8F71B
:101A10000895F999FECF92BD81BDF89A992780B5B6
:101A20000895262FF999FECF1FBA92BD81BD20BD22
:101A30000FB6F894FA9AF99A0FBE01960895F894A1
:021A4000FFCFD6
:101A42000003060B0C171B140104070A0D111A14CC
:101A520002050F0916101914646406010102050635
:101A6200075A6401506E8CA0B4C8DC0F1E3C505A59
:0E1A7200080F192D3C50F40101010101100074
:00000001FF
