:100000002DC047C0ABC07BC77EC84CC842C047C6E6
:100010006BC73FC03EC03DC03CC03BC097C839C065
:1000200038C037C036C035C034C0DEC532C031C07C
:1000300030C02FC087C493C4A8C4BDC4D9C4F5C4FC
:100040000AC51EC5E680038262A6A3C62C94ABC275
:1000500081CAF7C4709800C800E0838211241FBED3
:10006000CFEFD4E0DEBFCDBF11E0A0E0B1E0E6E726
:10007000FEE102C005900D92A034B107D9F711E05E
:10008000A0E4B1E001C01D92AD3DB107E1F7EAD2B5
:10009000F0CEB6CF80917C0190917D0168EC70E04C
:1000A000B0DE709347016093460180917E0190918C
:1000B0007F0168EC70E0A5DE709349016093480110
:1000C000809184019091850168EC70E09ADE7093D4
:1000D0004B0160934A01209146013091470184E031
:1000E000821B80938F0180914801909149018093F8
:1000F0008E0180914A0190914B018093380180914B
:100100004601909147019093410180934001809175
:10011000480190914901909343018093420180915D
:100120004A0190914B0190934501809344010895B9
:100130001092C50083E38093C40088E98093C100D6
:1001400086E08093C2005098519A0895982F80912C
:10015000C00085FFFCCF9093C60008951F920F92B8
:100160000FB60F9211242F933F934F935F936F938A
:100170007F938F939F93AF93BF93EF93FF93189BBE
:1001800019C04F9B17C080913901882399F0809145
:100190005401882319F483E065E002C083E060E045
:1001A000C2D3B1D48091540190E0882309F491E046
:1001B00090935401FF91EF91BF91AF919F918F91D7
:1001C0007F916F915F914F913F912F910F900FBE53
:1001D0000F901F90189580917C0190917D01209146
:1001E0004C0130914D01821B930B909356018093EB
:1001F0005501809155019091560197FF0BC0809158
:10020000550190915601909581959F4F909356017D
:100210008093550120914601309147018091400122
:10022000909141012817390731F180915501909142
:100230005601C39704F180914601909147018F5F69
:10024000809300016091000186E041E0AAD4809192
:100250004601909147019093410180934001809124
:100260007C0190917D0190934D0180934C016091B0
:10027000000183E092DC80917E0190917F012091CA
:100280004E0130914F01821B930B90935601809346
:100290005501809155019091560197FF0BC08091B7
:1002A000550190915601909581959F4F90935601DD
:1002B000809355012091480130914901809142017C
:1002C000909143012817390741F180915501909190
:1002D0005601C39714F1209148013091490186E0FD
:1002E000982F921B90932D01209148013091490144
:1002F00060910001821B41E054D4809148019091AB
:100300004901909343018093420180917E01909135
:100310007F0190934F0180934E01809184019091D1
:1003200085012091500130915101821B930B9093D4
:10033000560180935501809155019091560197FF88
:100340000BC08091550190915601909581959F4FDA
:10035000909356018093550120914A0130914B01B1
:1003600080914401909145012817390721F180912E
:10037000550190915601C397F4F020914A013091B4
:100380004B0186E0821B80930101AAD2609100019B
:1003900086E041E006D480914A0190914B01909310
:1003A000450180934401809184019091850190934F
:1003B000510180935001089580917C0190917D01BD
:1003C00020914C0130914D01821B930B909356016B
:1003D00080935501809155019091560197FF0BC074
:1003E0008091550190915601909581959F4F9093E2
:1003F000560180935501209146013091470180912B
:100400004001909141012817390731F08091550141
:1004100090915601C39724F48091A701813049F54A
:100420008091A701813019F41092A70118C0209182
:1004300046013091470184E0821B80938F018091B7
:100440004601909147019093410180934001809132
:100450007C0190917D0190934D0180934C0180919E
:100460008F01609100018E5F41E09BD384E690E0B4
:1004700096D480917E0190917F0120914E01309120
:100480004F01821B930B90935601809355018091ED
:1004900055019091560197FF0BC0809155019091A5
:1004A0005601909581959F4F9093560180935501E9
:1004B000209148013091490180914201909143017E
:1004C0002817390731F08091550190915601C39753
:1004D00024F48091A701823041F58091A7018230F8
:1004E00019F41092A70116C080914801909149011A
:1004F00080938E018091480190914901909343012E
:100500008093420180917E0190917F0190934F01F1
:1005100080934E0190918E016091000186E0891BCD
:1005200041E03FD384E690E03AD4809184019091F9
:1005300085012091500130915101821B930B9093C2
:10054000560180935501809155019091560197FF76
:100550000BC08091550190915601909581959F4FC8
:10056000909356018093550120914A0130914B019F
:1005700080914401909145012817390731F080910D
:10058000550190915601C39724F48091A7018330BF
:1005900039F58091A701833019F41092A70116C094
:1005A00080914A0190914B018093380180918401A0
:1005B00090918501909351018093500180914A015F
:1005C00090914B01909345018093440180913801B3
:1005D000609100018F5F41E0E4D284E690E0DFD3D8
:1005E000089580E090E03DDC8093000188E090E099
:1005F00038DC8093010180E190E033DC80932D01B1
:1006000088E190E02EDC80933C0180E290E029DCE0
:1006100080933D0188E290E024DC80933E0180914C
:100620000001873020F480910001882319F481E0D3
:100630008093000180910101873020F480910101B5
:10064000882319F486E0809301014AD180912D011D
:10065000873020F480912D01882319F481E0809364
:100660002D01089561D4BDDF02D373D272D33FDA76
:100670005FDD88EE93E028EC30E0F9013197F1F787
:100680000197D9F7789406DD84EF91E090933101DA
:10069000809330018FEF9FE1C2D880913A01882387
:1006A00009F4EBC080919201882309F0E6C0109212
:1006B0003A01DAD966D8F1CF80919B0190919C01E3
:1006C0008C52914088F580919B0190919C010A97F2
:1006D00019F482E061E061DA80919D01863098F43E
:1006E00086E061E041E05DD286E061E01CD187E018
:1006F00061E019D188E061E016D105D28AE562E8AF
:10070000EED381E00FC086E062E041E04AD286E0AD
:1007100062E009D187E061E006D188E061E003D1C1
:10072000F2D180E023D320C080919B0190919C0165
:100730008C529140C9F480E019D3FFD1E4D114C0A8
:1007400080919201823081F410929C0110929B0161
:1007500080E00CD3F2D1D7D188E060E0E4D082E031
:1007600062E01BDA1092920180913901853019F50F
:1007700080917C0190917D0166E970E042DB70938D
:1007800047016093460180917E0190917F0168EC62
:1007900070E037DB709349016093480180918401D8
:1007A0009091850168EC70E02CDB70934B016093B5
:1007B0004A0111DD22C080917C0190917D0168EC9D
:1007C00070E01FDB709347016093460180917E01CA
:1007D00090917F0168EC70E014DB709349016093A5
:1007E0004801809184019091850168EC70E009DBFB
:1007F00070934B0160934A01DFDD2091D801822F75
:1008000090E0880F991FFC0163E0EE0FFF1F6A95CF
:10081000E1F7E81BF90BE954FE4F8081823059F56E
:10082000822F90E0880F991FDC0143E0AA0FBB1FC5
:100830004A95E1F7A81BB90BA554BE4FB0935301DD
:10084000A09352019C918091C00085FFFCCF9093B2
:10085000C600822F90E0880F991FFC0123E0EE0F65
:10086000FF1F2A95E1F7E81BF90BE954FE4FCD0174
:100870006181B7D926D9F2D710CF8091920181300A
:1008800009F05ECF19CF882309F1809188009091FB
:1008900089008F3F910519F55D9A80E991E028EC78
:1008A00030E0F9013197F1F70197D9F72091020172
:1008B000253608F024E6209302018FEF90E0821B9A
:1008C0009109909389008093880008955D984098DD
:1008D0002F988FEF90E0909389008093880008957F
:1008E0009091010181E1989F202D1124253608F077
:1008F00024E6209302018FEF90E0821B91099093F0
:100900008900809388000895282F853608F024E612
:10091000209302018FEF90E0821B91099093890050
:10092000809388000895482F873008F0C6C0E62FCE
:10093000F0E0E830F10508F0DEC0E65EFF4F282F5A
:1009400030E009942C5F3E4FF9018081A3E2B0E0D2
:10095000FD01E81BF109E85AFE4F10820DC02C5F23
:100960003E4FF9018081A3E2B0E0FD01E81BF109EF
:10097000E85AFE4F81E08083F9018085FD01E81B84
:10098000F109E85AFE4F108248C02C5F3E4FF90132
:100990008081A3E2B0E0FD01E81BF109E85AFE4FB7
:1009A0001082F9018085FD01E81BF109E85AFE4F2C
:1009B00081E0808332C02C5F3E4FF9018081A3E249
:1009C000B0E0FD01E81BF109E85AFE4F1082F90181
:1009D0008085FD01E81BF109E85AFE4F1082F901FC
:1009E0008089A81BB109A85ABE4F81E08C9383C0AF
:1009F0002C5F3E4FF9018081A3E2B0E0FD01E81BCE
:100A0000F109E85AFE4F91E09083F9018085FD01DC
:100A1000E81BF109E85AFE4F9083F9018089A81B71
:100A2000B109A85ABE4F1C9266C02C5F3E4FF90117
:100A30008081A3E2B0E0FD01E81BF109E85AFE4F16
:100A400091E09083F9018085FD01E81BF109E85AE6
:100A5000FE4F10822AC02C5F3E4FF9018081A3E235
:100A6000B0E0FD01E81BF109E85AFE4F1082F901E0
:100A70008085FD01E81BF109E85AFE4F91E014C0A2
:100A80002C5F3E4FF9018081A3E2B0E0FD01E81B3D
:100A9000F109E85AFE4F91E09083F9018085FD014C
:100AA000E81BF109E85AFE4F9083F9018089A81BE1
:100AB000B109A85ABE4F9C931EC0873049F46623E3
:100AC00021F081E0809367010895109267010895F5
:100AD000883049F4662321F081E08093690108950C
:100AE000109269010895893069F4662311F0409AE3
:100AF000089540980895463029F4662311F02F9AFE
:100B000008952F98089520E030E0F901E85AFE4F4B
:100B10008081813011F42E9A01C02E985C9A5C98E5
:100B20002F5F3F4F2432310581F7449A449881E08A
:100B3000AADE81E080935701089580E090E0FC01F7
:100B4000E85AFE4F1082019684329105C1F7DBDF2F
:100B50000895559A5D9A80E991E028EC30E0F9011A
:100B60003197F1F70197D9F7269A219A549A3C9A2E
:100B700080918000896880938000809181008360EB
:100B800080938100DADF389A279A08951F9310E046
:100B9000812F60E0C8DE1F5F1630D1F7B4DF1F91F0
:100BA0000895DF92EF92FF920F931F93182FF62E66
:100BB000E42EECDF012F173008F006E010E085E0AE
:100BC000D82E09C0EE2019F08D2D811B01C0812F78
:100BD0006F2DA9DE1F5F1017A8F395DF1F910F91EE
:100BE000FF90EF90DF9008951F920F920FB60F9233
:100BF00011248F939F93EF93FF93E0918C01FF2734
:100C0000E7FDF0958091780090917900EE0FFF1F3D
:100C1000E458FE4F9183808380918C018F5F809395
:100C20008C0180918C01853014F010928C018091A0
:100C30007C00807F80937C0090917C00E0918C010F
:100C4000FF27E7FDF095E45EFE4F8081892B8093BE
:100C50007C0080917A00806480937A00FF91EF910C
:100C60009F918F910F900FBE0F901F901895ECE7FA
:100C7000F0E0808180648083EAE7F0E080818F6823
:100C80008083AEE7B0E08C9186628C938081806433
:100C90008083089510927A0010927E0008951F922A
:100CA0000F920FB60F9211242F933F934F935F93A0
:100CB0006F937F938F939F93AF93BF93DF93CF9364
:100CC00000D0CDB7DEB780912E01869590E09A8353
:100CD000898329813A8180912F0190E0AC01429F64
:100CE000C001439F900D529F900D11249A838983D8
:100CF00089819A8164E670E084D87A83698320913F
:100D0000B30089819A812091B30089819A81280F4B
:100D10002093B4008091B30020912E019091B300F4
:100D200080912E01890F8093B3005E9A0F900F90EF
:100D3000CF91DF91BF91AF919F918F917F916F91F3
:100D40005F914F913F912F910F900FBE0F901F9089
:100D50001895569AE0E7F0E080818660808381E014
:100D60008093B30082E08093B4000895181634F4A1
:100D70008091B10084608093B1000895882371F45C
:100D80008091B1008B7F8093B1005E981092B20089
:100D900081E08093B30082E08093B4000895CF9304
:100DA000DF93EC0180912D01823030F08091900131
:100DB00090919101892B21F480918F018F3F01F552
:100DC000809192018823E1F41FC0E0918E01F0E050
:100DD000EA5DFE4F808180932E01E0918F01FF2715
:100DE000E7FDF095EF5DFE4F808180932F0181E05C
:100DF000BDDFCE0162E370E018D860938D0104C0BE
:100E000080918D01882309F3DF91CF910895CF93CD
:100E1000DF93EC0180912D01823030F080919001C0
:100E200090919101892B21F480918F018F3F51F591
:100E300080919201882331F529C080918E01882309
:100E400031F4E0918E01F0E0E95DFE4F05C0E091E4
:100E50008E01F0E0EB5DFE4F808180932E01E091EA
:100E60008F01FF27E7FDF095EF5DFE4F80818093B6
:100E70002F0181E07BDFCE0162E370E0D6D7609383
:100E80008D0104C080918D018823B9F2DF91CF914B
:100E90000895CF93DF93EC0180912D01823030F0E3
:100EA0008091900190919101892B21F480918F0183
:100EB0008F3F71F480919201882351F40DC081E03D
:100EC00055DFCE0162E370E0B0D760938D0104C0BE
:100ED00080918D01882399F3DF91CF9108958093BC
:100EE0002F0160932E0108951F920F920FB60F925B
:100EF00011245E980F900FBE0F901F9018951F92AF
:100F00000F920FB60F9211248F93189907C08091FA
:100F10009301882319F481E0809393018F910F90BE
:100F20000FBE0F901F9018952098289A3B98439ACF
:100F30008AB183778AB98BB18C688BB9E8E6F0E027
:100F4000808187608083EBE6F0E080818160808330
:100F5000ECE6F0E0808188608083EDE6F0E080815F
:100F60008468808384B5826084BD85B5856085BDD5
:100F7000EEE6F0E08081826080838FEF87BD089588
:100F800080913901882309F48CC080913901853022
:100F900009F487C04F9B85C0189B83C07AC04A99CB
:100FA00004C08091A2018093A30126B189B1269546
:100FB0002695269590E0969587959695879541E09C
:100FC00050E084279527282720FF0CC086B190E0A9
:100FD00023E0969587952A95E1F7842795278170D8
:100FE0008093A2018091A401E0913801F0E0EE5CD1
:100FF000FE4F9081981708F043C01092A401809191
:101000003901833009F448C080913901843009F4F2
:1010100043C08091A001882309F03EC08091A301C4
:101020008093990181E08093A00108C080913901EB
:10103000843021F48091A3018093990180919901DA
:1010400060918E01660F660F8F5F682B81E0A5D5DA
:1010500080919901882321F082E390E0A0DE03C013
:1010600082E390E0D4DE6091000186E05CDC87E002
:1010700061E059DC48DD109231011092300105C069
:101080008091A4018F5F8093A40185E38A95F1F795
:101090000895339B8ACF83CF80913901833031F615
:1010A000C9CF08951F920F920FB60F9211242F935C
:1010B0003F934F935F936F937F938F939F93AF93E0
:1010C000BF93EF93FF934F990CC0809194018823B5
:1010D00041F480919301882321F481E0809394016D
:1010E00001C04EDFFF91EF91BF91AF919F918F9122
:1010F0007F916F915F914F913F912F910F900FBE14
:101100000F901F9018951F920F920FB60F921124F7
:101110002F933F934F935F936F937F938F939F93FF
:10112000AF93BF93EF93FF932BDFFF91EF91BF91AD
:10113000AF919F918F917F916F915F914F913F916F
:101140002F910F900FBE0F901F9018951F920F9226
:101150000FB60F9211241F932F933F934F935F93DA
:101160006F937F938F939F93AF93BF93CF93DF93AF
:10117000EF93FF934CD480913901882309F47FC207
:101180008091A501882329F480912D01823008F4F3
:1011900068C289E061E0C7DB80918D01882389F016
:1011A000809195018F5F8093950190919501809139
:1011B0008D01891730F480E0D9DD109295011092ED
:1011C0008D01809192018130E1F480919B01909199
:1011D0009C018653914048F480919B0190919C0121
:1011E000019690939C0180939B0180919D018A3090
:1011F00030F480919D018F5F80939D0102C0109219
:101200009D0180913901882309F4DEC180912D016F
:10121000823000F18091900190919101892BD1F061
:10122000809190019091910101969093910180930A
:101230009001409190015091910180912D0128ECF5
:10124000829FC00111248417950720F41092910108
:10125000109290018091A001882381F18091A001DA
:101260008F5F8093A0018091A001833038F180913D
:10127000A101863018F58ADC80919901882329F430
:101280008091A1016091000106C09091A10160913F
:10129000000185E0891B47DB36DC8091A1018F5F6F
:1012A0008093A1018091A101863029F41092A001C0
:1012B0001092A10103C081E08093A0018091800180
:1012C000909181018152934048F080919F01883232
:1012D00028F480919F018F5F80939F01809180010E
:1012E000909181018059914048F480919F01882319
:1012F00029F080919F01815080939F0180912D0161
:101300008230B8F080919F01853198F080919E01E4
:10131000882379F48091900190919101892B49F46F
:1013200081E090E0909391018093900181E080931F
:101330009E0180912D01823050F080919F018A3072
:1013400030F480919E01813011F410929E018091C1
:1013500030019091310180599140B0F58091300178
:1013600090913101019690933101809330018091E9
:101370009901882309F58091970190919801019630
:101380009093980180939701809197019091980193
:10139000079790F0809130019091310180FD04C059
:1013A0006091000186E002C086E060E0BCDAABDB61
:1013B0001092980110929701809130019091310123
:1013C00080599140A9F411C08091A501882381F42E
:1013D00080915701882361F0809157018F5F80933E
:1013E000570180915701873918F010925701A5DBFA
:1013F00080913901823021F080913901843061F58A
:101400008091820190918301059740F4809196012B
:10141000823398F4809196018F5F0DC08091960180
:10142000882359F080918201909183010B9728F0D5
:1014300080919601815080939601809196018F3121
:1014400018F088E061E006C080919601882319F4C5
:1014500088E060E068DA57DB8091A501882309F411
:1014600003C180918001909181018059914008F0E1
:10147000FBC081E00CC0809180019091810181527C
:10148000934038F080919201813019F482E080938A
:10149000920180919301882309F496C0189955C050
:1014A00080919301883228F4809193018F5F80931B
:1014B0009301809193018F3108F486C08091A5013A
:1014C00090E0882309F491E09093A5018091A50113
:1014D000882319F186E061E026DA15DB88EB9BE0D2
:1014E00028EC30E0F9013197F1F70197D9F786E060
:1014F00062E019DA08DB88EB9BE028EC30E0F901C8
:101500003197F1F70197D9F786E060E00CDAFBDA62
:1015100010929C0110929B0155C086E063E003DAB3
:10152000F2DA88EB9BE028EC30E0F9013197F1F733
:101530000197D9F786E060E0F6D9E5DA82E062E06B
:101540002CD382E0809392013DC080919301882347
:1015500009F43AC0809193018F30B0F58091390140
:10156000843020F4809139018F5F01C081E0809345
:10157000390180913901823021F080913901843024
:10158000D1F488E061E0CFD9BEDA8CED95E028ECAB
:1015900030E0F9013197F1F70197D9F788E060E081
:1015A000C2D9B1DA8CED95E028EC30E0F901319741
:1015B000F1F70197D9F784EF91E09093310180938F
:1015C0003001BBDA109293014F9954C0809194017D
:1015D000882309F44FC080919301882309F04AC001
:1015E00080919401883228F4809194018F5F8093D8
:1015F0009401809194018F3158F111E0C8ECD0E052
:1016000060910001812F40E0CCDA84EF91E0FE018F
:101610003197F1F70197D9F71F5F173089F716E077
:10162000C8ECD0E060910001812F40E0BADA84EF8D
:1016300091E0FE013197F1F70197D9F7115091F739
:101640001092940181E080933A0102C010929401BB
:1016500080919301882399F0189B11C010929301F7
:101660000EC089E060E097CD8091A501882309F440
:1016700010CF01CF80919401882341F7E9CFFF91EA
:10168000EF91DF91CF91BF91AF919F918F917F911A
:101690006F915F914F913F912F911F910F900FBECE
:1016A0000F901F9018951F93CF93DF93E99883B7FE
:1016B0008E7F83BF80E197E228EC30E0F90131971B
:1016C000F1F70197D9F781E0809339014F9B03C06F
:1016D00080933A0152C0CBDA85B5856085BD809193
:1016E000800089688093800080918100836080936E
:1016F0008100A3D0189907C085E08093390188EE56
:1017000093E04DDB2BC011E0C8ECD0E0609100010C
:10171000812F41E046DA84EF91E0FE013197F1F745
:101720000197D9F71F5F173089F716E0C8ECD0E0B2
:1017300060910001812F41E034DA84EF91E0FE01F5
:101740003197F1F70197D9F7115091F760918E0118
:101750008FE0C5DB80E991E09CDB18DA4F9BFECF80
:10176000189BFCCF8091680087608093680080910F
:101770006900886080936900E99ADF91CF911F9199
:101780000895F89480ED97E028EC30E0F901319766
:10179000F1F70197D9F7D1D915BC1092680080E014
:1017A000E5DA1092390180916900837F80936900A6
:1017B000E99A1092A5011092A6016CDA80E063D834
:1017C000109280001092810029982E9880E29EE469
:1017D0000197F1F783B7856083BF7894889563DFBD
:1017E00008952A989EBD0DB407FEFDCF8EBD0DB4A1
:1017F00007FEFDCF2A9A08952A989EBD0DB407FED4
:10180000FDCF3EB58EBD0DB407FEFDCF2EB5932F97
:1018100080E02A9A30E0282B392BC9010895906E78
:10182000E0DF8091D9019091DA018D7FDADF80913C
:10183000D9019091DA01D5DF08958091D3018330E9
:1018400061F41092D3018091D9019091DA018068FE
:101850009093DA018093D901C4DF0895CF92DF928B
:10186000EF92FF920F931F930091DC01EE24E3941B
:10187000A2E0CA2EFEE0DF2EE19A2A981EBC0DB42B
:1018800007FEFDCF2A9A1EB514FD02C0FF2404C036
:10189000E092DB01FF24F394812F807959F080914D
:1018A000D9019091DA018D7F9CDF8091D9019091CF
:1018B000DA0197DF17FF9FC01091D3011130C9F1F2
:1018C000113038F0123009F46BC0133009F08AC0BF
:1018D00086C0E092D60180E090EB8EDF082F0D5F8E
:1018E0000093D50103502091D701822F90E0880FFB
:1018F000991FFC0173E0EE0FFF1F7A95E1F7E81BDB
:10190000F90BE954FE4F8081882309F06BC0E09207
:10191000D301822F90E0880F991FFC0153E0EE0F56
:10192000FF1F5A95E1F7E81BF90BE954FE4F0183BD
:10193000A3CF80E090EB60DF282F9091D6018091BB
:10194000D5019817C0F402279D3058F4E091D701D3
:10195000ED9DF00111243196E90FF11DE954FE4F80
:1019600020838091D601823011F40F3FD9F58F5F2B
:101970008093D60181CF8091D701282F30E0220FAC
:10198000331FF90193E0EE0FFF1F9A95E1F7E21B79
:10199000F30BE954FE4FC08281278093D70122C008
:1019A0002091D6018091D501281758F4E22FF0E05C
:1019B000E855FE4F808190E02F5F2093D601986B11
:1019C00018C01092D4018091D9019091DA018F7DD5
:1019D000836892689093DA018093D90102DF8AEAE2
:1019E00098EBFFDE1092D30181E89AECFADE83E8EF
:1019F0009AECF7DE41CFFF2009F03ECF0093DC01E7
:101A00001F910F91FF90EF90DF90CF9008958091FC
:101A1000D301882341F58091D401813021F5809153
:101A2000D9019091DA018F779093DA018093D901EF
:101A3000D8DE8091AA018A5F8093D5011092D601E9
:101A400082E08093D3018AEA98EBCBDE8AEA98EBB6
:101A5000C8DE8091D9019091DA0180629093DA0119
:101A60008093D901BEDE08958091D301833019F4AB
:101A70000895F4DECCDF8091D3018823D1F78091E3
:101A8000D9019091DA018F779093DA018093D9018F
:101A9000A8DE83E08093D3010895982F8091D4012C
:101AA000882311F083E008956093AA019093AB011D
:101AB000692760956093AC0181E08093D40180E850
:101AC00008952091D801822F90E0880F991FFC0182
:101AD000B3E0EE0FFF1FBA95E1F7E81BF90BE954ED
:101AE000FE4F108281E028272093D8010895CF93DC
:101AF000DF932A9A229A239A259A2A9A229A24983C
:101B000081E58CBD8DE28093A80184ED8093A901CD
:101B10001092D7011092D80183E892E89093DA01ED
:101B20008093D901C0E0D0E0FE01EE0FFF1FEC5B17
:101B3000FF4F8591949155DE2196CC30D105A1F7C8
:101B40008091690088608093690080E090E054DEB5
:101B5000E19A81E89AEC45DE83E89AEC42DEDF9177
:101B6000CF9108950F931F93182F062F8B3010F0ED
:101B700082E010C08091D401882311F083E00AC074
:101B80002DEA31E0C901BA01412F50E061D1802F27
:101B9000612F83DF1F910F910895DF93CF9300D0C2
:101BA00000D000D0CDB7DEB790913B0199839091E2
:101BB0003C019A8390913D019B8390913E019C83CF
:101BC0008D836E8386E060E0AE014F5F5F4FCADFBA
:101BD00026960FB6F894DEBF0FBECDBFCF91DF9132
:101BE0000895DF93CF9300D0CDB7DEB7AC01198253
:101BF0001A8220E030E070E0E5C0FA01E20FF31F46
:101C000080818F3F09F0DCC0C901059686179707D0
:101C10000CF0D6C08091A601882309F4D8C0848135
:101C20008C3009F0D4C0818180933C018281809303
:101C30003D01838180933E0186E061E074D663D7E5
:101C400088EE93E028EC30E0F9013197F1F7019745
:101C5000D9F786E060E067D656D788EE93E028ECA7
:101C600030E0F9013197F1F70197D9F786E061E0AB
:101C70005AD649D788EE93E028EC30E0F901319745
:101C8000F1F70197D9F786E060E04DD63CD7609137
:101C9000000184E082DF1092A601AEC092818091A3
:101CA0003D01981709F0A8C0938180913E019817D3
:101CB00009F0A2C084818B3009F470C08D3009F422
:101CC0007AC08A3009F098C08581282F2F702A8326
:101CD00090E024E0959587952A95E1F7898389819D
:101CE000882309F489C08981843008F085C08A81FD
:101CF000882309F481C08A81833008F07DC08981FE
:101D00008230E1F0833089F1813009F043C08A816B
:101D1000823009F065C080918F0184300CF060C082
:101D200080918F018F5F07C080918F0187FD32C046
:101D300080918F01815080938F012CC08A818130E6
:101D400009F052C080918E01853008F04DC080911D
:101D50008E018F5F07C080918E018823D9F080911A
:101D60008E01815080938E0115C08A81813009F0E7
:101D70003FC0809138018630D8F5809138018F5F5F
:101D800007C080913801882329F080913801815063
:101D90008093380189818093A7012EC0858181308D
:101DA00019F48093A50128C0823031F51092A50165
:101DB0008093920121C06091000183E0EEDE1CC09F
:101DC0002F5F3F4F261737070CF417CF15C0FA01C6
:101DD000E20FF31F918180913C01981769F45ECF67
:101DE0008A818130B9F6A0CF8A81823099F6B3CF4B
:101DF0008A81823079F6C5CF0F900F90CF91DF9115
:101E00000895AA1BBB1B51E107C0AA1FBB1FA61741
:101E1000B70710F0A61BB70B881F991F5A95A9F793
:101E200080959095BC01CD01089597FB092E07265A
:101E30000AD077FD04D0E5DF06D000201AF47095B3
:101E400061957F4F0895F6F7909581959F4F08957E
:101E5000FB01DC0102C001900D9241505040D8F7C7
:101E60000895F999FECF92BD81BDF89A992780B562
:061E70000895F894FFCF75
:101E7600010664640003060B0C171B140104070A11
:101E86000D111A1402050F09161019140102050680
:101E9600070F1E3C505A5A6E8CA0B4C8FA01645AF9
:101EA600F401080F192D3C50010101FFFEFEFE0052
:00000001FF
