:1000000021C03BC08FCBF8C9B5CAD7CA36C0FBC523
:1000100053C633C032C031C030C02FC084C62DC0DB
:100020002CC02BC02AC029C028C0CFC426C025C0E0
:1000300024C023C091C399C3A9C3B8C3CDC3E4C32B
:10004000F4C30BC411241FBECFEFD4E0DEBFCDBF7D
:1000500011E0A0E0B1E0EEEFFEE102C005900D92EC
:10006000A234B107D9F712E0A2E4B1E001C01D92B9
:10007000AF31B107E1F720DE40CFC2CF80E090E0A2
:1000800026DF80931B0188E090E021DF80931A0136
:1000900080E190E01CDF8093230188E190E017DF8E
:1000A00080933F0180E290E012DF8093400188E27C
:1000B00090E00DDF8093410180911B01873020F497
:1000C00080911B01882319F481E080931B018091AA
:1000D0001A01873020F480911A01882319F486E0F0
:1000E00080931A01CCD280912301873020F4809133
:1000F0002301882319F481E08093230108958091DE
:100100007D0190917E0128EC30E0B901B0DE709362
:100110004D0160934C0180917F0190918001B90164
:10012000A6DE70934F0160934E01809185019091FE
:100130008601B9019CDE709351016093500180915A
:100140004C0190914D0194E0981B90939101809106
:100150004E0190914F0180939201809150019091B6
:10016000510180933C0180914C0190914D019093FD
:1001700053018093520180914E0190914F019093D1
:1001800055018093540180915001909151019093B9
:10019000570180935601089580917D0190917E01D1
:1001A0002091460130914701821B930B90934501AA
:1001B00080934401809144019091450197FF0BC0C9
:1001C0008091440190914501909581959F4F909326
:1001D00045018093440120914C0130914D01809163
:1001E0005201909153012817390739F08091440149
:1001F000909145018333910524F48091A8018130C9
:1002000049F58091A801813019F41092A80118C015
:1002100080914C0190914D0194E0981B9093910135
:1002200080914C0190914D01909353018093520124
:1002300080917D0190917E019093470180934601CA
:100240008091910160911B018E5F41E0BBD384E6F8
:1002500090E037D480917F019091800120914801F6
:1002600030914901821B930B909345018093440187
:10027000809144019091450197FF0BC0809144010A
:1002800090914501909581959F4F90934501809362
:10029000440120914E0130914F0180915401909181
:1002A00055012817390739F0809144019091450193
:1002B0008333910524F48091A801823041F5809127
:1002C000A801823019F41092A80116C080914E0145
:1002D00090914F018093920180914E0190914F0136
:1002E000909355018093540180917F0190918001FA
:1002F00090934901809348019091920160911B0174
:1003000086E0891B41E05ED384E690E0DAD38091F9
:1003100085019091860120914A0130914B01821B09
:10032000930B9093450180934401809144019091F7
:10033000450197FF0BC08091440190914501909534
:1003400081959F4F909345018093440120915001E6
:10035000309151018091560190915701281739072A
:1003600039F080914401909145018333910524F443
:100370008091A801833039F58091A801833019F468
:100380001092A80116C08091500190915101809364
:100390003C01809185019091860190934B0180935F
:1003A0004A0180915001909151019093570180939F
:1003B000560180913C0160911B018F5F41E002D3A7
:1003C00084E690E07ED3089580917D0190917E0136
:1003D0002091460130914701821B930B9093450178
:1003E00080934401809144019091450197FF0BC097
:1003F0008091440190914501909581959F4F9093F4
:1004000045018093440120914C0130914D01809130
:100410005201909153012817390739F08091440116
:10042000909145018333910524F48091AB01882399
:10043000F9F080914C0190914D018F5F80931B01E9
:1004400060911B0186E041E0BDD280914C0190910A
:100450004D01909353018093520180917D019091C1
:100460007E01909347018093460181E08093A9012A
:1004700080917F0190918001209148013091490144
:10048000821B930B9093450180934401809144011A
:100490009091450197FF0BC08091440190914501D7
:1004A000909581959F4F90934501809344012091B1
:1004B0004E0130914F0180915401909155012817C0
:1004C000390749F1809144019091450183339105A9
:1004D00014F120914E0130914F0186E0982F921B2C
:1004E0009093230120914E0130914F0160911B01A7
:1004F000821B41E067D280914E0190914F01909311
:1005000055018093540180917F01909180019093D7
:100510004901809348018091850190918601209145
:100520004A0130914B01821B930B909345018093BC
:100530004401809144019091450197FF0BC0809147
:10054000440190914501909581959F4F909345016D
:1005500080934401209150013091510180915601C6
:10056000909157012817390729F180914401909102
:10057000450183339105F4F0809150019091510130
:1005800096E0981B90931A017AD060911B0186E047
:1005900041E018D280915001909151019093570100
:1005A00080935601809185019091860190934B0133
:1005B00080934A010895CF93DF9300D000D000D0FC
:1005C000CDB7DEB780913801813021F080913801BC
:1005D0008823D9F480913E01898380913F018A83E9
:1005E000809140018B83809141018C8381E08D83D8
:1005F000809138018F5F8E8386E060E0AE014F5FAF
:100600005F4FC4D982E0809338018091A90188238B
:10061000F9F080913E01898380913F018A83809126
:1006200040018B83809141018C838091A9018230AC
:1006300011F484E001C083E08D8380911B018E83DF
:1006400086E060E0AE014F5F5F4FA0D91092A90134
:1006500026960FB6F894DEBF0FBECDBFDF91CF91C7
:100660000895853608F084E6809319012FEF30E075
:10067000281B3109309389002093880008959091B8
:100680001A0181E1989F802D1124EBDF08958823C2
:1006900091F080918800909189008F3F9105B1F48D
:1006A0005D9A8FE39CE90197F1F700C0000080910B
:1006B0001901D7DF08955D9840982F985C982E987F
:1006C0008FEF90E090938900809388000895CF93F6
:1006D000DF9380E0DCDFC0E0D0E0FE01E75AFE4FB0
:1006E00010822196C432D105C1F788818064888345
:1006F000888182608883549A3C9A81E0C8DF809127
:10070000800089688093800080918100836080935D
:100710008100389A559A5D9A8FE39CE90197F1F729
:1007200000C00000888180688883DF91CF910895A0
:10073000282F873008F0A1C0862F90E088309105DF
:1007400008F0B9C0865E9F4FE22FF0E0E050FF4F07
:1007500030818F939F93089583E290E0DC01A31B87
:10076000B109A75ABE4F1C9209C083E290E0DC0198
:10077000A31BB109A75ABE4F31E03C933085DC0181
:10078000A31BB109A75ABE4F1C9236C083E290E06A
:10079000DC01A31BB109A75ABE4F1C923085DC01B6
:1007A000A31BB109A75ABE4F31E025C083E290E0F8
:1007B000DC01A31BB109A75ABE4F1C923085DC0196
:1007C000A31BB109A75ABE4F1C923089831B910904
:1007D000875A9E4F31E03EC083E290E0DC01A31BCC
:1007E000B109A75ABE4F31E03C934085DC01A41B00
:1007F000B109A75ABE4F3C933089831B9109875A90
:100800009E4FFC01108257C083E290E0DC01A31BE5
:10081000B109A75ABE4F31E03C934085DC01A41BCF
:10082000B109A75ABE4F1C9210C083E290E0DC01D0
:10083000A31BB109A75ABE4F1C923085DC01A31B34
:10084000B109A75ABE4F31E03C934089841B9109FE
:10085000875A9E4FFC0130832EC083E290E0DC017A
:10086000A31BB109A75ABE4F31E03C934085DC0180
:10087000A41BB109A75ABE4FE7CF873049F46623BE
:1008800021F081E080936801089510926801089535
:10089000883049F4662321F081E080936A0108954D
:1008A00010926A010895893069F4662311F0409A24
:1008B000089540980895263029F4662311F02F9A60
:1008C00008952F98089580E090E0FC01E75AFE4FCC
:1008D0002081213011F42E9A01C02E985C9A5C98E8
:1008E00001968432910589F7449A449881E0CFDEDD
:1008F00081E080935801089580E090E0FC01E75A80
:10090000FE4F1082019684329105C1F7DCDF089515
:10091000CF93C0E08C2F60E00BDFCF5FC630D1F704
:10092000D2DFCF9108958F929F92BF92CF92DF92A4
:10093000EF92FF920F931F93CF93DF9300D0CDB729
:10094000DEB7182FF62EB42EE22E1A821982E0DFBF
:10095000173008F016E01A821982C12EDD2405E056
:100960008DEF882E8FEF982E8C0C9D1C17C0EE20DB
:1009700039F0153028F089819A81881599054CF055
:1009800089819A81BB2019F0202F281B822F6F2D7F
:10099000CFDE89819A8101969A83898389819A81A0
:1009A0008C159D0524F38FDF0F900F90DF91CF9171
:1009B0001F910F91FF90EF90DF90CF90BF909F908D
:1009C0008F90089520E0AFDF08951F920F920FB629
:1009D0000F9211248F939F93EF93FF93E0918D01DA
:1009E000FF27E7FDF0958091780090917900EE0F58
:1009F000FF1FE358FE4F9183808380918D018F5FAD
:100A000080938D0180918D01853014F010928D01BD
:100A100080917C00807F80937C0090917C00E091AD
:100A20008D01FF27E7FDF095E45EFE4F8081892B65
:100A300080937C0080917A00806480937A00FF919B
:100A4000EF919F918F910F900FBE0F901F9018956F
:100A5000ECE7F0E0808180648083EAE7F0E0808169
:100A60008F688083AEE7B0E08C9186628C93808142
:100A7000806480830895569AE0E7F0E08081866084
:100A8000808381E08093B30082E08093B400089576
:100A9000181634F48091B10084608093B1000895F9
:100AA000882371F48091B1008B7F8093B1005E98B0
:100AB0001092B20081E08093B30082E08093B40092
:100AC0000895CF93DF93EC0180912301823030F0C1
:100AD00080918F0190919001009721F48091910174
:100AE0008F3F01F580918E01882301F11BC0E091B9
:100AF0009201F0E0EC5DFE4F808180932201E09155
:100B00009101FF27E7FDF095E55DFE4F8081809321
:100B1000210181E0BDDFCE0162E370E0BCD96093CA
:100B2000930104C080919301882309F3DF91CF9151
:100B30000895CF93DF93EC0180912301823030F050
:100B400080918F0190919001009721F48091910103
:100B50008F3F39F580918E01882339F122C0809131
:100B60009201E0919201F0E0882319F4EB5DFE4FD1
:100B700002C0ED5DFE4F808180932201E0919101E2
:100B8000FF27E7FDF095E55DFE4F80818093210111
:100B900081E07EDFCE0162E370E07DD96093930156
:100BA00004C0809193018823D1F2DF91CF91089501
:100BB000CF93DF93EC0180912301823030F080915C
:100BC0008F0190919001009721F4809191018F3FC6
:100BD00071F480918E01882371F009C081E058DFA3
:100BE000CE0162E370E057D96093930104C0809115
:100BF0009301882399F3DF91CF9108958093210188
:100C00006093220108951F920F920FB60F92112444
:100C10002F933F934F935F936F937F938F939F9304
:100C2000AF93BF93CF93DF9300D0CDB7DEB7809162
:100C30002201869590E09A83898329813A814091A7
:100C4000210150E0429FC001439F900D529F900DA3
:100C500011249A83898389819A8164E670E007D997
:100C60007A8369832091B30089819A812091B300AE
:100C700089819A81280F2093B4002091B30080913C
:100C800022019091B30080912201890F8093B300DB
:100C90005E9A0F900F90DF91CF91BF91AF919F918E
:100CA0008F917F916F915F914F913F912F910F9015
:100CB0000FBE0F901F9018951F920F920FB60F92B4
:100CC00011245E980F900FBE0F901F9018952098DA
:100CD000289A3B98439A8AB183778AB98BB18C68FA
:100CE0008BB9E8E6F0E0808187608083EBE6F0E096
:100CF000808181608083ECE6F0E080818860808381
:100D0000EDE6F0E080818468808384B5826084BDF4
:100D100085B5856085BDEEE6F0E0808182608083E8
:100D20008FEF87BD08951F920F920FB60F92112477
:100D30002F933F934F935F936F937F938F939F93E3
:100D4000AF93BF93CF93EF93FF938091AC01882330
:100D500029F480912301823008F42EC389E061E0F8
:100D6000E7DC80919301882389F08091A5018F5F52
:100D70008093A5019091A50180919301891730F48A
:100D800080E086DE1092A5011092930180918E0181
:100D90008130E9F480919E0190919F0121E086339A
:100DA000920748F480919E0190919F010196909343
:100DB0009F0180939E0180919D018A3030F4809143
:100DC0009D018F5F80939D0102C010929D018091D3
:100DD000AB01813009F4FEC280913B01853009F0FE
:100DE000A1C08091A0018F5F8093A0018091A0019C
:100DF0008D3360F01092A00188E061E099DC809171
:100E0000AA01882369F087E061E009C08091A00110
:100E10008F3138F088E060E08BDC87E060E088DCD0
:100E200052DD8091A701882309F479C283B180FD46
:100E300012C08091A701883228F48091A7018F5FAA
:100E40008093A7018091A7018E3109F068C281E0EB
:100E50008093AA0164C28091A7018F3108F05DC21E
:100E60008091A7018F3008F058C288E061E060DC13
:100E70002ADD8FEF90E7A2E081509040A040E1F79B
:100E800000C0000088E060E053DC1DDD8FEF90E7DC
:100E9000A2E081509040A040E1F700C0000088E04F
:100EA00061E046DC10DD8FEF90E7A2E081509040DA
:100EB000A040E1F700C0000088E060E039DC03DD1D
:100EC000F999FECF60911B0180E090E008D8F99974
:100ED000FECF60911A0188E090E001D8F999FECF29
:100EE0006091230180E190E0FAD7F999FECF88E183
:100EF00090E060913F01F3D7F999FECF80E290E056
:100F000060914001ECD7F999FECF88E290E06091C2
:100F10004101E5D7F999FECF1092A70181E08093B6
:100F20003901FDC180913B01882309F4F8C180910A
:100F30002301823000F180918F0190919001009700
:100F4000D1F080918F019091900101969093900142
:100F500080938F0120918F01309190019091230116
:100F600088EC989FC00111248217930720F41092F7
:100F7000900110928F0180919C01882359F08091FB
:100F80009C018F5F80939C0180919C018B3010F0BD
:100F900010929C0180919901882381F1809199019F
:100FA0008F5F8093990180919901833038F180910E
:100FB0009801863018F5ACDC8091A101882329F4D2
:100FC0008091980160911B0106C0909198016091F9
:100FD0001B0185E0891BACDB76DC809198018F5F7B
:100FE0008093980180919801863029F4109299019C
:100FF0001092980103C081E0809399018091810152
:1010000090918201A3E081329A0748F080919A0181
:10101000883228F480919A018F5F80939A018091A1
:10102000810190918201B1E080399B0748F4809161
:101030009A01882329F080919A01815080939A0126
:10104000809123018230B8F080919A01853198F027
:1010500080919B01882379F480918F019091900178
:10106000009749F481E090E09093900180938F0184
:1010700081E080939B0180912301823050F0809128
:101080009A018A3030F480919B01813011F41092E2
:101090009B01809136019091370121E080399207C0
:1010A000F0F58091360190913701019690933701C8
:1010B000809336018091A101882311F58091A201CE
:1010C0009091A30101969093A3018093A201809136
:1010D000A2019091A3018730910590F08091360193
:1010E0009091370180FD04C060911B0186E002C031
:1010F00086E060E01DDBE7DB1092A3011092A20105
:101100008091360190913701A1E080399A0739F436
:1011100087E060E00DDB86E060E00ADBD4DB8091F5
:10112000AC01882381F480915801882361F080917B
:1011300058018F5F8093580180915801873918F0CA
:1011400010925801D9DB80913B01823021F08091CF
:101150003B01843071F58091830190918401853049
:10116000910540F48091A4018233A0F48091A40100
:101170008F5F0EC08091A401882361F0809183016C
:10118000909184018031910528F08091A4018150D3
:101190008093A4018091A4018F3118F088E061E070
:1011A00006C08091A401882321F488E060E0C0DAC1
:1011B0008ADB8091AC01882309F401C1809181010F
:1011C00090918201B1E080399B0708F0F8C081E07E
:1011D0000DC0809181019091820123E081329207BC
:1011E00038F080918E01813019F482E080938E0175
:1011F0008091A701882309F492C083B180FD51C07A
:101200008091A701883228F48091A7018F5F809395
:10121000A7018091A7018F3108F481C09091AC01A2
:1012200081E0911180E08093AC018091AC01882332
:1012300019F186E061E07CDA46DB8FEF92E5A7E00A
:1012400081509040A040E1F700C0000086E062E0DD
:101250006FDA39DB8FEF92E5A7E081509040A04034
:10126000E1F700C0000086E060E062DA2CDB10925B
:101270009F0110929E0151C086E063E059DA23DBA2
:101280008FEF92E5A7E081509040A040E1F700C0C9
:10129000000086E060E04CDA16DB82E080938E018D
:1012A0003CC08091A7018823D1F18091A7018F30A4
:1012B000B0F580913B01843020F480913B018F5F39
:1012C00001C081E080933B0180913B01823021F09D
:1012D00080913B018430D1F488E061E029DAF3DACF
:1012E0008FE799EAA3E081509040A040E1F700C069
:1012F000000088E060E01CDAE6DA8FE799EAA3E014
:1013000081509040A040E1F700C0000084EF91E0E0
:101310009093370180933601EFDA1092A7014F992D
:1013200054C08091A601882309F44FC08091A70181
:10133000882309F04AC08091A601883228F4809160
:10134000A6018F5F8093A6018091A6018F3158F18D
:10135000C1E060911B018C2F40E034DB8FE798E304
:10136000A1E081509040A040E1F700C00000CF5FB5
:10137000C73079F7C6E060911B018C2F40E022DB7B
:101380008FE798E3A1E081509040A040E1F700C0D2
:101390000000C15081F71092A60181E080933901CD
:1013A00002C01092A6018091A701882399F0189B92
:1013B00011C01092A7010EC089E060E0D1CC8091ED
:1013C000AC01882309F005CF13CF8091A6018823B3
:1013D00041F7E9CFFF91EF91CF91BF91AF919F91ED
:1013E0008F917F916F915F914F913F912F910F90CE
:1013F0000FBE0F901F9018951F920F920FB60F926D
:1014000011248F939F938FE19EE40197F1F700C021
:10141000000083B180FD0EC08091A701882351F4A4
:101420008091AB01882321F481E08093A70102C061
:101430001092AB019F918F910F900FBE0F901F9054
:10144000189580913B01882309F493C080913B015A
:10145000853009F48EC04F9B8CC083B180FF89C05A
:101460007AC04A9921C0809195019091970191305D
:1014700009F074C090919601913009F06FC01092FC
:10148000950107C090919601992319F491E09093EA
:1014900095012091950130E0992787FD90952817B7
:1014A000390711F01092940181E0339980E0809324
:1014B000970181E04A9980E0809396019091940190
:1014C000E0913C01F0E0E05DFE4F80818917E8F596
:1014D0001092940181E080939C0190913B019330A4
:1014E00009F442C090913B019430F1F1909199013F
:1014F0009923D1F5909195019093A1018093990141
:1015000008C080913B01843041F480919501809323
:10151000A10180919501809338018091A1018823D8
:1015200021F082E390E0CDDA03C082E390E001DBBA
:1015300060911B0186E0FCD887E061E0F9D8C3D94F
:1015400010923701109236010895809194018F5FB7
:10155000809394010895339984CFA6CF90919701F9
:10156000992309F48FCF95CF80913B01833049F6C1
:10157000CCCF08951F920F920FB60F9211242F9384
:101580003F934F935F936F937F938F939F93AF930B
:10159000BF93EF93FF9355DFFF91EF91BF91AF9111
:1015A0009F918F917F916F915F914F913F912F917B
:1015B0000F900FBE0F901F9018951F920F920FB6AD
:1015C0000F9211242F933F934F935F936F937F93C9
:1015D0008F939F93AF93BF93EF93FF934F9912C055
:1015E0008091A601882371F48091A701882351F48A
:1015F0008FE19EE40197F1F700C0000081E0809345
:10160000A60101C01EDFFF91EF91BF91AF919F91A5
:101610008F917F916F915F914F913F912F910F909B
:101620000FBE0F901F90189567D980E031DA1092A5
:101630003B0180913B0180933A0183B7856083BF72
:10164000E9E6F0E08081837F8083E99A1092AC0123
:1016500080E01DD888950895CF93E99883B78E7F51
:1016600083BF80913A01882309F458C080913A01E0
:10167000853009F453C080913A0180933B018FEF8C
:1016800099E6A8E181509040A040E1F700C0000039
:1016900081E0FDD780E0FCD94F9B04C081E08093BE
:1016A00039013EC083B180FD0AC085E080933B01D3
:1016B00088EE93E006DA81E08093AB0131C0C1E0AF
:1016C00060911B018C2F41E07DD98FE798E3A1E069
:1016D00081509040A040E1F700C00000CF5FC730CC
:1016E00079F7C6E060911B018C2F41E06BD98FE741
:1016F00098E3A1E081509040A040E1F700C00000D5
:10170000C15081F7609192018FE078DA80E991E031
:101710004FDAFED881E08093A90102C081E0ADCF0D
:10172000CF9108951F920F920FB60F9211242F930D
:101730003F934F935F936F937F938F939F93AF9359
:10174000BF93EF93FF9388DFFF91EF91BF91AF912C
:101750009F918F917F916F915F914F913F912F91C9
:101760000F900FBE0F901F9018952A989EBD0DB434
:1017700007FEFDCF8EBD0DB407FEFDCF2A9A08955A
:101780002A989EBD0DB407FEFDCF9EB5392F20E0EF
:101790008EBD0DB407FEFDCF8EB52A9A90E0822B48
:1017A000932B08952A981EBC0DB407FEFDCF2A9AEC
:1017B0008EB508952A988EBD0DB407FEFDCF6EBD7F
:1017C0000DB407FEFDCF2A9A08952A9880EB8EBDAE
:1017D0000DB407FEFDCF1EBC0DB407FEFDCF2A9A47
:1017E0008EB50895239A259A229A249881E58CBD76
:1017F0000895CF93D7DF87FF82C08091AD018130FC
:10180000E1F0813020F0823009F071C058C0C1E0B1
:10181000C093B001DADF80931E02982F9D5F9093F2
:10182000AF01E091B101F091B2019081992309F0EB
:101830005EC0C093AD01818362C09091B001809180
:10184000AF019817D8F4C1DF90911E0298279093AA
:101850001E022091B001213238F4E091B101F091E3
:10186000B201E20FF11D81838091B001823011F449
:101870009F3FE9F58F5F8093B00141C0E091B101D6
:10188000F091B20182E080838091B50190E00196F1
:10189000817090708093B501282F30E0C901880FC6
:1018A000991F55E0220F331F5A95E1F7820F931FBE
:1018B00089549E4F9093B2018093B10118C08091DA
:1018C000B0019091AF01891750F4E82FF0E0E55096
:1018D000FE4F60818F5F8093B00188EB0FC0109244
:1018E000AE0181E892E841DF88EB6AEA63DF10929B
:1018F000AD018AEC61E85EDF8AEC63E85BDFCF91E3
:1019000008958091AD01882369F580E090E038DF8B
:1019100090FF04C088EC80933D01089580913D01C3
:10192000815080933D018823E9F481E080933D015B
:101930008091AE018130B1F481E092E816DF8091B0
:10194000FD018A5F8093AF011092B00182E0809325
:10195000AD018AEA98EB09DF8AEA98EB06DF81E2BB
:1019600092E803DF08959091AE01992369F46093A2
:10197000FD018093FE01862780958093FF0181E021
:101980008093AE0180E8089583E00895CF93DF93BC
:10199000C82FD62F8F3178F48091AE01882369F457
:1019A00020E032E0C901BA014C2F50E087D28D2FE0
:1019B0006C2FD9DF03C082E001C083E0DF91CF91BB
:1019C0000895E091B301F091B40110828091B601C5
:1019D00090E00196817090708093B601282F30E0DE
:1019E000C901880F991F75E0220F331F7A95E1F71F
:1019F000820F931F89549E4F9093B4018093B3013B
:101A000008952A9A229AEEDE87EE90E8AEDE81E013
:101A100092E8ABDE80E496EAA8DE83EA96ECA5DEE7
:101A20008CE294E9A2DE8BEA92EC9FDE81E89AECEC
:101A30009CDE87EF94EC99DE80E798E996DE80E003
:101A400098EC93DE80E090EE90DE8DE28093FB01D7
:101A500084ED8093FC0187EB91E09093B401809337
:101A6000B3019093B2018093B10181E892E87DDEE9
:101A7000E9E6F0E080818860808380E090E080DEAD
:101A8000E19A81E89AEC71DE83E89AEC6EDE0895C3
:101A900080E095EE6ADE85E092E867DE08950895BD
:101AA000CF93DF9300D0CDB7DEB7AC011A82198295
:101AB000FC0120E030E070E0E2C081918F3F09F04E
:101AC000DCC0C9010596861797070CF0D6C0809137
:101AD000AA01FA01E20FF31F882309F4D5C084811B
:101AE0008C3009F0D1C0818180933F018281809345
:101AF000400183818093410186E061E019D6E3D6FD
:101B00008FEF90E7A2E081509040A040E1F700C045
:101B1000000086E060E00CD6D6D68FEF90E7A2E01A
:101B200081509040A040E1F700C0000086E061E0F5
:101B3000FFD5C9D68FEF90E7A2E081509040A0403A
:101B4000E1F700C0000086E060E0F2D5BCD682E09C
:101B50008093A9011092AA01A9C0928180914001AD
:101B6000981709F0A3C0938180914101981709F05B
:101B70009DC084818B3009F46FC08D3009F479C029
:101B80008A3009F093C08581982F9F70998390E0E7
:101B900024E0959587952A95E1F78A838A818823A1
:101BA00009F484C08A81843008F080C08981882348
:101BB00009F47CC08981833008F078C08A81823042
:101BC000E1F0833089F1813009F042C089818230AF
:101BD00009F060C08091910184300CF05BC080916D
:101BE00091018F5F07C08091910187FD31C0809185
:101BF00091018150809391012BC08981813009F03E
:101C00004DC080919201853008F048C080919201CA
:101C10008F5F07C0809192018823D1F0809192015B
:101C200081508093920114C089818130D9F58091CF
:101C30003C018630B8F580913C018F5F07C08091F0
:101C40003C01882329F080913C01815080933C0124
:101C50008A818093A8012AC08581813019F48093FC
:101C6000AC0124C0823011F51092AC0180938E013A
:101C70001DC081E08093A90119C02F5F3F4F261737
:101C800037070CF41ACF12C0918180913F01981749
:101C900069F463CF89818130D9F6A5CF89818230FB
:101CA000B9F6B8CF8981823099F6C9CF0F900F90DD
:101CB000DF91CF91089508950AD8E0D1C9D607D50C
:101CC0001BD601D6D8D69DDE78948FEF91EEA4E096
:101CD00081509040A040E1F700C0000010D284EF96
:101CE00091E0909337018093360106D6ECD5C8EC8D
:101CF000D0E006E910E080913901882339F0809125
:101D00008E01882319F4109239018EDC80913B01F9
:101D1000882389F380918E018130E9F580919E01BD
:101D200090919F01A1E08C329A0740F580919D012E
:101D3000863098F486E061E041E044D686E061E0D8
:101D4000F7D487E061E0F4D488E061E0F1D4BBD55A
:101D50008AE562E853D781E00FC086E062E041E0A7
:101D600031D686E062E0E4D487E061E0E1D488E047
:101D700061E0DED4A8D580E08BD61EC080919E01A4
:101D800090919F01B1E08C329B07B1F480E080D646
:101D9000B3D599D511C080918E01823069F410922B
:101DA0009F0110929E0180E073D6A6D58CD588E065
:101DB00060E0BED410928E0180913B01853001F528
:101DC00080917D0190917E01B80151D070934D01B9
:101DD00060934C0180917F0190918001BE0147D0BA
:101DE00070934F0160934E0180918501909186011F
:101DF000BE013DD07093510160935001E5D223C0E4
:101E000080917D0190917E01BE0131D070934D0192
:101E100060934C0180917F0190918001BE0127D099
:101E200070934F0160934E018091850190918601DE
:101E3000BE011DD0709351016093500180919C01AF
:101E4000882309F4A9D1E091B301F091B401808114
:101E5000823049F4CF01049690934301809342016C
:101E600061811EDEAEDDC5DCA6D34BDD44CFAA1BEF
:101E7000BB1B51E107C0AA1FBB1FA617B70710F075
:101E8000A61BB70B881F991F5A95A9F780959095A7
:101E9000BC01CD01089597FB092E07260AD077FDD6
:101EA00004D0E5DF06D000201AF4709561957F4FCD
:101EB0000895F6F7909581959F4F0895FB01DC01F9
:101EC00002C001900D9241505040D8F70895F99901
:101ED000FECF92BD81BDF89A992780B50895262F2F
:101EE000F999FECF1FBA92BD81BD20BD0FB6F894FF
:0E1EF000FA9AF99A0FBE01960895F894FFCF62
:101EFE000003060B0C171B140104070A0D111A140C
:101F0E0002050F0916101914646406010102050674
:101F1E00075A64015A6E8CA0B4C8FA0F1E3C505A70
:101F2E00080F192D3C50F401020101010110FF00B0
:021F3E000000A1
:00000001FF
