:1000000021C03BC09BCAB2C8D2C9F4C936C062C5C0
:10001000BAC533C032C031C030C02FC0EBC52DC00F
:100020002CC02BC02AC029C028C036C426C025C079
:1000300024C023C0F8C200C310C31FC334C34BC3C2
:100040005BC372C311241FBECFEFD4E0DEBFCDBFB0
:1000500011E0A0E0B1E0E4ECFAE102C005900D92FD
:10006000AE33B107D9F712E0AEE3B1E001C01D92A3
:10007000A631B107E1F718DC23CDC2CF80E090E0D4
:1000800009DD80931B0188E090E004DD80931A0174
:1000900080E190E0FFDC8093230180911B01873099
:1000A00020F480911B01882319F481E080931B01C7
:1000B00080911A01873020F480911A01882319F465
:1000C00086E080931A0155D280912301873020F475
:1000D00080912301882319F481E0809323010895FE
:1000E000809177019091780128EC30E0B901A2DC91
:1000F00070934701609346018091790190917A0154
:10010000B90198DC709349016093480180917F01A7
:1001100090918001B9018EDC70934B0160934A018C
:10012000809146019091470194E0981B90938B0138
:10013000809148019091490180938C0180914A01FE
:1001400090914B0180933801809146019091470135
:1001500090934D0180934C01809148019091490109
:1001600090934F0180934E0180914A0190914B01F1
:10017000909351018093500108958091770190915F
:1001800078012091400130914101821B930B9093A3
:100190003F0180933E0180913E0190913F0197FF86
:1001A0000BC080913E0190913F01909581959F4FAA
:1001B00090933F0180933E01209146013091470189
:1001C00080914C0190914D012817390761F1809180
:1001D0003E0190913F01833391052CF180914601BE
:1001E0009091470194E0981B90938B0120914601D8
:1001F0003091470160911B0186E0821B41E049D3A9
:10020000809146019091470190934D0180934C015C
:100210008091770190917801909341018093400102
:1002200084E690E0B5D38091790190917A01209194
:10023000420130914301821B930B90933F018093C5
:100240003E0180913E0190913F0197FF0BC080914C
:100250003E0190913F01909581959F4F90933F0172
:1002600080933E01209148013091490180914E01D7
:1002700090914F012817390751F180913E019091DB
:100280003F01833391051CF1809148019091490110
:1002900080938C01209148013091490160911B01AC
:1002A00086E0821B41E0F5D280914801909149019E
:1002B00090934F0180934E018091790190917A0142
:1002C000909343018093420184E690E061D3809152
:1002D0007F01909180012091440130914501821B62
:1002E000930B90933F0180933E0180913E0190914A
:1002F0003F0197FF0BC080913E0190913F01909587
:1003000081959F4F90933F0180933E0120914A0138
:1003100030914B018091500190915101281739077C
:1003200049F180913E0190913F018333910514F191
:1003300080914A0190914B018093380180914A014C
:1003400090914B0160911B018F5F41E0A2D280919F
:100350007F019091800190934501809344018091A9
:100360004A0190914B01909351018093500184E692
:1003700090E00ED3089580917701909178012091BB
:10038000400130914101821B930B90933F01809378
:100390003E0180913E0190913F0197FF0BC08091FB
:1003A0003E0190913F01909581959F4F90933F0121
:1003B00080933E01209146013091470180914C018C
:1003C00090914D012817390719F180913E019091C4
:1003D0003F0183339105E4F08091460190914701FC
:1003E0008F5F80931B0160911B0186E041E051D239
:1003F000809146019091470190934D0180934C016B
:100400008091770190917801909341018093400110
:100410008091790190917A012091420130914301BC
:10042000821B930B90933F0180933E0180913E018C
:1004300090913F0197FF0BC080913E0190913F0149
:10044000909581959F4F90933F0180933E0120911D
:1004500048013091490180914E0190914F01281738
:10046000390749F180913E0190913F018333910515
:1004700014F1209148013091490186E0982F921B98
:1004800090932301209148013091490160911B0113
:10049000821B41E0FED180914801909149019093E7
:1004A0004F0180934E018091790190917A01909350
:1004B00043018093420180917F01909180012091BE
:1004C000440130914501821B930B90933F0180932F
:1004D0003E0180913E0190913F0197FF0BC08091BA
:1004E0003E0190913F01909581959F4F90933F01E0
:1004F00080933E0120914A0130914B01809150013F
:10050000909151012817390729F180913E0190916E
:100510003F0183339105F4F080914A0190914B01A2
:1005200096E0981B90931A0124D060911B0186E0FD
:1005300041E0AFD180914A0190914B0190935101DC
:100540008093500180917F019091800190934501AB
:10055000809344010895853608F084E6809319015C
:100560002FEF30E0281B3109309389002093880059
:10057000089590911A0181E1989F802D1124EBDF5D
:100580000895882321F080911901E5DF08958FEF08
:1005900090E090938900809388000895CF93DF9333
:1005A00080E0EFDFC0E0D0E0FE01ED5AFE4F1082A8
:1005B0002196C432D105C1F78881806488838881FF
:1005C00082608883549A3C9A81E0DBDF80918000CE
:1005D000896880938000809181008360809381008E
:1005E000389A559A5D9A8FE39CE90197F1F700C01C
:1005F0000000888180688883DF91CF910895282F3B
:10060000873008F0A1C0862F90E08830910508F06F
:10061000B9C0865E9F4FE22FF0E0E050FF4F30817F
:100620008F939F93089583E290E0DC01A31BB109AF
:10063000AD5ABE4F1C9209C083E290E0DC01A31BBF
:10064000B109AD5ABE4F31E03C933085DC01A31BAC
:10065000B109AD5ABE4F1C9236C083E290E0DC0176
:10066000A31BB109AD5ABE4F1C923085DC01A31B00
:10067000B109AD5ABE4F31E025C083E290E0DC0104
:10068000A31BB109AD5ABE4F1C923085DC01A31BE0
:10069000B109AD5ABE4F1C923089831B91098D5A06
:1006A0009E4F31E03EC083E290E0DC01A31BB10924
:1006B000AD5ABE4F31E03C934085DC01A41BB1092B
:1006C000AD5ABE4F3C933089831B91098D5A9E4F82
:1006D000FC01108257C083E290E0DC01A31BB1094A
:1006E000AD5ABE4F31E03C934085DC01A41BB109FB
:1006F000AD5ABE4F1C9210C083E290E0DC01A31BF8
:10070000B109AD5ABE4F1C923085DC01A31BB10963
:10071000AD5ABE4F31E03C934089841B91098D5AFC
:100720009E4FFC0130832EC083E290E0DC01A31BCE
:10073000B109AD5ABE4F31E03C934085DC01A41BAA
:10074000B109AD5ABE4FE7CF873049F4662321F097
:1007500081E08093620108951092620108958830CB
:1007600049F4662321F081E080936401089510929A
:1007700064010895893069F4662311F0409A089560
:1007800040980895263029F4662311F05F9A089561
:100790005F98089580E090E0FC01ED5AFE4F2081C3
:1007A000213011F42E9A01C02E985C9A5C98019623
:1007B0008432910589F7449A449881E0E2DE81E031
:1007C00080935201089580E090E0FC01ED5AFE4FC5
:1007D0001082019684329105C1F7DCDF0895CF9332
:1007E000C0E08C2F60E00BDFCF5FC630D1F7D2DFE7
:1007F000CF9108958F929F92BF92CF92DF92EF9206
:10080000FF920F931F93CF93DF9300D0CDB7DEB746
:10081000182FF62EB42EE22E1A821982E0DF17303E
:1008200008F016E01A821982C12EDD2405E08DEF52
:10083000882E8FEF982E8C0C9D1C17C0EE2039F05F
:10084000153028F089819A81881599054CF08981A5
:100850009A81BB2019F0202F281B822F6F2DCFDE0D
:1008600089819A8101969A83898389819A818C15DD
:100870009D0524F38FDF0F900F90DF91CF911F9193
:100880000F91FF90EF90DF90CF90BF909F908F904F
:10089000089520E0AFDF08951F920F920FB60F92D8
:1008A00011248F939F93EF93FF93E0918701FF278C
:1008B000E7FDF0958091780090917900EE0FFF1F91
:1008C000E958FE4F91838083809187018F5F8093E9
:1008D000870180918701853014F010928701809103
:1008E0007C00807F80937C0090917C00E091870168
:1008F000FF27E7FDF095E45EFE4F8081892B809312
:100900007C0080917A00806480937A00FF91EF915F
:100910009F918F910F900FBE0F901F901895ECE74D
:10092000F0E0808180648083EAE7F0E080818F6876
:100930008083AEE7B0E08C9186628C938081806486
:1009400080830895569AE0E7F0E080818660808396
:1009500081E08093B30082E08093B400089518167C
:1009600034F48091B10084608093B10008958823AD
:1009700071F48091B1008B7F8093B1005E981092EA
:10098000B20081E08093B30082E08093B4000895C8
:10099000CF93DF93EC0180912301823030F080917E
:1009A000890190918A01009721F480918B018F3FFA
:1009B00001F580918801882301F11BC0E0918C0131
:1009C000F0E0EC5DFE4F808180932201E0918B018D
:1009D000FF27E7FDF095E55DFE4F808180932101C3
:1009E00081E0BDDFCE0162E370E038D860938D0115
:1009F00004C080918D01882309F3DF91CF91089580
:100A0000CF93DF93EC0180912301823030F080910D
:100A1000890190918A01009721F480918B018F3F89
:100A200039F580918801882339F122C080918C01A9
:100A3000E0918C01F0E0882319F4EB5DFE4F02C0D9
:100A4000ED5DFE4F808180932201E0918B01FF27B5
:100A5000E7FDF095E55DFE4F80818093210181E007
:100A60007EDFCE0162E370E0F9D760938D0104C0B0
:100A700080918D018823D1F2DF91CF910895CF939A
:100A8000DF93EC0180912301823030F08091890165
:100A900090918A01009721F480918B018F3F71F42E
:100AA00080918801882371F009C081E058DFCE0170
:100AB00062E370E0D3D760938D0104C080918D0113
:100AC000882399F3DF91CF9108958093210160935A
:100AD000220108951F920F920FB60F9211242F93A7
:100AE0003F934F935F936F937F938F939F93AF93B6
:100AF000BF93CF93DF9300D0CDB7DEB780912201B3
:100B0000869590E09A83898329813A8140912101D9
:100B100050E0429FC001439F900D529F900D1124C1
:100B20009A83898389819A8164E670E083D77A8386
:100B300069832091B30089819A812091B3008981D2
:100B40009A81280F2093B4002091B3008091220154
:100B50009091B30080912201890F8093B3005E9A37
:100B60000F900F90DF91CF91BF91AF919F918F9197
:100B70007F916F915F914F913F912F910F900FBE99
:100B80000F901F9018951F920F920FB60F9211247D
:100B90005E980F900FBE0F901F9018952098289A7E
:100BA0003B98439A8AB183778AB98BB18C688BB9A9
:100BB000E8E6F0E0808187608083EBE6F0E080810A
:100BC00081608083ECE6F0E0808188608083EDE6E0
:100BD000F0E080818468808384B5826084BD85B5BF
:100BE000856085BDEEE6F0E08081826080838FEFD6
:100BF00087BD08951F920F920FB60F9211242F9365
:100C00003F934F935F936F937F938F939F93AF9394
:100C1000BF93CF93EF93FF938091A301882329F48F
:100C200080912301823008F486C289E061E0E7DC2C
:100C300080918D01882389F080919F018F5F80933F
:100C40009F0190919F0180918D01891730F480E080
:100C500086DE10929F0110928D0180918801813073
:100C6000E9F4809198019091990121E086339207EF
:100C700048F480919801909199010196909399017F
:100C800080939801809197018A3030F48091970188
:100C90008F5F8093970102C01092970180913B0172
:100CA0008530C1F480919A018F5F80939A01809181
:100CB0009A018D3328F010929A0188E061E007C014
:100CC00080919A018F3108F4FEC188E060E097DCE2
:100CD00061DDF9C180913B01882309F4F4C1809161
:100CE0002301823000F18091890190918A0100975F
:100CF000D1F08091890190918A01019690938A01A7
:100D0000809389012091890130918A01909123017A
:100D100088EC989FC00111248217930720F4109249
:100D20008A011092890180919601882359F080915F
:100D300096018F5F80939601809196018B3010F021
:100D40001092960180919301882381F18091930103
:100D50008F5F8093930180919301833038F180916C
:100D60009201863018F53BDD80919B01882329F4A0
:100D70008091920160911B0106C090919201609157
:100D80001B0185E0891B3BDC05DD809192018F5FB3
:100D90008093920180919201863029F41092930100
:100DA0001092920103C081E08093930180917B01B6
:100DB00090917C01A3E081329A0748F080919401E0
:100DC000883228F4809194018F5F80939401809100
:100DD0007B0190917C01B1E080399B0748F48091C0
:100DE0009401882329F0809194018150809394018B
:100DF000809123018230B8F080919401853198F080
:100E000080919501882379F48091890190918A01DC
:100E1000009749F481E090E090938A0180938901E2
:100E200081E08093950180912301823050F0809180
:100E300094018A3030F480919501813011F4109240
:100E40009501809136019091370121E08039920718
:100E5000F0F580913601909137010196909337011A
:100E60008093360180919B01882311F580919C012C
:100E700090919D01019690939D0180939C0180919A
:100E80009C0190919D018730910590F080913601F1
:100E90009091370180FD04C060911B0186E002C083
:100EA00086E060E0ACDB76DC10929D0110929C0144
:100EB0008091360190913701A1E080399A0739F489
:100EC00087E060E09CDB86E060E099DB63DC80919A
:100ED000A301882381F480915201882361F08091DD
:100EE00052018F5F8093520180915201873918F02F
:100EF0001092520168DC80913B01823021F0809198
:100F00003B01843071F580917D0190917E018530A7
:100F1000910540F480919E018233A0F480919E015E
:100F20008F5F0EC080919E01882361F080917D01CA
:100F300090917E018031910528F080919E01815031
:100F400080939E0180919E018F3118F088E061E0CE
:100F500006C080919E01882321F488E060E04FDB89
:100F600019DC8091A301882309F4E8C080917B01FA
:100F700090917C01B1E080399B0708F0DFC081E0EF
:100F80000DC080917B0190917C0123E0813292071A
:100F900038F080918801813019F482E080938801D3
:100FA0008091A101882309F48EC083B180FD4DC0DA
:100FB0008091A1018F5F8093A1018091A1018F3168
:100FC00008F481C09091A30181E0911180E08093A9
:100FD000A3018091A301882319F186E061E00FDB72
:100FE000D9DB8FEF92E5A7E081509040A040E1F778
:100FF00000C0000086E062E002DBCCDB8FEF92E510
:10100000A7E081509040A040E1F700C0000086E0DA
:1010100060E0F5DABFDB109299011092980151C09F
:1010200086E063E0ECDAB6DB8FEF92E5A7E0815073
:101030009040A040E1F700C0000086E060E0DFDA09
:10104000A9DB82E0809388013CC08091A1018823C4
:10105000D1F18091A1018F30B0F580913B018430B6
:1010600020F480913B018F5F01C081E080933B01C0
:1010700080913B01823021F080913B018430D1F49A
:1010800088E061E0BCDA86DB8FE799EAA3E0815073
:101090009040A040E1F700C0000088E060E0AFDAD7
:1010A00079DB8FE799EAA3E081509040A040E1F717
:1010B00000C0000084EF91E09093370180933601E7
:1010C00082DB1092A1014F993FC08091A00188233B
:1010D000D9F18091A0018F5F8093A0018091A00140
:1010E0008E3191F5C1E060911B018C2F40E0D1DB86
:1010F0008FE798E3A1E081509040A040E1F700C065
:101100000000CF5FC73079F7C6E060911B018C2FDC
:1011100040E0BFDB8FE798E3A1E081509040A04022
:10112000E1F700C00000C15081F781E080933901F0
:101130001092A00109C089E060E079CD8091A301FF
:10114000882309F01ECF2CCFFF91EF91CF91BF9153
:10115000AF919F918F917F916F915F914F913F914F
:101160002F910F900FBE0F901F9018951F920F9206
:101170000FB60F9211242F933F934F935F936F936A
:101180007F938F939F93AF93BF93EF93FF9383B11D
:1011900080FD68C080913B01853021F081E0809323
:1011A000A10160C080913B01853009F057C080915A
:1011B000A201882309F052C088E061E020DAEADA6F
:1011C0008FEF90E7A2E081509040A040E1F700C08F
:1011D000000088E060E013DADDDA8FEF90E7A2E04C
:1011E00081509040A040E1F700C0000088E061E03D
:1011F00006DAD0DA8FEF90E7A2E081509040A0406D
:10120000E1F700C0000088E060E0F9D9C3DAF9999D
:10121000FECF60911B0180E090E044D4F999FECFAD
:1012200060911A0188E090E03DD4F999FECF609179
:10123000230180E190E036D4F999FECF81E08093DC
:10124000390110C08FEF94E3ACE081509040A04092
:10125000E1F700C000001092A20104C08091A20139
:10126000813081F3FF91EF91BF91AF919F918F9169
:101270007F916F915F914F913F912F910F900FBE92
:101280000F901F90189580913B01882309F48EC020
:1012900080913B01853009F489C04F9B87C083B1A1
:1012A00080FF84C075C04A9921C080918F019091C0
:1012B0009101913009F06FC090919001913009F047
:1012C0006AC010928F0107C090919001992319F480
:1012D00091E090938F0120918F0130E0992787FD55
:1012E00090952817390711F010928E0181E03399FB
:1012F00080E08093910181E04A9980E080939001A1
:1013000090918E01E0913801F0E0E05DFE4F808128
:101310008917C0F510928E0181E08093960190911B
:101320003B019330F1F190913B019430D1F19091D8
:1013300093019923B1F590918F0190939B01809334
:10134000930108C080913B01843021F480918F018A
:1013500080939B0180919B01882321F082E390E0A0
:1013600017DB03C082E390E04BDB60911B0186E05A
:1013700046D987E061E043D90DDA10923701109227
:101380003601089580918E018F5F80938E010895BC
:10139000339989CFABCF90919101992309F494CFE0
:1013A0009ACF80913B01833069F6D0CF08951F9288
:1013B0000F920FB60F9211242F933F934F935F9389
:1013C0006F937F938F939F93AF93BF93EF93FF930D
:1013D0005ADFFF91EF91BF91AF919F918F917F91D4
:1013E0006F915F914F913F912F910F900FBE0F9092
:1013F0001F9018951F920F920FB60F9211242F93E2
:101400003F934F935F936F937F938F939F93AF938C
:10141000BF93EF93FF934F9904C081E08093A001A5
:1014200001C031DFFF91EF91BF91AF919F918F91FB
:101430007F916F915F914F913F912F910F900FBED0
:101440000F901F901895BFD980E089DA10923B0168
:1014500080913B0180933A0183B7856083BFE9E6C1
:10146000F0E08081837F8083E99A1092A30180E07D
:1014700088D888950895CF93E99883B78E7F83BFE6
:1014800080913A01882309F455C080913A01853052
:1014900009F450C080913A0180933B018FEF99E6A7
:1014A000A8E181509040A040E1F700C0000081E039
:1014B00068D880E054DA4F9B04C081E08093390102
:1014C0003BC083B180FD0AC085E080933B0188EE7C
:1014D00093E05EDA81E08093A2012EC0C1E06091CA
:1014E0001B018C2F41E0D5D98FE798E3A1E0815013
:1014F0009040A040E1F700C00000CF5FC73079F70F
:10150000C6E060911B018C2F41E0C3D98FE798E3BF
:10151000A1E081509040A040E1F700C00000C15020
:1015200081F760918C018FE0D0DA80E991E0A7DA51
:1015300056D902C081E0B0CFCF9108951F920F928B
:101540000FB60F9211242F933F934F935F936F9396
:101550007F938F939F93AF93BF93EF93FF938BDF13
:10156000FF91EF91BF91AF919F918F917F916F917B
:101570005F914F913F912F910F900FBE0F901F9051
:1015800018952A989EBD0DB407FEFDCF8EBD0DB4F3
:1015900007FEFDCF2A9A08952A989EBD0DB407FE36
:1015A000FDCF9EB5392F20E08EBD0DB407FEFDCFD7
:1015B0008EB52A9A90E0822B932B08952A981EBC10
:1015C0000DB407FEFDCF2A9A8EB508952A988EBDD8
:1015D0000DB407FEFDCF6EBD0DB407FEFDCF2A9AF8
:1015E00008952A9880EB8EBD0DB407FEFDCF1EBC7A
:1015F0000DB407FEFDCF2A9A8EB50895239A259A39
:10160000229A249881E58CBD0895CF93D7DF87FF78
:1016100082C08091A4018130E1F0813020F08230DD
:1016200009F071C058C0C1E0C093A701DADF809310
:101630001502982F9D5F9093A601E091A801F0916B
:10164000A9019081992309F05EC0C093A401818310
:1016500062C09091A7018091A6019817D8F4C1DFCC
:10166000909115029827909315022091A70121329D
:1016700038F4E091A801F091A901E20FF11D8183F6
:101680008091A701823011F49F3FE9F58F5F80932D
:10169000A70141C0E091A801F091A90182E08083F7
:1016A0008091AC0190E00196817090708093AC01C4
:1016B000282F30E0C901880F991F55E0220F331FF2
:1016C0005A95E1F7820F931F82559E4F9093A9017F
:1016D0008093A80118C08091A7019091A601891755
:1016E00050F4E82FF0E0EE50FE4F60818F5F809362
:1016F000A70188EB0FC01092A50181E892E841DFB5
:1017000088EB6AEA63DF1092A4018AEC61E85EDF8D
:101710008AEC63E85BDFCF9108958091A401882370
:1017200069F580E090E038DF90FF04C088EC80939A
:101730003C01089580913C01815080933C018823B5
:10174000E9F481E080933C018091A5018130B1F4FE
:1017500081E092E816DF8091F4018A5F8093A60110
:101760001092A70182E08093A4018AEA98EB09DF36
:101770008AEA98EB06DF81E292E803DF0895909110
:10178000A501992369F46093F4018093F5018627FC
:1017900080958093F60181E08093A50180E808950B
:1017A00083E00895CF93DF93C82FD62F8F3178F43D
:1017B0008091A501882369F427EF31E0C901BA01BE
:1017C0004C2F50E05ED18D2F6C2FD9DF03C082E00B
:1017D00001C083E0DF91CF910895E091AA01F091DB
:1017E000AB0110828091AD0190E001968170907004
:1017F0008093AD01282F30E0C901880F991F75E053
:10180000220F331F7A95E1F7820F931F82559E4F67
:101810009093AB018093AA0108952A9A229AEEDE52
:1018200087ED90E8AEDE81E092E8ABDE80EB94EAF3
:10183000A8DE83E296ECA5DE8CE294E9A2DE8BEAD8
:1018400092EC9FDE81E89AEC9CDE87EF94EC99DEC7
:1018500080E798E996DE80E098EC93DE80E090EEF9
:1018600090DE8DE28093F20184ED8093F3018EEAA5
:1018700091E09093AB018093AA019093A90180938A
:10188000A80181E892E87DDEE9E6F0E080818860E9
:10189000808380E090E080DEE19A81E89AEC71DE5E
:1018A00083E89AEC6EDE0895E9D339D877D676D9F5
:1018B0008AD770D747D8B1DF78948FEF91EEA4E044
:1018C00081509040A040E1F700C0000009D484EFAF
:1018D00091E0909337018093360175D75BD7C8ECC0
:1018E000D0E006E910E019DF80913901882339F052
:1018F00080918801882319F410923901A4DD809128
:1019000088018130E9F58091980190919901A1E0D9
:101910008C329A0740F580919701863098F486E0E2
:1019200061E041E0B6D786E061E069D687E061E03A
:1019300066D688E061E063D62DD78AE562E8C5D82F
:1019400081E00FC086E062E041E0A3D786E062E07C
:1019500056D687E061E053D688E061E050D61AD7CA
:1019600080E0FDD71EC08091980190919901B1E06F
:101970008C329B07B1F480E0F2D725D70BD711C08A
:1019800080918801823069F4109299011092980137
:1019900080E0E5D718D7FED688E060E030D6109218
:1019A000880180913B01853001F58091770190910C
:1019B0007801B8013FD07093470160934601809150
:1019C000790190917A01BE0135D0709349016093FD
:1019D000480180917F0190918001BE012BD07093CE
:1019E0004B0160934A01C7D47ECF809177019091DB
:1019F0007801BE011FD0709347016093460180912A
:101A0000790190917A01BE0115D0709349016093DC
:101A1000480180917F0190918001BE010BD07093AD
:101A20004B0160934A0180919601882309F05BCFB6
:101A3000A4D359CFAA1BBB1B51E107C0AA1FBB1FD0
:101A4000A617B70710F0A61BB70B881F991F5A954A
:101A5000A9F780959095BC01CD01089597FB092EBB
:101A600007260AD077FD04D0E5DF06D000201AF45F
:101A7000709561957F4F0895F6F7909581959F4FEA
:101A80000895FB01DC0102C001900D9241505040CD
:101A9000D8F70895F999FECF92BD81BDF89A99279C
:101AA00080B50895262FF999FECF1FBA92BD81BD4A
:101AB00020BD0FB6F894FA9AF99A0FBE01960895D0
:041AC000F894FFCFC8
:101AC4000003060B0C171B140104070A0D111A144A
:101AD40002050F09161019146464060101020506B3
:101AE400075A64015A6E8CA0B4C8FA0F1E3C505AAF
:0E1AF400080F192D3C50F401010101011000F2
:00000001FF
