:1000000021C03BC03BC0F7C995CAB7CA36C00DC6B0
:1000100065C633C032C031C030C02FC096C62DC0B7
:100020002CC02BC02AC029C028C0E1C426C025C0CE
:1000300024C023C0CBC3D3C3E3C3F2C307C41EC4CD
:100040002EC445C411241FBECFEFD4E0DEBFCDBF08
:1000500011E0A0E0B1E0E4E8FEE102C005900D92FD
:10006000A234B107D9F711E0A2E4B1E001C01D92BA
:10007000A13EB107E1F7DDDD03CFC2CF1F920F92A2
:100080000FB60F9211240F900FBE0F901F9018956E
:1000900080E090E0DFDE80931B0188E090E0DADE14
:1000A00080931A0180E190E0D5DE8093230188E1FE
:1000B00090E0D0DE80933E0180E290E0CBDE809342
:1000C0003F0188E290E0C6DE8093400180911B01F1
:1000D000873020F480911B01882319F481E08093FC
:1000E0001B0180911A01873020F480911A01882326
:1000F00019F486E080931A01FED2809123018730A3
:1001000020F480912301882319F481E08093230156
:10011000089580917D0190917E0128EC30E0B90135
:1001200069DE70934D0160934C0180917F01909145
:100130008001B9015FDE70934F0160934E018091A1
:10014000850190918601B90155DE7093510160934C
:10015000500180914C0190914D0194E0981B909337
:10016000910180914E0190914F0180939201809175
:1001700050019091510180933B0180914C019091ED
:100180004D01909353018093520180914E019091C3
:100190004F019093550180935401809150019091AB
:1001A00051019093570180935601089580917D01EC
:1001B00090917E012091460130914701821B930B63
:1001C00090934301809342018091420190914301B9
:1001D00097FF0BC0809142019091430190958195CA
:1001E0009F4F909343018093420120914C013091A5
:1001F0004D0180915201909153012817390739F030
:1002000080914201909143018333910524F48091C0
:10021000A701813049F58091A701813019F410922E
:10022000A70118C080914C0190914D0194E0981B5A
:100230009093910180914C0190914D0190935301C5
:100240008093520180917D0190917E0190934701AE
:10025000809346018091910160911B018E5F41E086
:100260009CD384E690E03FD480917F0190918001FF
:100270002091480130914901821B930B90934301D7
:1002800080934201809142019091430197FF0BC0FE
:100290008091420190914301909581959F4F909359
:1002A00043018093420120914E0130914F01809192
:1002B0005401909155012817390739F08091420176
:1002C000909143018333910524F48091A7018230FA
:1002D00041F58091A701823019F41092A70116C050
:1002E00080914E0190914F018093920180914E0137
:1002F00090914F01909355018093540180917F011B
:1003000090918001909349018093480190919201CE
:1003100060911B0186E0891B41E03FD384E690E0B9
:10032000E2D3809185019091860120914A0130911C
:100330004B01821B930B9093430180934201809168
:1003400042019091430197FF0BC08091420190912F
:100350004301909581959F4F909343018093420173
:100360002091500130915101809156019091570197
:100370002817390739F08091420190914301833366
:10038000910524F48091A701833039F58091A7016C
:10039000833019F41092A70116C0809150019091FA
:1003A000510180933B01809185019091860190934A
:1003B0004B0180934A01809150019091510190939B
:1003C00057018093560180913B0160911B018F5F23
:1003D00041E0E3D284E690E086D3089580917D01E8
:1003E00090917E012091460130914701821B930B31
:1003F0009093430180934201809142019091430187
:1004000097FF0BC080914201909143019095819597
:100410009F4F909343018093420120914C01309172
:100420004D0180915201909153012817390731F104
:10043000809142019091430183339105FCF08091BA
:100440004C0190914D018F5F80931B0160911B01C6
:1004500086E041E0A2D280914C0190914D019093B1
:1004600053018093520180917D0190917E01909380
:1004700047018093460181E08093A80180917F012C
:10048000909180012091480130914901821B930B8A
:1004900090934301809342018091420190914301E6
:1004A00097FF0BC0809142019091430190958195F7
:1004B0009F4F909343018093420120914E013091D0
:1004C0004F0180915401909155012817390749F146
:1004D00080914201909143018333910514F1209161
:1004E0004E0130914F0186E0982F921B909323018B
:1004F00020914E0130914F0160911B01821B41E020
:100500004CD280914E0190914F0190935501809370
:10051000540180917F0190918001909349018093D3
:100520004801809185019091860120914A01309186
:100530004B01821B930B9093430180934201809166
:1005400042019091430197FF0BC08091420190912D
:100550004301909581959F4F909343018093420171
:100560002091500130915101809156019091570195
:100570002817390729F18091420190914301833373
:100580009105F4F0809150019091510196E0981BF3
:1005900090931A01B0D060911B0186E041E0FDD13B
:1005A0008091500190915101909357018093560191
:1005B000809185019091860190934B0180934A012F
:1005C00008950F931F93CF93DF9300D000D000D0F6
:1005D000CDB7DEB780913801813021F080913801AC
:1005E000882301F580913D01898380913E018A83B2
:1005F00080913F018B83809140018C8381E08D83CA
:100600009091380180919201880F880F9F5F892B0C
:100610008E8386E060E0AE014F5F5F4F68D982E075
:10062000809338018091A8018823F9F080913D01E1
:10063000898380913E018A8380913F018B838091E1
:1006400040018C838091A801823011F484E001C0C4
:1006500083E08D8380911B018E8386E060E0AE0194
:100660004F5F5F4F44D91092A8018091A601882363
:1006700049F180913D01898380913E018A83809177
:100680003F018B83809140018C8382E08D83909128
:10069000A601913011F49E8301C08E8300E010E02A
:1006A00006C086E060E0AE014F5F5F4F20D9980141
:1006B0008091A6010F5F1F4F90E0281739078CF338
:1006C0001092A60126960FB6F894DEBF0FBECDBFDE
:1006D000DF91CF911F910F910895853608F084E640
:1006E000809319012FEF30E0281B310930938900E6
:1006F00020938800089590911A0181E1989F802DA0
:100700001124EBDF0895882391F080918800909167
:1007100089008F3F9105A1F45D9A8FE39CE90197D1
:10072000F1F700C0000080911901D7DF08955D98AE
:1007300040982F988FEF90E09093890080938800E5
:100740000895CF93DF9380E0DEDFC0E0D0E0FE01CC
:10075000E75AFE4F10822196C432D105C1F7888135
:1007600080648883888182608883549A3C9A81E07F
:10077000CADF809180008968809380008091810029
:10078000836080938100389A559A5D9A8FE39CE943
:100790000197F1F700C00000888180688883DF91AD
:1007A000CF910895282F873008F0A1C0862F90E0C0
:1007B0008830910508F0B9C0865E9F4FE22FF0E0C7
:1007C000E050FF4F30818F939F93089583E290E034
:1007D000DC01A31BB109A75ABE4F1C9209C083E2DA
:1007E00090E0DC01A31BB109A75ABE4F31E03C9356
:1007F0003085DC01A31BB109A75ABE4F1C9236C03D
:1008000083E290E0DC01A31BB109A75ABE4F1C9202
:100810003085DC01A31BB109A75ABE4F31E025C0CA
:1008200083E290E0DC01A31BB109A75ABE4F1C92E2
:100830003085DC01A31BB109A75ABE4F1C92308939
:10084000831B9109875A9E4F31E03EC083E290E0BE
:10085000DC01A31BB109A75ABE4F31E03C93408590
:10086000DC01A41BB109A75ABE4F3C933089831BFE
:100870009109875A9E4FFC01108257C083E290E095
:10088000DC01A31BB109A75ABE4F31E03C93408560
:10089000DC01A41BB109A75ABE4F1C9210C083E211
:1008A00090E0DC01A31BB109A75ABE4F1C92308512
:1008B000DC01A31BB109A75ABE4F31E03C9340892C
:1008C000841B9109875A9E4FFC0130832EC083E21E
:1008D00090E0DC01A31BB109A75ABE4F31E03C9365
:1008E0004085DC01A41BB109A75ABE4FE7CF873072
:1008F00049F4662321F081E0809368010895109205
:1009000068010895883049F4662321F081E08093DE
:100910006A01089510926A010895893069F4662386
:1009200011F0409A089540980895263029F46623DE
:1009300011F02F9A08952F98089580E090E0FC011F
:10094000E75AFE4F2081213011F42E9A01C02E98D3
:100950005C9A5C9801968432910589F7449A449890
:1009600081E0D1DE81E080935801089580E090E03D
:10097000FC01E75AFE4F1082019684329105C1F7BF
:10098000DCDF0895CF93C0E08C2F60E00BDFCF5FFA
:10099000C630D1F7D2DFCF910895DF92EF92FF9268
:1009A0000F931F93CF93DF93C82FF62ED42EEADF39
:1009B000C73008F0C6E085E0E82E00E010E0D0E0A7
:1009C0000AC0DD2011F08E2D01C0802F6F2DEADED0
:1009D0000F5F1F4FEA940C171D079CF3AEDFDF91EA
:1009E000CF911F910F91FF90EF90DF9008951F928C
:1009F0000F920FB60F9211248F939F93EF93FF9353
:100A0000E0918D01FF27E7FDF095809178009091AE
:100A10007900EE0FFF1FE358FE4F91838083809192
:100A20008D018F5F80938D0180918D01853014F051
:100A300010928D0180917C00807F80937C0090914A
:100A40007C00E0918D01FF27E7FDF095E45EFE4F0D
:100A50008081892B80937C0080917A0080648093D0
:100A60007A00FF91EF919F918F910F900FBE0F90A1
:100A70001F901895ECE7F0E0808180648083EAE7BE
:100A8000F0E080818F688083AEE7B0E08C91866271
:100A90008C938081806480830895569AE0E7F0E02B
:100AA00080818660808381E08093B30082E08093C0
:100AB000B4000895181634F48091B10084608093D6
:100AC000B1000895882371F48091B1008B7F8093E9
:100AD000B1005E981092B20081E08093B30082E092
:100AE0008093B4000895CF93DF93EC0180912301AC
:100AF000823030F080918F0190919001009721F425
:100B0000809191018F3F01F580918E01882301F141
:100B10001BC0E0919201F0E0EC5DFE4F808180937C
:100B20002201E0919101FF27E7FDF095E55DFE4F81
:100B300080818093210181E0BDDFCE0162E370E01E
:100B40006DD96093930104C080919301882309F3C8
:100B5000DF91CF910895CF93DF93EC018091230132
:100B6000823030F080918F0190919001009721F4B4
:100B7000809191018F3F39F580918E01882339F161
:100B800022C080919201E0919201F0E0882319F453
:100B9000EB5DFE4F02C0ED5DFE4F80818093220130
:100BA000E0919101FF27E7FDF095E55DFE4F808123
:100BB0008093210181E07EDFCE0162E370E02ED9D7
:100BC0006093930104C0809193018823D1F2DF9157
:100BD000CF910895CF93DF93EC0180912301823070
:100BE00030F080918F0190919001009721F48091D5
:100BF00091018F3F71F480918E01882371F009C0BB
:100C000081E058DFCE0162E370E008D96093930180
:100C100004C080919301882399F3DF91CF910895C7
:100C2000809321016093220108951F920F920FB6C5
:100C30000F9211242F933F934F935F936F937F9362
:100C40008F939F93AF93BF93CF93DF9300D0CDB794
:100C5000DEB780912201869590E09A83898329816D
:100C60003A814091210150E0429FC001439F900D85
:100C7000529F900D11249A83898389819A8164E619
:100C800070E0B8D87A8369832091B30089819A8112
:100C90002091B30089819A81280F2093B40020917C
:100CA000B300809122019091B30080912201890FBD
:100CB0008093B3005E9A0F900F90DF91CF91BF9118
:100CC000AF919F918F917F916F915F914F913F91E4
:100CD0002F910F900FBE0F901F9018951F920F929B
:100CE0000FB60F9211245E980F900FBE0F901F90B9
:100CF00018952098289A3B98439A8AB183778AB9A5
:100D00008BB18C688BB9E8E6F0E0808187608083E6
:100D1000EBE6F0E0808181608083ECE6F0E08081AA
:100D200088608083EDE6F0E080818468808384B50C
:100D3000826084BD85B5856085BDEEE6F0E080818A
:100D4000826080838FEF87BD08951F920F920FB648
:100D50000F9211242F933F934F935F936F937F9341
:100D60008F939F93AF93BF93CF93EF93FF93809114
:100D70003A01882309F42DC38091AA01882329F41C
:100D800080912301823008F416C389E061E00ADD16
:100D900080919301882389F08091A3018F5F8093D4
:100DA000A3019091A30180919301891730F480E011
:100DB00081DE1092A3011092930180918E01813007
:100DC000E9F480919C0190919D0121E08633920786
:100DD00048F480919C0190919D01019690939D0112
:100DE00080939C0180919B018A3030F480919B011B
:100DF0008F5F80939B0102C010929B0180913A010A
:100E0000853009F0A1C080919E018F5F80939E0183
:100E100080919E018D3360F010929E0188E061E028
:100E2000C1DC8091A901882369F087E061E009C0F5
:100E300080919E018F3138F088E060E0B3DC87E07C
:100E400060E0B0DC7ADD8091A501882309F466C2F8
:100E500083B180FD12C08091A501883228F4809171
:100E6000A5018F5F8093A5018091A5018E3109F0C6
:100E700055C281E08093A90151C28091A5018F31B3
:100E800008F04AC28091A5018F3008F045C288E081
:100E900061E088DC52DD8FEF90E7A2E08150904066
:100EA000A040E1F700C0000088E060E07BDC45DDA9
:100EB0008FEF90E7A2E081509040A040E1F700C0A2
:100EC000000088E061E06EDC38DD8FEF90E7A2E0A3
:100ED00081509040A040E1F700C0000088E060E051
:100EE00061DC2BDDF999FECF60911B0180E090E081
:100EF000B9D7F999FECF60911A0188E090E0B2D796
:100F0000F999FECF6091230180E190E0ABD7F99988
:100F1000FECF88E190E060913E01A4D7F999FECF21
:100F200080E290E060913F019DD7F999FECF88E281
:100F300090E06091400196D7F999FECF1092A501FB
:100F400081E080933901EAC180913A01882309F454
:100F5000E5C180912301823000F180918F01909151
:100F600090010097D1F080918F01909190010196AE
:100F70009093900180938F0120918F013091900187
:100F80009091230188EC989FC00111248217930748
:100F900020F41092900110928F0180919801882383
:100FA00081F1809198018F5F8093980180919801E1
:100FB000833038F180919701863018F5E3DC809119
:100FC0009F01882329F48091970160911B0106C03D
:100FD0009091970160911B0185E0891BE3DBADDCFB
:100FE000809197018F5F8093970180919701863060
:100FF00029F4109298011092970103C081E0809328
:1010000098018091810190918201A3E081329A0739
:1010100048F080919901883228F4809199018F5F7E
:10102000809399018091810190918201B1E0803992
:101030009B0748F480919901882329F080919901B8
:10104000815080939901809123018230B8F0809182
:101050009901853198F080919A01882379F48091E3
:101060008F0190919001009749F481E090E0909376
:10107000900180938F0181E080939A0180912301F8
:10108000823050F0809199018A3030F480919A0139
:10109000813011F410929A018091360190913701BC
:1010A00021E080399207C0F5809136019091370197
:1010B0000196909337018093360180919F01882398
:1010C00011F58091A0019091A10101969093A10149
:1010D0008093A0018091A0019091A101873091059A
:1010E00090F0809136019091370180FD04C06091AD
:1010F0001B0186E002C086E060E054DB1EDC10923B
:10110000A1011092A0018091360190913701A1E0D8
:1011100080399A07A9F411C08091AA01882381F42B
:1011200080915801882361F0809158018F5F8093EE
:10113000580180915801873918F01092580116DC37
:1011400080913A01823021F080913A01843071F52A
:1011500080918301909184018530910540F48091C4
:10116000A2018233A0F48091A2018F5F0EC0809112
:10117000A201882361F080918301909184018B30DA
:10118000910528F08091A20181508093A201809165
:10119000A2018F3118F088E061E006C08091A201C1
:1011A000882321F488E060E0FDDAC7DB8091AA01A2
:1011B000882309F403C18091810190918201B1E0FB
:1011C00080399B0708F0FAC081E00DC08091810151
:1011D0009091820123E08132920738F080918E0154
:1011E000813019F482E080938E018091A5018823DB
:1011F00009F494C083B180FD53C08091A501883269
:1012000028F48091A5018F5F8093A5018091A501AD
:101210008F3108F483C09091AA0181E0911180E0A0
:101220008093AA018091AA01882319F186E061E0E8
:10123000B9DA83DB8FEF92E5A7E081509040A040C0
:10124000E1F700C0000086E062E0ACDA76DB8FEF09
:1012500092E5A7E081509040A040E1F700C0000077
:1012600086E060E09FDA69DB10929D0110929C019C
:1012700053C086E063E096DA60DB8FEF92E5A7E08B
:1012800081509040A040E1F700C0000086E060E09F
:1012900089DA53DB82E08093A60180938E013CC003
:1012A0008091A5018823D1F18091A5018F30B0F5FF
:1012B00080913A01843020F480913A018F5F01C01F
:1012C00081E080933A0180913A01823021F080914F
:1012D0003A018430D1F488E061E064DA2EDB8FE7F4
:1012E00099EAA3E081509040A040E1F700C00000DF
:1012F00088E060E057DA21DB8FE799EAA3E08150CC
:101300009040A040E1F700C0000084EF91E090938E
:101310003701809336012ADB1092A5014F9954C002
:101320008091A401882309F44FC08091A5018823EE
:1013300009F04AC08091A401883228F48091A40168
:101340008F5F8093A4018091A4018F3158F1C1E097
:1013500060911B018C2F40E020DB8FE798E3A1E038
:1013600081509040A040E1F700C00000CF5FC7303F
:1013700079F7C6E060911B018C2F40E00EDB8FE710
:1013800098E3A1E081509040A040E1F700C0000048
:10139000C15081F71092A40181E08093390102C00D
:1013A0001092A4018091A501882399F0189B11C087
:1013B0001092A5010EC089E060E0E9CC8091AA01FD
:1013C000882309F003CF11CF8091A401882341F72E
:1013D000E9CFFF91EF91CF91BF91AF919F918F9105
:1013E0007F916F915F914F913F912F910F900FBE21
:1013F0000F901F9018951F920F920FB60F92112405
:101400008F939F9383B180FD0DC08091A5018823A8
:1014100049F48FE19EE40197F1F700C0000081E0FC
:101420008093A5019F918F910F900FBE0F901F90F9
:10143000189580913A01882309F47BC080913A0184
:10144000853009F476C04F9B74C083B180FF71C0B2
:1014500068C04A9909C080919601813019F480933F
:10146000950102C01092950126B191E04A9990E051
:1014700081E023FF80E0981729F081E0339980E034
:101480008093960190919401E0913B01F0E0E05D42
:10149000FE4F80818917D8F51092940180913A010E
:1014A000833009F441C080913A018430E9F18091A0
:1014B00098018823C9F58091950180939F0181E06F
:1014C0008093980108C080913A01843041F4809162
:1014D000950180939F0180919501809338018091BF
:1014E0009F01882321F082E390E0FDDA03C082E3CC
:1014F00090E031DB60911B0186E054D987E061E028
:1015000051D91BDA109237011092360105C0809133
:1015100094018F5F8093940185E38A95F1F7000031
:101520000895339996CFA0CF80913A01833059F630
:10153000CECF08951F920F920FB60F9211242F93C2
:101540003F934F935F936F937F938F939F93AF934B
:10155000BF93EF93FF936DDFFF91EF91BF91AF9139
:101560009F918F917F916F915F914F913F912F91BB
:101570000F900FBE0F901F9018951F920F920FB6ED
:101580000F9211242F933F934F935F936F937F9309
:101590008F939F93AF93BF93EF93FF934F9912C095
:1015A0008091A401882371F48091A501882351F4CE
:1015B0008FE19EE40197F1F700C0000081E0809385
:1015C000A40101C036DFFF91EF91BF91AF919F91D0
:1015D0008F917F916F915F914F913F912F910F90DC
:1015E0000FBE0F901F901895CF93E99883B78E7F09
:1015F00083BF8FEF99E6A8E181509040A040E1F7CA
:1016000000C0000081E080933A014F9B03C08093AB
:10161000390135C083B180FD07C085E080933A0170
:1016200088EE93E060DA2BC0C1E060911B018C2F43
:1016300041E0B3D98FE798E3A1E081509040A0400A
:10164000E1F700C00000CF5FC73079F7C6E06091D6
:101650001B018C2F41E0A1D98FE798E3A1E08150D5
:101660009040A040E1F700C00000C15081F76091B8
:1016700092018FE0D5DA80E991E0ACDA83D94F9B13
:10168000FECF83B180FFFBCF80916800876080939D
:101690006800CF910895F8941092680067D980E0AF
:1016A00009DA10923A0183B7856083BFE9E6F0E07A
:1016B0008081837F8083E99A1092AA011092A90108
:1016C00080E021D8789488958FDF08952A989EBD70
:1016D0000DB407FEFDCF8EBD0DB407FEFDCF2A9AD7
:1016E00008952A989EBD0DB407FEFDCF9EB5392FF3
:1016F00020E08EBD0DB407FEFDCF8EB52A9A90E096
:10170000822B932B08952A981EBC0DB407FEFDCFA3
:101710002A9A8EB508952A988EBD0DB407FEFDCF86
:101720006EBD0DB407FEFDCF2A9A08952A9880EB6E
:101730008EBD0DB407FEFDCF1EBC0DB407FEFDCF60
:101740002A9A8EB50895239A259A229A249881E59B
:101750008CBD0895CF93D7DF87FF82C08091AB0106
:101760008130E1F0813020F0823009F071C058C042
:10177000C1E0C093AE01DADF8093E001982F9D5F56
:101780009093AD01E091AF01F091B0019081992368
:1017900009F05EC0C093AB01818362C09091AE013D
:1017A0008091AD019817D8F4C1DF9091E00198279E
:1017B0009093E0012091AE012D3038F4E091AF011B
:1017C000F091B001E20FF11D81838091AE01823072
:1017D00011F49F3FE9F58F5F8093AE0141C0E09126
:1017E000AF01F091B00182E080838091B30190E07D
:1017F0000196817090708093B301282F30E0220F02
:10180000331FC90143E0880F991F4A95E1F7821BF6
:10181000930B8B549E4F9093B0018093AF0118C0EF
:101820008091AE019091AD01891750F4E82FF0E05E
:10183000EF52FE4F60818F5F8093AE0188EB0FC047
:101840001092AC0181E892E841DF88EB6AEA63DF3D
:101850001092AB018AEC61E85EDF8AEC63E85BDF43
:10186000CF9108958091AB01882369F580E090E0E5
:1018700038DF90FF04C088EC80933C01089580918C
:101880003C01815080933C018823E9F481E08093FE
:101890003C018091AC018130B1F481E092E816DF27
:1018A0008091D3018A5F8093AD011092AE0182E0F6
:1018B0008093AB018AEA98EB09DF8AEA98EB06DFAE
:1018C00081E292E803DF08959091AC01992369F4D5
:1018D0006093D3018093D401862780958093D501AE
:1018E00081E08093AC0180E8089583E00895CF9370
:1018F000DF93C82FD62F8B3078F48091AC018823EA
:1019000069F426ED31E0C901BA014C2F50E099D2BB
:101910008D2F6C2FD9DF03C082E001C083E0DF91FF
:10192000CF910895E091B101F091B20110828091C0
:10193000B40190E00196817090708093B401282FDB
:1019400030E0220F331FC90163E0880F991F6A95A9
:10195000E1F7821B930B8B549E4F9093B2018093BF
:10196000B10108952A9A229AEEDE87EE90E8AEDE63
:1019700081E092E8ABDE80E496EAA8DE8EE996ECA0
:10198000A5DE8CE294E9A2DE8BEA92EC9FDE81E890
:101990009AEC9CDE87EF94EC99DE80E798E996DE7E
:1019A00080E098EC93DE80E090EE90DE8DE2809314
:1019B000D10184ED8093D20185EB91E09093B20147
:1019C0008093B1019093B0018093AF0181E892E8D8
:1019D0007DDEE9E6F0E080818860808380E090E051
:1019E00080DEE19A81E89AEC71DE83E89AEC6EDEA3
:1019F000089581E092E86ADE8AEA98EB67DE80E08B
:101A000090E06FDE81E092E861DE8FEF90EE5EDEC7
:101A100083E092E85BDE08950895CF93DF9300D0D2
:101A2000CDB7DEB7AC011A821982FC0120E030E0AC
:101A300070E0E2C081918F3F09F0DCC0C9010596DA
:101A4000861797070CF0D6C08091A901FA01E20F22
:101A5000F31F882309F4D5C084818C3009F0D1C0EC
:101A6000818180933E01828180933F0183818093B5
:101A7000400186E061E096D660D78FEF90E7A2E064
:101A800081509040A040E1F700C0000086E060E097
:101A900089D653D78FEF90E7A2E081509040A040C5
:101AA000E1F700C0000086E061E07CD646D78FEF0A
:101AB00090E7A2E081509040A040E1F700C0000014
:101AC00086E060E06FD639D782E08093A80110925B
:101AD000A901A9C0928180913F01981709F0A3C084
:101AE000938180914001981709F09DC084818B30CB
:101AF00009F46FC08D3009F479C08A3009F093C0C1
:101B00008581982F9F70998390E024E09595879523
:101B10002A95E1F78A838A81882309F484C08A811F
:101B2000843008F080C08981882309F47CC08981D1
:101B3000833008F078C08A818230E1F0833089F107
:101B4000813009F042C08981823009F060C0809103
:101B5000910184300CF05BC0809191018F5F07C0D0
:101B60008091910187FD31C08091910181508093D6
:101B700091012BC08981813009F04DC08091920183
:101B8000853008F048C0809192018F5F07C0809136
:101B900092018823D1F0809192018150809392012B
:101BA00014C089818130D9F580913B018630B8F528
:101BB00080913B018F5F07C080913B01882329F012
:101BC00080913B01815080933B018A818093A701E2
:101BD0002AC08581813019F48093AA0124C0823003
:101BE00011F51092AA0180938E011DC081E08093AF
:101BF000A80119C02F5F3F4F261737070CF41ACFE3
:101C000012C0918180913E01981769F463CF898158
:101C10008130D9F6A5CF89818230B9F6B8CF8981D4
:101C2000823099F6C9CF0F900F90DF91CF91089530
:101C300008955FD82DD21ED784D598D62ED792DEA0
:101C400078948FEF91EEA4E081509040A040E1F7AE
:101C500000C000005ED284EF91E090933701809342
:101C60003601C8ECD0E006E910E080913901882304
:101C700039F080918E01882319F4109239010BDD1F
:101C800080913A01882389F320918E01213009F057
:101C900046C080919C0190919D01A1E08C329A07F1
:101CA00088F580919C0190919D018A30910511F4F5
:101CB0002093A60180919B01863098F486E061E034
:101CC00041E06BD686E061E06DD587E061E06AD5E2
:101CD00088E061E067D531D68AE562E8A1D781E086
:101CE0000FC086E062E041E058D686E062E05AD557
:101CF00087E061E057D588E061E054D51ED680E0EA
:101D0000D9D621C080919C0190919D01B1E08C3287
:101D10009B07C9F480E0CED629D60FD614C0F09028
:101D20008E0122E0F21679F410929D0110929C012E
:101D300080E0C0D61BD601D688E060E033D5F092B3
:101D4000A60110928E0180913A01853001F58091B3
:101D50007D0190917E01B8014DD070934D0160934B
:101D60004C0180917F0190918001BE0143D070931E
:101D70004F0160934E018091850190918601BE01D3
:101D800039D0709351016093500128D31FC08091C6
:101D90007D0190917E01BE012DD070934D01609325
:101DA0004C0180917F0190918001BE0123D07093FE
:101DB0004F0160934E018091850190918601BE0193
:101DC00019D07093510160935001F0D1E091B101AD
:101DD000F091B2018081823049F4CF010496909352
:101DE000450180934401618118DE9CDDB3DCE9D3B9
:101DF00039DD3BCFAA1BBB1B51E107C0AA1FBB1F8C
:101E0000A617B70710F0A61BB70B881F991F5A9586
:101E1000A9F780959095BC01CD01089597FB092EF7
:101E200007260AD077FD04D0E5DF06D000201AF49B
:101E3000709561957F4F0895F6F7909581959F4F26
:101E40000895FB01DC0102C001900D924150504009
:101E5000D8F70895F999FECF92BD81BDF89A9927D8
:101E600080B50895262FF999FECF1FBA92BD81BD86
:101E700020BD0FB6F894FA9AF99A0FBE019608950C
:041E8000F894FFCF04
:101E84000003060B0C171B140104070A0D111A1486
:101E940002050F09161019146464060101020506EF
:101EA400075A64015A6E8CA0B4C8FA0F1E3C505AEB
:101EB400080F192D3C50F4010201010110FF00002C
:021EC40000001C
:00000001FF
