:1000000021C03BC041C4A6C7AFC879C836C072C6BC
:1000100096C733C032C031C030C02FC0C8C82DC051
:100020002CC02BC02AC029C028C009C626C025C0A4
:1000300024C023C0B2C4BEC4D3C4E8C404C520C510
:1000400035C549C511241FBECFEFD4E0DEBFCDBFFB
:1000500011E0A0E0B1E0E4E3FFE102C005900D9201
:10006000A034B107D9F711E0A0E4B1E001C01D92BE
:10007000A03EB107E1F728D35BCFC2CF80917B01CF
:1000800090917C0168EC70E00DDF70934701609304
:10009000460180917D0190917E0168EC70E002DF65
:1000A000709349016093480180918301909184018C
:1000B00068EC70E0F7DE70934B0160934A01209189
:1000C00046013091470184E0821B80938E0180912C
:1000D00048019091490180938D0180914A0190914E
:1000E0004B01809339018091460190914701909393
:1000F0004101809340018091480190914901909382
:1001000043018093420180914A0190914B01909369
:100110004501809344010895EF92FF920F931F933E
:10012000DF93CF9300D000D000D0CDB7DEB7809161
:100130003001813021F080913001882301F58091D8
:100140003C01898380913D018A8380913E018B83AC
:1001500080913F018C8381E08D839091300180916B
:100160008D01880F880F9F5F892B8E8386E060E06A
:10017000AE014F5F5F4F6EDD82E080933001809172
:10018000A6018823F9F080913C01898380913D018B
:100190008A8380913E018B8380913F018C83809183
:1001A000A601823011F484E001C083E08D83809148
:1001B00000018E8386E060E0AE014F5F5F4F4ADD55
:1001C0001092A6018091A801882359F180913C01E9
:1001D000898380913D018A8380913E018B83809148
:1001E0003F018C8392E09D838091A801813011F4BE
:1001F0008E8301C09E8300E010E07E010894E11C24
:10020000F11C04C086E060E0A70124DD9801809124
:10021000A8010F5F1F4F90E0281739079CF3109239
:10022000A80126960FB6F894DEBF0FBECDBFCF91C2
:10023000DF911F910F91FF90EF90089580917B01C6
:1002400090917C0120914C0130914D01821B930BC8
:1002500090935501809354018091540190915501E0
:1002600097FF0BC080915401909155019095819515
:100270009F4F9093550180935401209146013091F6
:10028000470180914001909141012817390729F1D8
:100290008091540190915501C397FCF080914601E3
:1002A000909147018F5F809300016091000186E08B
:1002B00041E0A2D480914601909147019093410181
:1002C0008093400180917B0190917C0190934D013E
:1002D00080934C0181E08093A60180917D019091F3
:1002E0007E0120914E0130914F01821B930B909320
:1002F000550180935401809154019091550197FFCD
:100300000BC08091540190915501909581959F4F1C
:1003100090935501809354012091480130914901F7
:1003200080914201909143012817390741F1809152
:10033000540190915501C39714F1209148013091D7
:10034000490186E0982F921B90932D01209148013E
:100350003091490160910001821B41E04DD48091B0
:10036000480190914901909343018093420180910B
:100370007D0190917E0190934F0180934E01809179
:100380008301909184012091500130915101821B91
:10039000930B909355018093540180915401909157
:1003A000550197FF0BC08091540190915501909594
:1003B00081959F4F909355018093540120914A015C
:1003C00030914B01809144019091450128173907E4
:1003D00021F18091540190915501C397F4F020913F
:1003E0004A0130914B0186E0821B80930101A3D228
:1003F0006091000186E041E0FFD380914A01909135
:100400004B01909345018093440180918301909129
:1004100084019093510180935001089580917B0154
:1004200090917C0120914C0130914D01821B930BE6
:1004300090935501809354018091540190915501FE
:1004400097FF0BC080915401909155019095819533
:100450009F4F909355018093540120914601309114
:10046000470180914001909141012817390731F0EF
:100470008091540190915501C39724F48091A70174
:10048000813049F58091A701813019F41092A701BC
:1004900018C0209146013091470184E0821B80936F
:1004A0008E01809146019091470190934101809384
:1004B000400180917B0190917C0190934D0180934C
:1004C0004C0180918E01609100018E5F41E094D3D8
:1004D00084E690E08FD480917D0190917E012091FF
:1004E0004E0130914F01821B930B909355018093E5
:1004F0005401809154019091550197FF0BC0809158
:10050000540190915501909581959F4F909355017D
:10051000809354012091480130914901809142011A
:10052000909143012817390731F08091540190913F
:100530005501C39724F48091A701823041F5809141
:10054000A701823019F41092A70116C080914801CA
:100550009091490180938D018091480190914901CA
:10056000909343018093420180917D0190917E019F
:1005700090934F0180934E0190918D016091000105
:1005800086E0891B41E038D384E690E033D4809143
:100590008301909184012091500130915101821B7F
:1005A000930B909355018093540180915401909145
:1005B000550197FF0BC08091540190915501909582
:1005C00081959F4F909355018093540120914A014A
:1005D00030914B01809144019091450128173907D2
:1005E00031F08091540190915501C39724F480918A
:1005F000A701833039F58091A701833019F4109257
:10060000A70116C080914A0190914B018093390156
:1006100080918301909184019093510180935001C6
:1006200080914A0190914B01909345018093440140
:1006300080913901609100018F5F41E0DDD284E655
:1006400090E0D8D3089580E090E05CDC80930001D6
:1006500088E090E057DC8093010180E190E052DC7B
:1006600080932D0188E190E04DDC80933D0180E294
:1006700090E048DC80933E0188E290E043DC809388
:100680003F0180910001873020F480910001882390
:1006900019F481E08093000180910101873020F4FA
:1006A00080910101882319F486E08093010143D1F0
:1006B00080912D01873020F480912D01882319F439
:1006C00081E080932D0108951F935FD4BCDFFAD29F
:1006D0006BD26AD366DA88EE93E028EC30E0F90159
:1006E0003197F1F70197D9F77894C8DC84EF91E05E
:1006F000909332018093310180913B01882341F036
:1007000080919101882321F410923B0191DA06D95E
:1007100080913A01882381F320919101213009F0E1
:1007200043C080919A0190919B018C52914080F539
:1007300080919A0190919B010A9711F42093A8014E
:1007400080919C01863098F486E061E041E054D2CB
:1007500086E061E013D187E061E010D188E061E0DC
:100760000DD1FCD18AE562E8E5D381E00FC086E0D7
:1007700062E041E041D286E062E000D187E061E0E2
:10078000FDD088E061E0FAD0E9D180E01AD31FC043
:1007900080919A0190919B018C529140C1F480E02C
:1007A00010D3F6D1DBD113C010919101123079F43E
:1007B00010929B0110929A0180E003D3E9D1CED12F
:1007C00088E060E0DBD01093A80110929101809145
:1007D0003A01853019F580917B0190917C0166E9A1
:1007E00070E060DB709347016093460180917D016A
:1007F00090917E0168EC70E055DB70934901609345
:100800004801809183019091840168EC70E04ADB9B
:1008100070934B0160934A0111DD22C080917B01EE
:1008200090917C0168EC70E03DDB70934701609330
:10083000460180917D0190917E0168EC70E032DB91
:1008400070934901609348018091830190918401E4
:1008500068EC70E027DB70934B0160934A01DEDDAA
:10086000E091DA01F091DB018081823049F4CF011F
:1008700004969093530180935201618106DA78D9EE
:10088000C2D84ADC42D938CF1F920F920FB60F92CE
:1008900011242F933F934F935F936F937F938F9385
:1008A0009F93AF93BF93EF93FF93189B06C04F9B0B
:1008B00004C080913A018111C5D9FF91EF91BF9198
:1008C000AF919F918F917F916F915F914F913F91E8
:1008D0002F910F900FBE0F901F901895882309F14C
:1008E00080918800909189008F3F910519F55D9A5C
:1008F00080E991E028EC30E0F9013197F1F70197B8
:10090000D9F720910201253608F024E62093020150
:100910008FEF90E0821B910990938900809388006B
:1009200008955D9840982F988FEF90E090938900FC
:100930008093880008959091010181E1989F202D76
:100940001124253608F024E6209302018FEF90E071
:10095000821B910990938900809388000895282F25
:10096000853608F024E6209302018FEF90E0821B89
:10097000910990938900809388000895482F8730CB
:1009800008F0C6C0E62FF0E0E830F10508F0DEC060
:10099000E65EFF4F282F30E009942C5F3E4FF901AF
:1009A0008081A3E2B0E0FD01E81BF109E95AFE4FA6
:1009B00010820DC02C5F3E4FF9018081A3E2B0E0B0
:1009C000FD01E81BF109E95AFE4F81E08083F9013E
:1009D0008085FD01E81BF109E95AFE4F108248C0ED
:1009E0002C5F3E4FF9018081A3E2B0E0FD01E81BDE
:1009F000F109E95AFE4F1082F9018085FD01E81BDB
:100A0000F109E95AFE4F81E0808332C02C5F3E4FEE
:100A1000F9018081A3E2B0E0FD01E81BF109E95A88
:100A2000FE4F1082F9018085FD01E81BF109E95AAA
:100A3000FE4F1082F9018089A81BB109A95ABE4F47
:100A400081E08C9383C02C5F3E4FF9018081A3E24B
:100A5000B0E0FD01E81BF109E95AFE4F91E09083F7
:100A6000F9018085FD01E81BF109E95AFE4F9083E9
:100A7000F9018089A81BB109A95ABE4F1C9266C012
:100A80002C5F3E4FF9018081A3E2B0E0FD01E81B3D
:100A9000F109E95AFE4F91E09083F9018085FD014B
:100AA000E81BF109E95AFE4F10822AC02C5F3E4F25
:100AB000F9018081A3E2B0E0FD01E81BF109E95AE8
:100AC000FE4F1082F9018085FD01E81BF109E95A0A
:100AD000FE4F91E014C02C5F3E4FF9018081A3E2EC
:100AE000B0E0FD01E81BF109E95AFE4F91E0908367
:100AF000F9018085FD01E81BF109E95AFE4F908359
:100B0000F9018089A81BB109A95ABE4F9C931EC048
:100B1000873049F4662321F081E0809366010895CF
:100B2000109266010895883049F4662321F081E02F
:100B3000809368010895109268010895893069F4DE
:100B4000662311F0409A089540980895463029F49C
:100B5000662311F02F9A08952F98089520E030E031
:100B6000F901E95AFE4F8081813011F42E9A01C0BB
:100B70002E985C9A5C982F5F3F4F2432310581F7A5
:100B8000449A449881E0AADE81E08093560108955A
:100B900080E090E0FC01E95AFE4F10820196843219
:100BA0009105C1F7DBDF0895559A5D9A80E991E0E0
:100BB00028EC30E0F9013197F1F70197D9F7269A3F
:100BC000219A549A3C9A8091800089688093800091
:100BD00080918100836080938100DADF389A279AC0
:100BE00008951F9310E0812F60E0C8DE1F5F16306C
:100BF000D1F7B4DF1F910895DF92EF92FF920F9328
:100C00001F93182FF62EE42EECDF012F173008F07B
:100C100006E010E085E0D82E09C0EE2019F08D2DF9
:100C2000811B01C0812F6F2DA9DE1F5F1017A8F354
:100C300095DF1F910F91FF90EF90DF9008951F9225
:100C40000F920FB60F9211248F939F93EF93FF9300
:100C5000E0918B01FF27E7FDF0958091780090915E
:100C60007900EE0FFF1FE558FE4F9183808380913E
:100C70008B018F5F80938B0180918B01853014F005
:100C800010928B0180917C00807F80937C009091FA
:100C90007C00E0918B01FF27E7FDF095E45EFE4FBD
:100CA0008081892B80937C0080917A00806480937E
:100CB0007A00FF91EF919F918F910F900FBE0F904F
:100CC0001F901895ECE7F0E0808180648083EAE76C
:100CD000F0E080818F688083AEE7B0E08C9186621F
:100CE0008C93808180648083089510927A001092A2
:100CF0007E0008951F920F920FB60F9211242F932A
:100D00003F934F935F936F937F938F939F93AF9393
:100D1000BF93DF93CF9300D0CDB7DEB780912E0184
:100D2000869590E09A83898329813A8180912F0169
:100D300090E0AC01429FC001439F900D529F900DE7
:100D400011249A83898389819A8164E670E0AAD804
:100D50007A8369832091B30089819A812091B300BD
:100D600089819A81280F2093B4008091B30020914B
:100D70002E019091B30080912E01890F8093B300D2
:100D80005E9A0F900F90CF91DF91BF91AF919F919D
:100D90008F917F916F915F914F913F912F910F9024
:100DA0000FBE0F901F901895569AE0E7F0E08081F3
:100DB0008660808381E08093B30082E08093B400FA
:100DC0000895181634F48091B10084608093B100C6
:100DD0000895882371F48091B1008B7F8093B100D6
:100DE0005E981092B20081E08093B30082E080931D
:100DF000B4000895CF93DF93EC0180912D018230F0
:100E000030F080918F0190919001892B21F4809195
:100E10008E018F3F01F5809191018823E1F41FC07D
:100E2000E0918D01F0E0EA5DFE4F808180932E011C
:100E3000E0918E01FF27E7FDF095EF5DFE4F808189
:100E400080932F0181E0BDDFCE0162E370E03ED8E8
:100E500060938C0104C080918C01882309F3DF9199
:100E6000CF910895CF93DF93EC0180912D018230D3
:100E700030F080918F0190919001892B21F4809125
:100E80008E018F3F51F580919101882331F529C062
:100E900080918D01882331F4E0918D01F0E0E95DCE
:100EA000FE4F05C0E0918D01F0E0EB5DFE4F8081CB
:100EB00080932E01E0918E01FF27E7FDF095EF5D15
:100EC000FE4F808180932F0181E07BDFCE0162E3C2
:100ED00070E0FCD760938C0104C080918C01882362
:100EE000B9F2DF91CF910895CF93DF93EC01809118
:100EF0002D01823030F080918F0190919001892BEB
:100F000021F480918E018F3F71F4809191018823AB
:100F100051F40DC081E055DFCE0162E370E0D6D719
:100F200060938C0104C080918C01882399F3DF9138
:100F3000CF91089580932F0160932E0108951F9201
:100F40000F920FB60F9211245E980F900FBE0F9064
:100F50001F9018951F920F920FB60F9211248F9326
:100F60009F9318990BC080919201882339F480E2F5
:100F70009EE40197F1F781E0809392019F918F9118
:100F80000F900FBE0F901F9018952098289A3B98AD
:100F9000439A8AB183778AB98BB18C688BB9E8E6BA
:100FA000F0E0808187608083EBE6F0E08081816003
:100FB0008083ECE6F0E0808188608083EDE6F0E0FD
:100FC00080818468808384B5826084BD85B58560B6
:100FD00085BDEEE6F0E08081826080838FEF87BD83
:100FE000089580913A01882309F488C080913A01DC
:100FF000853009F483C04F9B81C0189B7FC076C0A9
:101000004A9909C08091A101813019F48093A2010D
:1010100002C01092A20126B189B126952695269587
:1010200090E0969587959695879541E050E08427C6
:101030009527282720FF0CC086B190E023E09695E5
:1010400087952A95E1F78427952781708093A101E0
:101050008091A301E0913901F0E0ED5CFE4F9081B9
:101060009817D8F51092A30180913A01833009F4C2
:1010700040C080913A018430E1F180919F01882342
:10108000C1F58091A2018093980181E080939F0136
:1010900008C080913A01843041F48091A20180938C
:1010A00098018091A201809330018091980188235A
:1010B00021F082E390E09EDE03C082E390E0D2DE86
:1010C0006091000186E05ADC87E061E057DC46DD94
:1010D000109232011092310105C08091A3018F5FFF
:1010E0008093A30185E38A95F1F70895339B93CF0D
:1010F00087CF80913A01833061F6CFCF08951F9258
:101100000F920FB60F9211242F933F934F935F933B
:101110006F937F938F939F93AF93BF93EF93FF93BF
:101120004F9910C080919301882361F480919201BE
:10113000882341F480E29EE40197F1F781E08093F7
:10114000930101C04EDFFF91EF91BF91AF919F914D
:101150008F917F916F915F914F913F912F910F9060
:101160000FBE0F901F9018951F920F920FB60F92FF
:1011700011242F933F934F935F936F937F938F939C
:101180009F93AF93BF93EF93FF932BDFFF91EF916B
:10119000BF91AF919F918F917F916F915F914F918F
:1011A0003F912F910F900FBE0F901F9018951F9297
:1011B0000F920FB60F9211241F932F933F934F93CB
:1011C0005F936F937F938F939F93AF93BF93CF93CF
:1011D000DF93EF93FF9380913A01882309F423C3AF
:1011E0008091A401882329F480912D01823008F494
:1011F0000CC389E061E0C2DB80918C01882389F017
:10120000809194018F5F80939401909194018091DB
:101210008C01891730F480E0D4DD10929401109293
:101220008C01809191018130E1F480919A0190913B
:101230009B018653914048F480919A0190919B01C3
:10124000019690939B0180939A0180919C018A3032
:1012500030F480919C018F5F80939C0102C01092BA
:101260009C0180913A01853009F0A0C080919901DC
:101270008F5F8093990180919901893240F010929B
:10128000990188E060E07ADB87E060E00DC0809142
:101290009901853158F088E061E070DB8091A5010B
:1012A000882319F087E061E069DB58DC80919201C6
:1012B000882309F45DC2189912C080919201883286
:1012C00028F4809192018F5F809392018091920126
:1012D0008E3109F04DC281E08093A50149C2809111
:1012E00092018F3108F042C2809192018F3008F054
:1012F0003DC288E061E042DB31DC88EE93E028EC1F
:1013000030E0F9013197F1F70197D9F788E060E013
:1013100035DB24DC88EE93E028EC30E0F9013197EE
:10132000F1F70197D9F788E061E028DB17DC88EE58
:1013300093E028EC30E0F9013197F1F70197D9F704
:1013400088E060E01BDB0ADCF999FECF60910001C8
:1013500080E090E0DFD5F999FECF6091010188E04F
:1013600090E0D8D5F999FECF60912D0180E190E011
:10137000D1D5F999FECF88E190E060913D01CAD5C1
:10138000F999FECF80E290E060913E01C3D5F999D2
:10139000FECF88E290E060913F01BCD5F999FECF85
:1013A0001092920181E080933B01E2C180913A0169
:1013B000882309F4DDC180912D01823000F18091F4
:1013C0008F0190919001892BD1F080918F019091A4
:1013D000900101969093900180938F0140918F012D
:1013E0005091900180912D0128EC829FC001112421
:1013F0008417950720F41092900110928F0180912C
:101400009F01882381F180919F018F5F80939F01CD
:1014100080919F01833038F18091A001863018F5CA
:10142000E0DB80919801882329F48091A0016091EC
:10143000000106C09091A0016091000185E0891B28
:101440009DDA8CDB8091A0018F5F8093A001809159
:10145000A001863029F410929F011092A00103C0D0
:1014600081E080939F0180917F0190918001815262
:10147000934048F080919E01883228F480919E012B
:101480008F5F80939E0180917F01909180018059B0
:10149000914048F480919E01882329F080919E011B
:1014A000815080939E0180912D018230B8F080910F
:1014B0009E01853198F080919D01882379F4809177
:1014C0008F0190919001892B49F481E090E09093F5
:1014D000900180938F0181E080939D0180912D0187
:1014E000823050F080919E018A3030F480919D01CD
:1014F000813011F410929D0180913101909132015F
:1015000080599140B0F5809131019091320101965E
:10151000909332018093310180919801882309F5DD
:1015200080919601909197010196909397018093F5
:1015300096018091960190919701079790F0809184
:1015400031019091320180FD04C06091000186E07C
:1015500002C086E060E012DA01DB1092970110927F
:101560009601809131019091320180599140A9F406
:1015700011C08091A401882381F4809156018823B1
:1015800061F0809156018F5F8093560180915601E2
:10159000873918F010925601FBDA80913A018230B7
:1015A00021F080913A01843061F580918101909120
:1015B0008201059740F480919501823398F48091DF
:1015C00095018F5F0DC080919501882359F080911E
:1015D0008101909182010B9728F0809195018150B3
:1015E00080939501809195018F3118F088E061E03A
:1015F00006C080919501882321F488E060E0BED97F
:10160000ADDA8091A401882309F402C180917F01A1
:10161000909180018059914008F0FAC081E00CC09F
:1016200080917F01909180018152934038F08091A8
:101630009101813019F482E08093910180919201AF
:10164000882309F495C0189954C08091920188327A
:1016500028F4809192018F5F809392018091920192
:101660008F3108F485C08091A40190E0882309F4AB
:1016700091E09093A4018091A401882319F186E060
:1016800061E07CD96BDA88EB9BE028EC30E0F90173
:101690003197F1F70197D9F786E062E06FD95EDA0A
:1016A00088EB9BE028EC30E0F9013197F1F70197E6
:1016B000D9F786E060E062D951DA10929B0110926E
:1016C0009A0154C086E063E059D948DA88EB9BE080
:1016D00028EC30E0F9013197F1F70197D9F786E06E
:1016E00060E04CD93BDA82E08093A80180939101BD
:1016F0003DC080919201882309F43AC08091920103
:101700008F30B0F580913A01843020F480913A0115
:101710008F5F01C081E080933A0180913A0182306D
:1017200021F080913A018430D1F488E061E026D93B
:1017300015DA8CED95E028EC30E0F9013197F1F7FE
:101740000197D9F788E060E019D908DA8CED95E0C7
:1017500028EC30E0F9013197F1F70197D9F784EFE0
:1017600091E0909332018093310112DA109292014C
:101770004F9954C080919301882309F44FC0809100
:101780009201882309F04AC080919301883228F49D
:10179000809193018F5F80939301809193018F31AA
:1017A00058F111E0C8ECD0E060910001812F40E0D9
:1017B00023DA84EF91E0FE013197F1F70197D9F731
:1017C0001F5F173089F716E0C8ECD0E06091000188
:1017D000812F40E011DA84EF91E0FE013197F1F7BB
:1017E0000197D9F7115091F71092930181E08093FE
:1017F0003B0102C01092930180919201882399F0DD
:10180000189B11C0109292010EC089E060E0F3CCE9
:101810008091A401882309F411CF02CF8091930114
:10182000882341F7E9CFFF91EF91DF91CF91BF91ED
:10183000AF919F918F917F916F915F914F913F9168
:101840002F911F910F900FBE0F901F9018951F930F
:10185000CF93DF93E99883B78E7F83BF33DA85B563
:10186000856085BD8091800089688093800080912B
:10187000810083608093810080E197E228EC30E072
:10188000F9013197F1F70197D9F781E080933A0197
:101890004F9B03C080933B0134C0189907C085E07B
:1018A00080933A0188EE93E0A5DA2BC011E0C8ECF2
:1018B000D0E060910001812F41E09ED984EF91E05A
:1018C000FE013197F1F70197D9F71F5F173089F7BC
:1018D00016E0C8ECD0E060910001812F41E08CD986
:1018E00084EF91E0FE013197F1F70197D9F711509C
:1018F00091F760918D018FE01DDB80E991E0F4DAD2
:1019000070D94F9BFECF189BFCCF809168008760F9
:1019100080936800DF91CF911F910895F89480ED36
:1019200097E028EC30E0F9013197F1F70197D9F70A
:101930002FD915BC1092680080E043DA10923A016A
:1019400080916900837F80936900E99A1092A401D5
:101950001092A501CAD980E0C1D7109280001092E0
:10196000810029982E9880E29EE40197F1F783B7D1
:10197000856083BF789488956ADF08952A989EBD14
:101980000DB407FEFDCF8EBD0DB407FEFDCF2A9A24
:1019900008952A989EBD0DB407FEFDCF3EB58EBDBD
:1019A0000DB407FEFDCF2EB5932F80E02A9A30E0CC
:1019B000282B392BC90108952A981EBC0DB407FEA7
:1019C000FDCF2A9A8EB508952A988EBD0DB407FED4
:1019D000FDCF6EBD0DB407FEFDCF2A9A08952A985B
:1019E00080EB8EBD0DB407FEFDCF1EBC0DB407FE0F
:1019F000FDCF2A9A8EB50895239A259A229A249883
:101A000081E58CBD08951F93D7DF87FF7CC080914F
:101A1000D4018130E9F0813020F0823009F06BC0D0
:101A200052C011E01093D701DADF982F8093DF01C5
:101A30009D5F9093D6019350E091D801F091D90128
:101A40008081882309F057C01093D40191835BC033
:101A50009091D7018091D6019817D8F4C0DF90916A
:101A6000DF0198279093DF012091D7012D3038F4C2
:101A7000E091D801F091D901E20FF11D81838091AD
:101A8000D701823011F49F3FB1F58F5F8093D7016A
:101A90003AC0E091D801F091D90182E08083809131
:101AA000DC0190E0019681709070282F8093DC011A
:101AB0008EE0289F9001112428543E4F3093D90185
:101AC0002093D80118C09091D7018091D601981722
:101AD00050F4E92FF0E0E755FE4F60819F5F90934F
:101AE000D70188EB0FC01092D50181E892E846DF5C
:101AF00088EB6AEA69DF1092D4018AEC61E864DF5E
:101B00008AEC63E861DF1F9108958091D4018823F6
:101B1000D1F48091D5018130B1F481E092E82EDFDB
:101B20008091AB018A5F8093D6011092D70182E049
:101B30008093D4018AEA98EB21DF8AEA98EB1EDFD2
:101B400081E292E81BDF0895982F8091D5018823C8
:101B500011F083E008956093AB019093AC01692785
:101B600060956093AD0181E08093D50180E8089590
:101B7000E091DA01F091DB0110828091DD0190E0CB
:101B8000019681709070282F8093DD018EE0289F50
:101B90009001112428543E4F3093DB012093DA0149
:101BA00008952A9A229A28DF87EE90E8E7DE81E0FE
:101BB00092E8E4DE80E496EAE1DE83EA96ECDEDE9B
:101BC0008CE294E9DBDE8BEA92ECD8DE81E89AECD9
:101BD000D5DE87EF94ECD2DE80E798E9CFDE80E0B7
:101BE00098ECCCDE80E090EEC9DE8DE28093A90116
:101BF00084ED8093AA0188EB91E09093DB018093C0
:101C0000DA019093D9018093D80181E892E8B6DE99
:101C1000E9E6F0E080818860808380E090E0B9DED2
:101C2000E19A81E89AECAADE83E89AECA7DE0895AF
:101C300080E095EEA3DE85E092E8A0DE81E080936F
:101C4000DE0108958091DE01882319F0AADF109249
:101C5000DE0108950F931F93182F062F8B3010F07D
:101C600082E010C08091D501882311F083E00AC082
:101C70002EEA31E0C901BA01412F50E03AD1802F5C
:101C8000612F62DF1F910F910895DF93CF9300D0F2
:101C9000CDB7DEB7AC0119821A8220E030E070E0E7
:101CA000E2C0FA01E20FF31F80818F3F09F0D9C033
:101CB000C9010596861797070CF0D3C08091A5013E
:101CC000882309F4D5C084818C3009F0D1C081818A
:101CD00080933D01828180933E01838180933F0107
:101CE00086E061E04BD63AD788EE93E028EC30E00E
:101CF000F9013197F1F70197D9F786E060E03ED618
:101D00002DD788EE93E028EC30E0F9013197F1F718
:101D10000197D9F786E061E031D620D788EE93E0CD
:101D200028EC30E0F9013197F1F70197D9F786E017
:101D300060E024D613D782E08093A6011092A5011B
:101D4000ACC0928180913E01981709F0A6C09381A2
:101D500080913F01981709F0A0C084818B3009F46D
:101D60006FC08D3009F479C08A3009F096C0858142
:101D7000282F2F702A8390E024E0959587952A9547
:101D8000E1F789838981882309F487C089818430B8
:101D900008F083C08A81882309F47FC08A81833058
:101DA00008F07BC089818230E1F0833089F1813095
:101DB00009F042C08A81823009F063C080918E01AF
:101DC00084300CF05EC080918E018F5F07C08091DF
:101DD0008E0187FD31C080918E01815080938E01EC
:101DE0002BC08A81813009F050C080918D018530EF
:101DF00008F04BC080918D018F5F07C080918D01ED
:101E00008823D1F080918D01815080938D0114C081
:101E10008A818130F1F5809139018630D0F5809149
:101E200039018F5F07C080913901882329F08091A3
:101E3000390181508093390189818093A7012DC098
:101E40008581813019F48093A40127C0823029F55F
:101E50001092A4018093910120C081E08093A6019B
:101E60001CC02F5F3F4F261737070CF41ACF15C041
:101E7000FA01E20FF31F918180913D01981769F4F7
:101E800060CF8A818130C1F6A2CF8A818230A1F6EB
:101E9000B5CF8A81823081F6C6CF0F900F90CF9157
:101EA000DF910895AA1BBB1B51E107C0AA1FBB1FEE
:101EB000A617B70710F0A61BB70B881F991F5A95D6
:101EC000A9F780959095BC01CD01089597FB092E47
:101ED00007260AD077FD04D0E5DF06D000201AF4EB
:101EE000709561957F4F0895F6F7909581959F4F76
:101EF0000895FB01DC0102C001900D924150504059
:101F0000D8F70895F999FECF92BD81BDF89A992727
:101F100080B50895262FF999FECF1FBA92BD81BDD5
:101F200020BD0FB6F894FA9AF99A0FBE019608955B
:041F3000F894FFCF53
:101F3400010664640003060B0C171B140104070A52
:101F44000D111A1402050F091610191401020506C1
:101F5400070F1E3C505A5A6E8CA0B4C8FA01645A3A
:101F640002F401080F192D3C50010101FFFEFEFE91
:00000001FF
