:100000002DC047C047C01FC705C8D2C742C0FCC5E6
:10001000E3C63FC03EC03DC03CC03BC01FC839C066
:1000200038C037C036C035C034C093C532C031C0C7
:1000300030C02FC03CC448C45DC472C48EC4AAC4BE
:10004000BFC4D3C4E680018262A6A3C62C94ABC20F
:1000500081CAF7C4709800C800E0818211241FBED5
:10006000CFEFD4E0DEBFCDBF11E0A0E0B1E0EEE124
:10007000FFE102C005900D92A034B107D9F711E05D
:10008000A0E4B1E001C01D92AE3DB107E1F7A7D2F7
:1000900044CFB6CF1F920F920FB60F9211240F903C
:1000A0000FBE0F901F90189580917E0190917F0157
:1000B00068EC70E0ECDE709347016093460180913C
:1000C00080019091810168EC70E0E1DE709349015C
:1000D00060934801809186019091870168EC70E0FF
:1000E000D6DE70934B0160934A0120914601309116
:1000F000470184E0821B8093910180914801909197
:1001000049018093900180914A0190914B01809325
:1001100000018091460190914701909341018093A5
:10012000400180914801909149019093430180934F
:10013000420180914A0190914B0190934501809337
:100140004401089580917E0190917F0120914C019E
:1001500030914D01821B930B909355018093540174
:10016000809154019091550197FF0BC080915401EB
:1001700090915501909581959F4F90935501809353
:1001800054012091460130914701809140019091A6
:1001900041012817390731F180915401909155019F
:1001A000C39704F180914601909147018F5F80933E
:1001B00003016091030186E041E0A8D480914601EB
:1001C00090914701909341018093400180917E017D
:1001D00090917F0190934D0180934C0160910301B8
:1001E00083E01EDD809180019091810120914E017C
:1001F00030914F01821B930B9093550180935401D2
:10020000809154019091550197FF0BC0809154014A
:1002100090915501909581959F4F909355018093B2
:1002200054012091480130914901809142019091FF
:1002300043012817390741F18091540190915501EC
:10024000C39714F1209148013091490186E0982F1D
:10025000921B9093300120914801309149016091A7
:100260000301821B41E052D48091480190914901E1
:10027000909343018093420180918001909181018C
:1002800090934F0180934E01809186019091870158
:100290002091500130915101821B930B9093550195
:1002A00080935401809154019091550197FF0BC0A8
:1002B0008091540190915501909581959F4F909315
:1002C00055018093540120914A0130914B01809156
:1002D0004401909145012817390721F1809154017B
:1002E00090915501C397F4F020914A0130914B0150
:1002F00086E0821B80930401A8D26091030186E00E
:1003000041E004D480914A0190914B0190934501C2
:1003100080934401809186019091870190935101CF
:1003200080935001089580917E0190917F012091EA
:100330004C0130914D01821B930B9093550180939A
:100340005401809154019091550197FF0BC0809109
:10035000540190915501909581959F4F909355012F
:1003600080935401209146013091470180914001D2
:10037000909141012817390731F0809154019091F3
:100380005501C39724F480915801813059F52CDA36
:1003900080915801813019F41092580118C02091B1
:1003A00046013091470184E0821B80939101809146
:1003B00046019091470190934101809340018091C3
:1003C0007E0190917F0190934D0180934C0180912B
:1003D0009101609103018E5F41E098D384E690E043
:1003E00060E092D4809180019091810120914E0132
:1003F00030914F01821B930B9093550180935401D0
:10040000809154019091550197FF0BC08091540148
:1004100090915501909581959F4F909355018093B0
:1004200054012091480130914901809142019091FD
:1004300043012817390731F08091540190915501FB
:10044000C39724F480915801823051F5CDD9809121
:100450005801823019F41092580116C08091480159
:1004600090914901809390018091480190914901B8
:10047000909343018093420180918001909181018A
:1004800090934F0180934E019091900160910301F0
:1004900086E0891B41E03AD384E690E060E034D402
:1004A00080918601909187012091500130915101F6
:1004B000821B930B909355018093540180915401BA
:1004C0009091550197FF0BC0809154019091550177
:1004D000909581959F4F9093550180935401209161
:1004E0004A0130914B0180914401909145012817B8
:1004F000390731F08091540190915501C39724F44C
:1005000080915801833049F56FD98091580183302B
:1005100019F41092580116C080914A0190914B0134
:100520008093000180918601909187019093510101
:100530008093500180914A0190914B019093450125
:100540008093440180910001609103018F5F41E03D
:10055000DDD284E690E060E0D7D3089580E090E0BB
:10056000C6DC8093030188E090E0C1DC8093040145
:1005700080E190E0BCDC8093300188E190E0B7DC62
:1005800080933C0180E290E0B2DC80933D0188E200
:1005900090E0ADDC80933E0180910301873020F430
:1005A00080910301882319F481E0809303018091F5
:1005B0000401873020F480910401882319F486E037
:1005C0008093040142D180913001873020F48091E2
:1005D0003001882319F481E080933001089507D415
:1005E000BDDFFAD26BD26AD3C5DA88EE93E028EC8D
:1005F00030E0F9013197F1F70197D9F7789454DD9C
:1006000084EF91E090933401809333018091020153
:10061000882309F4E7C080919401882309F0E2C09F
:100620001092020164DA19D9F1CF80919D01909165
:100630009E018C52914098F580919D0190919E0170
:100640000A9729F482E061E0EBDA84E612D1809126
:100650009F01863098F486E061E041E057D286E061
:1006600061E016D187E061E013D188E061E010D14C
:10067000FFD18AE562E8ABD381E00FC086E062E09B
:1006800041E044D286E062E003D187E061E000D13E
:1006900088E061E0FDD0ECD180E01DD321C08091E5
:1006A0009D0190919E018C529140D1F480E013D332
:1006B000F9D1DED115C080919401823089F4109275
:1006C0009E0110929D0180E006D3ECD1D1D188E04B
:1006D00060E0DED082E062E0A3DA10929401B5D04F
:1006E00080910101853019F580917E0190917F0103
:1006F00066E970E0CCDB709347016093460180911E
:1007000080019091810168EC70E0C1DB7093490138
:1007100060934801809186019091870168EC70E0B8
:10072000B6DB70934B0160934A010CDD22C08091CF
:100730007E0190917F0168EC70E0A9DB7093470126
:1007400060934601809180019091810168EC70E096
:100750009EDB7093490160934801809186019091DE
:10076000870168EC70E093DB70934B0160934A0162
:10077000DADD4091D901842F90E0880F991FFC01A8
:10078000A3E0EE0FFF1FAA95E1F7E81BF90BE85471
:10079000FE4F8081823019F5242F30E0220F331F65
:1007A000C90163E0880F991F6A95E1F7821B930BDB
:1007B00084549E4F9093530180935201242F30E034
:1007C000220F331FF90143E0EE0FFF1F4A95E1F7B7
:1007D000E21BF30BE854FE4F618146DAB5D99CD891
:1007E00059D914CF80919401813009F064CF1DCF85
:1007F000882309F180918800909189008F3F9105AD
:1008000019F55D9A80E991E028EC30E0F901319723
:10081000F1F70197D9F720910501253608F024E674
:10082000209305018FEF90E0821B9109909389003E
:100830008093880008955D9840982F988FEF90E0FE
:10084000909389008093880008959091040181E13C
:10085000989F202D1124253608F024E620930501C9
:100860008FEF90E0821B910990938900809388001C
:100870000895282F853608F024E6209305018FEF90
:1008800090E0821B910990938900809388000895DD
:10089000482F873008F0C6C0E62FF0E0E830F105B9
:1008A00008F0DEC0E65EFF4F282F30E00994295F94
:1008B0003E4FF9018081A3E2B0E0FD01E81BF109A0
:1008C000E65AFE4F10820DC0295F3E4FF90180812C
:1008D000A3E2B0E0FD01E81BF109E65AFE4F81E01A
:1008E0008083F9018085FD01E81BF109E65AFE4F7E
:1008F000108248C0295F3E4FF9018081A3E2B0E039
:10090000FD01E81BF109E65AFE4F1082F9018085CE
:10091000FD01E81BF109E65AFE4F81E0808332C0F9
:10092000295F3E4FF9018081A3E2B0E0FD01E81BA1
:10093000F109E65AFE4F1082F9018085FD01E81B9E
:10094000F109E65AFE4F1082F9018089A81BB1090E
:10095000A65ABE4F81E08C9383C0295F3E4FF901B8
:100960008081A3E2B0E0FD01E81BF109E65AFE4FE9
:1009700091E09083F9018085FD01E81BF109E65AB9
:10098000FE4F9083F9018089A81BB109A65ABE4F7A
:100990001C9266C0295F3E4FF9018081A3E2B0E05E
:1009A000FD01E81BF109E65AFE4F91E09083F90141
:1009B0008085FD01E81BF109E65AFE4F10822AC02E
:1009C000295F3E4FF9018081A3E2B0E0FD01E81B01
:1009D000F109E65AFE4F1082F9018085FD01E81BFE
:1009E000F109E65AFE4F91E014C0295F3E4FF9012C
:1009F0008081A3E2B0E0FD01E81BF109E65AFE4F59
:100A000091E09083F9018085FD01E81BF109E65A28
:100A1000FE4F9083F9018089A81BB109A65ABE4FE9
:100A20009C931EC0873049F4662321F081E08093B7
:100A300069010895109269010895883049F4662388
:100A400021F081E080936B01089510926B0108956D
:100A5000893069F4662311F0409A0895409808950A
:100A6000463029F4662311F02F9A08952F9808959F
:100A700020E030E0F901E65AFE4F8081813011F428
:100A80002E9A01C02E985C9A5C982F5F3F4F2432BB
:100A9000310581F7449A449881E0AADE81E0809391
:100AA0005901089580E090E0FC01E65AFE4F108263
:100AB000019684329105C1F7DBDF0895559A5D9A5E
:100AC00080E991E028EC30E0F9013197F1F70197E6
:100AD000D9F7269A219A549A3C9A80918000896885
:100AE0008093800080918100836080938100DADFB1
:100AF000389A279A08951F9310E0812F60E0C8DE8E
:100B00001F5F1630D1F7B4DF1F910895DF92EF9287
:100B1000FF920F931F93182FF62EE42EECDF012F78
:100B2000173008F006E010E085E0D82E09C0EE206E
:100B300019F08D2D811B01C0812F6F2DA9DE1F5F44
:100B40001017A8F395DF1F910F91FF90EF90DF90A2
:100B500008951F920F920FB60F9211248F939F93B7
:100B6000EF93FF93E0918E01FF27E7FDF0958091D1
:100B7000780090917900EE0FFF1FE258FE4F9183AD
:100B8000808380918E018F5F80938E0180918E0192
:100B9000853014F010928E0180917C00807F8093CC
:100BA0007C0090917C00E0918E01FF27E7FDF0959D
:100BB000E15EFE4F8081892B80937C0080917A00DA
:100BC000806480937A00FF91EF919F918F910F90B5
:100BD0000FBE0F901F901895ECE7F0E080818064C5
:100BE0008083EAE7F0E080818F688083AEE7B0E041
:100BF0008C9186628C9380818064808308951092AA
:100C00007A0010927E0008951F920F920FB60F92F5
:100C100011242F933F934F935F936F937F938F9301
:100C20009F93AF93BF93DF93CF9300D0CDB7DEB741
:100C300080913101869590E09A83898329813A8158
:100C40008091320190E0AC01429FC001439F900D22
:100C5000529F900D11249A83898389819A8164E639
:100C600070E015D97A8369832091B30089819A81D4
:100C70002091B30089819A81280F2093B40080913C
:100C8000B300209131019091B30080913101890F1F
:100C90008093B3005E9A0F900F90CF91DF91BF9138
:100CA000AF919F918F917F916F915F914F913F9104
:100CB0002F910F900FBE0F901F901895569AE0E756
:100CC000F0E080818660808381E08093B30082E0E1
:100CD0008093B4000895181634F48091B1008460B4
:100CE0008093B1000895882371F48091B1008B7FC7
:100CF0008093B1005E981092B20081E08093B300BF
:100D000082E08093B4000895CF93DF93EC0180914B
:100D10003001823030F08091920190919301892BC3
:100D200021F4809191018F3F29F5809194018823CE
:100D300009F524C080919001E62FFF27E7FDF0958B
:100D4000E80FF11DE75DFE4F808180933101E09156
:100D50009101FF27E7FDF095EC5DFE4F80818093C8
:100D6000320181E0B8DFCE0162E370E0A4D8609385
:100D70008F0104C080918F018823E1F2DF91CF9130
:100D80000895CF93DF93EC0180913001823030F0F1
:100D90008091920190919301892B21F4809191018E
:100DA0008F3F71F480919401882351F40DC081E04C
:100DB00092DFCE0162E370E07ED860938F0104C0C1
:100DC00080918F01882399F3DF91CF9108958093CB
:100DD00032016093310108951F920F920FB60F9266
:100DE00011245E980F900FBE0F901F9018952098B9
:100DF000289A3B98439A8AB183778AB98BB18C68D9
:100E00008BB9E8E6F0E0808187608083EBE6F0E074
:100E1000808181608083ECE6F0E08081886080835F
:100E2000EDE6F0E080818468808384B5826084BDD3
:100E300085B5856085BDEEE6F0E0808182608083C7
:100E40008FEF87BD08951F920F920FB60F92112456
:100E50002F933F934F935F936F937F938F939F93C2
:100E6000AF93BF93EF93FF93189907C080919501BB
:100E7000882319F481E080939501B6D4FF91EF9116
:100E8000BF91AF919F918F917F916F915F914F91A2
:100E90003F912F910F900FBE0F901F90189580914A
:100EA0000101882309F483C080910101853009F490
:100EB0007EC04F9B7CC0189B7AC071C04A9904C009
:100EC0008091A4018093A50126B189B1269526952C
:100ED000269590E0969587959695879541E050E008
:100EE00084279527282720FF0CC086B190E023E0B7
:100EF000969587952A95E1F78427952781708093A9
:100F0000A4018091A601E0910001F0E0EB5CFE4FAE
:100F100090819817D8F51092A60180910101833035
:100F200009F440C0809101018430E1F18091A20177
:100F30008823C1F58091A50180939B0181E0809376
:100F4000A20108C080910101843021F48091A501A3
:100F500080939B0180919B0160919001660F660FC9
:100F60008F5F682B81E05CD660919B0182E390E00B
:100F7000CBDE6091030186E08BDC87E061E088DCFA
:100F800077DD109234011092330105C08091A601E3
:100F90008F5F8093A60185E38A95F1F70895339BCF
:100FA00093CF8CCF80910101833061F6CFCF08952C
:100FB0001F920F920FB60F9211242F933F934F93CE
:100FC0005F936F937F938F939F93AF93BF93EF93B1
:100FD000FF934F991DC0809196018823C9F4809199
:100FE00095018823A9F481E080939601FDD3FF91B8
:100FF000EF91BF91AF919F918F917F916F915F9191
:101000004F913F912F910F900FBE0F901F90189509
:1010100046DFECCF1F920F920FB60F9211242F9341
:101020003F934F935F936F937F938F939F93AF9370
:10103000BF93EF93FF9333DFD7D3FF91EF91BF912E
:10104000AF919F918F917F916F915F914F913F9160
:101050002F910F900FBE0F901F9018951F920F9217
:101060000FB60F9211241F932F933F934F935F93CB
:101070006F937F938F939F93AF93BF93CF93DF93A0
:10108000EF93FF9380915601882329F480913001DA
:10109000823008F41EC389E061E0FADB80918F01A1
:1010A000882389F0809197018F5F809397019091B9
:1010B000970180918F01891730F480E00CDE109247
:1010C000970110928F0180915601882349F08091F9
:1010D000A801863028F48091A8018F5F8093A80131
:1010E000809194018130E1F480919D0190919E0165
:1010F0008653914048F480919D0190919E01019604
:1011000090939E0180939D0180919F018A3030F4DD
:1011100080919F018F5F80939F0102C010929F0179
:1011200080910101853009F0A0C080919C018F5F02
:1011300080939C0180919C01893240F010929C0127
:1011400088E060E0A5DB87E060E00DC080919C0155
:10115000853158F088E061E09BDB8091570188235E
:1011600019F087E061E094DB83DC809195018823AE
:1011700009F462C2189912C080919501883228F44E
:10118000809195018F5F80939501809195018E31BB
:1011900009F052C281E0809357014EC280919501BF
:1011A0008F3108F047C2809195018F3008F042C21C
:1011B00088E061E06DDB5CDC88EE93E028EC30E0F9
:1011C000F9013197F1F70197D9F788E060E060DB2A
:1011D0004FDC88EE93E028EC30E0F9013197F1F72D
:1011E0000197D9F788E061E053DB42DC88EE93E0B9
:1011F00028EC30E0F9013197F1F70197D9F788E051
:1012000060E046DB35DCF999FECF6091030180E0B8
:1012100090E075D6F999FECF6091040188E090E0E6
:101220006ED6F999FECF6091300180E190E067D6EB
:10123000F999FECF88E190E060913C0160D6F99980
:10124000FECF80E290E060913D0159D6F999FECF42
:1012500088E290E060913E0152D6F999FECF10925B
:10126000950181E080930201E7C18091010188230B
:1012700009F4E2C180919401882309F023C180918F
:101280003001823000F18091920190919301892B7D
:10129000D1F08091920190919301019690939301E6
:1012A000809392014091920150919301809130017D
:1012B00028EC829FC00111248417950720F4109216
:1012C0009301109292018091A201882381F1809173
:1012D000A2018F5F8093A2018091A201833038F137
:1012E0008091A301863018F506DC80919B0188234C
:1012F00029F48091A3016091030106C09091A3019C
:101300006091030185E0891BC3DAB2DB8091A30100
:101310008F5F8093A3018091A301863029F41092FE
:10132000A2011092A30103C081E08093A2018091E9
:101330008201909183018152934048F08091A101F4
:10134000883228F48091A1018F5F8093A101809160
:101350008201909183018059914048F48091A101CC
:10136000882329F08091A10181508093A10180916F
:1013700030018230B8F08091A101853198F08091E0
:10138000A001882379F48091920190919301892B97
:1013900049F481E090E0909393018093920181E081
:1013A0008093A00180913001823050F08091A101A2
:1013B0008A3030F48091A001813011F41092A001A4
:1013C000809133019091340180599140B0F5809122
:1013D000330190913401019690933401809333014D
:1013E00080919B01882309F58091990190919A0140
:1013F000019690939A01809399018091990190911F
:101400009A01079790F0809133019091340180FD0B
:1014100004C06091030186E002C086E060E038DA33
:1014200027DB10929A0110929901809133019091DB
:1014300034018059914091F40DC080915901882365
:1014400069F0809159018F5F809359018091590112
:10145000873920F01092590125DBE8D180910101F4
:10146000823021F080910101843061F58091840106
:1014700090918501059740F480919801823398F40A
:10148000809198018F5F0DC080919801882359F059
:1014900080918401909185010B9728F080919801AB
:1014A000815080939801809198018F3118F088E0E5
:1014B00061E006C080919801882319F488E060E01B
:1014C000E7D9D6DA80915601882309F405C18091C5
:1014D0008201909183018059914008F0FDC081E024
:1014E0000CC080918201909183018152934038F029
:1014F00080919401813019F482E08093940180916D
:101500009501882309F498C0189957C080919501D6
:10151000883228F4809195018F5F809395018091A6
:1015200095018F3108F488C08091560190E088239E
:1015300009F491E09093560180915601882329F196
:101540001092A80186E061E0A3D992DA88EB9BE0D3
:1015500028EC30E0F9013197F1F70197D9F786E0EF
:1015600062E096D985DA88EB9BE028EC30E0F9015F
:101570003197F1F70197D9F786E060E089D978DAF9
:1015800010929E0110929D0155C086E063E080D9C3
:101590006FDA88EB9BE028EC30E0F9013197F1F746
:1015A0000197D9F786E060E073D962DA82E062E001
:1015B00037D382E0809394013DC0809195018823C8
:1015C00009F43AC0809195018F30B0F58091010106
:1015D000843020F4809101018F5F01C081E080930D
:1015E000010180910101823021F08091010184305C
:1015F000D1F488E061E04CD93BDA8CED95E028EC41
:1016000030E0F9013197F1F70197D9F788E060E010
:101610003FD92EDA8CED95E028EC30E0F9013197D6
:10162000F1F70197D9F784EF91E09093340180931B
:10163000330138DA109295014F9954C08091960188
:10164000882309F44FC080919501882309F04AC08E
:1016500080919601883228F4809196018F5F809363
:101660009601809196018F3158F111E0C8ECD0E0DD
:1016700060910301812F40E049DA84EF91E0FE019F
:101680003197F1F70197D9F71F5F173089F716E007
:10169000C8ECD0E060910301812F40E037DA84EF9D
:1016A00091E0FE013197F1F70197D9F7115091F7C9
:1016B0001092960181E08093020102C0109296017F
:1016C00080919501882399F0189B11C01092950183
:1016D0000EC089E060E0E1CC80915601882309F4D6
:1016E0000ECFFFCE80919601882341F7E9CFFF917D
:1016F000EF91DF91CF91BF91AF919F918F917F91AA
:101700006F915F914F913F912F911F910F900FBE5D
:101710000F901F9018951F93CF93DF93E99883B78D
:101720008E7F83BF80E197E228EC30E0F9013197AA
:10173000F1F70197D9F781E0809301014F9B03C036
:10174000809302014DC048DA85B5856085BD8091E2
:1017500080008968809380008091810083608093FD
:101760008100C9D0189908C085E08093010188EEF6
:1017700093E060E0C9DA2BC011E0C8ECD0E06091E2
:101780000301812F41E0C2D984EF91E0FE0131973E
:10179000F1F70197D9F71F5F173089F716E0C8EC0A
:1017A000D0E060910301812F41E0B0D984EF91E056
:1017B000FE013197F1F70197D9F7115091F7609138
:1017C00090018FE004DB80E991E0DBDA94D94F9B54
:1017D000FECF189BFCCF80916800876080936800E3
:1017E000DF91CF911F91089580915601882339F0A0
:1017F0008091A801863018F082E061E011D28091DA
:10180000A701882391F081E08093590185B5856017
:1018100085BD8091800089688093800080918100DF
:101820008360809381001092A701089580915601F2
:10183000882349F480910101823029F080910101CF
:10184000843009F015BC109280001092810080E075
:10185000CFD781E08093A7010895F89480ED97E0B9
:1018600028EC30E0F9013197F1F70197D9F71AD94F
:1018700015BC1092680080E02EDA10920101809170
:101880006900837F80936900E99A10925601109253
:101890005701B5D980E0ACD710928000109281003A
:1018A00029982E9880E29EE40197F1F783B785602E
:1018B00083BF789488952FDF08952A989EBD0DB434
:1018C00007FEFDCF8EBD0DB407FEFDCF2A9A089509
:1018D0002A989EBD0DB407FEFDCF3EB58EBD0DB45A
:1018E00007FEFDCF2EB5932F80E02A9A30E0282BFB
:1018F000392BC90108958091D401833061F410928D
:10190000D4018091DA019091DB0180689093DB0132
:101910008093DA01D2DF0895DF92EF92FF920F9366
:101920001F930091DD01A2E0DA2EFEE0EF2EFF24EE
:10193000F394E19A2A981EBC0DB407FEFDCF2A9AB3
:101940000EB407FE9FC01091D4011130C9F11130BF
:1019500038F0123009F46BC0133009F08AC086C029
:10196000F092D70180E090EBB3DF082F0D5F00937A
:10197000D60103502091D801822F90E0880F991F43
:10198000FC0173E0EE0FFF1F7A95E1F7E81BF90BFE
:10199000E854FE4F8081882309F06BC0F092D40197
:1019A000822F90E0880F991FFC0153E0EE0FFF1F7C
:1019B0005A95E1F7E81BF90BE854FE4F0183B9CFC4
:1019C00080E090EB85DF282F9091D7018091D601A0
:1019D0009817C0F402279D3058F4E091D801EE9D8D
:1019E000F00111243196E90FF11DE854FE4F2083D8
:1019F0008091D701823011F40F3FD9F58F5F80932A
:101A0000D70197CF8091D801282F30E0220F331FC4
:101A1000F90193E0EE0FFF1F9A95E1F7E21BF30B3C
:101A2000E854FE4FD08281278093D80122C02091B4
:101A3000D7018091D601281758F4E22FF0E0E7553E
:101A4000FE4F808190E02F5F2093D701986B18C0E4
:101A50001092D5018091DA019091DB018F7D816830
:101A600092689093DB018093DA0127DF8AEA98EB92
:101A700024DF1092D40181E89AEC1FDF83E89AEC0E
:101A80001CDF57CF0093DD011F910F91FF90EF9066
:101A9000DF9008958091D401882341F58091D5018C
:101AA000813021F58091DA019091DB018F7790935D
:101AB000DB018093DA0101DF8091AB018A5F8093C3
:101AC000D6011092D70182E08093D4018AEA98EB84
:101AD000F4DE8AEA98EBF1DE8091DA019091DB0185
:101AE00080629093DB018093DA01E7DE08958091B4
:101AF000D401833019F408950FDFCCDF8091D40135
:101B00008823D1F78091DA019091DB018F77909350
:101B1000DB018093DA01D1DE83E08093D401089564
:101B2000982F8091D501882311F083E00895609368
:101B3000AB019093AC01692760956093AD0181E0A2
:101B40008093D50180E808952091D901822F90E0FB
:101B5000880F991FFC01B3E0EE0FFF1FBA95E1F764
:101B6000E81BF90BE854FE4F108281E028272093F0
:101B7000D9010895CF93DF932A9A229A239A259A1E
:101B80002A9A229A249881E58CBD8DE28093A9013E
:101B900084ED8093AA011092D8011092D90181E8B6
:101BA00092E89093DB018093DA01C0E0D0E0FE017F
:101BB000EE0FFF1FEC5BFF4F859194917EDE219627
:101BC000CC30D105A1F780916900886080936900CD
:101BD00080E090E07DDEE19A81E89AEC6EDE83E8B9
:101BE0009AEC6BDEDF91CF9108950F931F93182F1E
:101BF000062F8B3010F082E010C08091D501882331
:101C000011F083E00AC02EEA31E0C901BA01412F88
:101C100050E064D1802F612F83DF1F910F910895D1
:101C2000DF93CF9300D000D000D0CDB7DEB7909136
:101C30003B01998390913C019A8390913D019B8354
:101C400090913E019C838D836E8386E060E0AE01BF
:101C50004F5F5F4FCADF26960FB6F894DEBF0FBE08
:101C6000CDBFCF91DF910895DF93CF9300D0CDB753
:101C7000DEB7AC0119821A8220E030E070E0E8C0E3
:101C8000FA01E20FF31F80818F3F09F0DFC0C90125
:101C90000596861797070CF0D9C0809157018823C5
:101CA00009F4DBC084818C3009F0D7C08181809336
:101CB0003C01828180933D01838180933E0186E0D7
:101CC00061E0E6D5D5D688EE93E028EC30E0F90166
:101CD0003197F1F70197D9F786E060E0D9D5C8D6FA
:101CE00088EE93E028EC30E0F9013197F1F70197A5
:101CF000D9F786E061E0CCD5BBD688EE93E028EC3E
:101D000030E0F9013197F1F70197D9F786E060E00B
:101D1000BFD5AED66091030184E082DF10925701F7
:101D2000B1C0928180913D01981709F0ABC09381B9
:101D300080913E01981709F0A5C084818B3009F489
:101D400070C08D3009F47DC08A3009F09BC0858158
:101D5000282F2F702A8390E024E0959587952A9567
:101D6000E1F789838981882309F48CC089818430D3
:101D700008F088C08A81882309F484C08A8183306E
:101D800008F080C089818230E1F0833089F18130B0
:101D900009F043C08A81823009F068C080919101C6
:101DA00084300CF063C0809191018F5F07C08091F7
:101DB000910187FD32C08091910181508093910102
:101DC0002CC08A81813009F055C080919001853006
:101DD00008F050C0809190018F5F07C08091900102
:101DE0008823D9F08091900181508093900115C093
:101DF0008A81813009F042C0809100018630F0F57F
:101E0000809100018F5F07C080910001882329F035
:101E10008091000181508093000189818093580155
:101E200031C08581813029F48093560182E063E0DE
:101E30000BC0823039F5109256018093940164E012
:101E400003C06091030183E0EBDE1CC02F5F3F4FB6
:101E5000261737070CF414CF15C0FA01E20FF31F51
:101E6000918180913C01981769F45BCF8A81813020
:101E7000A1F69DCF8A81823081F6B0CF8A818230EF
:101E800061F6C2CF0F900F90CF91DF910895AA1BFA
:101E9000BB1B51E107C0AA1FBB1FA617B70710F055
:101EA000A61BB70B881F991F5A95A9F78095909587
:101EB000BC01CD01089597FB092E07260AD077FDB6
:101EC00004D0E5DF06D000201AF4709561957F4FAD
:101ED0000895F6F7909581959F4F0895FB01DC01D9
:101EE00002C001900D9241505040D8F70895F999E1
:101EF000FECF92BD81BDF89A992780B50895262F0F
:101F0000F999FECF1FBA92BD81BD20BD0FB6F894DE
:0E1F1000FA9AF99A0FBE01960895F894FFCF41
:101F1E00010101010664640003060B0C171B14017A
:101F2E0004070A0D111A1402050F091610191401CF
:101F3E00020506070F1E3C505A5A6E8CA0B4C8FA02
:101F4E0001645AF401080F192D3C50FFFEFEFE00ED
:00000001FF
