:100000000C9440000C945D000C945F000C943F072E
:100010000C9433080C94FE070C945D000C941B06A2
:100020000C9408070C945D000C945D000C945D002A
:100030000C945D000C945D000C945A080C945D00C7
:100040000C945D000C945D000C945D000C945D00BC
:100050000C945D000C94C0050C945D000C945D0044
:100060000C945D000C945D00E680018262A6A3C63C
:100070002C94ABC281CAF7C4709800C800E081829A
:1000800011241FBECFEFD4E0DEBFCDBF11E0A0E052
:10009000B1E0E6E6F1E202C005900D92A034B107AE
:1000A000D9F711E0A0E4B1E001C01D92AF3DB10766
:1000B000E1F70E941F030C94B1100C9400001F92F2
:1000C0000F920FB60F9211240F900FBE0F901F903A
:1000D0001895809181019091820168EC70E00E94F6
:1000E0006B1070934701609346018091830190915A
:1000F000840168EC70E00E946B107093490160937A
:1001000048018091890190918A0168EC70E00E9419
:100110006B1070934B0160934A012091460130911E
:10012000470184E0821B8093940180914801909163
:1001300049018093930180914A0190914B018093F2
:100140000001809146019091470190934101809375
:10015000400180914801909149019093430180931F
:10016000420180914A0190914B0190934501809307
:1001700044010895809181019091820120914C0168
:1001800030914D01821B930B909355018093540144
:10019000809154019091550197FF0BC080915401BB
:1001A00090915501909581959F4F90935501809323
:1001B0005401209146013091470180914001909176
:1001C00041012817390741F180915401909155015F
:1001D000C39714F180914601909147018F5F8093FE
:1001E00003016091030186E041E00E949A0580913D
:1001F0004601909147019093410180934001809185
:1002000081019091820190934D0180934C01609106
:10021000030183E00E94190F809183019091840172
:1002200020914E0130914F01821B930B9093550109
:1002300080935401809154019091550197FF0BC018
:100240008091540190915501909581959F4F909385
:1002500055018093540120914801309149018091CA
:100260004201909143012817390749F180915401C7
:1002700090915501C3971CF120914801309149019B
:1002800086E0982F921B9093300120914801309185
:10029000490160910301821B41E00E949A0580910F
:1002A00048019091490190934301809342018091CC
:1002B00083019091840190934F0180934E0180912E
:1002C000890190918A012091500130915101821B46
:1002D000930B909355018093540180915401909118
:1002E000550197FF0BC08091540190915501909555
:1002F00081959F4F909355018093540120914A011D
:1003000030914B01809144019091450128173907A4
:1003100031F18091540190915501C39704F12091DE
:100320004A0130914B0186E0821B809304010E94B8
:10033000ED036091030186E041E00E949A058091FF
:100340004A0190914B019093450180934401809123
:10035000890190918A0190935101809350010895F1
:10036000809181019091820120914C0130914D0149
:10037000821B930B909355018093540180915401FB
:100380009091550197FF0BC08091540190915501B8
:10039000909581959F4F90935501809354012091A2
:1003A0004601309147018091400190914101281709
:1003B000390731F08091540190915501C39724F48D
:1003C00080915901813079F581E00E94F50C80918E
:1003D0005901813019F41092590118C02091460139
:1003E0003091470184E0821B809394018091460103
:1003F0009091470190934101809340018091810148
:100400009091820190934D0180934C0180919401D1
:10041000609103018E5F41E00E949A0584E690E0BE
:1004200060E00E949C06809183019091840120915C
:100430004E0130914F01821B930B90935501809395
:100440005401809154019091550197FF0BC0809108
:10045000540190915501909581959F4F909355012E
:1004600080935401209148013091490180914201CB
:10047000909143012817390731F0809154019091F0
:100480005501C39724F480915901823071F581E0C0
:100490000E94F50C80915901823019F41092590193
:1004A00016C08091480190914901809393018091F9
:1004B00048019091490190934301809342018091BA
:1004C00083019091840190934F0180934E0190910C
:1004D00093016091030186E0891B41E00E949A0527
:1004E00084E690E060E00E949C06809189019091F2
:1004F0008A012091500130915101821B930B9093FE
:10050000550180935401809154019091550197FFBA
:100510000BC08091540190915501909581959F4F0A
:10052000909355018093540120914A0130914B01E1
:1005300080914401909145012817390731F080914D
:10054000540190915501C39724F48091590183304F
:1005500069F581E00E94F50C80915901833019F40E
:100560001092590116C080914A0190914B018093DD
:1005700000018091890190918A01909351018093AB
:10058000500180914A0190914B01909345018093D5
:10059000440180910001609103018F5F41E00E945E
:1005A0009A0584E690E060E00E949C06089580E051
:1005B00090E00E949B108093030188E090E00E94ED
:1005C0009B108093040180E190E00E949B10809337
:1005D000300188E190E00E949B1080933C0180E212
:1005E00090E00E949B1080933D0188E290E00E9481
:1005F0009B1080933E0180910301873020F480910D
:100600000301882319F481E08093030180910401A0
:10061000873020F480910401882319F486E08093C8
:1006200004010E94ED0380913001873020F4809115
:100630003001882319F481E08093300108950E94ED
:1006400013070E94D7020E9403060E946F050E94B2
:1006500076060E94BD0E88EE93E028EC30E0F901AA
:100660003197F1F70197D9F778940E94690084EFE8
:1006700091E0909334018093330181E00E948306DE
:1006800080910201882309F4A2C0809197018823F8
:1006900009F09DC0109202010E94770E0E941D0D6C
:1006A000EFCF809181019091820166E970E00E9414
:1006B0006B10709347016093460180918301909184
:1006C000840168EC70E00E946B10709349016093A4
:1006D00048018091890190918A0168EC70E00E9444
:1006E0006B1070934B0160934A010E94BA0026C0C0
:1006F000809181019091820168EC70E00E946B1002
:100700007093470160934601809183019091840129
:1007100068EC70E00E946B1070934901609348018F
:100720008091890190918A0168EC70E00E946B10C1
:1007300070934B0160934A010E94B0014091DA012D
:10074000842F90E0880F991FFC01A3E0EE0FFF1F9C
:10075000AA95E1F7E81BF90BE754FE4F8081823040
:1007600029F5242F30E0220F331FC90163E0880FE1
:10077000991F6A95E1F7821B930B83549E4F9093C8
:10078000530180935201242F30E0220F331FF901CF
:1007900043E0EE0FFF1F4A95E1F7E21BF30BE7542E
:1007A000FE4F61810E943E0F0E94A70E809156016C
:1007B0008A3030F4809156018F5F8093560104C0D7
:1007C0000E94820D109256010E94460E59CF8091D0
:1007D0000101853009F08CCF64CF9091040181E153
:1007E000989F202D1124253608F024E6209305013A
:1007F0008FEF90E0821B910990938900809388008D
:100800000895882379F080918800909189008F3F26
:10081000910589F45D9A80E49CE90197F1F70E94C3
:10082000ED0308955D9840982F988FEF90E0909396
:100830008900809388000895282F853608F024E6E3
:10084000209305018FEF90E0821B9109909389001E
:10085000809388000895482F873008F0EAC06330FD
:1008600009F458C0643038F4613039F1282F30E091
:100870006230C8F50DC0653009F488C0653008F4F1
:1008800067C0663009F499C0673009F0F0C0B3C0A2
:10089000295F3E4FF9018081A3E2B0E0FD01E81B32
:1008A000F109E35AFE4F1082F9018085FD01E81B32
:1008B000F109E35AFE4F10822BC090E0895F9E4FF2
:1008C000FC012081A3E2B0E0FD01E21BF109E35A43
:1008D000FE4F6083FC012085FD01E21BF109E35A14
:1008E000FE4F10824BC0295F3E4FF9018081A3E289
:1008F000B0E0FD01E81BF109E35AFE4F1082F90157
:100900008085FD01E81BF109E35AFE4F81E08083F9
:10091000F90135C090E0895F9E4FFC012081A3E280
:10092000B0E0FD01E21BF109E35AFE4F1082FC0129
:100930002085FD01E21BF109E35AFE4F1082FC0104
:100940008089A81BB109A35ABE4F81E08C938FC048
:1009500090E0895F9E4FFC012081A3E2B0E0FD01A1
:10096000E21BF109E35AFE4F31E03083FC012085A0
:10097000FD01E21BF109E35AFE4F3083FC0180893F
:10098000A81BB109A35ABE4F1C9271C090E0895FA9
:100990009E4FFC012081A3E2B0E0FD01E21BF109C2
:1009A000E35AFE4F31E03083FC012085FD01E21B5C
:1009B000F109E35AFE4F108234C090E0895F9E4FE8
:1009C000FC012081A3E2B0E0FD01E21BF109E35A42
:1009D000FE4F1082FC012085FD01E21BF109E35A64
:1009E000FE4F21E02083FC018089A81BB109A35A96
:1009F000BE4F2C933CC090E0895F9E4FFC0120814C
:100A0000A3E2B0E0FD01E21BF109E35AFE4F31E041
:100A10003083FC012085FD01E21BF109E35AFE4F02
:100A20003083FC018089A81BB109A35ABE4F3C93B7
:100A30001EC0873049F4662321F081E080936C0169
:100A4000089510926C010895883049F4662321F0CE
:100A500081E080936E01089510926E0108958930AF
:100A600069F4662311F0409A08954098089546303D
:100A700029F4662311F02F9A08952F9808951F9353
:100A8000182F20E030E0F901E35AFE4F80818130D9
:100A900011F42E9A01C02E985C9A5C982F5F3F4FFC
:100AA0002432310581F7449A449881E00E94010480
:100AB000113011F410935C011F91089581E00E94A0
:100AC0003F05089580E090E0FC01E35AFE4F10825C
:100AD000019684329105C1F70E945E050895559AEA
:100AE0005D9A80E991E028EC30E0F9013197F1F767
:100AF0000197D9F7269A219A549A3C9A80918000BE
:100B00008968809380008091810083608093810058
:100B10000E946205389A279A08951F9310E0812F4A
:100B200060E00E942B041F5F1630C9F70E945E052B
:100B30001F910895DF92EF92FF920F931F93182F4A
:100B4000F62EE42E0E948D05012F173008F006E0E6
:100B500010E085E0D82E0AC0EE2019F08D2D811B03
:100B600001C0812F6F2D0E942B041F5F1017A0F36F
:100B70000E945E051F910F91FF90EF90DF90089506
:100B80001F920F920FB60F9211248F939F93EF93A2
:100B9000FF93E0919101FF27E7FDF09580917800A8
:100BA00090917900EE0FFF1FEF57FE4F91838083E6
:100BB000809191018F5F80939101809191018530A7
:100BC00014F01092910180917C00807F80937C00D2
:100BD00090917C00E0919101FF27E7FDF095E15EA7
:100BE000FE4F8081892B80937C0080917A00806405
:100BF00080937A00FF91EF919F918F910F900FBE9C
:100C00000F901F901895ECE7F0E08081806480835E
:100C1000EAE7F0E080818F688083AEE7B0E08C91F6
:100C200086628C93808180648083089510927A001C
:100C300010927E0008951F920F920FB60F9211240A
:100C40002F933F934F935F936F937F938F939F93D4
:100C5000AF93BF93DF93CF9300D0CDB7DEB7809132
:100C60003101869590E09A83898329813A81809128
:100C7000320190E0AC01429FC001439F900D529F12
:100C8000900D11249A83898389819A8164E670E0AA
:100C90000E946B107A8369832091B30089819A81C5
:100CA0002091B30089819A81280F2093B40080910C
:100CB000B300209131019091B30080913101890FEF
:100CC0008093B3005E9A0F900F90CF91DF91BF9108
:100CD000AF919F918F917F916F915F914F913F91D4
:100CE0002F910F900FBE0F901F901895569AE0E726
:100CF000F0E080818660808381E08093B30082E0B1
:100D00008093B4000895181634F48091B100846083
:100D10008093B1000895882371F48091B1008B7F96
:100D20008093B1005E981092B20081E08093B3008E
:100D300082E08093B4000895CF93DF93EC0180911B
:100D40003001823030F08091950190919601892B8D
:100D500021F4809194018F3F39F580919701882388
:100D600019F526C080919301E62FFF27E7FDF09546
:100D7000E80FF11DE75DFE4F808180933101E09126
:100D80009401FF27E7FDF095EC5DFE4F8081809395
:100D9000320181E00E948306CE0162E370E00E948E
:100DA0007F106093920104C0809192018823D1F258
:100DB000DF91CF910895CF93DF93EC0180913001C3
:100DC000823030F08091950190919601892B21F429
:100DD000809194018F3F81F480919701882361F481
:100DE0000FC081E00E948306CE0162E370E00E94A2
:100DF0007F106093920104C080919201882389F34F
:100E0000DF91CF910895809332016093310108956D
:100E10001F920F920FB60F9211245E980F900FBE83
:100E20000F901F9018952098289A3B98439A8AB162
:100E300083778AB98BB18C688BB9E8E6F0E0808162
:100E400087608083EBE6F0E0808181608083ECE660
:100E5000F0E0808188608083EDE6F0E08081846846
:100E6000808384B5826084BD85B5856085BDEEE6EE
:100E7000F0E08081826080838FEF87BD08951F92AC
:100E80000F920FB60F9211242F933F934F935F93BE
:100E90006F937F938F939F93AF93BF93EF93FF9342
:100EA000189907C080919801882319F481E08093F4
:100EB000980181E00E94F50CFF91EF91BF91AF91F5
:100EC0009F918F917F916F915F914F913F912F9162
:100ED0000F900FBE0F901F901895809101018823ED
:100EE00009F48BC080910101853009F486C04F9BC5
:100EF00084C0189B82C079C04A9904C08091A50122
:100F00008093A60126B189B126952695269590E075
:100F1000969587959695879541E050E0842795278B
:100F2000282720FF0CC086B190E023E09695879596
:100F30002A95E1F78427952781708093A5018091F8
:100F4000A701E0910001F0E0EB5CFE4F9081981763
:100F500008F042C01092A70180910101833009F48A
:100F600047C080910101843009F442C08091A301FF
:100F7000882309F03DC08091A60180939E0181E005
:100F80008093A30108C080910101843021F48091F5
:100F9000A60180939E0180919E0160919301660F4E
:100FA000660F8F5F682B81E00E94190F60919E0190
:100FB00082E390E00E949C066091030186E00E941B
:100FC0002B0487E061E00E942B040E945E051092D2
:100FD00034011092330105C08091A7018F5F809387
:100FE000A70185E38A95F1F70895339B8BCF84CFD2
:100FF00080910101833039F6CACF08951F920F9274
:101000000FB60F9211242F933F934F935F936F93DB
:101010007F938F939F93AF93BF93EF93FF934F99DA
:101020001FC0809199018823D9F480919801882369
:10103000B9F481E08093990181E00E94F50CFF9161
:10104000EF91BF91AF919F918F917F916F915F9140
:101050004F913F912F910F900FBE0F901F901895B9
:101060000E946D07E9CF1F920F920FB60F921124C5
:101070002F933F934F935F936F937F938F939F93A0
:10108000AF93BF93EF93FF930E946D0781E00E949F
:10109000F50CFF91EF91BF91AF919F918F917F914F
:1010A0006F915F914F913F912F910F900FBE0F90D5
:1010B0001F9018951F920F920FB60F9211241F9335
:1010C0002F933F934F935F936F937F938F939F9350
:1010D000AF93BF93CF93DF93EF93FF93809157012B
:1010E000882329F480913001823008F4D4C389E048
:1010F00061E00E942B0480919201882391F08091FD
:101100009A018F5F80939A0190919A018091920148
:10111000891738F480E00E94830610929A01109299
:10112000920180915701882349F08091A90186306E
:1011300028F48091A9018F5F8093A9018091970184
:101140008130E1F480915A0190915B018653914086
:1011500048F480915A0190915B01019690935B0154
:1011600080935A018091A0018A3030F48091A001CF
:101170008F5F8093A00102C01092A001809197011F
:10118000813009F05EC080915A0190915B018C52D0
:10119000914008F047C080915A0190915B010A97F5
:1011A00031F080915A0190915B01449739F482E0CB
:1011B00061E00E94190F84E60E941C048091A00146
:1011C0008630C8F486E061E041E00E949A0586E03E
:1011D00061E00E942B0487E061E00E942B0488E01C
:1011E00061E00E942B040E945E058AE562E80E948D
:1011F000030781E014C086E062E041E00E949A05A6
:1012000086E062E00E942B0487E061E00E942B04EC
:1012100088E061E00E942B040E945E0580E00E944D
:1012200083062AC080915A0190915B018C529140B3
:1012300019F580E00E9483060E9462050E945E0507
:1012400019C0809197018230B9F410925B0110921D
:101250005A0180E00E9483060E9462050E945E059A
:1012600088E060E00E942B0482E062E00E94190F97
:10127000109297010E94ED0380910101853009F0E1
:10128000B2C080919F018F5F80939F0180919F01E9
:10129000893248F010929F0188E060E00E942B04A0
:1012A00087E060E00EC080919F01853170F088E09A
:1012B00061E00E942B0480915801882321F087E08F
:1012C00061E00E942B040E945E05809198018823B2
:1012D00009F492C2189912C080919801883228F4BA
:1012E000809198018F5F80939801809198018E3151
:1012F00009F082C281E0809358017EC280919801FA
:101300008F3108F077C2809198018F3008F072C257
:1013100088E061E00E942B040E945E0588EE93E065
:1013200028EC30E0F9013197F1F70197D9F788E01F
:1013300060E00E942B040E945E0588EE93E028EC9A
:1013400030E0F9013197F1F70197D9F788E061E0D2
:101350000E942B040E945E0588EE93E028EC30E0AA
:10136000F9013197F1F70197D9F788E060E00E9421
:101370002B040E945E05F999FECF6091030180E085
:1013800090E00E94A310F999FECF6091040188E0DB
:1013900090E00E94A310F999FECF6091300180E1A6
:1013A00090E00E94A310F999FECF88E190E060914F
:1013B0003C010E94A310F999FECF80E290E0609179
:1013C0003D010E94A310F999FECF88E290E0609160
:1013D0003E010E94A310F999FECF1092980181E07E
:1013E0008093020109C280910101882309F404C29B
:1013F00080919701882341F080915A0190915B017F
:101400008D52914008F42DC180913001823000F15D
:101410008091950190919601892BD1F08091950151
:101420009091960101969093960180939501409139
:101430009501509196018091300128EC829FC00166
:1014400011248417950720F41092960110929501AB
:101450008091A301882399F18091A3018F5F8093EC
:10146000A3018091A301833050F18091A4018630C3
:1014700030F50E948D0580919E01882329F480918A
:10148000A4016091030106C09091A4016091030141
:1014900085E0891B0E942B040E945E058091A401B7
:1014A0008F5F8093A4018091A401863029F410926B
:1014B000A3011092A40103C081E08093A301809155
:1014C0008501909186018152934048F08091A2015C
:1014D000883228F48091A2018F5F8093A2018091CD
:1014E0008501909186018059914048F48091A20134
:1014F000882329F08091A20181508093A2018091DC
:1015000030018230B8F08091A201853198F080914D
:10151000A101882379F48091950190919601892BFE
:1015200049F481E090E0909396018093950181E0E9
:101530008093A10180913001823050F08091A2010E
:101540008A3030F48091A101813011F41092A10110
:10155000809133019091340180599140C0F5809180
:1015600033019091340101969093340180933301BB
:1015700080919E01882319F580919C0190919D0195
:10158000019690939D0180939C0180919C01909184
:101590009D010797A0F0809133019091340180FD67
:1015A00004C06091030186E002C086E060E00E9412
:1015B0002B040E945E0510929D0110929C01809167
:1015C00033019091340180599140A1F40DC0809174
:1015D0005C01882379F080915C018F5F80935C01CE
:1015E00080915C01873930F010925C010E946205A5
:1015F0000E946D0C80910101823021F080910101E7
:10160000843079F58091870190918801059740F4A5
:1016100080919B01823398F480919B018F5F0DC074
:1016200080919B01882359F08091870190918801D6
:10163000409728F080919B01815080939B0180917D
:101640009B018F3118F088E061E006C080919B011A
:10165000882321F488E060E00E942B0480E00E944F
:101660003F0580915701882309F418C180918501B5
:10167000909186018059914008F010C181E00CC022
:1016800080918501909186018152934038F080913C
:101690009701813019F482E080939701809198013D
:1016A000882309F4A9C0189962C0809198018832F2
:1016B00028F4809198018F5F809398018091980120
:1016C0008F3108F499C08091570190E0882309F484
:1016D00091E09093570180915701882359F110921E
:1016E000A90186E061E00E942B040E945E0588EB60
:1016F0009BE028EC30E0F9013197F1F70197D9F739
:1017000086E062E00E942B040E945E0588EB9BE06D
:1017100028EC30E0F9013197F1F70197D9F786E02D
:1017200060E00E942B040E945E0510925B01109203
:101730005A0160C086E063E00E942B040E945E05AF
:1017400088EB9BE028EC30E0F9013197F1F7019745
:10175000D9F786E060E00E942B040E945E0582E0DB
:1017600062E00E94190F82E08093970143C080914C
:101770009801882309F440C0809198018F3008F0C7
:101780003BC080910101843020F4809101018F5F82
:1017900001C081E08093010180910101823021F03C
:1017A000809101018430F1F488E061E00E942B0413
:1017B0000E945E058CED95E028EC30E0F901319750
:1017C000F1F70197D9F788E060E00E942B040E94AE
:1017D0005E058CED95E028EC30E0F9013197F1F7EA
:1017E0000197D9F784EF91E090933401809333010E
:1017F0000E946205109298014F9956C080919901FC
:10180000882309F451C080919801882309F04CC0C5
:1018100080919901883228F4809199018F5F80939B
:101820009901809199018F3168F111E0C8ECD0E005
:1018300060910301812F40E00E949A0584EF91E0BE
:10184000FE013197F1F70197D9F71F5F173081F744
:1018500016E0C8ECD0E060910301812F40E00E94C7
:101860009A0584EF91E0FE013197F1F70197D9F7DE
:10187000115089F71092990181E08093020102C012
:101880001092990180919801882399F0189B11C0BA
:10189000109298010EC089E060E02BCC8091570136
:1018A000882309F4FBCEECCE80919901882341F77F
:1018B000E9CFFF91EF91DF91CF91BF91AF919F91D0
:1018C0008F917F916F915F914F913F912F911F91D8
:1018D0000F900FBE0F901F9018958091570188238D
:1018E00081F480910101823061F0809101018430A6
:1018F00041F015BC109280001092810081E080932D
:10190000A80108951F93CF93DF93E99883B78E7F43
:1019100083BF80E197E228EC30E0F9013197F1F7DD
:101920000197D9F781E0809301014F9B03C0809319
:10193000020157C00E94030685B5856085BD809170
:10194000800089688093800080918100836080930B
:1019500081000E94700D0E947606189909C085E0EA
:101960008093010188EE93E060E00E949C0630C005
:1019700011E0C8ECD0E060910301812F41E00E94AA
:101980009A0584EF91E0FE013197F1F70197D9F7BD
:101990001F5F173081F716E0C8ECD0E060910301BB
:1019A000812F41E00E949A0584EF91E0FE0131977A
:1019B000F1F70197D9F7115089F7609193018FE002
:1019C0000E94030780E991E00E94DB060E948D05DA
:1019D0004F9BFECF189BFCCF80916800876080935F
:1019E0006800DF91CF911F910895982F8091570142
:1019F000882351F08091A901863030F0191624F423
:101A000082E061E00E94190F8091A8018823A1F073
:101A100081E080935C0185B5856085BD8091800003
:101A20008968809380008091810083608093810029
:101A30000E9476061092A8010895F89480ED97E030
:101A400028EC30E0F9013197F1F70197D9F70E94BE
:101A5000620515BC1092680080E00E948306109217
:101A6000010180916900837F80936900E99A109257
:101A70005701109258010E94160680E00E9401044E
:101A8000109280001092810029982E9880E29EE4A6
:101A90000197F1F783B7856083BF789488950E949A
:101AA000820C08952A989EBD0DB407FEFDCF8EBD11
:101AB0000DB407FEFDCF2A9A08952A989EBD0DB455
:101AC00007FEFDCF3EB58EBD0DB407FEFDCF2EB592
:101AD000932F80E02A9A30E0282B392BC9010895F2
:101AE0008091D501833069F41092D5018091DB019A
:101AF0009091DC0180689093DC018093DB010E946F
:101B0000520D0895DF92EF92FF920F931F93009171
:101B1000DE01A2E0DA2EFEE0EF2EFF24F394E19A3C
:101B20002A981EBC0DB407FEFDCF2A9A0EB407FEFC
:101B3000A5C01091D5011130D1F1113038F012301B
:101B400009F46DC0133009F08EC089C0F092D8013D
:101B500080E090EB0E945D0D082F0D5F0093D70190
:101B600003502091D901822F90E0880F991FFC012A
:101B700073E0EE0FFF1F7A95E1F7E81BF90BE754CE
:101B8000FE4F8081882309F06EC0F092D501822F2C
:101B900090E0880F991FFC0153E0EE0FFF1F5A954C
:101BA000E1F7E81BF90BE754FE4F0183B8CF80E063
:101BB00090EB0E945D0D282F9091D8018091D70164
:101BC0009817C0F402279D3058F4E091D901EE9D9A
:101BD000F00111243196E90FF11DE754FE4F2083E7
:101BE0008091D801823011F40F3FE9F58F5F809327
:101BF000D80195CF8091D901282F30E0220F331FD3
:101C0000F90193E0EE0FFF1F9A95E1F7E21BF30B4A
:101C1000E754FE4FD08281278093D90124C02091C0
:101C2000D8018091D701281758F4E22FF0E0E6554B
:101C3000FE4F808190E02F5F2093D801986B1BC0EE
:101C40001092D6018091DB019091DC018F7D81683B
:101C500092689093DC018093DB010E94520D8AEA26
:101C600098EB0E94520D1092D50181E89AEC0E94E7
:101C7000520D83E89AEC0E94520D51CF0093DE0181
:101C80001F910F91FF90EF90DF9008958091D50103
:101C9000882361F58091D601813041F58091DB0187
:101CA0009091DC018F779093DC018093DB010E949F
:101CB000520D8091AC018A5F8093D7011092D801B8
:101CC00082E08093D5018AEA98EB0E94520D8AEA5D
:101CD00098EB0E94520D8091DB019091DC018062B3
:101CE0009093DC018093DB010E94520D0895809156
:101CF000D501833029F408950E94820D0E94460E7A
:101D00008091D5018823C1F78091DB019091DC019E
:101D10008F779093DC018093DB010E94520D83E06A
:101D20008093D5010895982F8091D601882311F0D2
:101D300083E008956093AC019093AD0169276095AD
:101D40006093AE0181E08093D60180E808952091F0
:101D5000DA01822F90E0880F991FFC01B3E0EE0FAB
:101D6000FF1FBA95E1F7E81BF90BE754FE4F10820D
:101D700081E028272093DA010895CF93DF932A9AF0
:101D8000229A239A259A2A9A229A249881E58CBD30
:101D90008DE28093AA0184ED8093AB011092D9016A
:101DA0001092DA0181E892E89093DC018093DB01E4
:101DB000C0E0D0E0FE01EE0FFF1FE859FF4F859114
:101DC00094910E94520D2196CC30D10599F78091C3
:101DD000690088608093690080E090E00E945D0D5A
:101DE000E19A81E89AEC0E94520D83E89AEC0E94F5
:101DF000520DDF91CF9108950F931F93182F062F47
:101E00008B3010F082E012C08091D601882311F04F
:101E100083E00CC02FEA31E0C901BA01412F50E044
:101E20000E949210802F612F0E94930E1F910F919C
:101E30000895DF93CF9300D000D000D0CDB7DEB7A8
:101E400090913B01998390913C019A8390913D013F
:101E50009B8390913E019C838D836E8386E060E03E
:101E6000AE014F5F5F4F0E94FC0E26960FB6F894AE
:101E7000DEBF0FBECDBFCF91DF9108950F931F93AB
:101E8000DF93CF9300D0CDB7DEB7AC0119821A82B1
:101E900020E030E070E0FDC0FA01E20FF31F808126
:101EA0008F3F09F0F4C0C9010596861797070CF01B
:101EB000EEC080915801882309F4F0C084818C30F1
:101EC00009F0ECC0818180933C01828180933D01C7
:101ED000838180933E0186E061E00E942B040E9492
:101EE0005E0588EE93E028EC30E0F9013197F1F7D8
:101EF0000197D9F786E060E00E942B040E945E05FE
:101F000088EE93E028EC30E0F9013197F1F7019782
:101F1000D9F786E061E00E942B040E945E0588EEFE
:101F200093E028EC30E0F9013197F1F70197D9F708
:101F300086E060E00E942B040E945E056091030130
:101F400084E00E94190F10925801BEC0F8019281DE
:101F500080913D01981709F0B7C0938180913E01AF
:101F6000981709F0B1C080E00E94F50CF801848157
:101F70008B3009F472C08D3009F483C08A3009F0C7
:101F8000A3C0F8018581282F2F702A8390E024E0D8
:101F9000959587952A95E1F789838981882309F4A6
:101FA00093C08981843008F08FC08A81882309F426
:101FB0008BC08A81833008F087C089818230E1F04C
:101FC000833089F1813009F044C08A81823009F080
:101FD0006FC08091940184300CF06AC080919401AC
:101FE0008F5F07C08091940187FD33C08091940179
:101FF0008150809394012DC08A81813009F05CC0AA
:1020000080919301853008F057C0809193018F5FD4
:1020100007C0809193018823E1F080919301815062
:102020008093930116C08A81813009F049C0809164
:102030000001863008F044C0809100018F5F07C026
:1020400080910001882329F08091000181508093C4
:10205000000189818093590137C0F8018581813061
:1020600049F48093570110925B0110925A0110922B
:10207000A9012AC0823041F510925701809397013F
:1020800023C06091030183E00E94190F1DC02F5FE0
:102090003F4F261737070CF4FFCE16C08A01020FF8
:1020A000131FF801918180913C01981769F44ECF7C
:1020B0008A81813071F696CF8A81823051F6A9CF1C
:1020C0008A81823031F6BCCF0F900F90CF91DF9193
:1020D0001F910F910895AA1BBB1B51E107C0AA1FB6
:1020E000BB1FA617B70710F0A61BB70B881F991FB9
:1020F0005A95A9F780959095BC01CD01089597FB5D
:10210000092E07260AD077FD04D0E5DF06D000208F
:102110001AF4709561957F4F0895F6F79095819523
:102120009F4F0895FB01DC0102C001900D924150C8
:102130005040D8F70895F999FECF92BD81BDF89A25
:10214000992780B50895262FF999FECF1FBA92BD21
:1021500081BD20BD0FB6F894FA9AF99A0FBE019688
:062160000895F894FFCF82
:10216600010101010664640003060B0C171B140130
:1021760004070A0D111A1402050F09161019140185
:10218600020506070F1E3C505A5A6E8CA0B4C8FAB8
:1021960001645AF401080F192D3C50FFFEFEFE00A3
:00000001FF
