:1000000021C03BC03BC01CCAD9CAFBCA36C01FC6F0
:1000100077C633C032C031C030C02FC0A8C62DC093
:100020002CC02BC02AC029C028C0F3C426C025C0BC
:1000300024C023C0B5C3BDC3CDC3DCC3F1C308C452
:1000400018C42FC411241FBECFEFD4E0DEBFCDBF34
:1000500011E0A0E0B1E0EAE0FFE102C005900D92FE
:10006000A234B107D9F712E0A2E4B1E001C01D92B9
:10007000A032B107E1F71EDE46CFC2CF1F920F922A
:100080000FB60F9211242F933F934F935F936F936B
:100090007F938F939F93AF93BF93EF93FF9300DB77
:1000A000FCDCFF91EF91BF91AF919F918F917F9178
:1000B0006F915F914F913F912F910F900FBE0F90D5
:1000C0001F90189580E090E008DF80931B0188E086
:1000D00090E003DF80931A0180E190E0FEDE8093E0
:1000E000230188E190E0F9DE80933F0180E290E017
:1000F000F4DE8093400188E290E0EFDE80934101DE
:1001000080911B01873020F480911B01882319F412
:1001100081E080931B0180911A01873020F4809147
:100120001A01882319F486E080931A01CCD28091B9
:100130002301873020F480912301882319F481E082
:1001400080932301089580917E0190917F0128EC96
:1001500030E0B90192DE70934E0160934D018091C1
:10016000800190918101B90188DE70935001609304
:100170004F018091860190918701B9017EDE7093D5
:1001800052016093510180914D0190914E0194E094
:10019000981B9093920180914F0190915001809310
:1001A0009301809151019091520180933C01809183
:1001B0004D0190914E019093540180935301809191
:1001C0004F01909150019093560180935501809179
:1001D00051019091520190935801809357010895D5
:1001E00080917E0190917F012091470130914801DB
:1001F000821B930B909345018093440180914401AD
:100200009091450197FF0BC0809144019091450169
:10021000909581959F4F9093450180934401209143
:100220004D0130914E018091530190915401281756
:10023000390739F08091440190914501833391054C
:1002400024F48091A901813049F58091A901813080
:1002500019F41092A90118C080914D0190914E019E
:1002600094E0981B9093920180914D0190914E01E2
:10027000909354018093530180917E0190917F016E
:1002800090934801809347018091920160911B01F6
:100290008E5F41E0BBD384E690E037D4809180014B
:1002A000909181012091490130914A01821B930B69
:1002B00090934501809344018091440190914501C0
:1002C00097FF0BC0809144019091450190958195D5
:1002D0009F4F909345018093440120914F013091AD
:1002E000500180915501909156012817390739F036
:1002F00080914401909145018333910524F48091CC
:10030000A901823041F58091A901823019F410923F
:10031000A90116C080914F019091500180939301E3
:1003200080914F0190915001909356018093550117
:10033000809180019091810190934A0180934901BD
:100340009091930160911B0186E0891B41E05ED38F
:1003500084E690E0DAD38091860190918701209124
:100360004B0130914C01821B930B9093450180937C
:100370004401809144019091450197FF0BC0809109
:10038000440190914501909581959F4F909345012F
:100390008093440120915101309152018091570185
:1003A000909158012817390739F0809144019091B4
:1003B00045018333910524F48091A901833039F5F7
:1003C0008091A901833019F41092A90116C080917F
:1003D00051019091520180933C018091860190914E
:1003E000870190934C0180934B0180915101909132
:1003F0005201909358018093570180913C01609184
:100400001B018F5F41E002D384E690E07ED3089524
:1004100080917E0190917F012091470130914801A8
:10042000821B930B9093450180934401809144017A
:100430009091450197FF0BC0809144019091450137
:10044000909581959F4F9093450180934401209111
:100450004D0130914E018091530190915401281724
:10046000390739F08091440190914501833391051A
:1004700024F48091AC018823F9F080914D01909192
:100480004E018F5F80931B0160911B0186E041E06C
:10049000BDD280914D0190914E0190935401809373
:1004A000530180917E0190917F0190934801809348
:1004B000470181E08093AA018091800190918101A0
:1004C0002091490130914A01821B930B9093450181
:1004D00080934401809144019091450197FF0BC0A6
:1004E0008091440190914501909581959F4F909303
:1004F00045018093440120914F013091500180913A
:100500005501909156012817390749F1809144010E
:10051000909145018333910514F120914F01309161
:10052000500186E0982F921B9093230120914F0158
:100530003091500160911B01821B41E067D2809194
:100540004F019091500190935601809355018091F5
:1005500080019091810190934A018093490180919B
:1005600086019091870120914B0130914C01821BB3
:10057000930B9093450180934401809144019091A5
:10058000450197FF0BC080914401909145019095E2
:1005900081959F4F90934501809344012091510193
:1005A00030915201809157019091580128173907D5
:1005B00029F1809144019091450183339105F4F034
:1005C000809151019091520196E0981B90931A01ED
:1005D0007AD060911B0186E041E018D280915101F0
:1005E0009091520190935801809357018091860118
:1005F0009091870190934C0180934B010895CF9384
:10060000DF9300D000D000D0CDB7DEB780913801A5
:10061000813021F0809138018823D9F480913E0106
:10062000898380913F018A83809140018B838091EF
:1006300041018C8381E08D83809138018F5F8E83AF
:1006400086E060E0AE014F5F5F4FA4D982E0809307
:1006500038018091AA018823F9F080913E018983B5
:1006600080913F018A83809140018B838091410179
:100670008C838091AA01823011F484E001C083E070
:100680008D8380911B018E8386E060E0AE014F5F19
:100690005F4F80D91092AA0126960FB6F894DEBF5C
:1006A0000FBECDBFDF91CF910895853608F084E667
:1006B000809319012FEF30E0281B31093093890016
:1006C00020938800089590911A0181E1989F802DD0
:1006D0001124EBDF0895882391F080918800909198
:1006E00089008F3F9105B1F45D9A8FE39CE90197F2
:1006F000F1F700C0000080911901D7DF08955D98DF
:1007000040982F985C982E988FEF90E090938900F6
:10071000809388000895CF93DF9380E0DCDFC0E012
:10072000D0E0FE01E65AFE4F10822196C432D10578
:10073000C1F7888180648883888182608883549A25
:100740003C9A81E0C8DF80918000896880938000B6
:1007500080918100836080938100389A559A5D9AD8
:100760008FE39CE90197F1F700C000008881806861
:100770008883DF91CF910895282F873008F0A1C09A
:10078000862F90E08830910508F0B9C0865E9F4FB3
:10079000E22FF0E0E050FF4F30818F939F93089558
:1007A00083E290E0DC01A31BB109A65ABE4F1C9264
:1007B00009C083E290E0DC01A31BB109A65ABE4F39
:1007C00031E03C933085DC01A31BB109A65ABE4F32
:1007D0001C9236C083E290E0DC01A31BB109A65A4B
:1007E000BE4F1C923085DC01A31BB109A65ABE4F37
:1007F00031E025C083E290E0DC01A31BB109A65AD9
:10080000BE4F1C923085DC01A31BB109A65ABE4F16
:100810001C923089831B9109865A9E4F31E03EC05D
:1008200083E290E0DC01A31BB109A65ABE4F31E080
:100830003C934085DC01A41BB109A65ABE4F3C93F2
:100840003089831B9109865A9E4FFC01108257C044
:1008500083E290E0DC01A31BB109A65ABE4F31E050
:100860003C934085DC01A41BB109A65ABE4F1C92E3
:1008700010C083E290E0DC01A31BB109A65ABE4F71
:100880001C923085DC01A31BB109A65ABE4F31E092
:100890003C934089841B9109865A9E4FFC0130830A
:1008A0002EC083E290E0DC01A31BB109A65ABE4F23
:1008B00031E03C934085DC01A41BB109A65ABE4F30
:1008C000E7CF873049F4662321F081E08093690106
:1008D0000895109269010895883049F4662321F043
:1008E00081E080936B01089510926B010895893027
:1008F00069F4662311F0409A0895409808952630CF
:1009000029F4662311F02F9A08952F98089580E016
:1009100090E0FC01E65AFE4F2081213011F42E9A1E
:1009200001C02E985C9A5C9801968432910589F7F3
:10093000449A449881E0CFDE81E080935901089584
:1009400080E090E0FC01E65AFE4F1082019684326E
:100950009105C1F7DCDF0895CF93C0E08C2F60E0F4
:100960000BDFCF5FC630D1F7D2DFCF9108958F92E2
:100970009F92BF92CF92DF92EF92FF920F931F93BD
:10098000CF93DF9300D0CDB7DEB7182FF62EB42E5D
:10099000E22E1A821982E0DF173008F016E01A8280
:1009A0001982C12EDD2405E08DEF882E8FEF982E61
:1009B0008C0C9D1C17C0EE2039F0153028F0898171
:1009C0009A81881599054CF089819A81BB2019F08C
:1009D000202F281B822F6F2DCFDE89819A810196CF
:1009E0009A83898389819A818C159D0524F38FDFF1
:1009F0000F900F90DF91CF911F910F91FF90EF908B
:100A0000DF90CF90BF909F908F90089520E0AFDF50
:100A100008951F920F920FB60F9211248F939F93F8
:100A2000EF93FF93E0918E01FF27E7FDF095809112
:100A3000780090917900EE0FFF1FE258FE4F9183EE
:100A4000808380918E018F5F80938E0180918E01D3
:100A5000853014F010928E0180917C00807F80930D
:100A60007C0090917C00E0918E01FF27E7FDF095DE
:100A7000E45EFE4F8081892B80937C0080917A0018
:100A8000806480937A00FF91EF919F918F910F90F6
:100A90000FBE0F901F901895ECE7F0E08081806406
:100AA0008083EAE7F0E080818F688083AEE7B0E082
:100AB0008C9186628C938081806480830895569A9D
:100AC000E0E7F0E080818660808381E08093B3007E
:100AD00082E08093B4000895181634F48091B10038
:100AE00084608093B1000895882371F48091B100EF
:100AF0008B7F8093B1005E981092B20081E080936A
:100B0000B30082E08093B4000895CF93DF93EC01AB
:100B100080912301823030F0809190019091910179
:100B2000009721F4809192018F3F01F580918F0110
:100B3000882301F11BC0E0919301F0E0EC5DFE4FD2
:100B4000808180932201E0919201FF27E7FDF095DB
:100B5000E55DFE4F80818093210181E0BDDFCE0104
:100B600062E370E09ED96093940104C08091940187
:100B7000882309F3DF91CF910895CF93DF93EC01A0
:100B800080912301823030F0809190019091910109
:100B9000009721F4809192018F3F39F580918F0168
:100BA000882339F122C080919301E0919301F0E014
:100BB000882319F4EB5DFE4F02C0ED5DFE4F80818E
:100BC00080932201E0919201FF27E7FDF095E55D1A
:100BD000FE4F80818093210181E07EDFCE0162E3C0
:100BE00070E05FD96093940104C0809194018823E0
:100BF000D1F2DF91CF910895CF93DF93EC018091F3
:100C00002301823030F08091900190919101009702
:100C100021F4809192018F3F71F480918F0188239C
:100C200071F009C081E058DFCE0162E370E039D98C
:100C30006093940104C080919401882399F3DF911B
:100C4000CF910895809321016093220108951F920E
:100C50000F920FB60F9211242F933F934F935F93F0
:100C60006F937F938F939F93AF93BF93CF93DF93B4
:100C700000D0CDB7DEB780912201869590E09A83AF
:100C8000898329813A814091210150E0429FC0012E
:100C9000439F900D529F900D11249A8389838981DF
:100CA0009A8164E670E0E9D87A8369832091B30081
:100CB00089819A812091B30089819A81280F20939C
:100CC000B4002091B300809122019091B3008091F3
:100CD0002201890F8093B3005E9A0F900F90DF91ED
:100CE000CF91BF91AF919F918F917F916F915F91C4
:100CF0004F913F912F910F900FBE0F901F9018951D
:100D00001F920F920FB60F9211245E980F900FBE94
:100D10000F901F9018952098289A3B98439A8AB173
:100D200083778AB98BB18C688BB9E8E6F0E0808173
:100D300087608083EBE6F0E0808181608083ECE671
:100D4000F0E0808188608083EDE6F0E08081846857
:100D5000808384B5826084BD85B5856085BDEEE6FF
:100D6000F0E08081826080838FEF87BD08951F92BD
:100D70000F920FB60F9211242F933F934F935F93CF
:100D80006F937F938F939F93AF93BF93CF93EF9383
:100D9000FF938091AD01882329F480912301823053
:100DA00008F42EC389E061E0E7DC80919401882398
:100DB00089F08091A6018F5F8093A6019091A60192
:100DC00080919401891730F480E086DE1092A601AC
:100DD0001092940180918F018130E9F480919F01FC
:100DE0009091A00121E08633920748F480919F0101
:100DF0009091A00101969093A00180939F01809112
:100E00009E018A3030F480919E018F5F80939E0115
:100E100002C010929E018091AC01813009F4FEC2A3
:100E200080913B01853009F0A1C08091A1018F5FC5
:100E30008093A1018091A1018D3360F01092A101F6
:100E400088E061E099DC8091AB01882369F087E05C
:100E500061E009C08091A1018F3138F088E060E045
:100E60008BDC87E060E088DC52DD8091A80188237C
:100E700009F479C283B180FD12C08091A801883243
:100E800028F48091A8018F5F8093A8018091A80128
:100E90008E3109F068C281E08093AB0164C2809119
:100EA000A8018F3108F05DC28091A8018F3008F051
:100EB00058C288E061E060DC2ADD8FEF90E7A2E0B5
:100EC00081509040A040E1F700C0000088E060E061
:100ED00053DC1DDD8FEF90E7A2E081509040A040F1
:100EE000E1F700C0000088E061E046DC10DD8FEF34
:100EF00090E7A2E081509040A040E1F700C00000E0
:100F000088E060E039DC03DDF999FECF60911B01D8
:100F100080E090E0EAD7F999FECF60911A0188E06D
:100F200090E0E3D7F999FECF6091230180E190E052
:100F3000DCD7F999FECF88E190E060913F01D5D7E9
:100F4000F999FECF80E290E060914001CED7F99907
:100F5000FECF88E290E060914101C7D7F999FECFBA
:100F60001092A80181E080933901FDC180913B017D
:100F7000882309F4F8C180912301823000F1809127
:100F80009001909191010097D1F080919001909102
:100F9000910101969093910180939001209190018D
:100FA000309191019091230188EC989FC001112408
:100FB0008217930720F41092910110929001809172
:100FC0009D01882359F080919D018F5F80939D0141
:100FD00080919D018B3010F010929D0180919A01BB
:100FE000882381F180919A018F5F80939A0180918B
:100FF0009A01833038F180919901863018F5ACDC84
:101000008091A201882329F48091990160911B01AC
:1010100006C09091990160911B0185E0891BACDBB2
:1010200076DC809199018F5F80939901809199017D
:10103000863029F410929A011092990103C081E040
:1010400080939A018091820190918301A3E0813283
:101050009A0748F080919B01883228F480919B0187
:101060008F5F80939B018091820190918301B1E019
:1010700080399B0748F480919B01882329F0809157
:101080009B01815080939B01809123018230B8F0B5
:1010900080919B01853198F080919C01882379F49F
:1010A0008091900190919101009749F481E090E046
:1010B000909391018093900181E080939C018091B5
:1010C0002301823050F080919B018A3030F480916E
:1010D0009C01813011F410929C0180913601909115
:1010E000370121E080399207F0F580913601909127
:1010F0003701019690933701809336018091A201C8
:10110000882311F58091A3019091A40101969093F9
:10111000A4018093A3018091A3019091A401873041
:10112000910590F0809136019091370180FD04C0C7
:1011300060911B0186E002C086E060E01DDBE7DB1A
:101140001092A4011092A301809136019091370171
:10115000A1E080399A0739F487E060E00DDB86E092
:1011600060E00ADBD4DB8091AD01882381F48091BB
:101170005901882361F0809159018F5F8093590153
:1011800080915901873918F010925901D9DB80916B
:101190003B01823021F080913B01843071F58091D8
:1011A0008401909185018530910540F48091A501DD
:1011B0008233A0F48091A5018F5F0EC08091A501BC
:1011C000882361F08091840190918501803191059F
:1011D00028F08091A50181508093A5018091A501FF
:1011E0008F3118F088E061E006C08091A501882366
:1011F00021F488E060E0C0DA8ADB8091AD018823C9
:1012000009F401C18091820190918301B1E080399C
:101210009B0708F0F8C081E00DC080918201909199
:10122000830123E08132920738F080918F01813071
:1012300019F482E080938F018091A801882309F43A
:1012400092C083B180FD51C08091A801883228F4FA
:101250008091A8018F5F8093A8018091A8018F31B0
:1012600008F481C09091AD0181E0911180E08093FC
:10127000AD018091AD01882319F186E061E07CDA4F
:1012800046DB8FEF92E5A7E081509040A040E1F768
:1012900000C0000086E062E06FDA39DB8FEF92E594
:1012A000A7E081509040A040E1F700C0000086E038
:1012B00060E062DA2CDB1092A00110929F0151C015
:1012C00086E063E059DA23DB8FEF92E5A7E08150F7
:1012D0009040A040E1F700C0000086E060E04CDAFA
:1012E00016DB82E080938F013CC08091A8018823A7
:1012F000D1F18091A8018F30B0F580913B0184300D
:1013000020F480913B018F5F01C081E080933B011D
:1013100080913B01823021F080913B018430D1F4F7
:1013200088E061E029DAF3DA8FE799EAA3E08150F7
:101330009040A040E1F700C0000088E060E01CDAC7
:10134000E6DA8FE799EAA3E081509040A040E1F708
:1013500000C0000084EF91E0909337018093360144
:10136000EFDA1092A8014F9954C08091A701882309
:1013700009F44FC08091A801882309F04AC08091E8
:10138000A701883228F48091A7018F5F8093A7017D
:101390008091A7018F3158F1C1E060911B018C2F22
:1013A00040E034DB8FE798E3A1E081509040A0401B
:1013B000E1F700C00000CF5FC73079F7C6E0609169
:1013C0001B018C2F40E022DB8FE798E3A1E08150E6
:1013D0009040A040E1F700C00000C15081F710929A
:1013E000A70181E08093390102C01092A70180918A
:1013F000A801882399F0189B11C01092A8010EC073
:1014000089E060E0D1CC8091AD01882309F005CF5F
:1014100013CF8091A701882341F7E9CFFF91EF9186
:10142000CF91BF91AF919F918F917F916F915F917C
:101430004F913F912F910F900FBE0F901F901895D5
:101440001F920F920FB60F9211248F939F938FE1EB
:101450009EE40197F1F700C0000083B180FD0EC04B
:101460008091A801882351F48091AC01882321F454
:1014700081E08093A80102C01092AC019F918F91EE
:101480000F900FBE0F901F90189580913B018823FD
:1014900009F493C080913B01853009F48EC04F9BC5
:1014A0008CC083B180FF89C07AC04A9921C08091E5
:1014B000960190919801913009F074C09091970134
:1014C000913009F06FC01092960107C0909197017A
:1014D000992319F491E0909396012091960130E0C0
:1014E000992787FD90952817390711F010929501DB
:1014F00081E0339980E08093980181E04A9980E00F
:101500008093970190919501E0913C01F0E0E05DBE
:10151000FE4F80818917E8F51092950181E0809354
:101520009D0190913B01933009F442C090913B01A1
:101530009430F1F190919A019923D1F5909196010F
:101540009093A20180939A0108C080913B0184305E
:1015500041F4809196018093A2018091960180933D
:1015600038018091A201882321F082E390E0CDDA56
:1015700003C082E390E001DB60911B0186E0FCD8B0
:1015800087E061E0F9D8C3D9109237011092360193
:101590000895809195018F5F809395010895339907
:1015A00084CFA6CF90919801992309F48FCF95CF3E
:1015B00080913B01833049F6CCCF08951F920F9262
:1015C0000FB60F9211242F933F934F935F936F9316
:1015D0007F938F939F93AF93BF93EF93FF9355DFC9
:1015E000FF91EF91BF91AF919F918F917F916F91FB
:1015F0005F914F913F912F910F900FBE0F901F90D1
:1016000018951F920F920FB60F9211242F933F93AC
:101610004F935F936F937F938F939F93AF93BF93FA
:10162000EF93FF934F9912C08091A701882371F423
:101630008091A801882351F48FE19EE40197F1F78E
:1016400000C0000081E08093A70101C01EDFFF9170
:10165000EF91BF91AF919F918F917F916F915F912A
:101660004F913F912F910F900FBE0F901F901895A3
:1016700067D980E031DA10923B0180913B01809381
:101680003A0183B7856083BFE9E6F0E08081837F1C
:101690008083E99A1092AD0180E01DD88895089565
:1016A000CF93E99883B78E7F83BF80913A018823D7
:1016B00009F458C080913A01853009F453C08091F3
:1016C0003A0180933B018FEF99E6A8E18150904069
:1016D000A040E1F700C0000081E0FDD780E0FCD928
:1016E0004F9B04C081E0809339013EC083B180FDEF
:1016F0000AC085E080933B0188EE93E006DA81E042
:101700008093AC0131C0C1E060911B018C2F41E09E
:101710007DD98FE798E3A1E081509040A040E1F7A8
:1017200000C00000CF5FC73079F7C6E060911B01B1
:101730008C2F41E06BD98FE798E3A1E08150904076
:10174000A040E1F700C00000C15081F76091930113
:101750008FE078DA80E991E04FDAFED881E080937B
:10176000AA0102C081E0ADCFCF9108952A989EBD15
:101770000DB407FEFDCF8EBD0DB407FEFDCF2A9A36
:1017800008952A989EBD0DB407FEFDCF9EB5392F52
:1017900020E08EBD0DB407FEFDCF8EB52A9A90E0F5
:1017A000822B932B08952A981EBC0DB407FEFDCF03
:1017B0002A9A8EB508952A988EBD0DB407FEFDCFE6
:1017C0006EBD0DB407FEFDCF2A9A08952A9880EBCE
:1017D0008EBD0DB407FEFDCF1EBC0DB407FEFDCFC0
:1017E0002A9A8EB50895239A259A229A249881E5FB
:1017F0008CBD0895CF9380E090E0C3DFD4DF87FFF6
:1018000082C08091AE018130E1F0813020F08230E1
:1018100009F071C058C0C1E0C093B101D7DF809317
:101820001F02982F9D5F9093B001E091B201F0915B
:10183000B3019081992309F05EC0C093AE0181830A
:1018400062C09091B1018091B0019817D8F4BEDFC9
:1018500090911F02982790931F022091B10121328D
:1018600038F4E091B201F091B301E20FF11D8183F0
:101870008091B101823011F49F3FE9F58F5F809331
:10188000B10141C0E091B201F091B30182E08083E7
:101890008091B60190E00196817090708093B601BE
:1018A000282F30E0C901880F991F55E0220F331F00
:1018B0005A95E1F7820F931F88549E4F9093B3017E
:1018C0008093B20118C08091B1019091B001891745
:1018D00050F4E82FF0E0E450FE4F60818F5F80937A
:1018E000B10188EB0FC01092AF0181E892E83EDFB2
:1018F00088EB6AEA60DF1092AE018AEC61E85BDF98
:101900008AEC63E858DFCF9108958091AE01882377
:1019100069F580E090E035DF90FF04C088EC8093AB
:101920003D01089580913D01815080933D018823C0
:10193000E9F481E080933D018091AF018130B1F401
:1019400081E092E813DF8091FE018A5F8093B0010D
:101950001092B10182E08093AE018AEA98EB06DF33
:101960008AEA98EB03DF81E292E800DF0895909124
:10197000AF01992369F46093FE018093FF018627EC
:1019800080958093000281E08093AF0180E8089504
:1019900083E00895CF93DF93C82FD62F8F3178F44B
:1019A0008091AF01882369F421E032E0C901BA01D6
:1019B0004C2F50E089D28D2F6C2FD9DF03C082E0ED
:1019C00001C083E0DF91CF910895E091B401F091DF
:1019D000B50110828091B70190E0019681709070FE
:1019E0008093B701282F30E0C901880F991F75E057
:1019F000220F331F7A95E1F7820F931F88549E4F71
:101A00009093B5018093B40108952A9A229AEBDE4F
:101A100087EE90E8ABDE81E092E8A8DE80E496EA0B
:101A2000A5DE83EA96ECA2DE8CE294E99FDE8BEAE7
:101A300092EC9CDE81E89AEC99DE87EF94EC96DEDE
:101A400080E798E993DE80E098EC90DE80E090EE0D
:101A50008DDE8DE28093FC0184ED8093FD0188EBA7
:101A600091E09093B5018093B4019093B30180937A
:101A7000B20181E892E87ADEE9E6F0E080818860F0
:101A8000808380E090E07DDEE19A81E89AEC6EDE72
:101A900083E89AEC6BDE089508950895CF93DF9361
:101AA00000D0CDB7DEB7AC011A821982FC0120E06C
:101AB00030E070E0E2C081918F3F09F0DCC0C901E5
:101AC0000596861797070CF0D6C08091AB01FA01F6
:101AD000E20FF31F882309F4D5C084818C3009F00C
:101AE000D1C0818180933F018281809340018381B5
:101AF0008093410186E061E03FD609D78FEF90E700
:101B0000A2E081509040A040E1F700C0000086E0D4
:101B100060E032D6FCD68FEF90E7A2E08150904093
:101B2000A040E1F700C0000086E061E025D6EFD6D6
:101B30008FEF90E7A2E081509040A040E1F700C015
:101B4000000086E060E018D6E2D682E08093AA0129
:101B50001092AB01A9C0928180914001981709F0C1
:101B6000A3C0938180914101981709F09DC08481A1
:101B70008B3009F46FC08D3009F479C08A3009F0D8
:101B800093C08581982F9F70998390E024E095956C
:101B900087952A95E1F78A838A81882309F484C08E
:101BA0008A81843008F080C08981882309F47CC050
:101BB0008981833008F078C08A818230E1F08330F7
:101BC00089F1813009F042C08981823009F060C01A
:101BD0008091920184300CF05BC0809192018F5F04
:101BE00007C08091920187FD31C0809192018150A0
:101BF000809392012BC08981813009F04DC0809182
:101C00009301853008F048C0809193018F5F07C031
:101C1000809193018823D1F080919301815080932A
:101C2000930114C089818130D9F580913C018630BF
:101C3000B8F580913C018F5F07C080913C018823FB
:101C400029F080913C01815080933C018A818093EE
:101C5000A9012AC08581813019F48093AD0124C087
:101C6000823011F51092AD0180938F011DC081E08B
:101C70008093AA0119C02F5F3F4F261737070CF436
:101C80001ACF12C0918180913F01981769F463CFF8
:101C900089818130D9F6A5CF89818230B9F6B8CF54
:101CA0008981823099F6C9CF0F900F90DF91CF9143
:101CB0000895089530D806D2EFD62DD541D627D62F
:101CC000FED6A3DE78948FEF91EEA4E08150904091
:101CD000A040E1F700C0000036D284EF91E090937D
:101CE0003701809336012CD612D6C8ECD0E006E935
:101CF00010E080913901882341F080918F01882381
:101D000021F410923901C8DEB3DC80913B018823B5
:101D100081F380918F018130E9F580919F0190914D
:101D2000A001A1E08C329A0740F580919E01863097
:101D300098F486E061E041E069D686E061E01CD578
:101D400087E061E019D588E061E016D5E0D58AE545
:101D500062E878D781E00FC086E062E041E056D6C5
:101D600086E062E009D587E061E006D588E061E0C1
:101D700003D5CDD580E0B0D61EC080919F01909153
:101D8000A001B1E08C329B07B1F480E0A5D6D8D594
:101D9000BED511C080918F01823069F41092A001EC
:101DA00010929F0180E098D6CBD5B1D588E060E055
:101DB000E3D410928F0180913B01853001F5809131
:101DC0007E0190917F01B80158D070934E016093CD
:101DD0004D018091800190918101BE014ED07093A0
:101DE000500160934F018091860190918701BE015F
:101DF00044D070935201609351010AD323C0809163
:101E00007E0190917F01BE0138D070934E016093A6
:101E10004D018091800190918101BE012ED070937F
:101E2000500160934F018091860190918701BE011E
:101E300024D0709352016093510180919D018823B9
:101E400009F4CED1E091B401F091B50180818230E6
:101E500081F462E091D45BD5E091B401F091B501D9
:101E6000CF0104969093430180934201618116DE75
:101E7000ACDDC5D3BFDC49DD3CCFAA1BBB1B51E1A8
:101E800007C0AA1FBB1FA617B70710F0A61BB70BEA
:101E9000881F991F5A95A9F780959095BC01CD018F
:101EA000089597FB092E07260AD077FD04D0E5DFB9
:101EB00006D000201AF4709561957F4F0895F6F7CB
:101EC000909581959F4F0895FB01DC0102C0019020
:101ED0000D9241505040D8F70895F999FECF92BD28
:101EE00081BDF89A992780B50895262FF999FECFDC
:101EF0001FBA92BD81BD20BD0FB6F894FA9AF99A27
:0A1F00000FBE01960895F894FFCF7C
:101F0A000003060B0C171B140104070A0D111A14FF
:101F1A0002050F0916101914646406010102050668
:101F2A00075A64015A6E8CA0B4C8FA0F1E3C505A64
:101F3A00080F192D3C50F401020101010110FF00A4
:021F4A00000095
:00000001FF
