:100000002DC047C047C0C3C6ABC777C742C0A0C555
:1000100087C63FC03EC03DC03CC03BC0C6C739C01C
:1000200038C037C036C035C034C037C532C031C023
:1000300030C02FC0D9C3E5C3FAC30FC42BC447C413
:100040005CC470C4E680018262A6A3C62C94ABC2D5
:1000500081CAF7C4709800C800E0818211241FBED5
:10006000CFEFD4E0DEBFCDBF11E0A0E0B1E0E8E625
:10007000FFE102C005900D92A034B107D9F711E05D
:10008000A0E4B1E001C01D92AF3DB107E1F7AAD2F3
:1000900069CFB6CF1F920F920FB60F9211240F9017
:1000A0000FBE0F901F901895809181019091820151
:1000B00068EC70E011DF7093470160934601809116
:1000C00083019091840168EC70E006DF7093490130
:1000D000609348018091890190918A0168EC70E0F9
:1000E000FBDE70934B0160934A01209146013091F1
:1000F000470184E0821B8093940180914801909194
:1001000049018093930180914A0190914B01809322
:1001100000018091460190914701909341018093A5
:10012000400180914801909149019093430180934F
:10013000420180914A0190914B0190934501809337
:1001400044010895809181019091820120914C0198
:1001500030914D01821B930B909355018093540174
:10016000809154019091550197FF0BC080915401EB
:1001700090915501909581959F4F90935501809353
:1001800054012091460130914701809140019091A6
:1001900041012817390731F180915401909155019F
:1001A000C39704F180914601909147018F5F80933E
:1001B00003016091030186E041E04CD48091460147
:1001C000909147019093410180934001809181017A
:1001D0009091820190934D0180934C0160910301B5
:1001E00083E034DD809183019091840120914E0160
:1001F00030914F01821B930B9093550180935401D2
:10020000809154019091550197FF0BC0809154014A
:1002100090915501909581959F4F909355018093B2
:1002200054012091480130914901809142019091FF
:1002300043012817390741F18091540190915501EC
:10024000C39714F1209148013091490186E0982F1D
:10025000921B9093300120914801309149016091A7
:100260000301821B41E0F6D380914801909149013E
:100270009093430180934201809183019091840186
:1002800090934F0180934E018091890190918A0152
:100290002091500130915101821B930B9093550195
:1002A00080935401809154019091550197FF0BC0A8
:1002B0008091540190915501909581959F4F909315
:1002C00055018093540120914A0130914B01809156
:1002D0004401909145012817390721F1809154017B
:1002E00090915501C397F4F020914A0130914B0150
:1002F00086E0821B809304012BD26091030186E08B
:1003000041E0A8D380914A0190914B01909345011F
:10031000809344018091890190918A0190935101C9
:1003200080935001089580918101909182012091E4
:100330004C0130914D01821B930B9093550180939A
:100340005401809154019091550197FF0BC0809109
:10035000540190915501909581959F4F909355012F
:1003600080935401209146013091470180914001D2
:10037000909141012817390731F0809154019091F3
:100380005501C39724F480915901813061F581E0D2
:1003900055DA80915901813019F41092590118C031
:1003A000209146013091470184E0821B80939401A3
:1003B00080914601909147019093410180934001C3
:1003C000809181019091820190934D0180934C0125
:1003D00080919401609103018E5F41E03BD384E6FC
:1003E00090E060E035D48091830190918401209168
:1003F0004E0130914F01821B930B909355018093D6
:100400005401809154019091550197FF0BC0809148
:10041000540190915501909581959F4F909355016E
:10042000809354012091480130914901809142010B
:10043000909143012817390731F080915401909130
:100440005501C39724F480915901823059F581E018
:10045000F5D980915901823019F41092590116C0D2
:1004600080914801909149018093930180914801C6
:1004700090914901909343018093420180918301BF
:100480009091840190934F0180934E01909193013C
:100490006091030186E0891B41E0DCD284E690E0B4
:1004A00060E0D6D38091890190918A01209150011A
:1004B00030915101821B930B90935501809354010D
:1004C000809154019091550197FF0BC08091540188
:1004D00090915501909581959F4F909355018093F0
:1004E000540120914A0130914B0180914401909137
:1004F00045012817390731F0809154019091550139
:10050000C39724F480915901833051F581E096D945
:1005100080915901833019F41092590116C08091CD
:100520004A0190914B018093000180918901909143
:100530008A01909351018093500180914A019091DA
:100540004B0190934501809344018091000160919B
:1005500003018F5F41E07ED284E690E060E078D3D3
:10056000089580E090E0E8DC8093030188E090E06B
:10057000E3DC8093040180E190E0DEDC80933001D5
:1005800088E190E0D9DC80933C0180E290E0D4DC0B
:1005900080933D0188E290E0CFDC80933E01809122
:1005A0000301873020F480910301882319F481E04E
:1005B0008093030180910401873020F4809104012D
:1005C000882319F486E080930401C2D08091300121
:1005D000873020F480913001882319F481E08093E2
:1005E00030010895A8D3BDDF9BD20CD20BD3D8DA4B
:1005F00088EE93E028EC30E0F9013197F1F70197AC
:10060000D9F7789451DD84EF91E090933401809391
:10061000330180910201882309F494C080919701ED
:10062000882309F08FC01092020177DA2CD9F1CF1C
:10063000809181019091820166E970E04DDC7093B8
:10064000470160934601809183019091840168EC99
:1006500070E042DC70934901609348018091890108
:1006600090918A0168EC70E037DC70934B016093E5
:100670004A0168DD22C0809181019091820168EC7D
:1006800070E02ADC709347016093460180918301FA
:100690009091840168EC70E01FDC709349016093D5
:1006A00048018091890190918A0168EC70E014DC26
:1006B00070934B0160934A0136DE4091DA01842F3A
:1006C00090E0880F991FFC01A3E0EE0FFF1FAA9591
:1006D000E1F7E81BF90BE754FE4F8081823019F5F2
:1006E000242F30E0220F331FC90163E0880F991FC8
:1006F0006A95E1F7821B930B83549E4F90935301AD
:1007000080935201242F30E0220F331FF90143E080
:10071000EE0FFF1F4A95E1F7E21BF30BE754FE4F84
:100720006181B8DA27DA809156018A3030F48091FD
:1007300056018F5F8093560103C004D91092560171
:10074000BFD967CF80910101853009F094CF70CF78
:100750009091040181E1989F202D1124253608F005
:1007600024E6209305018FEF90E0821B910990937E
:100770008900809388000895882371F08091880013
:10078000909189008F3F910581F45D9A80E49CE906
:100790000197F1F7DDDF08955D9840982F988FEF6E
:1007A00090E090938900809388000895282F8536E3
:1007B00008F024E6209305018FEF90E0821B910959
:1007C00090938900809388000895482F873008F01F
:1007D000C6C0E62FF0E0E830F10508F0DEC0E65EC6
:1007E000FF4F282F30E00994295F3E4FF9018081A7
:1007F000A3E2B0E0FD01E81BF109E35AFE4F1082CD
:100800000DC0295F3E4FF9018081A3E2B0E0FD01F8
:10081000E81BF109E35AFE4F81E08083F9018085EE
:10082000FD01E81BF109E35AFE4F108248C0295F21
:100830003E4FF9018081A3E2B0E0FD01E81BF10920
:10084000E35AFE4F1082F9018085FD01E81BF10992
:10085000E35AFE4F81E0808332C0295F3E4FF901A9
:100860008081A3E2B0E0FD01E81BF109E35AFE4FED
:100870001082F9018085FD01E81BF109E35AFE4F62
:100880001082F9018089A81BB109A35ABE4F81E0EB
:100890008C9383C0295F3E4FF9018081A3E2B0E0D1
:1008A000FD01E81BF109E35AFE4F91E09083F90145
:1008B0008085FD01E81BF109E35AFE4F9083F901A1
:1008C0008089A81BB109A35ABE4F1C9266C0295F3C
:1008D0003E4FF9018081A3E2B0E0FD01E81BF10980
:1008E000E35AFE4F91E09083F9018085FD01E81BFA
:1008F000F109E35AFE4F10822AC0295F3E4FF901E9
:100900008081A3E2B0E0FD01E81BF109E35AFE4F4C
:100910001082F9018085FD01E81BF109E35AFE4FC1
:1009200091E014C0295F3E4FF9018081A3E2B0E05D
:10093000FD01E81BF109E35AFE4F91E09083F901B4
:100940008085FD01E81BF109E35AFE4F9083F90110
:100950008089A81BB109A35ABE4F9C931EC0873043
:1009600049F4662321F081E080936C010895109290
:100970006C010895883049F4662321F081E080936A
:100980006E01089510926E010895893069F466230E
:1009900011F0409A089540980895463029F466234E
:1009A00011F02F9A08952F9808951F93182F20E083
:1009B00030E0F901E35AFE4F8081813011F42E9A24
:1009C00001C02E985C9A5C982F5F3F4F243231050E
:1009D00081F7449A449881E0CFDE113011F41093EE
:1009E0005C011F91089581E0E0DF089580E090E0D0
:1009F000FC01E35AFE4F1082019684329105C1F743
:100A0000F2DF0895559A5D9A80E991E028EC30E094
:100A1000F9013197F1F70197D9F7269A219A549A5B
:100A20003C9A809180008968809380008091810049
:100A3000836080938100DADF389A279A08951F93A4
:100A400010E0812F60E0C1DE1F5F1630D1F7CBDFF1
:100A50001F910895DF92EF92FF920F931F93182F2B
:100A6000F62EE42EECDF012F173008F006E010E040
:100A700085E0D82E09C0EE2019F08D2D811B01C014
:100A8000812F6F2DA2DE1F5F1017A8F3ACDF1F911F
:100A90000F91FF90EF90DF9008951F920F920FB685
:100AA0000F9211248F939F93EF93FF93E091910105
:100AB000FF27E7FDF0958091780090917900EE0F87
:100AC000FF1FEF57FE4F91838083809191018F5FCD
:100AD0008093910180919101853014F010929101E1
:100AE00080917C00807F80937C0090917C00E091DD
:100AF0009101FF27E7FDF095E15EFE4F8081892B94
:100B000080937C0080917A00806480937A00FF91CA
:100B1000EF919F918F910F900FBE0F901F9018959E
:100B2000ECE7F0E0808180648083EAE7F0E0808198
:100B30008F688083AEE7B0E08C9186628C93808171
:100B400080648083089510927A0010927E00089548
:100B50001F920F920FB60F9211242F933F934F9332
:100B60005F936F937F938F939F93AF93BF93DF9325
:100B7000CF9300D0CDB7DEB780913101869590E05C
:100B80009A83898329813A818091320190E0AC0176
:100B9000429FC001439F900D529F900D11249A8354
:100BA000898389819A8164E670E096D97A83698322
:100BB0002091B30089819A812091B30089819A8123
:100BC000280F2093B4008091B300209131019091BF
:100BD000B30080913101890F8093B3005E9A0F902A
:100BE0000F90CF91DF91BF91AF919F918F917F91A6
:100BF0006F915F914F913F912F910F900FBE0F908A
:100C00001F901895569AE0E7F0E080818660808317
:100C100081E08093B30082E08093B40008951816B9
:100C200034F48091B10084608093B10008958823EA
:100C300071F48091B1008B7F8093B1005E98109227
:100C4000B20081E08093B30082E08093B400089505
:100C5000CF93DF93EC0180913001823030F08091AE
:100C6000950190919601892B21F4809194018F3FF9
:100C700029F580919701882309F524C0809193017B
:100C8000E62FFF27E7FDF095E80FF11DE75DFE4F2A
:100C9000808180933101E0919401FF27E7FDF09579
:100CA000EC5DFE4F80818093320181E0B8DFCE01A0
:100CB00062E370E025D96093920104C080919201B3
:100CC0008823E1F2DF91CF910895CF93DF93EC0178
:100CD00080913001823030F08091950190919601A1
:100CE000892B21F4809194018F3F71F480919701B9
:100CF000882351F40DC081E092DFCE0162E370E001
:100D0000FFD86093920104C080919201882399F3E7
:100D1000DF91CF910895809332016093310108955E
:100D20001F920F920FB60F9211245E980F900FBE74
:100D30000F901F9018952098289A3B98439A8AB153
:100D400083778AB98BB18C688BB9E8E6F0E0808153
:100D500087608083EBE6F0E0808181608083ECE651
:100D6000F0E0808188608083EDE6F0E08081846837
:100D7000808384B5826084BD85B5856085BDEEE6DF
:100D8000F0E08081826080838FEF87BD08951F929D
:100D90000F920FB60F9211242F933F934F935F93AF
:100DA0006F937F938F939F93AF93BF93EF93FF9333
:100DB000189907C080919801882319F481E08093E5
:100DC000980181E03BD5FF91EF91BF91AF919F9149
:100DD0008F917F916F915F914F913F912F910F90E4
:100DE0000FBE0F901F90189580910101882309F480
:100DF00083C080910101853009F47EC04F9B7CC087
:100E0000189B7AC071C04A9904C08091A501809353
:100E1000A60126B189B126952695269590E096954E
:100E200087959695879541E050E084279527282758
:100E300020FF0CC086B190E023E0969587952A9517
:100E4000E1F78427952781708093A5018091A70100
:100E5000E0910001F0E0EB5CFE4F90819817D8F52F
:100E60001092A70180910101833009F440C0809164
:100E700001018430E1F18091A3018823C1F58091C3
:100E8000A60180939E0181E08093A30108C0809118
:100E90000101843021F48091A60180939E0180910C
:100EA0009E0160919301660F660F8F5F682B81E052
:100EB000CDD660919E0182E390E0CADE609103018D
:100EC00086E083DC87E061E080DC8DDD1092340118
:100ED0001092330105C08091A7018F5F8093A70115
:100EE00085E38A95F1F70895339B93CF8CCF80915A
:100EF0000101833061F6CFCF08951F920F920FB694
:100F00000F9211242F933F934F935F936F937F938F
:100F10008F939F93AF93BF93EF93FF934F991EC00F
:100F2000809199018823D1F4809198018823B1F4AC
:100F300081E08093990181E081D4FF91EF91BF918D
:100F4000AF919F918F917F916F915F914F913F9161
:100F50002F910F900FBE0F901F90189545DFEBCF8C
:100F60001F920F920FB60F9211242F933F934F931E
:100F70005F936F937F938F939F93AF93BF93EF9301
:100F8000FF9332DF81E05AD4FF91EF91BF91AF918F
:100F90009F918F917F916F915F914F913F912F9191
:100FA0000F900FBE0F901F9018951F920F920FB6C3
:100FB0000F9211241F932F933F934F935F936F933F
:100FC0007F938F939F93AF93BF93CF93DF93EF93D1
:100FD000FF9380915701882329F48091300182305A
:100FE00008F48CC389E061E0F0DB809192018823F2
:100FF00089F080919A018F5F80939A0190919A0174
:1010000080919201891730F480E009DE10929A01F4
:101010001092920180915701882349F08091A90193
:10102000863028F48091A9018F5F8093A901809177
:1010300097018130E1F480915A0190915B018653D0
:10104000914048F480915A0190915B0101969093F0
:101050005B0180935A018091A0018A3030F4809125
:10106000A0018F5F8093A00102C01092A001809127
:101070009701813009F04CC080915A0190915B0139
:101080008C529140C8F580915A0190915B010A976A
:1010900031F080915A0190915B01449729F482E0EC
:1010A00061E0D4D584E682DB8091A001863098F49B
:1010B00086E061E041E0CEDC86E061E086DB87E04F
:1010C00061E083DB88E061E080DB8DDC8AE562E85B
:1010D00022DE81E00FC086E062E041E0BBDC86E01A
:1010E00062E073DB87E061E070DB88E061E06DDB8C
:1010F0007ADC80E094DD21C080915A0190915B01FF
:101100008C529140D1F480E08ADD70DC6CDC14C03C
:1011100080919701823089F410925B0110925A01FC
:1011200080E07DDD63DC5FDC88E060E04EDB82E058
:1011300062E08CD5109297010BDB80910101853024
:1011400009F0A0C080919F018F5F80939F018091E3
:101150009F01893240F010929F0188E060E035DB0A
:1011600087E060E00DC080919F01853158F088E0F4
:1011700061E02BDB80915801882319F087E061E062
:1011800024DB31DC80919801882309F46AC2189924
:1011900012C080919801883228F4809198018F5F65
:1011A00080939801809198018E3109F05AC281E0B4
:1011B0008093580156C2809198018F3108F04FC238
:1011C000809198018F3008F04AC288E061E0FDDA32
:1011D0000ADC88EE93E028EC30E0F9013197F1F772
:1011E0000197D9F788E060E0F0DAFDDB88EE93E064
:1011F00028EC30E0F9013197F1F70197D9F788E051
:1012000061E0E3DAF0DB88EE93E028EC30E0F9010E
:101210003197F1F70197D9F788E060E0D6DAE3DBA0
:10122000F999FECF6091030180E090E08DD6F999A5
:10123000FECF6091040188E090E086D6F999FECF58
:101240006091300180E190E07FD6F999FECF88E18E
:1012500090E060913C0178D6F999FECF80E290E071
:1012600060913D0171D6F999FECF88E290E06091DE
:101270003E016AD6F999FECF1092980181E08093E1
:101280000201EFC180910101882309F4EAC1809134
:101290009701882341F080915A0190915B018D5212
:1012A000914008F424C180913001823000F1809196
:1012B000950190919601892BD1F0809195019091A3
:1012C0009601019690939601809395014091950126
:1012D000509196018091300128EC829FC001112429
:1012E0008417950720F41092960110929501809131
:1012F000A301882381F18091A3018F5F8093A301D3
:101300008091A301833038F18091A401863018F5D3
:1013100096DB80919E01882329F48091A40160913D
:10132000030106C09091A4016091030185E0891B2F
:101330004CDA59DB8091A4018F5F8093A4018091E6
:10134000A401863029F41092A3011092A40103C0D5
:1013500081E08093A3018091850190918601815263
:10136000934048F08091A201883228F48091A20134
:101370008F5F8093A20180918501909186018059B1
:10138000914048F48091A201882329F08091A20124
:1013900081508093A201809130018230B8F0809119
:1013A000A201853198F08091A101882379F4809180
:1013B000950190919601892B49F481E090E09093FA
:1013C00096018093950181E08093A1018091300185
:1013D000823050F08091A2018A3030F48091A101D6
:1013E000813011F41092A101809133019091340168
:1013F00080599140B0F5809133019091340101966C
:10140000909334018093330180919E01882309F5E4
:1014100080919C0190919D01019690939D018093F4
:101420009C0180919C0190919D01079790F0809183
:1014300033019091340180FD04C06091030186E086
:1014400002C086E060E0C1D9CEDA10929D01109210
:101450009C0180913301909134018059914091F425
:101460000DC080915C01882369F080915C018F5FE1
:1014700080935C0180915C01873920F010925C01BF
:10148000B5DA5ED180910101823021F080910101B5
:10149000843069F58091870190918801059740F427
:1014A00080919B01823398F480919B018F5F0DC0E6
:1014B00080919B01882359F0809187019091880148
:1014C000409728F080919B01815080939B018091EF
:1014D0009B018F3118F088E061E006C080919B018C
:1014E000882319F488E060E070D980E05EDA8091AA
:1014F0005701882309F405C18091850190918601E7
:101500008059914008F0FDC081E00CC080918501B8
:10151000909186018152934038F0809197018130FB
:1015200019F482E08093970180919801882309F44F
:1015300098C0189957C080919801883228F48091FA
:1015400098018F5F80939801809198018F3108F402
:1015500088C08091570190E0882309F491E090932E
:10156000570180915701882329F11092A90186E043
:1015700061E02BD938DA88EB9BE028EC30E0F90108
:101580003197F1F70197D9F786E062E01ED92BDA9F
:1015900088EB9BE028EC30E0F9013197F1F70197F7
:1015A000D9F786E060E011D91EDA10925B01109243
:1015B0005A0155C086E063E008D915DA88EB9BE054
:1015C00028EC30E0F9013197F1F70197D9F786E07F
:1015D00060E0FBD808DA82E062E038D382E08093F2
:1015E00097013DC080919801882309F43AC0809109
:1015F00098018F30B0F580910101843020F4809102
:1016000001018F5F01C081E08093010180910101A0
:10161000823021F0809101018430D1F488E061E0D2
:10162000D4D8E1D98CED95E028EC30E0F901319780
:10163000F1F70197D9F788E060E0C7D8D4D98CEDED
:1016400095E028EC30E0F9013197F1F70197D9F7EF
:1016500084EF91E09093340180933301C7D91092C5
:1016600098014F9954C080919901882309F44FC083
:1016700080919801882309F04AC0809199018832AD
:1016800028F4809199018F5F80939901809199014D
:101690008F3158F111E0C8ECD0E060910301812F47
:1016A00040E0D8D984EF91E0FE013197F1F701973E
:1016B000D9F71F5F173089F716E0C8ECD0E06091CA
:1016C0000301812F40E0C6D984EF91E0FE013197FC
:1016D000F1F70197D9F7115091F71092990181E034
:1016E0008093020102C01092990180919801882391
:1016F00099F0189B11C0109298010EC089E060E02B
:1017000073CC80915701882309F40ECFFFCE8091CE
:101710009901882341F7E9CFFF91EF91DF91CF91B4
:10172000BF91AF919F918F917F916F915F914F91F9
:101730003F912F911F910F900FBE0F901F90189502
:1017400080915701882381F480910101823061F0FA
:1017500080910101843041F015BC109280001092FC
:10176000810081E08093A80108951F93CF93DF93B8
:10177000E99883B78E7F83BF80E197E228EC30E061
:10178000F9013197F1F70197D9F781E080930101D1
:101790004F9B03C0809302014DC0C2D985B58560BF
:1017A00085BD809180008968809380008091810050
:1017B000836080938100B5D0189908C085E080933C
:1017C000010188EE93E060E043DA2BC011E0C8EC41
:1017D000D0E060910301812F41E03CD984EF91E09A
:1017E000FE013197F1F70197D9F71F5F173089F79D
:1017F00016E0C8ECD0E060910301812F41E02AD9C6
:1018000084EF91E0FE013197F1F70197D9F711507C
:1018100091F7609193018FE07EDA80E991E055DAEB
:101820000ED94F9BFECF189BFCCF8091680087603C
:1018300080936800DF91CF911F910895982F809138
:101840005701882349F08091A901863028F01916A4
:101850001CF482E061E0FAD18091A801882391F024
:1018600081E080935C0185B5856085BD80918000B5
:1018700089688093800080918100836080938100DB
:101880001092A8010895F89480ED97E028EC30E0DC
:10189000F9013197F1F70197D9F7A8D815BC109243
:1018A000680080E0BCD91092010180916900837FBB
:1018B00080936900E99A109257011092580143D918
:1018C00080E05AD7109280001092810029982E98BB
:1018D00080E29EE40197F1F783B7856083BF789437
:1018E000889543DF08952A989EBD0DB407FEFDCF6D
:1018F0008EBD0DB407FEFDCF2A9A08952A989EBD8D
:101900000DB407FEFDCF3EB58EBD0DB407FEFDCF75
:101910002EB5932F80E02A9A30E0282B392BC9016D
:1019200008958091D501833061F41092D5018091A2
:10193000DB019091DC0180689093DC018093DB01F6
:10194000D2DF0895DF92EF92FF920F931F930091E1
:10195000DE01A2E0DA2EFEE0EF2EFF24F394E19AFE
:101960002A981EBC0DB407FEFDCF2A9A0EB407FEBE
:101970009FC01091D5011130C9F1113038F01230EB
:1019800009F46BC0133009F08AC086C0F092D80108
:1019900080E090EBB3DF082F0D5F0093D701035079
:1019A0002091D901822F90E0880F991FFC0173E0EC
:1019B000EE0FFF1F7A95E1F7E81BF90BE754FE4F96
:1019C0008081882309F06BC0F092D501822F90E0CE
:1019D000880F991FFC0153E0EE0FFF1F5A95E1F7A6
:1019E000E81BF90BE754FE4F0183B9CF80E090EB81
:1019F00085DF282F9091D8018091D7019817C0F4E6
:101A000002279D3058F4E091D901EE9DF001112498
:101A10003196E90FF11DE754FE4F20838091D801E4
:101A2000823011F40F3FD9F58F5F8093D80197CFA3
:101A30008091D901282F30E0220F331FF90193E064
:101A4000EE0FFF1F9A95E1F7E21BF30BE754FE4FF1
:101A5000D08281278093D90122C02091D801809122
:101A6000D701281758F4E22FF0E0E655FE4F8081A9
:101A700090E02F5F2093D801986B18C01092D60188
:101A80008091DB019091DC018F7D81689268909359
:101A9000DC018093DB0127DF8AEA98EB24DF1092D8
:101AA000D50181E89AEC1FDF83E89AEC1CDF57CF61
:101AB0000093DE011F910F91FF90EF90DF9008954A
:101AC0008091D501882341F58091D601813021F59F
:101AD0008091DB019091DC018F779093DC01809302
:101AE000DB0101DF8091AC018A5F8093D701109206
:101AF000D80182E08093D5018AEA98EBF4DE8AEA85
:101B000098EBF1DE8091DB019091DC018062909393
:101B1000DC018093DB01E7DE08958091D5018330FD
:101B200019F408950FDFCCDF8091D5018823D1F718
:101B30008091DB019091DC018F779093DC018093A1
:101B4000DB01D1DE83E08093D5010895982F809149
:101B5000D601882311F083E008956093AC0190933F
:101B6000AD01692760956093AE0181E08093D60155
:101B700080E808952091DA01822F90E0880F991F64
:101B8000FC01B3E0EE0FFF1FBA95E1F7E81BF90B7C
:101B9000E754FE4F108281E028272093DA01089550
:101BA000CF93DF932A9A229A239A259A2A9A229AE5
:101BB000249881E58CBD8DE28093AA0184ED809309
:101BC000AB011092D9011092DA0181E892E890936A
:101BD000DC018093DB01C0E0D0E0FE01EE0FFF1FCF
:101BE000EC5BFF4F859194917EDE2196CC30D10540
:101BF000A1F78091690088608093690080E090E09F
:101C00007DDEE19A81E89AEC6EDE83E89AEC6BDE89
:101C1000DF91CF9108950F931F93182F062F8B30CC
:101C200010F082E010C08091D601882311F083E08B
:101C30000AC02FEA31E0C901BA01412F50E073D147
:101C4000802F612F83DF1F910F910895DF93CF9332
:101C500000D000D000D0CDB7DEB790913B01998382
:101C600090913C019A8390913D019B8390913E011C
:101C70009C838D836E8386E060E0AE014F5F5F4F93
:101C8000CADF26960FB6F894DEBF0FBECDBFCF9148
:101C9000DF9108950F931F93DF93CF9300D0CDB7BB
:101CA000DEB7AC0119821A8220E030E070E0F2C0A9
:101CB000FA01E20FF31F80818F3F09F0E9C0C901EB
:101CC0000596861797070CF0E3C08091580188238A
:101CD00009F4E5C084818C3009F0E1C081818093F2
:101CE0003C01828180933D01838180933E0186E0A7
:101CF00061E06BD578D688EE93E028EC30E0F9010E
:101D00003197F1F70197D9F786E060E05ED56BD6A1
:101D100088EE93E028EC30E0F9013197F1F7019774
:101D2000D9F786E061E051D55ED688EE93E028ECE5
:101D300030E0F9013197F1F70197D9F786E060E0DB
:101D400044D551D66091030184E080DF10925801A0
:101D5000BCC0F801928180913D01981709F0B5C08F
:101D6000938180913E01981709F0AFC080E066DD55
:101D7000F80184818B3009F472C08D3009F483C07E
:101D80008A3009F0A2C0F8018581282F2F702A839C
:101D900090E024E0959587952A95E1F789838981DC
:101DA000882309F492C08981843008F08EC08A812A
:101DB000882309F48AC08A81833008F086C089812B
:101DC0008230E1F0833089F1813009F044C08A81AA
:101DD000823009F06EC08091940184300CF069C0AB
:101DE000809194018F5F07C08091940187FD33C07B
:101DF000809194018150809394012DC08A8181301B
:101E000009F05BC080919301853008F056C0809145
:101E100093018F5F07C0809193018823E1F0809147
:101E2000930181508093930116C08A81813009F01B
:101E300048C080910001863008F043C080910001C5
:101E40008F5F07C080910001882329F080910001F5
:101E500081508093000189818093590136C0F80137
:101E60008581813049F48093570110925B01109273
:101E70005A011092A90129C0823039F510925701F8
:101E80008093970122C06091030183E0DFDE1DC0D3
:101E90002F5F3F4F261737070CF40ACF16C08A0171
:101EA000020F131FF801918180913C01981769F48A
:101EB00050CF8A81813079F697CF8A81823059F666
:101EC000AACF8A81823039F6BDCF0F900F90CF9183
:101ED000DF911F910F910895AA1BBB1B51E107C011
:101EE000AA1FBB1FA617B70710F0A61BB70B881FAA
:101EF000991F5A95A9F780959095BC01CD01089539
:101F000097FB092E07260AD077FD04D0E5DF06D01F
:101F100000201AF4709561957F4F0895F6F790951B
:101F200081959F4F0895FB01DC0102C001900D9245
:101F300041505040D8F70895F999FECF92BD81BD28
:101F4000F89A992780B50895262FF999FECF1FBAE0
:101F500092BD81BD20BD0FB6F894FA9AF99A0FBED2
:081F600001960895F894FFCFEB
:101F6800010101010664640003060B0C171B140130
:101F780004070A0D111A1402050F09161019140185
:101F8800020506070F1E3C505A5A6E8CA0B4C8FAB8
:101F980001645AF401080F192D3C50FFFEFEFE00A3
:00000001FF
