:1000000021C03BC0B6CACDC8EDC90FCA36C075C540
:10001000CDC533C032C031C030C02FC0FEC52DC0E9
:100020002CC02BC02AC029C028C049C426C025C066
:1000300024C023C0FFC207C317C326C33BC352C398
:1000400062C379C311241FBECFEFD4E0DEBFCDBFA2
:1000500011E0A0E0B1E0EEE0FBE102C005900D92FE
:10006000AE33B107D9F712E0AEE3B1E001C01D92A3
:10007000A731B107E1F733DC48CDC2CF80E090E093
:100080002EDD80931B0188E090E029DD80931A012A
:1000900080E190E024DD8093230180911B01873073
:1000A00020F480911B01882319F481E080931B01C7
:1000B00080911A01873020F480911A01882319F465
:1000C00086E080931A017ED280912301873020F44C
:1000D00080912301882319F481E0809323010895FE
:1000E000809178019091790128EC30E0B901C7DC6A
:1000F000709347016093460180917A0190917B0152
:10010000B901BDDC70934901609348018091800181
:1001100090918101B901B3DC70934B0160934A0166
:10012000809146019091470194E0981B90938C0137
:10013000809148019091490180938D0180914A01FD
:1001400090914B0180933801809146019091470135
:1001500090934D0180934C01809148019091490109
:1001600090934F0180934E0180914A0190914B01F1
:10017000909351018093500108958091780190915E
:1001800079012091400130914101821B930B9093A2
:100190003F0180933E0180913E0190913F0197FF86
:1001A0000BC080913E0190913F01909581959F4FAA
:1001B00090933F0180933E01209146013091470189
:1001C00080914C0190914D012817390761F1809180
:1001D0003E0190913F01833391052CF180914601BE
:1001E0009091470194E0981B90938C0120914601D7
:1001F0003091470160911B0186E0821B41E05CD396
:10020000809146019091470190934D0180934C015C
:100210008091780190917901909341018093400100
:1002200084E690E0C8D380917A0190917B0120917F
:10023000420130914301821B930B90933F018093C5
:100240003E0180913E0190913F0197FF0BC080914C
:100250003E0190913F01909581959F4F90933F0172
:1002600080933E01209148013091490180914E01D7
:1002700090914F012817390751F180913E019091DB
:100280003F01833391051CF1809148019091490110
:1002900080938D01209148013091490160911B01AB
:1002A00086E0821B41E008D380914801909149018A
:1002B00090934F0180934E0180917A0190917B0140
:1002C000909343018093420184E690E074D380913F
:1002D0008001909181012091440130914501821B60
:1002E000930B90933F0180933E0180913E0190914A
:1002F0003F0197FF0BC080913E0190913F01909587
:1003000081959F4F90933F0180933E0120914A0138
:1003100030914B018091500190915101281739077C
:1003200049F180913E0190913F018333910514F191
:1003300080914A0190914B018093380180914A014C
:1003400090914B0160911B018F5F41E0B5D280918C
:1003500080019091810190934501809344018091A7
:100360004A0190914B01909351018093500184E692
:1003700090E021D3089580917801909179012091A6
:10038000400130914101821B930B90933F01809378
:100390003E0180913E0190913F0197FF0BC08091FB
:1003A0003E0190913F01909581959F4F90933F0121
:1003B00080933E01209146013091470180914C018C
:1003C00090914D012817390719F180913E019091C4
:1003D0003F0183339105E4F08091460190914701FC
:1003E0008F5F80931B0160911B0186E041E064D226
:1003F000809146019091470190934D0180934C016B
:10040000809178019091790190934101809340010E
:1004100080917A0190917B012091420130914301BA
:10042000821B930B90933F0180933E0180913E018C
:1004300090913F0197FF0BC080913E0190913F0149
:10044000909581959F4F90933F0180933E0120911D
:1004500048013091490180914E0190914F01281738
:10046000390749F180913E0190913F018333910515
:1004700014F1209148013091490186E0982F921B98
:1004800090932301209148013091490160911B0113
:10049000821B41E011D280914801909149019093D3
:1004A0004F0180934E0180917A0190917B0190934E
:1004B00043018093420180918001909181012091BC
:1004C000440130914501821B930B90933F0180932F
:1004D0003E0180913E0190913F0197FF0BC08091BA
:1004E0003E0190913F01909581959F4F90933F01E0
:1004F00080933E0120914A0130914B01809150013F
:10050000909151012817390729F180913E0190916E
:100510003F0183339105F4F080914A0190914B01A2
:1005200096E0981B90931A014DD060911B0186E0D4
:1005300041E0C2D180914A0190914B0190935101C9
:1005400080935001809180019091810190934501A9
:10055000809344010895E0E0F0E0DF01AD5ABE4F22
:100560001C923196E432F105C1F78081806480836A
:10057000808182608083549A3C9A8091800089684F
:100580008093800080918100836080938100389AFD
:10059000559A5D9A8FE39CE90197F1F700C000003E
:1005A0008081806880830895853608F084E6809392
:1005B00019012FEF30E0281B310930938900209377
:1005C0008800089590911A0181E1989F802D11244F
:1005D000EBDF0895882391F0809188009091890045
:1005E0008F3F910591F45D9A8FE39CE90197F1F7B4
:1005F00000C0000080911901D7DF08958FEF90E0CF
:1006000090938900809388005D980895282F873003
:1006100008F0A1C0862F90E08830910508F0B9C09D
:10062000865E9F4FE22FF0E0E050FF4F30818F93C6
:100630009F93089583E290E0DC01A31BB109AD5ABA
:10064000BE4F1C9209C083E290E0DC01A31BB109FC
:10065000AD5ABE4F31E03C933085DC01A31BB1099C
:10066000AD5ABE4F1C9236C083E290E0DC01A31B62
:10067000B109AD5ABE4F1C923085DC01A31BB109F4
:10068000AD5ABE4F31E025C083E290E0DC01A31BF0
:10069000B109AD5ABE4F1C923085DC01A31BB109D4
:1006A000AD5ABE4F1C923089831B91098D5A9E4FC3
:1006B00031E03EC083E290E0DC01A31BB109AD5AFA
:1006C000BE4F31E03C934085DC01A41BB109AD5A1B
:1006D000BE4F3C933089831B91098D5A9E4FFC017C
:1006E000108257C083E290E0DC01A31BB109AD5A30
:1006F000BE4F31E03C934085DC01A41BB109AD5AEB
:10070000BE4F1C9210C083E290E0DC01A31BB10934
:10071000AD5ABE4F1C923085DC01A31BB109AD5A06
:10072000BE4F31E03C934089841B91098D5A9E4F06
:10073000FC0130832EC083E290E0DC01A31BB109F1
:10074000AD5ABE4F31E03C934085DC01A41BB1099A
:10075000AD5ABE4FE7CF873049F4662321F081E0E0
:10076000809362011DC0109262011AC0883049F462
:10077000662321F081E08093640112C0109264012D
:100780000FC0893069F4662311F0409A08954098AB
:100790000895263029F4662311F05F9A01C05F980E
:1007A00081E0809377010895809177018823D1F0CB
:1007B0001092770180E090E0FC01ED5AFE4F20811D
:1007C000213011F42E9A01C02E985C9A5C98019603
:1007D0008432910589F7449A449881E0FBDE81E0F8
:1007E00080935201089580E090E0FC01ED5AFE4FA5
:1007F0001082019684329105C1F781E080937701E0
:1008000080E0E8DE0895CF93C0E08C2F60E0FEDE4C
:10081000CF5FC630D1F7CF9108958F929F92BF924C
:10082000CF92DF92EF92FF920F931F93CF93DF93BC
:1008300000D0CDB7DEB7182FF62EB42EE22E1A82D6
:100840001982E1DF173008F016E01A821982C12EF2
:10085000DD2405E08DEF882E8FEF982E8C0C9D1CEB
:1008600017C0EE2039F0153028F089819A8188155B
:1008700099054CF089819A81BB2019F0202F281B03
:10088000822F6F2DC3DE89819A8101969A83898395
:1008900089819A818C159D0524F386DF0F900F9036
:1008A000DF91CF911F910F91FF90EF90DF90CF904C
:1008B000BF909F908F90089520E0AFDF08951F9222
:1008C0000F920FB60F9211248F939F93EF93FF9384
:1008D000E0918801FF27E7FDF095809178009091E5
:1008E0007900EE0FFF1FE858FE4F918380838091BF
:1008F00088018F5F8093880180918801853014F092
:100900001092880180917C00807F80937C00909180
:100910007C00E0918801FF27E7FDF095E45EFE4F43
:100920008081892B80937C0080917A008064809301
:100930007A00FF91EF919F918F910F900FBE0F90D2
:100940001F901895ECE7F0E0808180648083EAE7EF
:10095000F0E080818F688083AEE7B0E08C918662A2
:100960008C938081806480830895569AE0E7F0E05C
:1009700080818660808381E08093B30082E08093F1
:10098000B4000895181634F48091B1008460809307
:10099000B1000895882371F48091B1008B7F80931A
:1009A000B1005E981092B20081E08093B30082E0C3
:1009B0008093B4000895CF93DF93EC0180912301DD
:1009C000823030F080918A0190918B01009721F460
:1009D00080918C018F3F01F580918901882301F17D
:1009E0001BC0E0918D01F0E0EC5DFE4F80818093B3
:1009F0002201E0918C01FF27E7FDF095E55DFE4FB8
:100A000080818093210181E0BDDFCE0162E370E04F
:100A10004AD860938E0104C080918E01882309F327
:100A2000DF91CF910895CF93DF93EC018091230163
:100A3000823030F080918A0190918B01009721F4EF
:100A400080918C018F3F39F580918901882339F19C
:100A500022C080918D01E0918D01F0E0882319F48E
:100A6000EB5DFE4F02C0ED5DFE4F80818093220161
:100A7000E0918C01FF27E7FDF095E55DFE4F808159
:100A80008093210181E07EDFCE0162E370E00BD82C
:100A900060938E0104C080918E018823D1F2DF9192
:100AA000CF910895CF93DF93EC01809123018230A1
:100AB00030F080918A0190918B01009721F4809110
:100AC0008C018F3F71F480918901882371F009C0F6
:100AD00081E058DFCE0162E370E0E5D760938E01DC
:100AE00004C080918E01882399F3DF91CF910895FE
:100AF000809321016093220108951F920F920FB6F7
:100B00000F9211242F933F934F935F936F937F9393
:100B10008F939F93AF93BF93CF93DF9300D0CDB7C5
:100B2000DEB780912201869590E09A83898329819E
:100B30003A814091210150E0429FC001439F900DB6
:100B4000529F900D11249A83898389819A8164E64A
:100B500070E095D77A8369832091B30089819A8167
:100B60002091B30089819A81280F2093B4002091AD
:100B7000B300809122019091B30080912201890FEE
:100B80008093B3005E9A0F900F90DF91CF91BF9149
:100B9000AF919F918F917F916F915F914F913F9115
:100BA0002F910F900FBE0F901F9018951F920F92CC
:100BB0000FB60F9211245E980F900FBE0F901F90EA
:100BC00018952098289A3B98439A8AB183778AB9D6
:100BD0008BB18C688BB9E8E6F0E080818760808318
:100BE000EBE6F0E0808181608083ECE6F0E08081DC
:100BF00088608083EDE6F0E080818468808384B53E
:100C0000826084BD85B5856085BDEEE6F0E08081BB
:100C1000826080838FEF87BD08951F920F920FB679
:100C20000F9211242F933F934F935F936F937F9372
:100C30008F939F93AF93BF93CF93EF93FF93809145
:100C40008800909189008F3F910509F0ADDD80917A
:100C5000A401882329F480912301823008F486C2FC
:100C600089E061E0D3DC80918E01882389F0809156
:100C7000A0018F5F8093A0019091A00180918E01CF
:100C8000891730F480E07EDE1092A00110928E0170
:100C9000809189018130E9F48091990190919A01C4
:100CA00021E08633920748F48091990190919A014E
:100CB000019690939A0180939901809198018A30CE
:100CC00030F4809198018F5F8093980102C0109258
:100CD000980180913B018530C1F480919B018F5F29
:100CE00080939B0180919B018D3328F010929B0192
:100CF00088E061E007C080919B018F3108F4FEC15C
:100D000088E060E083DC50DDF9C180913B018823FD
:100D100009F4F4C180912301823000F180918A01AD
:100D200090918B010097D1F080918A0190918B0175
:100D3000019690938B0180938A0120918A013091D2
:100D40008B019091230188EC989FC0011124821798
:100D5000930720F410928B0110928A0180919701E1
:100D6000882359F0809197018F5F8093970180913C
:100D700097018B3010F01092970180919401882395
:100D800081F1809194018F5F80939401809194010F
:100D9000833038F180919301863018F534DD8091ED
:100DA0009C01882329F48091930160911B0106C066
:100DB0009091930160911B0185E0891B27DCF4DC95
:100DC000809193018F5F809393018091930186308E
:100DD00029F4109294011092930103C081E0809352
:100DE000940180917C0190917D01A3E081329A076A
:100DF00048F080919501883228F4809195018F5FA9
:100E00008093950180917C0190917D01B1E08039C2
:100E10009B0748F480919501882329F080919501E2
:100E2000815080939501809123018230B8F08091A8
:100E30009501853198F080919601882379F480910D
:100E40008A0190918B01009749F481E090E09093A2
:100E50008B0180938A0181E0809396018091230128
:100E6000823050F0809195018A3030F48091960163
:100E7000813011F4109296018091360190913701E2
:100E800021E080399207F0F5809136019091370189
:100E90000196909337018093360180919C018823BD
:100EA00011F580919D0190919E01019690939E0174
:100EB00080939D0180919D0190919E0187309105C5
:100EC00090F0809136019091370180FD04C06091CF
:100ED0001B0186E002C086E060E098DB10929E0174
:100EE00010929D0161DC8091360190913701A1E063
:100EF00080399A0739F487E060E088DB86E060E0BB
:100F000085DB52DC8091A401882381F48091520119
:100F1000882361F0809152018F5F8093520180910C
:100F20005201873918F0109252015DDC80913B012B
:100F3000823021F080913B01843071F580917E01F7
:100F400090917F018530910540F480919F0182331B
:100F5000A0F480919F018F5F0EC080919F01882334
:100F600061F080917E0190917F018031910528F0A0
:100F700080919F01815080939F0180919F018E31CC
:100F800019F488E061E006C080919F01882319F47C
:100F900088E060E03BDB08DC8091A401882309F451
:100FA000E8C080917C0190917D01B1E080399B0780
:100FB00008F0DFC081E00DC080917C0190917D013F
:100FC00023E08132920738F080918901813019F451
:100FD00082E0809389018091A201882309F48EC068
:100FE00083B180FD4DC08091A2018F5F8093A201EB
:100FF0008091A2018F3108F481C09091A40181E019
:10100000911180E08093A4018091A401882319F1BB
:1010100086E061E0FBDAC8DB8FEF92E5A7E0815064
:101020009040A040E1F700C0000086E062E0EEDA08
:10103000BBDB8FEF92E5A7E081509040A040E1F745
:1010400000C0000086E060E0E1DAAEDB10929A01B9
:101050001092990151C086E063E0D8DAA5DB8FEFEA
:1010600092E5A7E081509040A040E1F700C0000069
:1010700086E060E0CBDA98DB82E0809389013CC0B7
:101080008091A2018823D1F18091A2018F30B0F527
:1010900080913B01843020F480913B018F5F01C03F
:1010A00081E080933B0180913B01823021F080916F
:1010B0003B018430D1F488E061E0A8DA75DB8FE78A
:1010C00099EAA3E081509040A040E1F700C0000001
:1010D00088E060E09BDA68DB8FE799EAA3E0815063
:1010E0009040A040E1F700C0000084EF91E09093B1
:1010F00037018093360177DB1092A2014F993FC0F0
:101100008091A1018823D9F18091A1018F5F809303
:10111000A1018091A1018E3191F5C1E060911B0187
:101120008C2F40E0C9DB8FE798E3A1E0815090402D
:10113000A040E1F700C00000CF5FC73079F7C6E0FC
:1011400060911B018C2F40E0B7DB8FE798E3A1E0B3
:1011500081509040A040E1F700C00000C15081F7ED
:1011600081E0809339011092A10109C089E060E01B
:1011700079CD8091A401882309F01ECF2CCFFF9157
:10118000EF91CF91BF91AF919F918F917F916F918F
:101190005F914F913F912F910F900FBE0F901F9035
:1011A00018951F920F920FB60F9211242F933F9311
:1011B0004F935F936F937F938F939F93AF93BF935F
:1011C000EF93FF9383B180FD68C080913B01853030
:1011D00021F081E08093A20160C080913B018530C5
:1011E00009F057C08091A301882309F052C088E01C
:1011F00061E00CDAD9DA8FEF90E7A2E081509040FD
:10120000A040E1F700C0000088E060E0FFD9CCDA40
:101210008FEF90E7A2E081509040A040E1F700C03E
:10122000000088E061E0F2D9BFDA8FEF90E7A2E03A
:1012300081509040A040E1F700C0000088E060E0ED
:10124000E5D9B2DAF999FECF60911B0180E090E018
:101250004ED4F999FECF60911A0188E090E047D40E
:10126000F999FECF6091230180E190E040D4F99993
:10127000FECF81E08093390110C08FEF94E3ACE0A2
:1012800081509040A040E1F700C000001092A301FF
:1012900004C08091A301813081F3FF91EF91BF9150
:1012A000AF919F918F917F916F915F914F913F91FE
:1012B0002F910F900FBE0F901F90189580913B01BA
:1012C000882309F48EC080913B01853009F489C0E0
:1012D0004F9B87C083B180FF84C075C04A9921C0ED
:1012E0008091900190919201913009F06FC090919E
:1012F0009101913009F06AC01092900107C090915D
:101300009101992319F491E090939001209190011B
:1013100030E0992787FD90952817390711F0109232
:101320008F0181E0339980E08093920181E04A99B6
:1013300080E08093910190918F01E0913801F0E07D
:10134000E05DFE4F80818917C0F510928F0181E02A
:101350008093970190913B019330F1F190913B0183
:101360009430D1F1909194019923B1F5909190012D
:1013700090939C018093940108C080913B0184303C
:1013800021F48091900180939C0180919C0188239D
:1013900021F082E390E00FDB03C082E390E043DBC7
:1013A00060911B0186E032D987E061E02FD9FCD93A
:1013B0001092370110923601089580918F018F5F4E
:1013C00080938F010895339989CFABCF909192018B
:1013D000992309F494CF9ACF80913B01833069F629
:1013E000D0CF08951F920F920FB60F9211242F9312
:1013F0003F934F935F936F937F938F939F93AF939D
:10140000BF93EF93FF935ADFFF91EF91BF91AF919D
:101410009F918F917F916F915F914F913F912F910C
:101420000F900FBE0F901F9018951F920F920FB63E
:101430000F9211242F933F934F935F936F937F935A
:101440008F939F93AF93BF93EF93FF934F9904C0F4
:1014500081E08093A10101C031DFFF91EF91BF9145
:10146000AF919F918F917F916F915F914F913F913C
:101470002F910F900FBE0F901F901895B4D980E058
:1014800081DA10923B0180913B0180933A0183B74E
:10149000856083BFE9E6F0E08081837F8083E99AFD
:1014A0001092A40180E096D888950895CF93E9988A
:1014B00083B78E7F83BF80913A01882309F455C09A
:1014C00080913A01853009F450C080913A018093AF
:1014D0003B018FEF99E6A8E181509040A040E1F7F1
:1014E00000C0000081E076D880E04CDA4F9B04C059
:1014F00081E0809339013BC083B180FD0AC085E063
:1015000080933B0188EE93E056DA81E08093A3015B
:101510002EC0C1E060911B018C2F41E0CDD98FE737
:1015200098E3A1E081509040A040E1F700C00000A6
:10153000CF5FC73079F7C6E060911B018C2F41E087
:10154000BBD98FE798E3A1E081509040A040E1F73C
:1015500000C00000C15081F760918D018FE0C8DAB2
:1015600080E991E09FDA4FD902C081E0B0CFCF91FE
:1015700008951F920F920FB60F9211242F933F934D
:101580004F935F936F937F938F939F93AF93BF938B
:10159000EF93FF938BDFFF91EF91BF91AF919F91FD
:1015A0008F917F916F915F914F913F912F910F900C
:1015B0000FBE0F901F9018952A989EBD0DB407FE80
:1015C000FDCF8EBD0DB407FEFDCF2A9A08952A984F
:1015D0009EBD0DB407FEFDCF9EB5392F20E08EBD18
:1015E0000DB407FEFDCF8EB52A9A90E0822B932B87
:1015F00008952A981EBC0DB407FEFDCF2A9A8EB519
:1016000008952A988EBD0DB407FEFDCF6EBD0DB4B2
:1016100007FEFDCF2A9A08952A9880EB8EBD0DB45F
:1016200007FEFDCF1EBC0DB407FEFDCF2A9A8EB576
:101630000895239A259A229A249881E58CBD0895CD
:10164000CF93D7DF87FF82C08091A5018130E1F081
:10165000813020F0823009F071C058C0C1E0C093E1
:10166000A801DADF80931602982F9D5F9093A7015F
:10167000E091A901F091AA019081992309F05EC03F
:10168000C093A501818362C09091A8018091A701B8
:101690009817D8F4C1DF90911602982790931602FC
:1016A0002091A801213238F4E091A901F091AA011A
:1016B000E20FF11D81838091A801823011F49F3FD8
:1016C000E9F58F5F8093A80141C0E091A901F091F5
:1016D000AA0182E080838091AD0190E00196817043
:1016E00090708093AD01282F30E0C901880F991FB9
:1016F00055E0220F331F5A95E1F7820F931F815552
:101700009E4F9093AA018093A90118C08091A801CF
:101710009091A701891750F4E82FF0E0ED50FE4FAB
:1017200060818F5F8093A80188EB0FC01092A601A3
:1017300081E892E841DF88EB6AEA63DF1092A50155
:101740008AEC61E85EDF8AEC63E85BDFCF910895A5
:101750008091A501882369F580E090E038DF90FF53
:1017600004C088EC80933C01089580913C01815035
:1017700080933C018823E9F481E080933C018091CF
:10178000A6018130B1F481E092E816DF8091F50185
:101790008A5F8093A7011092A80182E08093A5013F
:1017A0008AEA98EB09DF8AEA98EB06DF81E292E8A1
:1017B00003DF08959091A601992369F46093F501E0
:1017C0008093F601862780958093F70181E08093CE
:1017D000A60180E8089583E00895CF93DF93C82F92
:1017E000D62F8F3178F48091A601882369F428EFF1
:1017F00031E0C901BA014C2F50E068D18D2F6C2F18
:10180000D9DF03C082E001C083E0DF91CF9108956A
:10181000E091AB01F091AC0110828091AE0190E0BB
:101820000196817090708093AE01282F30E0C9013D
:10183000880F991F75E0220F331F7A95E1F7820F09
:10184000931F81559E4F9093AC018093AB010895F7
:101850002A9A229AEEDE87ED90E8AEDE81E092E8E9
:10186000ABDE80EB94EAA8DE83E296ECA5DE8CE2A8
:1018700094E9A2DE8BEA92EC9FDE81E89AEC9CDE92
:1018800087EF94EC99DE80E798E996DE80E098ECAB
:1018900093DE80E090EE90DE8DE28093F30184EDA4
:1018A0008093F4018FEA91E09093AC018093AB01B7
:1018B0009093AA018093A90181E892E87DDEE9E690
:1018C000F0E080818860808380E090E080DEE19AB3
:1018D00081E89AEC71DE83E89AEC6EDE0895CF938E
:1018E000DF9300D0CDB7DEB781E690E09A8389839D
:1018F000C5D328D830D665D976D737D8A9DF78941C
:101900008FEF91EEA4E081509040A040E1F700C03D
:101910000000E6D384EF91E0909337018093360185
:1019200062D708EC10E026E9E22EF12C82E060E0BC
:10193000AE014F5F5F4F51DF0BDF8091390188238C
:1019400039F080918901882319F41092390196DDCC
:10195000809189018130D1F58091990190919A010E
:10196000A1E08C329A0730F580919801863090F48E
:1019700086E061E041E0A0D786E061E047D687E0FD
:1019800061E044D688E061E041D68AE562E8B0D8FB
:1019900081E00EC086E062E041E08ED786E062E042
:1019A00035D687E061E032D688E061E02FD680E06E
:1019B000E9D71CC08091990190919A01B1E08C32D5
:1019C0009B07A1F480E0DED70ED710C0809189017B
:1019D000823061F410929A011092990180E0D2D77E
:1019E00002D788E060E012D61092890180913B0115
:1019F000853001F58091780190917901B7013FD050
:101A0000709347016093460180917A0190917B0128
:101A1000B80135D0709349016093480180918001ED
:101A200090918101B8012BD070934B0160934A01D2
:101A3000A2D47CCF8091780190917901B8011FD018
:101A4000709347016093460180917A0190917B01E8
:101A5000B80115D0709349016093480180918001CD
:101A600090918101B8010BD070934B0160934A01B2
:101A700080919701882309F059CF7FD357CFAA1BB4
:101A8000BB1B51E107C0AA1FBB1FA617B70710F069
:101A9000A61BB70B881F991F5A95A9F7809590959B
:101AA000BC01CD01089597FB092E07260AD077FDCA
:101AB00004D0E5DF06D000201AF4709561957F4FC1
:101AC0000895F6F7909581959F4F0895FB01DC01ED
:101AD00002C001900D9241505040D8F70895F999F5
:101AE000FECF92BD81BDF89A992780B50895262F23
:101AF000F999FECF1FBA92BD81BD20BD0FB6F894F3
:0E1B0000FA9AF99A0FBE01960895F894FFCF55
:101B0E000003060B0C171B140104070A0D111A14FF
:101B1E0002050F0916101914646406010102050668
:101B2E00075A64015A6E8CA0B4C8FA0F1E3C505A64
:0E1B3E00080F192D3C50F401010101011000A7
:00000001FF
