:1000000021C03BC0FAC88BC74DC86FC836C0CAC52F
:1000100022C633C032C031C030C02FC053C62DC03D
:100020002CC02BC02AC029C028C09EC426C025C011
:1000300024C023C060C368C378C387C39CC3B3C351
:10004000C3C3DAC311241FBECFEFD4E0DEBFCDBFE0
:1000500011E0A0E0B1E0E2EAF8E102C005900D9203
:10006000A234B107D9F712E0A2E4B1E001C01D92B9
:10007000AF31B107E1F7F5DA12CCC2CF80E090E002
:10008000F8DB80931B0188E090E0F3DB80931A019A
:1000900080E190E0EEDB8093230188E190E0E9DBF2
:1000A00080933F0180E290E0E4DB8093400188E2AE
:1000B00090E0DFDB8093410180911B01873020F4C9
:1000C00080911B01882319F481E080931B018091AA
:1000D0001A01873020F480911A01882319F486E0F0
:1000E00080931A01AED280912301873020F4809151
:1000F0002301882319F481E08093230108958091DE
:100100007D0190917E0128EC30E0B90182DB709393
:100110004D0160934C0180917F0190918001B90164
:1001200078DB70934F0160934E018091850190912F
:100130008601B9016EDB709351016093500180918B
:100140004C0190914D0194E0981B90939101809106
:100150004E0190914F0180939201809150019091B6
:1001600051018093390180914C0190914D01909300
:1001700053018093520180914E0190914F019093D1
:1001800055018093540180915001909151019093B9
:10019000570180935601089580917D0190917E01D1
:1001A0002091460130914701821B930B90934501AA
:1001B00080934401809144019091450197FF0BC0C9
:1001C0008091440190914501909581959F4F909326
:1001D00045018093440120914C0130914D01809163
:1001E0005201909153012817390761F18091440120
:1001F00090914501833391052CF180914C019091B0
:100200004D0194E0981B9093910120914C01309105
:100210004D0160911B0186E0821B41E0A2D38091D9
:100220004C0190914D019093530180935201809124
:100230007D0190917E01909347018093460184E671
:1002400090E00ED480917F0190918001209148012F
:1002500030914901821B930B909345018093440197
:10026000809144019091450197FF0BC0809144011A
:1002700090914501909581959F4F90934501809372
:10028000440120914E0130914F0180915401909191
:1002900055012817390751F180914401909145018A
:1002A000833391051CF180914E0190914F01809311
:1002B000920120914E0130914F0160911B0186E027
:1002C000821B41E04ED380914E0190914F0190935B
:1002D00055018093540180917F019091800190930A
:1002E00049018093480184E690E0BAD3809185016A
:1002F0009091860120914A0130914B01821B930B12
:10030000909345018093440180914401909145016F
:1003100097FF0BC080914401909145019095819584
:100320009F4F90934501809344012091500130915B
:10033000510180915601909157012817390749F1D1
:1003400080914401909145018333910514F180918E
:100350005001909151018093390180915001909109
:10036000510160911B018F5F41E0FBD280918501BB
:100370009091860190934B0180934A0180915001A6
:1003800090915101909357018093560184E690E03B
:1003900067D3089580917D0190917E01209146015F
:1003A00030914701821B930B909345018093440148
:1003B000809144019091450197FF0BC080914401C9
:1003C00090914501909581959F4F90934501809321
:1003D000440120914C0130914D0180915201909146
:1003E00053012817390731F180914401909145015B
:1003F00083339105FCF080914C0190914D018F5F0A
:1004000080931B0160911B0186E041E0AAD280919C
:100410004C0190914D019093530180935201809132
:100420007D0190917E01909347018093460181E088
:100430008093A90180917F019091800120914801D2
:1004400030914901821B930B9093450180934401A5
:10045000809144019091450197FF0BC08091440128
:1004600090914501909581959F4F90934501809380
:10047000440120914E0130914F018091540190919F
:1004800055012817390749F18091440190914501A0
:100490008333910514F120914E0130914F0186E094
:1004A000982F921B9093230120914E0130914F0180
:1004B00060911B01821B41E054D280914E019091CA
:1004C0004F01909355018093540180917F01909149
:1004D000800190934901809348018091850190911A
:1004E000860120914A0130914B01821B930B90931E
:1004F000450180934401809144019091450197FF0B
:100500000BC08091440190914501909581959F4F3A
:100510009093450180934401209150013091510105
:1005200080915601909157012817390729F1809140
:1005300044019091450183339105F4F0809150017D
:100540009091510196E0981B90931A017AD0609196
:100550001B0186E041E005D280915001909151014C
:100560009093570180935601809185019091860167
:1005700090934B0180934A010895CF93DF9300D06D
:1005800000D000D0CDB7DEB780913801813021F0A6
:10059000809138018823D9F480913E01898380912C
:1005A0003F018A83809140018B83809141018C833C
:1005B00081E08D83809138018F5F8E8386E060E0DB
:1005C000AE014F5F5F4F4DD782E08093380180913D
:1005D000A9018823F9F080913E01898380913F0130
:1005E0008A83809140018B83809141018C8380912B
:1005F000A901823011F484E001C083E08D838091F1
:100600001B018E8386E060E0AE014F5F5F4F29D70C
:100610001092A90126960FB6F894DEBF0FBECDBF8B
:10062000DF91CF910895853608F084E68093190113
:100630002FEF30E0281B3109309389002093880088
:10064000089590911A0181E1989F802D1124EBDF8C
:100650000895882321F080911901E5DF08958FEF37
:1006600090E090938900809388000895CF93DF9362
:1006700080E0EFDFC0E0D0E0FE01E75AFE4F1082DD
:100680002196C432D105C1F788818064888388812E
:1006900082608883549A3C9A81E0DBDF80918000FD
:1006A00089688093800080918100836080938100BD
:1006B000389A559A5D9A8FE39CE90197F1F700C04B
:1006C0000000888180688883DF91CF910895282F6A
:1006D000873008F0A1C0862F90E08830910508F09F
:1006E000B9C0865E9F4FE22FF0E0E050FF4F3081AF
:1006F0008F939F93089583E290E0DC01A31BB109DF
:10070000A75ABE4F1C9209C083E290E0DC01A31BF4
:10071000B109A75ABE4F31E03C933085DC01A31BE1
:10072000B109A75ABE4F1C9236C083E290E0DC01AB
:10073000A31BB109A75ABE4F1C923085DC01A31B35
:10074000B109A75ABE4F31E025C083E290E0DC0139
:10075000A31BB109A75ABE4F1C923085DC01A31B15
:10076000B109A75ABE4F1C923089831B9109875A41
:100770009E4F31E03EC083E290E0DC01A31BB10953
:10078000A75ABE4F31E03C934085DC01A41BB10960
:10079000A75ABE4F3C933089831B9109875A9E4FBD
:1007A000FC01108257C083E290E0DC01A31BB10979
:1007B000A75ABE4F31E03C934085DC01A41BB10930
:1007C000A75ABE4F1C9210C083E290E0DC01A31B2D
:1007D000B109A75ABE4F1C923085DC01A31BB10999
:1007E000A75ABE4F31E03C934089841B9109875A38
:1007F0009E4FFC0130832EC083E290E0DC01A31BFE
:10080000B109A75ABE4F31E03C934085DC01A41BDF
:10081000B109A75ABE4FE7CF873049F4662321F0CC
:1008200081E08093680108951092680108958830EE
:1008300049F4662321F081E080936A0108951092C3
:100840006A010895893069F4662311F0409A089589
:1008500040980895263029F4662311F05F9A089590
:100860005F98089580E090E0FC01E75AFE4F2081F8
:10087000213011F42E9A01C02E985C9A5C98019652
:100880008432910589F7449A449881E0E2DE81E060
:1008900080935801089580E090E0FC01E75AFE4FF4
:1008A0001082019684329105C1F7DCDF0895CF9361
:1008B000C0E08C2F60E00BDFCF5FC630D1F7D2DF16
:1008C000CF9108958F929F92BF92CF92DF92EF9235
:1008D000FF920F931F93CF93DF9300D0CDB7DEB776
:1008E000182FF62EB42EE22E1A821982E0DF17306E
:1008F00008F016E01A821982C12EDD2405E08DEF82
:10090000882E8FEF982E8C0C9D1C17C0EE2039F08E
:10091000153028F089819A81881599054CF08981D4
:100920009A81BB2019F0202F281B822F6F2DCFDE3C
:1009300089819A8101969A83898389819A818C150C
:100940009D0524F38FDF0F900F90DF91CF911F91C2
:100950000F91FF90EF90DF90CF90BF909F908F907E
:10096000089520E0AFDF08951F920F920FB60F9207
:1009700011248F939F93EF93FF93E0918D01FF27B5
:10098000E7FDF0958091780090917900EE0FFF1FC0
:10099000E358FE4F9183808380918D018F5F809318
:1009A0008D0180918D01853014F010928D01809120
:1009B0007C00807F80937C0090917C00E0918D0191
:1009C000FF27E7FDF095E45EFE4F8081892B809341
:1009D0007C0080917A00806480937A00FF91EF918F
:1009E0009F918F910F900FBE0F901F901895ECE77D
:1009F000F0E0808180648083EAE7F0E080818F68A6
:100A00008083AEE7B0E08C9186628C9380818064B5
:100A100080830895569AE0E7F0E0808186608083C5
:100A200081E08093B30082E08093B40008951816AB
:100A300034F48091B10084608093B10008958823DC
:100A400071F48091B1008B7F8093B1005E98109219
:100A5000B20081E08093B30082E08093B4000895F7
:100A6000CF93DF93EC0180912301823030F08091AD
:100A70008F0190919001009721F4809191018F3F17
:100A800001F580918E01882301F11BC0E091920154
:100A9000F0E0EC5DFE4F808180932201E0919101B6
:100AA000FF27E7FDF095E55DFE4F808180932101F2
:100AB00081E0BDDFCE0162E370E0BFD660939301B9
:100AC00004C080919301882309F3DF91CF910895A9
:100AD000CF93DF93EC0180912301823030F080913D
:100AE0008F0190919001009721F4809191018F3FA7
:100AF00039F580918E01882339F122C080919201CD
:100B0000E0919201F0E0882319F4EB5DFE4F02C002
:100B1000ED5DFE4F808180932201E0919101FF27DE
:100B2000E7FDF095E55DFE4F80818093210181E036
:100B30007EDFCE0162E370E080D66093930104C053
:100B4000809193018823D1F2DF91CF910895CF93C3
:100B5000DF93EC0180912301823030F080918F018E
:100B600090919001009721F4809191018F3F71F451
:100B700080918E01882371F009C081E058DFCE0199
:100B800062E370E05AD66093930104C080919301B0
:100B9000882399F3DF91CF91089580932101609389
:100BA000220108951F920F920FB60F9211242F93D6
:100BB0003F934F935F936F937F938F939F93AF93E5
:100BC000BF93CF93DF9300D0CDB7DEB780912201E2
:100BD000869590E09A83898329813A814091210109
:100BE00050E0429FC001439F900D529F900D1124F1
:100BF0009A83898389819A8164E670E00AD67A8330
:100C000069832091B30089819A812091B300898101
:100C10009A81280F2093B4002091B3008091220183
:100C20009091B30080912201890F8093B3005E9A66
:100C30000F900F90DF91CF91BF91AF919F918F91C6
:100C40007F916F915F914F913F912F910F900FBEC8
:100C50000F901F9018951F920F920FB60F921124AC
:100C60005E980F900FBE0F901F9018952098289AAD
:100C70003B98439A8AB183778AB98BB18C688BB9D8
:100C8000E8E6F0E0808187608083EBE6F0E0808139
:100C900081608083ECE6F0E0808188608083EDE60F
:100CA000F0E080818468808384B5826084BD85B5EE
:100CB000856085BDEEE6F0E08081826080838FEF05
:100CC00087BD08951F920F920FB60F9211242F9394
:100CD0003F934F935F936F937F938F939F93AF93C4
:100CE000BF93EF93FF9380919801882359F08091EF
:100CF00098018F5F80939801809198018B3010F05C
:100D0000109298018091AC01882329F480912301ED
:100D1000823008F4EAC089E061E0D9DC8091930177
:100D2000882389F08091A6018F5F8093A60190911E
:100D3000A60180919301891730F480E078DE10924B
:100D4000A6011092930180918E018130E9F4809187
:100D50009F019091A00121E08633920748F4809191
:100D60009F019091A00101969093A00180939F0113
:100D700080919E018A3030F480919E018F5F809334
:100D80009E0102C010929E018091AB01813009F456
:100D9000B5C080913C01853009F09EC08091A101D1
:100DA0008F5F8093A1018091A1018D3360F010923B
:100DB000A10188E061E08BDC8091AA01882369F0C1
:100DC00087E061E009C08091A1018F3138F088E0AF
:100DD00060E07DDC87E060E07ADC44DD8091A801A2
:100DE000882309F479C081E08093980183B180FD64
:100DF0007FC08091A801883208F07AC08091A80154
:100E00008F5F8093A80168C081E08093AA0162C0CF
:100E10008091A8018F3008F05DC088E061E057DC68
:100E200021DD8FEF90E7A2E081509040A040E1F7F4
:100E300000C0000088E060E04ADC14DD8FEF90E73E
:100E4000A2E081509040A040E1F700C0000088E09F
:100E500061E03DDC07DD8FEF90E7A2E0815090403C
:100E6000A040E1F700C0000088E060E030DCFADC80
:100E7000F999FECF60911B0180E090E002D5F999CD
:100E8000FECF60911A0188E090E0FBD4F999FECF83
:100E90006091230180E190E0F4D4F999FECF88E1DC
:100EA00090E060913F01EDD4F999FECF80E290E0AF
:100EB00060914001E6D4F999FECF88E290E060911C
:100EC0004101DFD4F999FECF1092A80181E080930F
:100ED0003A0102C01092A8018091A801882371F004
:100EE000189B0CC01092A80109C089E060E015CFE2
:100EF0008091A8018F3108F087CF8ACFFF91EF91C1
:100F0000BF91AF919F918F917F916F915F914F9121
:100F10003F912F910F900FBE0F901F9018951F9229
:100F20000F920FB60F9211248F939F9383B180FD80
:100F300019C08091A8018823A9F48FE19EE401974C
:100F4000F1F700C000008091AB01882331F481E00B
:100F50008093A8018093980105C083B180FFFDCFE5
:100F60001092AB019F918F910F900FBE0F901F9029
:100F7000189580913C01882309F493C080913C012D
:100F8000853009F48EC04F9B8CC083B180FF89C02F
:100F90007AC04A9921C08091950190919701913032
:100FA00009F074C090919601913009F06FC01092D1
:100FB000950107C090919601992319F491E09093BF
:100FC00095012091950130E0992787FD909528178C
:100FD000390711F01092940181E0339980E08093F9
:100FE000970181E04A9980E0809396019091940165
:100FF000E0913901F0E0E05DFE4F80818917E8F56E
:101000001092940181E080939D0190913C01933076
:1010100009F442C090913C019430F1F190919A0111
:101020009923D1F5909195019093A20180939A0113
:1010300008C080913C01843041F4809195018093F7
:10104000A20180919501809338018091A2018823AB
:1010500021F082E390E004DD03C082E390E038DD1C
:1010600060911B0186E033DB87E061E030DBFADB77
:1010700010923701109236010895809194018F5F8C
:10108000809394010895339984CFA6CF90919701CE
:10109000992309F48FCF95CF80913C01833049F695
:1010A000CCCF08951F920F920FB60F9211242F9359
:1010B0003F934F935F936F937F938F939F93AF93E0
:1010C000BF93EF93FF9355DFFF91EF91BF91AF91E6
:1010D0009F918F917F916F915F914F913F912F9150
:1010E0000F900FBE0F901F9018951F920F920FB682
:1010F0000F9211240F900FBE0F901F901895CBDB0D
:1011000080E095DC10923C0180913C0180933B0192
:1011100083B7856083BFE9E6F0E08081837F8083C9
:10112000E99A1092AC0180E094DA88950895CF9303
:10113000E99883B78E7F83BF80913B01882309F4B0
:1011400058C080913B01853009F453C080913B0128
:1011500080933C018FEF99E6A8E181509040A04038
:10116000E1F700C0000081E074DA80E060DC4F9BB2
:1011700004C081E080933A013EC083B180FD0AC083
:1011800085E080933C0188EE93E06ADC81E0809307
:10119000AB0131C0C1E060911B018C2F41E0E1DB6C
:1011A0008FE798E3A1E081509040A040E1F700C0B4
:1011B0000000CF5FC73079F7C6E060911B018C2F2C
:1011C00041E0CFDB8FE798E3A1E081509040A04061
:1011D000E1F700C00000C15081F7609192018FE0FB
:1011E000DCDC80E991E0B3DC62DB81E08093A90183
:1011F00002C081E0ADCFCF9108951F920F920FB63C
:101200000F9211242F933F934F935F936F937F938C
:101210008F939F93AF93BF93EF93FF9388DFFF91DB
:10122000EF91BF91AF919F918F917F916F915F915E
:101230004F913F912F910F900FBE0F901F901895D7
:101240002A989EBD0DB407FEFDCF8EBD0DB407FEDE
:10125000FDCF2A9A08952A989EBD0DB407FEFDCFB2
:101260009EB5392F20E08EBD0DB407FEFDCF8EB5A3
:101270002A9A90E0822B932B08952A981EBC0DB4D5
:1012800007FEFDCF2A9A8EB508952A988EBD0DB41B
:1012900007FEFDCF6EBD0DB407FEFDCF2A9A08955F
:1012A0002A9880EB8EBD0DB407FEFDCF1EBC0DB499
:1012B00007FEFDCF2A9A8EB50895239A259A229A81
:1012C000249881E58CBD0895CF93D7DF87FF82C036
:1012D0008091AD018130E1F0813020F0823009F061
:1012E00071C058C0C1E0C093B001DADF80931E0224
:1012F000982F9D5F9093AF01E091B101F091B20101
:101300009081992309F05EC0C093AD01818362C0D2
:101310009091B0018091AF019817D8F4C1DF9091FE
:101320001E02982790931E022091B001213238F4BA
:10133000E091B101F091B201E20FF11D8183809142
:10134000B001823011F49F3FE9F58F5F8093B001C7
:1013500041C0E091B101F091B20182E080838091BF
:10136000B50190E00196817090708093B501282FAF
:1013700030E0C901880F991F55E0220F331F5A959D
:10138000E1F7820F931F89549E4F9093B20180938F
:10139000B10118C08091B0019091AF01891750F44C
:1013A000E82FF0E0E550FE4F60818F5F8093B00141
:1013B00088EB0FC01092AE0181E892E841DF88EB24
:1013C0006AEA63DF1092AD018AEC61E85EDF8AECC5
:1013D00063E85BDFCF9108958091AD01882369F5C3
:1013E00080E090E038DF90FF04C088EC80933D01FE
:1013F000089580913D01815080933D018823E9F457
:1014000081E080933D018091AE018130B1F481E0B3
:1014100092E816DF8091FD018A5F8093AF01109200
:10142000B00182E08093AD018AEA98EB09DF8AEA95
:1014300098EB06DF81E292E803DF08959091AE0118
:10144000992369F46093FD018093FE0186278095BE
:101450008093FF0181E08093AE0180E8089583E0EE
:101460000895CF93DF93C82FD62F8F3178F48091D2
:10147000AE01882369F420E032E0C901BA014C2FA3
:1014800050E0EED18D2F6C2FD9DF03C082E001C078
:1014900083E0DF91CF910895E091B301F091B40121
:1014A00010828091B60190E00196817090708093D7
:1014B000B601282F30E0C901880F991F75E0220F6F
:1014C000331F7A95E1F7820F931F89549E4F9093B3
:1014D000B4018093B30108952A9A229AEEDE87EE32
:1014E00090E8AEDE81E092E8ABDE80E496EAA8DE2A
:1014F00083EA96ECA5DE8CE294E9A2DE8BEA92EC1C
:101500009FDE81E89AEC9CDE87EF94EC99DE80E721
:1015100098E996DE80E098EC93DE80E090EE90DE35
:101520008DE28093FB0184ED8093FC0187EB91E0D9
:101530009093B4018093B3019093B2018093B10171
:1015400081E892E87DDEE9E6F0E0808188608083D2
:1015500080E090E080DEE19A81E89AEC71DE83E839
:101560009AEC6EDE0895AC01FC0120E030E070E002
:101570006CC081918F3F09F066C0C901059686173E
:1015800097070CF060C08091AA01FA01E20FF31FE7
:10159000882309F45FC084818C3009F05BC08181AD
:1015A00080933F0182818093400183818093410138
:1015B00086E061E08CD856D98FEF90E7A2E08150A9
:1015C0009040A040E1F700C0000086E060E07FD8D6
:1015D00049D98FEF90E7A2E081509040A040E1F719
:1015E00000C0000086E061E072D83CD98FEF90E740
:1015F000A2E081509040A040E1F700C0000086E0EA
:1016000060E065D82FD982E08093A9011092AA01E9
:101610000895928180914001981709F593818091F6
:1016200041019817E1F484818B30C9F485818130C0
:1016300019F48093AC010895823089F41092AC01C2
:1016400080938E0108952F5F3F4F261737070CF4C4
:1016500090CF0895918180913F019817D1F208951C
:1016600008950CD5C4D902D801DB15D9FBD8D2D93D
:1016700033DF78948FEF91EEA4E081509040A0404A
:10168000E1F700C000003BD584EF91E09093370173
:101690008093360100D9E6D8C8ECD0E006E910E026
:1016A000E091B301F091B4018081823049F4CF011F
:1016B00004969093430180934201618154DFECDEF4
:1016C00003DE5BD789DE80913A01882339F080916F
:1016D0008E01882319F410923A0111DD80918E0158
:1016E0008130E9F580919F019091A001A1E08C32B9
:1016F0009A0740F580919E01863098F486E061E07B
:1017000041E02FD986E061E0E2D787E061E0DFD7F2
:1017100088E061E0DCD7A6D88AE562E83EDA81E0BD
:101720000FC086E062E041E01CD986E062E0CFD7DE
:1017300087E061E0CCD788E061E0C9D793D880E04A
:1017400076D91EC080919F019091A001B1E08C32AA
:101750009B07B1F480E06BD99ED884D811C08091EA
:101760008E01823069F41092A00110929F0180E0F6
:101770005ED991D877D888E060E0A9D710928E0121
:1017800080913C01853001F580917D0190917E0131
:10179000B8013FD070934D0160934C0180917F015F
:1017A00090918001BE0135D070934F0160934E013E
:1017B0008091850190918601BE012BD070935101DB
:1017C00060935001E7D56CCF80917D0190917E01AF
:1017D000BE011FD070934D0160934C0180917F0139
:1017E00090918001BE0115D070934F0160934E011E
:1017F0008091850190918601BE010BD070935101BB
:101800006093500180919D01882309F049CFC4D491
:1018100047CFAA1BBB1B51E107C0AA1FBB1FA617BE
:10182000B70710F0A61BB70B881F991F5A95A9F789
:1018300080959095BC01CD01089597FB092E072650
:101840000AD077FD04D0E5DF06D000201AF47095A9
:1018500061957F4F0895F6F7909581959F4F089574
:10186000FB01DC0102C001900D9241505040D8F7BD
:101870000895F999FECF92BD81BDF89A992780B558
:101880000895262FF999FECF1FBA92BD81BD20BDC4
:101890000FB6F894FA9AF99A0FBE01960895F89443
:0218A000FFCF78
:1018A2000003060B0C171B140104070A0D111A146E
:1018B20002050F09161019146464060101020506D7
:1018C200075A64015A6E8CA0B4C8FA0F1E3C505AD3
:1018D200080F192D3C50F401020101010110FF0013
:0218E200000004
:00000001FF
