:1000000021C03BC0C7C239C038C037C036C035C0B8
:1000100034C033C032C031C030C02FC02EC02DC05C
:100020002CC02BC02AC029C028C03FC226C025C072
:1000300024C023C081C08DC0A2C0B7C0D3C0EFC050
:1000400004C118C111241FBECFEFD2E0DEBFCDBF67
:1000500011E0A0E0B1E0EEEFF5E002C005900D92F6
:10006000AA31B107D9F711E0AAE1B1E001C01D92B0
:10007000AF34B107E1F702D0C0C2C2CF19D066D207
:100080007FD2789485D1FFCF882339F080911801F1
:10009000853608F084E6809501C08FEF80931801C3
:1000A0008091180190E090938900809388000895D2
:1000B00080E0EADFA0E0B0E0FD01E65DFE4F1082E7
:1000C0001196A432B105C1F78C9180648C938C9108
:1000D00082608C93549A3C9A559A81E0D5DF809146
:1000E0008000896880938000809181008360809384
:1000F000810084B5896284BD85B5836085BD08951E
:10010000853608F084E68095809318018091180167
:1001100090E090938900809388000895873008F0DC
:10012000C6C0E62FF0E0E830F10508F0D9C0E65E81
:10013000FF4F282F30E0099420503F4FF901808174
:10014000A3E2B0E0FD01E81BF109E65DFE4F10827D
:100150000DC020503F4FF9018081A3E2B0E0FD01C6
:10016000E81BF109E65DFE4F81E08083F90180859F
:10017000FD01E81BF109E65DFE4F108248C02050EA
:100180003F4FF9018081A3E2B0E0FD01E81BF109D6
:10019000E65DFE4F1082F9018085FD01E81BF10943
:1001A000E65DFE4F81E0808332C020503F4FF90171
:1001B0008081A3E2B0E0FD01E81BF109E65DFE4F9E
:1001C0001082F9018085FD01E81BF109E65DFE4F13
:1001D0001082F9018089A81BB109A65DBE4F81E09C
:1001E0008C93089520503F4FF9018081A3E2B0E045
:1001F000FD01E81BF109E65DFE4F91E09083F901F6
:100200008085FD01E81BF109E65DFE4F9083F90151
:100210008089A81BB109A65DBE4F1C92089520508D
:100220003F4FF9018081A3E2B0E0FD01E81BF10935
:10023000E65DFE4F91E09083F9018085FD01E81BAA
:10024000F109E65DFE4F10822AC020503F4FF901B0
:100250008081A3E2B0E0FD01E81BF109E65DFE4FFD
:100260001082F9018085FD01E81BF109E65DFE4F72
:1002700091E014C020503F4FF9018081A3E2B0E02B
:10028000FD01E81BF109E65DFE4F91E09083F90165
:100290008085FD01E81BF109E65DFE4F9083F901C1
:1002A0008089A81BB109A65DBE4F9C930895873035
:1002B00049F4662321F081E080933901089510927A
:1002C00039010895883011F468BD0895893041F4EA
:1002D000662321F081E08093350108951092350165
:1002E000089520E030E0F901E65DFE4F8081813025
:1002F00011F42E9A01C02E985C9A5C982F5F3F4FA4
:100300002432310581F7449A4498089580E090E0C2
:10031000FC01E65DFE4F1082019684329105C1F723
:10032000E0DF08951F9310E0812F60E0F7DE1F5F8C
:100330001730D1F7D6DF1F910895CF92DF92EF9259
:10034000FF920F931F93CF93DF93182FD62EC42EB7
:10035000E9DF173008F016E0C0E0D0E005E0E12E5C
:10036000FF2409C0CC2011F0802F01C08C2F6D2DEF
:10037000D5DE21960150CE15DF05A4F3B2DFDF9163
:10038000CF911F910F91FF90EF90DF90CF90089544
:10039000EF92FF920F931F93CF93DF9301E088ECCE
:1003A000E82EF12CC0E4DCE986E0602FB7DE99DFAF
:1003B00088E893E1F7013197F1F70197D9F710E059
:1003C000812F602FABDE8DDF80ED97E0F701319755
:1003D000F1F70197D9F71F5F173091F724E6822FC5
:1003E0008095809318018091180190E09093890086
:1003F00080938800CE010197F1F7215080F720E02B
:10040000822F8095809318018091180190E090933D
:10041000890080938800CE010197F1F72F5F253680
:1004200079F774DF0F5F083009F0BECFC0E0D0E08D
:1004300008EC10E087E061E071DE53DF88E893E1CB
:10044000F8013197F1F70197D9F787E060E066DEB0
:1004500048DF88E893E1F8013197F1F70197D9F780
:100460002196C530D10531F710E0C8ECD0E088E026
:10047000612F54DE88E893E1FE013197F1F701978F
:10048000D9F788E060E04ADE88E893E1FE01319721
:10049000F1F70197D9F7165F143649F7DF91CF913D
:1004A0001F910F91FF90EF9008951F920F920FB63A
:1004B0000F9211242F933F934F938F939F93EF931A
:1004C000FF93E0914E01FF27E7FDF0952091780022
:1004D00040917900942F80E030E0822B932BEE0F37
:1004E000FF1FE65EFE4F9183808380914E018F5FF8
:1004F00080934E0180914E01843029F480914E0109
:100500008F5F80934E0180914E01883011F41092DC
:100510004E0180917C00807F80937C0080917C00E4
:1005200090914E01892B80937C0080917A008064A9
:1005300080937A00FF91EF919F918F914F913F911E
:100540002F910F900FBE0F901F901895ECE7F0E0E1
:10055000808180648083EAE7F0E080818F68808317
:10056000AEE7B0E08C918F638C9380818064808350
:10057000089584B5896884BD85B5836085BD089577
:100580008AB18C608AB9E9E6F0E080818C60808372
:10059000E99A08951F920F920FB60F9211242F938C
:1005A0003F934F935F936F937F938F939F93AF93FB
:1005B000BF93EF93FF9387E061E0B0DD92DE80EDC3
:1005C00097E028EC30E0F9013197F1F70197D9F77E
:1005D00087E060E0A3DD85DEFF91EF91BF91AF91F1
:1005E0009F918F917F916F915F914F913F912F914B
:0E05F0000F900FBE0F901F901895F894FFCF3C
:1005FE000003060B0C171B140104070A0D111A1425
:0A060E0002050F091610191464000C
:00000001FF
