:1000000021C03BC09ACB1BCAC0CAE2CA36C02DC6AB
:1000100085C633C032C031C030C02FC0B6C62DC077
:100020002CC02BC02AC029C028C001C526C025C0AD
:1000300024C023C0C3C3CBC3DBC3EAC3FFC316C4FE
:1000400026C43DC411241FBECFEFD4E0DEBFCDBF18
:1000500011E0A0E0B1E0EEE3FFE102C005900D92F7
:10006000A234B107D9F711E0A2E4B1E001C01D92BA
:10007000A23EB107E1F737DE60CFC2CF80E090E06B
:1000800046DF80931B0188E090E041DF80931A01F6
:1000900080E190E03CDF8093230188E190E037DF4E
:1000A00080933F0180E290E032DF8093400188E25C
:1000B00090E02DDF8093410180911B01873020F477
:1000C00080911B01882319F481E080931B018091AA
:1000D0001A01873020F480911A01882319F486E0F0
:1000E00080931A01FED280912301873020F4809101
:1000F0002301882319F481E08093230108958091DE
:100100007D0190917E0128EC30E0B901D0DE709342
:100110004D0160934C0180917F0190918001B90164
:10012000C6DE70934F0160934E01809185019091DE
:100130008601B901BCDE709351016093500180913A
:100140004C0190914D0194E0981B90939101809106
:100150004E0190914F0180939201809150019091B6
:10016000510180933C0180914C0190914D019093FD
:1001700053018093520180914E0190914F019093D1
:1001800055018093540180915001909151019093B9
:10019000570180935601089580917D0190917E01D1
:1001A0002091460130914701821B930B90934501AA
:1001B00080934401809144019091450197FF0BC0C9
:1001C0008091440190914501909581959F4F909326
:1001D00045018093440120914C0130914D01809163
:1001E0005201909153012817390739F08091440149
:1001F000909145018333910524F48091A7018130CA
:1002000049F58091A701813019F41092A70118C017
:1002100080914C0190914D0194E0981B9093910135
:1002200080914C0190914D01909353018093520124
:1002300080917D0190917E019093470180934601CA
:100240008091910160911B018E5F41E0EDD384E6C6
:1002500090E069D480917F019091800120914801C4
:1002600030914901821B930B909345018093440187
:10027000809144019091450197FF0BC0809144010A
:1002800090914501909581959F4F90934501809362
:10029000440120914E0130914F0180915401909181
:1002A00055012817390739F0809144019091450193
:1002B0008333910524F48091A701823041F5809128
:1002C000A701823019F41092A70116C080914E0147
:1002D00090914F018093920180914E0190914F0136
:1002E000909355018093540180917F0190918001FA
:1002F00090934901809348019091920160911B0174
:1003000086E0891B41E090D384E690E00CD4809194
:1003100085019091860120914A0130914B01821B09
:10032000930B9093450180934401809144019091F7
:10033000450197FF0BC08091440190914501909534
:1003400081959F4F909345018093440120915001E6
:10035000309151018091560190915701281739072A
:1003600039F080914401909145018333910524F443
:100370008091A701833039F58091A701833019F46A
:100380001092A70116C08091500190915101809365
:100390003C01809185019091860190934B0180935F
:1003A0004A0180915001909151019093570180939F
:1003B000560180913C0160911B018F5F41E034D375
:1003C00084E690E0B0D3089580917D0190917E0104
:1003D0002091460130914701821B930B9093450178
:1003E00080934401809144019091450197FF0BC097
:1003F0008091440190914501909581959F4F9093F4
:1004000045018093440120914C0130914D01809130
:100410005201909153012817390739F08091440116
:10042000909145018333910524F48091AA0188239A
:10043000F9F080914C0190914D018F5F80931B01E9
:1004400060911B0186E041E0EFD280914C019091D8
:100450004D01909353018093520180917D019091C1
:100460007E01909347018093460181E08093A8012B
:1004700080917F0190918001209148013091490144
:10048000821B930B9093450180934401809144011A
:100490009091450197FF0BC08091440190914501D7
:1004A000909581959F4F90934501809344012091B1
:1004B0004E0130914F0180915401909155012817C0
:1004C000390749F1809144019091450183339105A9
:1004D00014F120914E0130914F0186E0982F921B2C
:1004E0009093230120914E0130914F0160911B01A7
:1004F000821B41E099D280914E0190914F019093DF
:1005000055018093540180917F01909180019093D7
:100510004901809348018091850190918601209145
:100520004A0130914B01821B930B909345018093BC
:100530004401809144019091450197FF0BC0809147
:10054000440190914501909581959F4F909345016D
:1005500080934401209150013091510180915601C6
:10056000909157012817390729F180914401909102
:10057000450183339105F4F0809150019091510130
:1005800096E0981B90931A01ACD060911B0186E015
:1005900041E04AD2809150019091510190935701CE
:1005A00080935601809185019091860190934B0133
:1005B00080934A010895CF93DF9300D000D000D0FC
:1005C000CDB7DEB780913801813021F080913801BC
:1005D000882361F580913E01898380913F018A8360
:1005E000809140018B83809141018C8381E08D83D8
:1005F0009091380180919101209192012295220FD2
:10060000207E9F5F292B992787FD90950196880F63
:10061000991F880F991F282B2E8386E060E0AE017A
:100620004F5F5F4FBED982E0809338018091A8016F
:100630008823F9F080913E01898380913F018A836C
:10064000809140018B83809141018C838091A8012E
:10065000823011F484E001C083E08D8380911B011E
:100660008E8386E060E0AE014F5F5F4F9AD91092B3
:10067000A8018091A6018823E9F080913E01898339
:1006800080913F018A83809140018B838091410159
:100690008C8382E08D839091A601913011F49E832A
:1006A00001C08E8386E060E0AE014F5F5F4F79D975
:1006B0001092A60126960FB6F894DEBF0FBECDBFEE
:1006C000DF91CF910895853608F084E68093190173
:1006D0002FEF30E0281B31093093890020938800E8
:1006E000089590911A0181E1989F802D1124EBDFEC
:1006F0000895882391F080918800909189008F3F20
:100700009105B1F45D9A8FE39CE90197F1F700C080
:10071000000080911901D7DF08955D9840982F98C7
:100720005C982E988FEF90E09093890080938800DA
:100730000895CF93DF9380E0DCDFC0E0D0E0FE01DE
:10074000E75AFE4F10822196C432D105C1F7888145
:1007500080648883888182608883549A3C9A81E08F
:10076000C8DF80918000896880938000809181003B
:10077000836080938100389A559A5D9A8FE39CE953
:100780000197F1F700C00000888180688883DF91BD
:10079000CF910895282F873008F0A1C0862F90E0D0
:1007A0008830910508F0B9C0865E9F4FE22FF0E0D7
:1007B000E050FF4F30818F939F93089583E290E044
:1007C000DC01A31BB109A75ABE4F1C9209C083E2EA
:1007D00090E0DC01A31BB109A75ABE4F31E03C9366
:1007E0003085DC01A31BB109A75ABE4F1C9236C04D
:1007F00083E290E0DC01A31BB109A75ABE4F1C9213
:100800003085DC01A31BB109A75ABE4F31E025C0DA
:1008100083E290E0DC01A31BB109A75ABE4F1C92F2
:100820003085DC01A31BB109A75ABE4F1C92308949
:10083000831B9109875A9E4F31E03EC083E290E0CE
:10084000DC01A31BB109A75ABE4F31E03C934085A0
:10085000DC01A41BB109A75ABE4F3C933089831B0E
:100860009109875A9E4FFC01108257C083E290E0A5
:10087000DC01A31BB109A75ABE4F31E03C93408570
:10088000DC01A41BB109A75ABE4F1C9210C083E221
:1008900090E0DC01A31BB109A75ABE4F1C92308522
:1008A000DC01A31BB109A75ABE4F31E03C9340893C
:1008B000841B9109875A9E4FFC0130832EC083E22E
:1008C00090E0DC01A31BB109A75ABE4F31E03C9375
:1008D0004085DC01A41BB109A75ABE4FE7CF873082
:1008E00049F4662321F081E0809368010895109215
:1008F00068010895883049F4662321F081E08093EF
:100900006A01089510926A010895893069F4662396
:1009100011F0409A089540980895263029F46623EE
:1009200011F02F9A08952F98089580E090E0FC012F
:10093000E75AFE4F2081213011F42E9A01C02E98E3
:100940005C9A5C9801968432910589F7449A4498A0
:1009500081E0CFDE81E080935801089580E090E04F
:10096000FC01E75AFE4F1082019684329105C1F7CF
:10097000DCDF0895CF93C0E08C2F60E00BDFCF5F0A
:10098000C630D1F7D2DFCF9108958F929F92BF9258
:10099000CF92DF92EF92FF920F931F93CF93DF934B
:1009A00000D0CDB7DEB7182FF62EB42EE22E1A8265
:1009B0001982E0DF173008F016E01A821982C12E82
:1009C000DD2405E08DEF882E8FEF982E8C0C9D1C7A
:1009D00017C0EE2039F0153028F089819A818815EA
:1009E00099054CF089819A81BB2019F0202F281B92
:1009F000822F6F2DCFDE89819A8101969A83898318
:100A000089819A818C159D0524F38FDF0F900F90BB
:100A1000DF91CF911F910F91FF90EF90DF90CF90DA
:100A2000BF909F908F90089520E0AFDF08951F92B0
:100A30000F920FB60F9211248F939F93EF93FF9312
:100A4000E0918D01FF27E7FDF0958091780090916E
:100A50007900EE0FFF1FE358FE4F91838083809152
:100A60008D018F5F80938D0180918D01853014F011
:100A700010928D0180917C00807F80937C0090910A
:100A80007C00E0918D01FF27E7FDF095E45EFE4FCD
:100A90008081892B80937C0080917A008064809390
:100AA0007A00FF91EF919F918F910F900FBE0F9061
:100AB0001F901895ECE7F0E0808180648083EAE77E
:100AC000F0E080818F688083AEE7B0E08C91866231
:100AD0008C938081806480830895569AE0E7F0E0EB
:100AE00080818660808381E08093B30082E0809380
:100AF000B4000895181634F48091B1008460809396
:100B0000B1000895882371F48091B1008B7F8093A8
:100B1000B1005E981092B20081E08093B30082E051
:100B20008093B4000895CF93DF93EC01809123016B
:100B3000823030F080918F0190919001009721F4E4
:100B4000809191018F3F01F580918E01882301F101
:100B50001BC0E0919201F0E0EC5DFE4F808180933C
:100B60002201E0919101FF27E7FDF095E55DFE4F41
:100B700080818093210181E0BDDFCE0162E370E0DE
:100B8000AAD96093930104C080919301882309F34B
:100B9000DF91CF910895CF93DF93EC0180912301F2
:100BA000823030F080918F0190919001009721F474
:100BB000809191018F3F39F580918E01882339F121
:100BC00022C080919201E0919201F0E0882319F413
:100BD000EB5DFE4F02C0ED5DFE4F808180932201F0
:100BE000E0919101FF27E7FDF095E55DFE4F8081E3
:100BF0008093210181E07EDFCE0162E370E06BD95A
:100C00006093930104C0809193018823D1F2DF9116
:100C1000CF910895CF93DF93EC018091230182302F
:100C200030F080918F0190919001009721F4809194
:100C300091018F3F71F480918E01882371F009C07A
:100C400081E058DFCE0162E370E045D96093930103
:100C500004C080919301882399F3DF91CF91089587
:100C6000809321016093220108951F920F920FB685
:100C70000F9211242F933F934F935F936F937F9322
:100C80008F939F93AF93BF93CF93DF9300D0CDB754
:100C9000DEB780912201869590E09A83898329812D
:100CA0003A814091210150E0429FC001439F900D45
:100CB000529F900D11249A83898389819A8164E6D9
:100CC00070E0F5D87A8369832091B30089819A8195
:100CD0002091B30089819A81280F2093B40020913C
:100CE000B300809122019091B30080912201890F7D
:100CF0008093B3005E9A0F900F90DF91CF91BF91D8
:100D0000AF919F918F917F916F915F914F913F91A3
:100D10002F910F900FBE0F901F9018951F920F925A
:100D20000FB60F9211245E980F900FBE0F901F9078
:100D300018952098289A3B98439A8AB183778AB964
:100D40008BB18C688BB9E8E6F0E0808187608083A6
:100D5000EBE6F0E0808181608083ECE6F0E080816A
:100D600088608083EDE6F0E080818468808384B5CC
:100D7000826084BD85B5856085BDEEE6F0E080814A
:100D8000826080838FEF87BD08951F920F920FB608
:100D90000F9211242F933F934F935F936F937F9301
:100DA0008F939F93AF93BF93CF93EF93FF938091D4
:100DB000AB01882329F480912301823008F41FC3FA
:100DC00089E061E0E7DC80919301882389F08091DC
:100DD000A3018F5F8093A3019091A3018091930160
:100DE000891730F480E086DE1092A30110929301FF
:100DF00080918E018130E9F480919C0190919D0158
:100E000021E08633920748F480919C0190919D01E6
:100E1000019690939D0180939C0180919B018A3063
:100E200030F480919B018F5F80939B0102C01092F0
:100E30009B018091AA01813009F4EFC280913B01AE
:100E4000853009F0A1C080919E018F5F80939E0143
:100E500080919E018D3360F010929E0188E061E0E8
:100E600099DC8091A901882369F087E061E009C0DD
:100E700080919E018F3138F088E060E08BDC87E064
:100E800060E088DC52DD8091A501882309F46AC204
:100E900083B180FD12C08091A501883228F4809131
:100EA000A5018F5F8093A5018091A5018E3109F086
:100EB00059C281E08093A90155C28091A5018F316B
:100EC00008F04EC28091A5018F3008F049C288E039
:100ED00061E060DC2ADD8FEF90E7A2E08150904076
:100EE000A040E1F700C0000088E060E053DC1DDDB9
:100EF0008FEF90E7A2E081509040A040E1F700C062
:100F0000000088E061E046DC10DD8FEF90E7A2E0B2
:100F100081509040A040E1F700C0000088E060E010
:100F200039DC03DDF999FECF60911B0180E090E090
:100F3000F6D7F999FECF60911A0188E090E0EFD7DB
:100F4000F999FECF6091230180E190E0E8D7F9990B
:100F5000FECF88E190E060913F01E1D7F999FECFA3
:100F600080E290E060914001DAD7F999FECF88E203
:100F700090E060914101D3D7F999FECF1092A5017D
:100F800081E080933901EEC180913B01882309F40F
:100F9000E9C180912301823000F180918F0190910D
:100FA00090010097D1F080918F019091900101966E
:100FB0009093900180938F0120918F013091900147
:100FC0009091230188EC989FC00111248217930708
:100FD00020F41092900110928F0180919801882343
:100FE00081F1809198018F5F8093980180919801A1
:100FF000833038F180919701863018F5BBDC809101
:101000009F01882329F48091970160911B0106C0FC
:101010009091970160911B0185E0891BBBDB85DC0A
:10102000809197018F5F809397018091970186301F
:1010300029F4109298011092970103C081E08093E7
:1010400098018091810190918201A3E081329A07F9
:1010500048F080919901883228F4809199018F5F3E
:10106000809399018091810190918201B1E0803952
:101070009B0748F480919901882329F08091990178
:10108000815080939901809123018230B8F0809142
:101090009901853198F080919A01882379F48091A3
:1010A0008F0190919001009749F481E090E0909336
:1010B000900180938F0181E080939A0180912301B8
:1010C000823050F0809199018A3030F480919A01F9
:1010D000813011F410929A0180913601909137017C
:1010E00021E080399207F0F5809136019091370127
:1010F0000196909337018093360180919F01882358
:1011000011F58091A0019091A10101969093A10108
:101110008093A0018091A0019091A1018730910559
:1011200090F0809136019091370180FD04C060916C
:101130001B0186E002C086E060E02CDBF6DB10924B
:10114000A1011092A0018091360190913701A1E098
:1011500080399A0739F487E060E01CDB86E060E0C4
:1011600019DBE3DB8091AB01882381F48091580186
:10117000882361F0809158018F5F8093580180919E
:101180005801873918F010925801E8DB80913B0133
:10119000823021F080913B01843071F58091830190
:1011A000909184018530910540F48091A2018233B1
:1011B000A0F48091A2018F5F0EC08091A2018823CC
:1011C00061F080918301909184018B30910528F02A
:1011D0008091A20181508093A2018091A2018F3160
:1011E00018F088E061E006C08091A201882321F414
:1011F00088E060E0CFDA99DB8091AB01882309F4C5
:1012000001C18091810190918201B1E080399B07F9
:1012100008F0F8C081E00DC08091810190918201B9
:1012200023E08132920738F080918E01813019F4E9
:1012300082E080938E018091A501882309F492C0F9
:1012400083B180FD51C08091A501883228F480913E
:10125000A5018F5F8093A5018091A5018F3108F4CE
:1012600081C09091AB0181E0911180E08093AB014E
:101270008091AB01882319F186E061E08BDA55DBC0
:101280008FEF92E5A7E081509040A040E1F700C0C9
:10129000000086E062E07EDA48DB8FEF92E5A7E0AF
:1012A00081509040A040E1F700C0000086E060E07F
:1012B00071DA3BDB10929D0110929C0151C086E0D7
:1012C00063E068DA32DB8FEF92E5A7E0815090406F
:1012D000A040E1F700C0000086E060E05BDA25DBBB
:1012E00082E080938E013CC08091A5018823D1F1DA
:1012F0008091A5018F30B0F580913B01843020F4BE
:1013000080913B018F5F01C081E080933B01809120
:101310003B01823021F080913B018430D1F488E0A0
:1013200061E038DA02DB8FE799EAA3E08150904070
:10133000A040E1F700C0000088E060E02BDAF5DAB9
:101340008FE799EAA3E081509040A040E1F700C008
:10135000000084EF91E09093370180933601FEDA2C
:101360001092A5014F9954C08091A401882309F4DB
:101370004FC08091A501882309F04AC08091A40143
:10138000883228F48091A4018F5F8093A40180911A
:10139000A4018F3158F1C1E060911B018C2F40E016
:1013A00043DB8FE798E3A1E081509040A040E1F754
:1013B00000C00000CF5FC73079F7C6E060911B0125
:1013C0008C2F40E031DB8FE798E3A1E08150904023
:1013D000A040E1F700C00000C15081F71092A401C5
:1013E00081E08093390102C01092A4018091A5018F
:1013F000882399F0189B11C01092A5010EC089E0B6
:1014000060E0E0CC8091AB01882309F005CF13CFD9
:101410008091A401882341F7E9CFFF91EF91CF910B
:10142000BF91AF919F918F917F916F915F914F91FC
:101430003F912F910F900FBE0F901F9018951F9204
:101440000F920FB60F9211248F939F938FE19EE41A
:101450000197F1F700C0000083B180FD0EC08091BC
:10146000A501882351F48091AA01882321F481E009
:101470008093A50102C01092AA019F918F910F90B5
:101480000FBE0F901F90189580913B01882309F49F
:101490007BC080913B01853009F476C04F9B74C0BE
:1014A00083B180FF71C068C04A9909C080919601DC
:1014B000813019F48093950102C01092950126B1F4
:1014C00091E04A9990E081E023FF80E0981729F0AD
:1014D00081E0339980E08093960190919401E091AE
:1014E0003C01F0E0E05DFE4F80818917D8F5109255
:1014F000940180913B01833009F441C080913B010C
:101500008430E9F1809198018823C9F58091950193
:1015100080939F0181E08093980108C080913B01F6
:10152000843041F48091950180939F0180919501D1
:101530008093380180919F01882321F082E390E01D
:10154000F2DA03C082E390E026DB60911B0186E0C3
:1015500021D987E061E01ED9E8D9109237011092B5
:10156000360105C0809194018F5F8093940185E3DB
:101570008A95F1F700000895339996CFA0CF809116
:101580003B01833059F6CECF08951F920F920FB6CC
:101590000F9211242F933F934F935F936F937F93F9
:1015A0008F939F93AF93BF93EF93FF936DDFFF9163
:1015B000EF91BF91AF919F918F917F916F915F91CB
:1015C0004F913F912F910F900FBE0F901F90189544
:1015D0001F920F920FB60F9211242F933F934F93A8
:1015E0005F936F937F938F939F93AF93BF93EF938B
:1015F000FF934F9912C08091A401882371F48091C8
:10160000A501882351F48FE19EE40197F1F700C012
:10161000000081E08093A40101C036DFFF91EF91CB
:10162000BF91AF919F918F917F916F915F914F91FA
:101630003F912F910F900FBE0F901F9018958ED94C
:1016400080E058DA10923B0180913B0180933A018F
:1016500083B7856083BFE9E6F0E08081837F808384
:10166000E99A1092AB0180E044D888950895CF9311
:10167000E99883B78E7F83BF80913A01882309F46C
:1016800058C080913A01853009F453C080913A01E5
:1016900080933B018FEF99E6A8E181509040A040F4
:1016A000E1F700C0000081E024D880E023DA4F9BFE
:1016B00004C081E0809339013EC083B180FD0AC03F
:1016C00085E080933B0188EE93E02DDA81E0809302
:1016D000AA0131C0C1E060911B018C2F41E0A4D967
:1016E0008FE798E3A1E081509040A040E1F700C06F
:1016F0000000CF5FC73079F7C6E060911B018C2FE7
:1017000041E092D98FE798E3A1E081509040A0405A
:10171000E1F700C00000C15081F7609192018FE0B5
:101720009FDA80E991E076DA25D981E08093A801FB
:1017300002C081E0ADCFCF9108951F920F920FB6F6
:101740000F9211242F933F934F935F936F937F9347
:101750008F939F93AF93BF93EF93FF9388DFFF9196
:10176000EF91BF91AF919F918F917F916F915F9119
:101770004F913F912F910F900FBE0F901F90189592
:101780002A989EBD0DB407FEFDCF8EBD0DB407FE99
:10179000FDCF2A9A08952A989EBD0DB407FEFDCF6D
:1017A0009EB5392F20E08EBD0DB407FEFDCF8EB55E
:1017B0002A9A90E0822B932B08952A981EBC0DB490
:1017C00007FEFDCF2A9A8EB508952A988EBD0DB4D6
:1017D00007FEFDCF6EBD0DB407FEFDCF2A9A08951A
:1017E0002A9880EB8EBD0DB407FEFDCF1EBC0DB454
:1017F00007FEFDCF2A9A8EB50895239A259A229A3C
:10180000249881E58CBD0895CF93D7DF87FF82C0F0
:101810008091AC018130E1F0813020F0823009F01C
:1018200071C058C0C1E0C093AF01DADF8093E1011D
:10183000982F9D5F9093AE01E091B001F091B101BE
:101840009081992309F05EC0C093AC01818362C08E
:101850009091AF018091AE019817D8F4C1DF9091BB
:10186000E10198279093E1012091AF012D3038F4E8
:10187000E091B001F091B101E20FF11D81838091FF
:10188000AF01823011F49F3FE9F58F5F8093AF0184
:1018900041C0E091B001F091B10182E0808380917C
:1018A000B40190E00196817090708093B401282F6C
:1018B00030E0220F331FC90143E0880F991F4A957A
:1018C000E1F7821B930B8A549E4F9093B101809352
:1018D000B00118C08091AF019091AE01891750F40A
:1018E000E82FF0E0EE52FE4F60818F5F8093AF01F2
:1018F00088EB0FC01092AD0181E892E841DF88EBE0
:101900006AEA63DF1092AC018AEC61E85EDF8AEC80
:1019100063E85BDFCF9108958091AC01882369F57E
:1019200080E090E038DF90FF04C088EC80933D01B8
:10193000089580913D01815080933D018823E9F411
:1019400081E080933D018091AD018130B1F481E06F
:1019500092E816DF8091D4018A5F8093AE011092E5
:10196000AF0182E08093AC018AEA98EB09DF8AEA52
:1019700098EB06DF81E292E803DF08959091AD01D4
:10198000992369F46093D4018093D50186278095CB
:101990008093D60181E08093AD0180E8089583E0D3
:1019A0000895CF93DF93C82FD62F8B3078F4809192
:1019B000AD01882369F427ED31E0C901BA014C2F4C
:1019C00050E09CD28D2F6C2FD9DF03C082E001C084
:1019D00083E0DF91CF910895E091B201F091B301DE
:1019E00010828091B50190E0019681709070809393
:1019F000B501282F30E0220F331FC90163E0880FA3
:101A0000991F6A95E1F7821B930B8A549E4F90931E
:101A1000B3018093B20108952A9A229AEEDE87EEEE
:101A200090E8AEDE81E092E8ABDE80E496EAA8DEE4
:101A300083EA96ECA5DE8CE294E9A2DE8BEA92ECD6
:101A40009FDE81E89AEC9CDE87EF94EC99DE80E7DC
:101A500098E996DE80E098EC93DE80E090EE90DEF0
:101A60008DE28093D20184ED8093D30186EB91E0E7
:101A70009093B3018093B2019093B1018093B00130
:101A800081E892E87DDEE9E6F0E08081886080838D
:101A900080E090E080DEE19A81E89AEC71DE83E8F4
:101AA0009AEC6EDE089581E092E86ADE8AEA98EBAD
:101AB00067DE80E090E06FDE81E092E861DE8FEF2C
:101AC00090EE5EDE83E092E85BDE08950895CF93AA
:101AD000DF9300D0CDB7DEB7AC011A821982FC01CA
:101AE00020E030E070E0E2C081918F3F09F0DCC07F
:101AF000C9010596861797070CF0D6C08091A901F9
:101B0000FA01E20FF31F882309F4D5C084818C30D9
:101B100009F0D1C0818180933F018281809340018F
:101B200083818093410186E061E034D6FED68FEF59
:101B300090E7A2E081509040A040E1F700C0000093
:101B400086E060E027D6F1D68FEF90E7A2E08150E3
:101B50009040A040E1F700C0000086E061E01AD6A6
:101B6000E4D68FEF90E7A2E081509040A040E1F7EB
:101B700000C0000086E060E00DD6D7D682E08093FA
:101B8000A8011092A901A9C09281809140019817E3
:101B900009F0A3C0938180914101981709F09DC07D
:101BA00084818B3009F46FC08D3009F479C08A309C
:101BB00009F093C08581982F9F70998390E024E06D
:101BC000959587952A95E1F78A838A81882309F478
:101BD00084C08A81843008F080C08981882309F418
:101BE0007CC08981833008F078C08A818230E1F03E
:101BF000833089F1813009F042C08981823009F057
:101C000060C08091910184300CF05BC080919101A3
:101C10008F5F07C08091910187FD31C08091910154
:101C20008150809391012BC08981813009F04DC092
:101C300080919201853008F048C0809192018F5FB9
:101C400007C0809192018823D1F080919201815048
:101C50008093920114C089818130D9F580913C0133
:101C60008630B8F580913C018F5F07C080913C01C0
:101C7000882329F080913C01815080933C018A8126
:101C80008093A7012AC08581813019F48093AB012C
:101C900024C0823011F51092AB0180938E011DC0DB
:101CA00081E08093A80119C02F5F3F4F26173707A7
:101CB0000CF41ACF12C0918180913F01981769F4FA
:101CC00063CF89818130D9F6A5CF89818230B9F679
:101CD000B8CF8981823099F6C9CF0F900F90DF91EC
:101CE000CF910895089525D8C9D1E4D622D536D606
:101CF0001CD6F3D691DE78948FEF91EEA4E081505C
:101D00009040A040E1F700C00000F9D184EF91E0DD
:101D1000909337018093360121D607D6C8ECD0E0E6
:101D200006E910E080913901882339F080918E0115
:101D3000882319F41092390182DC80913B018823B9
:101D400089F320918E01213009F046C080919C01D9
:101D500090919D01A1E08C329A0788F580919C01B9
:101D600090919D018A30910511F42093A6018091F4
:101D70009B01863098F486E061E041E055D686E02C
:101D800061E008D587E061E005D588E061E002D533
:101D9000CCD58AE562E864D781E00FC086E062E0D6
:101DA00041E042D686E062E0F5D487E061E0F2D41B
:101DB00088E061E0EFD4B9D580E09CD621C0809165
:101DC0009C0190919D01B1E08C329B07C9F480E0A9
:101DD00091D6C4D5AAD514C0F0908E0122E0F21697
:101DE00079F410929D0110929C0180E083D6B6D5C3
:101DF0009CD588E060E0CED4F092A60110928E01CE
:101E000080913B01853001F580917D0190917E01AB
:101E1000B8014DD070934D0160934C0180917F01CA
:101E200090918001BE0143D070934F0160934E01A9
:101E30008091850190918601BE0139D07093510146
:101E400060935001C1D21FC080917D0190917E01AD
:101E5000BE012DD070934D0160934C0180917F01A4
:101E600090918001BE0123D070934F0160934E0189
:101E70008091850190918601BE0119D07093510126
:101E80006093500189D1E091B201F091B30180815A
:101E9000823049F4CF01049690934301809342012C
:101EA000618115DE99DDB0DC86D336DD3BCFAA1B20
:101EB000BB1B51E107C0AA1FBB1FA617B70710F035
:101EC000A61BB70B881F991F5A95A9F78095909567
:101ED000BC01CD01089597FB092E07260AD077FD96
:101EE00004D0E5DF06D000201AF4709561957F4F8D
:101EF0000895F6F7909581959F4F0895FB01DC01B9
:101F000002C001900D9241505040D8F70895F999C0
:101F1000FECF92BD81BDF89A992780B50895262FEE
:101F2000F999FECF1FBA92BD81BD20BD0FB6F894BE
:0E1F3000FA9AF99A0FBE01960895F894FFCF21
:101F3E000003060B0C171B140104070A0D111A14CB
:101F4E0002050F0916101914646406010102050634
:101F5E00075A64015A6E8CA0B4C8FA0F1E3C505A30
:101F6E00080F192D3C50F401020101010110FF0070
:021F7E00000061
:00000001FF
